:020000020000FC
:02000400DAD050
:02000800D8D04E
:02000C00D6D04C
:02001000D4D04A
:02001400D2D048
:02001800D0D046
:02001C00CED044
:02002000CCD042
:02002400CAD040
:02002800C8D03E
:02002C00C6D03C
:02003000C4D03A
:02003400C2D038
:02003800C0D036
:02003C00BED034
:02004000BCD032
:02004400BAD030
:02004800B8D02E
:02004C00B6D02C
:02005000B4D02A
:02005400B2D028
:02005800B0D026
:02005C00AED024
:02006000ACD022
:10006400AAD00008000400701A000A0041546D650B
:1000740067613332385007FF3E72782D627566002F
:1000840000004400082F10911001E0E0F1E0E10FBE
:10009400F31D008313951F7010931001899199919A
:1000A4000C94043806FF6973722D72783D00003891
:1000B4003C38C6009738B0383C380300D53B353857
:1000C4006400253D43001F3800383C3859003C3853
:1000D4002400240A3C3800013C3816005339823E7F
:1000E4001F3806FF72782D6275665400003893003D
:1000F400353879003C3811019738B0383C38000164
:100104009C399738C3382E3A3C380F00123A3C38A1
:1001140011018C381F3807FF72783F2D6275660015
:10012400730000381D3D3C38110197383C381001EC
:10013400973810391F3807FF74782D706F6C6C0076
:100144008D000038B1003538A4003C38C6008C3826
:100154001F3808FF74783F2D706F6C6C9D00003859
:100164001D3D3C38C00097383C382000123A1F38F7
:1001740004FF75627272AB006E388E008A3D943D46
:1001840006FF2B7573617274BA0000383C3898000E
:100194003C38C1008C383C3806003C38C2008C38EE
:1001A400BE00B038F83A3C38C5008C383C38C4003E
:0601B4008C3866001F38C4
:040000000C94263DF9
:1001BA000A920FB60A920F900F900A94BB2001F090
:1001CA00B02CFF93EF93E2E1F1E00694E00DF31D0A
:1001DA00008003940082EF91FF9109900FBE09906D
:1001EA00089502FF6D2BC2000038B13F2B3C1F3827
:1001FA0003FF75642A00F6000038B038FE38DF398C
:10020A00D838C338F538DF39E0389C391F3804FF4D
:10021A00756D6178FD000038B33E5B3935381601DB
:10022A00C338D8381F3804FF756D696E0C01003861
:10023A00B33E663935382201C338D8381F380038FA
:10024A003C380080123A173935382D01DC3B1F380B
:10025A004A391F380AFF6E616D653E666C616773C5
:10026A0018010038C03B3C3800FF123A1F3803FF20
:10027A00316D73002F014101E0EAFFE03197F1F798
:10028A000C94043803FF766572003C010038A6021C
:10029A00CF03983FA73E7838B4022B3FB13FED0217
:1002AA00F5023C382E00DE020B0316030504A73EB6
:1002BA008038983FBC02CF031F3806FF756E7573EE
:1002CA006564470100388C3A0D3F92391F380200A5
:1002DA00746F620100381404BA3FA13E7838353889
:1002EA00800144077A014F071F380038F538B038C3
:1002FA008C01FE38C03BB0388C018C01C03B2938D8
:10030A001F3807FF692D63656C6C2B006C01003880
:10031A002E3A1F3808FF69636F6D70617265860136
:10032A000038FE38CE38F53810393538A001BC3ED1
:10033A00D8384A391F38C33853390E083538C501F9
:10034A009A3ACE387838C801CE38C03BC801B0389E
:10035A003C3800015B393538B601C3383C38FF00F8
:10036A00123A10393538BD01BC3E4A39D33A1F38E2
:10037A002E3AC338A63CC3383C380200B93AA60123
:10038A00BC3E53391F380038B0383C38FF00123AA7
:10039A00633FC338F83A3C38FF00123A633FF83AF1
:1003AA001B3A1F3801FF2A008F010038A539D838B7
:1003BA001F3801FF6A00D7010038753A3C38070038
:1003CA009C397838753A3C3809009C3978389C3918
:1003DA001F3804FF64616273DE010038B0381E39C9
:1003EA003538F801FF011F3807FF646E65676174CD
:1003FA006500EE010038513CDC3B53392B3C1F3879
:10040A0005FF636D6F766500F9010B02BF93AF9329
:10041A00E991F991A991B991092F082B21F01D9120
:10042A0011930197E1F7AF91BF91899199910C943A
:10043A00043805FF32737761700005020038E0382E
:10044A00FE38E038F5381F380AFF726566696C6C49
:10045A002D7469621E0200384C023C385A0064044A
:10046A00520280385339CC3E80384A391F380AFF45
:10047A00736F757263652D746962290200384C02C4
:10048A00520278381F3803FF746962003C02473809
:10049A002C0104FF2374696248024738860106FF6B
:1004AA0065653E72616D4E02003853399A3ACE380C
:1004BA00543BCE388038A63CC338A63CC338C83A29
:1004CA005C02BC3E1F3808FF696E69742D72616D4B
:1004DA00540200383C386A00013B3C382400033A95
:1004EA0059021F380BFF656E7669726F6E6D656E05
:1004FA00740068024738440009FF776F72646C69B8
:10050A0073747300000000383C3808001F3804FF79
:10051A002F706164810200388C3AD23E92391F38BA
:10052A0005FF2F686F6C64008C020038D23E0D3FC5
:10053A0092391F380AFF666F7274682D6E616D6595
:10054A00950200389C030700616D666F727468003B
:10055A001F3807FF76657273696F6E009F02003855
:10056A003C3845001F3803FF63707500AE0200383F
:10057A003C383700FB031F3808FF6D63752D696E21
:10058A00666FB80200383C3833001F3805FF2F75F4
:10059A0073657200C10200383C382E001F3803FF11
:1005AA00686C640077024738880104FF686F6C64DE
:1005BA00D4020038D802B0387838343AB038FE3825
:1005CA00C3388038F5388C381F3802FF3C23DA02EA
:1005DA000038D23ED80280381F3801FF2300EA02D1
:1005EA000038A73E78387203E0383C380900CE3824
:1005FA006D39353803033C3807009C393C383000E4
:10060A009C39DE021F3802FF2373F2020038F5021A
:10061A00B33E1B3A173935380C031F3802FF233E05
:10062A0008030038BC3ED8027838D23ECE38923918
:10063A001F3804FF7369676E130300381E39353893
:10064A0029033C382D00DE021F3803FF642E720096
:10065A001E030038FE38C43EF201ED020B03E038F7
:10066A0022031603F538CE389239A13F05041F3804
:10067A0002FF2E722A030038FE38B13FF5382E03E6
:10068A001F3802FF642E3D03003853392E03983F6A
:10069A001F3801FF2E0046030038B13F49031F38B7
:1006AA0003FF75642E004E03003853396203983FE6
:1006BA001F3804FF75642E7255030038FE38ED02A8
:1006CA000B031603F538CE389239A13F05041F38BB
:1006DA0006FF75642F6D6F645E030038FE38533968
:1006EA000539C139F538C338FE38C139F5381F38EC
:1006FA0006FF64696769743F6D030038503FB0387C
:10070A003C38390077393C380001123A9C39B03804
:10071A003C38400177393C380701123A92393C3863
:10072A0030009239B038A73E78385B391F38003824
:10073A000539FB03F538CE382E3A033A9C392E3A5E
:10074A00FE381F3802FF732C7D030038B038AE0321
:10075A001F3800384F07B038033AC43E0A3A923974
:10076A00FE3853390E083538C1039A3AB03878380A
:10077A004F07A63CC83ABB03F53825393538C803B4
:10078A00B03897384F07D8381F3805FF6974797021
:10079A006500A7030038B038033AC43E0A3A9239D2
:1007AA00FE3853390E083538E3039A3AB038C03B5D
:1007BA00B038F003EC032E3AC83ADB03F538253992
:1007CA003538EA03B038C03BF003D8381F38003850
:1007DA00F83AF0031F3800383C38FF00123ADC3E82
:1007EA001F3806FF69636F756E74CA030038B03824
:1007FA002E3AC338C03B1F3804FF74797065F6037C
:10080A000038833F0E08353810049A3AAB3A9738C5
:10081A00DC3EC83A0B041F3801FF270001040038E8
:10082A009405D205DD05B0387306D53BC338C03B05
:10083A003C38BF3FD53B1B3A353826043C38F3FFDA
:10084A00733DD8381F3805FF63736B697000110454
:10085A000038FE38B03835383C04CE389738053978
:10086A00D53B35383C04DC3B85052E382F04F5385A
:10087A00D8381F3805FF637363616E002804003897
:10088A00FE38CE38B03897380539D53B1739353860
:10089A005904C338343AC338CE381E391739353873
:1008AA0059042E3A2E384704EF38CE389239F538A3
:1008BA00D8381F3806FF6163636570743F040038D7
:1008CA00CE389C39CE38ED3EB038AD0417393538BC
:1008DA00A004B0383C380800D53B35388604D838EF
:1008EA00E038B33E7739FE38E038E038F538353845
:1008FA008404A504343AFE38CE38F53810012E386F
:10090A009E04B0383E3F6D3935388D04D8383E3FA5
:10091A00FE38B33E7739F538C33835389D04B038D8
:10092A00DC3ECE388C382E3ACE381C012E389E0446
:10093A00D8382E386804D838EF38C33892391F3877
:10094A0000383C380800B038DC3E983FDC3E1F389F
:10095A000038B0383C380D00D53BC3383C380A0063
:10096A00D53B1B3A1F3806FF726566696C6C5F04DB
:10097A00E93D1A00B23DBE3D04FF63686172B804E6
:10098A000038940517393538CD043C38F0FF733DEB
:10099A0097381F3806FF6E756D626572C10400389C
:1009AA00A73E7838FE381805FE382B051805F538A5
:1009BA001B3AFE38B03817393538EB04BC3EF538E7
:1009CA00D838F538A73E803853391F38133B533986
:1009DA005339223B4905B83835380D05DC3BD53B40
:1009EA003538040597383C382E00D53B353805058F
:1009FA00F53835380105FF01E13B2E381305D838A3
:100A0A00BC3EF538D838F538A73E803853391F38F8
:100A1A00BC3EF53835381205113EDC3BF538A73EA9
:100A2A0080384A391F380038CE3897383C382D007C
:100A3A00D53BB038FE3835382405DC3B8505F5381A
:100A4A001F3851380A00100002000A000038CE3858
:100A5A0097383C3823009239B03853393C3804006F
:100A6A00413E3538410526059C39C03BA73E8038B2
:100A7A00DC3B85052E384205D8381F3807FF3E6E05
:100A8A00756D62657200CF040038B038353861057B
:100A9A00CE3897388203173935385505D8381F3874
:100AAA00FE382302A73E78380101F538F9002302FF
:100ABA00DC3B85052E384A051F3805FF70617273C5
:100ACA00650043050038FE387B05CC3E783885053D
:100ADA00F5384404B0382E3ACC3E643ADC3B8505FE
:100AEA001F3806FF736F757263656205E93D16006C
:100AFA00B23DBE3D07FF2F737472696E67007605BB
:100B0A000038E038CE389C39E038E03892391F385E
:100B1A000AFF70617273652D6E616D657F0500381D
:100B2A003E3F98051F380038FE387B05CC3E7838A2
:100B3A00850505392D04F5384404B33E9C397B05F7
:100B4A00D8389239CC3E80381F3803FF7370300092
:100B5A008D056E380600B23DBE3D03FF727030004F
:100B6A00AA050038BA0578381F385738040005FF37
:100B7A00646570746800B2050038AE058C3A923923
:100B8A00033A343A1F3810FF666F7274682D726523
:100B9A00636F676E697A6572BC056E383E008A3D7E
:100BAA00943D09FF7265636F676E697A6500C805CF
:100BBA0000383C38E805C3388F0917393538E70556
:100BCA00BC3E73061F380038E038E038B33E133BAA
:100BDA00E0382938223BE038B0387306D53B35383F
:100BEA00F905D83853391F38EF38EF384A391F38E2
:100BFA0009FF696E7465727072657400D6050038F3
:100C0A009405B03835381506D205DD05A13E783889
:100C1A00353810068C01C03B2938753F2E38050639
:100C2A00BC3E1F380BFF726563747970652D6E7553
:100C3A006D00FD055138BF3F650765070CFF7265FA
:100C4A0063747970652D646E756D17065138BF3FF0
:100C5A00CD3BCD3B07FF7265632D6E756D00230694
:100C6A000038D40435384106DC3BD53B35383F06DD
:100C7A001F061F382B061F3873061F3808FF7265B8
:100C8A00632D66696E642F060038E806B038173996
:100C9A0035385206D83873061F385B061F380AFFE4
:100CAA00726563747970652D7874430651385F06EE
:100CBA006306CD3B0038D83829381F3800381E392A
:100CCA00353869064F071F3829381F380CFF7265F7
:100CDA0063747970652D6E756C6C5406513877069D
:100CEA007706770600383C38F3FF733D0FFF7365CC
:100CFA00617263682D776F72646C697374006B0636
:100D0A000038FE3853393C389A06F538B706B038F9
:100D1A00173935389406BC3ED83853391F38B0389D
:100D2A00DE06C338360124011F380038FE38D838A9
:100D3A00B33E0539D20695013538A806F538D838B4
:100D4A0053394A391F38BC3EF53853391F3811FF19
:100D5A0074726176657273652D776F72646C6973EC
:100D6A0074007B060038543BB0383538C806B33EA9
:100D7A00133BC3382938223BE0383538C806FA090C
:100D8A00C03B2E38B906BC3E1F380BFF6E616D653D
:100D9A003E737472696E6700AC060038FB033C3818
:100DAA00FF00123A1F3807FF6E66613E63666100F4
:100DBA00CA060038FA092E3A1F3807FF66696E64B8
:100DCA002D787400D80600383C38F4063C384A00BE
:100DDA008F0917393538F306BC3E53391F380038A6
:100DEA00FE38B33EF5388506B03835380107FE3887
:100DFA00EF38EF38F5384A391F3806FF6E657765E0
:100E0A007374E20647388A0106FF6C61746573746D
:100E1A00020747388E0108FF2863726561746529E5
:100E2A00090700389405780823071F380BFF286341
:100E3A0072656174652D696E290010070038B03833
:100E4A000707A63C80385D08070780381F3801006D
:100E5A005C001B0700387B05EF38CC3E80381F3812
:100E6A00010028002C0700383C3829006705BC3EE1
:100E7A001F3807FF636F6D70696C650035070038AE
:100E8A00F538B0388C01FE38C03B4F071F3801FFD8
:100E9A002C003E070038FC3E683BFC3E2E3A7A01A5
:100EAA00FD3E1F3803005B275D004C070038140421
:100EBA0065071F3807006C69746572616C00570713
:100ECA00003844073C384F071F380800736C6974B0
:100EDA006572616C5F07003844079C03AA031F38D8
:100EEA000038FC3E4407FFFF1F380038753FFC3EC0
:100EFA00C338683B1F380038FC3E1F380038753F3E
:100F0A004F071F3805006168656164006A07003889
:100F1A0044072E3875071F380200696687070038AC
:100F2A004407353875071F380400656C73659107E7
:100F3A00003844072E387507C3387A071F3804006B
:100F4A007468656E990700387A071F38050062656C
:100F5A0067696E00A407003880071F3805007768A4
:100F6A00696C6500AB0700389407C3381F38060060
:100F7A00726570656174B3070038D507A8071F3812
:100F8A000500756E74696C00BC0700383C3835384A
:100F9A004F0783071F380500616761696E00C5073F
:100FAA00003844072E3883071F380200646FD007C1
:100FBA00003844079A3A8007533938081F38040022
:100FCA006C6F6F70DA0700384407C83A1F081F3879
:100FDA0005002B6C6F6F7000E40700384407B93ABC
:100FEA001F081F3805006C6561766500ED0700383B
:100FFA004407D33A8C0738081F3803003F646F0050
:10100A00F707003844070E089407DD07C338380885
:10101A001F380038B33ED53BB038FE38353816088D
:10102A00BC3EF538FC391F3807FF656E646C6F6F7C
:10103A0070000208003883072C08B83835382808A9
:10104A00A8072E3821081F3802FF6C3E19080038FD
:10105A004B08783878383C38FEFF4B08643A1F381A
:10106A0002FF3E6C29080038E13B4B08643A4B0802
:10107A00783880381F3803FF6C70300035086E38B6
:10108A0040008A3D943D02FF6C7040084738900149
:10109A0006FF63726561746548080038160781089F
:1010AA00440751381F3806FF6865616465724D0848
:1010BA000038FC3EFE38FE38B038253935386F081E
:1010CA00B0383C3800FF1B3AAE03F538543B4F07A3
:1010DA00F5381F383C38F0FF733D07FF776C7363B0
:1010EA006F7065005808E93D3C008A3D943D06FF53
:1010FA0072657665616C720800380707A63C783815
:10110A00B83835388C0807077838C338303B1F3869
:10111A000500646F65733E007C0800384407A50823
:10112A0044070E9444079A081F389A938A93CB016E
:10113A0001967F916F91BF93AF93DB010C940438B2
:10114A000038F5380707A63C7838543BDE06683B7A
:10115A001F3801FF3A008D0800381607BC08D83836
:10116A001F3807FF3A6E6F6E616D6500AE08003872
:10117A00FC3EB0380E07803844070038D1081F38C3
:10118A0001003B00B608003844071F38D908810817
:10119A001F3801FF5D00C5080038DC3BA13E8038DE
:1011AA001F3801005B00CE0800385339A13E803851
:1011BA001F3808FF7661726961626C65D60800386B
:1011CA000D3FF008E13B163F1F3808FF636F6E734F
:1011DA0074616E74DE0800381607810844074738C0
:1011EA004F071F3804FF75736572EA08003816073F
:1011FA008108440757384F071F380700726563751F
:10120A0072736500F70800380E0778384F071F38E1
:10121A0009FF696D6D6564696174650002090038CA
:10122A00B609543BB038C03B3C38FF7F123AC3384A
:10123A00683B1F3806005B636861725D0D09003800
:10124A0044073C38C5044F071F38060061626F72B5
:10125A0074221F090038743E440741091F3805FFEC
:10126A0061626F7274002A0900384A39733D06FFB9
:10127A003F61626F727434090038E03835384709C3
:10128A00CF033909BC3E1F3809FF6765742D737493
:10129A0061636B003C090038B038A63CC338543B44
:1012AA00B038FE385339C3380E08353867099A3AC8
:1012BA00AB3A343AAE3ECE389C39543BC3384A39FD
:1012CA00B93A5D09BC3EF5381F3809FF7365742DBC
:1012DA00737461636B0049090038CE381E3935389A
:1012EA0079093C38FCFF733DB33E303BC338533970
:1012FA000E08353886099A3AA63CC43E303BC83AAD
:10130A008109D8381F3809FF6D61702D73746163C4
:10131A006B006A090038B038A63CC338543BAE3E6D
:10132A00833F0E083538AB099A3AAB3A543BC33877
:10133A00FE3805392938B8383538A709F538D83884
:10134A00D33A1F38F538E13BB93A9A09D8385339B4
:10135A001F380BFF6765742D63757272656E7400B2
:10136A00880900383C384600543B1F3809FF636639
:10137A00672D6F7264657200AE0947384A0008FF2C
:10138A006366672D72656373BB0947385C0007FFA4
:10139A00636F6D7061726500C409D309BF93AF931F
:1013AA008C0189919991DC01899199919C0189918A
:1013BA009991FC01ED90F190EF1451F40A9519F00E
:1013CA002A95C1F701C02A95022B11F4882702C079
:1013DA008FEF00C0982FAF91BF910C94043807FF8C
:1013EA006E66613E6C666100CC090038D2062E3A00
:1013FA00033A9C391F3806FF6972715B5D23F40951
:10140A0000383C3812019C391F3804FF23696E7476
:10141A00000A47381A0004FF2B696E740A0A150A73
:10142A0078940C94043804FF2D696E74100A1D0A0E
:10143A00F8940C94043804FF696E7421180A003871
:10144A003C3800009C39303B1F3804FF696E7440F9
:10145A00200A00383C3800009C39543B1F3808FFEA
:10146A00696E742D747261702A0A3B0AB82E8991CA
:10147A0099910C94043800382E0A2938450A1F38E5
:10148A00460A02D00C94043818950BFF7365742D24
:10149A0063757272656E7400340A00383C3846000F
:1014AA00303B1F3808FF776F72646C6973744A0A9D
:1014BA000038053F5339CE38303BB038A63C7A0164
:1014CA00063F1F380EFF666F7274682D776F72645D
:1014DA006C697374570A4738480004FF636F646580
:1014EA00670A003816078108FC3E8C014F071F382F
:1014FA0008FF656E642D636F6465720A00384407DD
:10150A000C94440704381F3808FF286D61726B6514
:10151A0072297D0A6E3868008A3D943D0800706F12
:10152A007374706F6E65890A00389405D205DD05FB
:10153A00B038FE388C018C01C03B2938F5388C0153
:10154A00C03B4F071F380BFF6170706C7475726E69
:10155A006B657900930A0038C700140A4B01983F5B
:10156A009C030A00466F7274686475696E6FCF03D4
:02157A001F3818
:10700000BF93AF93DB011196B21469F4FD01EE0F4B
:10701000FF1F659175911196FB01EE0FFF1F059102
:107020001591F80109949A938A938B2DBB24992783
:1070300060E47AE0F1CF04FF65786974A80A20382B
:10704000AF91BF91E1CF07FF657865637574650007
:107050001B382A38BC0189919991DECF2F38FD0168
:10706000EE0FFF1FA591B591CFCF3638982B8991A0
:107070009991A9F31196C8CF3D389A938A93FD014F
:10708000EE0FFF1F859195911196BECF47389A93C9
:107090008A93FB013196EE0FFF1F85919591B4CF36
:1070A00051389A938A93CB010196AECF57389A9371
:1070B0008A93FB013196EE0FFF1F85919591840D08
:1070C000951DA2CF07FF2876616C756529002338CE
:1070D00000381607810844076E381F380E949A0846
:1070E000B0388C01C03B29381F3801FF400062389E
:1070F0007938FC018191919187CF01FF210075388A
:107100008138FC018991999191838083899199912A
:107110007BCF02FF63217D388D38FC0189919991E5
:1071200080838991999170CF02FF634089389838A4
:10713000FC019927808168CF02FF407594380038A0
:10714000013B9C3978381F3802FF21759C38003884
:10715000013B9C3980381F3803FF64757000A438E8
:10716000B1389A938A9350CF04FF3F647570AC385E
:10717000B938082F092B11F09A938A9345CF04FF51
:1071800073776170B438C4388C01899199911A93DE
:107190000A933ACF04FF6F766572BF38CF389A935F
:1071A0008A938A819B8130CF04FF64726F70CA38E2
:1071B000D9388991999128CF03FF726F7400D43820
:1071C000E1388C0129913991899199913A932A93C7
:1071D0001A930A9319CF03FF6E697000DC38F038F8
:1071E000229612CF02FF723EEB38F6389A938A93BA
:1071F0008F919F9109CF02FF3E72F238FF389F9323
:107200008F93D7CF02FF7240FB3806399A938A9347
:107210008F919F919F938F93F7CE02FF3C3E02394F
:107220000038D53B17391F3802FF303D0D3918396A
:10723000982BE1F532C002FF303C14391F3997FD1D
:107240002CC034C002FF303E1B392639821593050D
:107250006CF161F122C003FF64303E002239303905
:1072600093153CF082058991999182059305F1F07F
:1072700014C0C101B5CF03FF64303C002B39403945
:10728000229697FD0C944D390C94563904FF747274
:1072900075653B394B399A938A938FEF9FEFB4CE44
:1072A00001FF3000463954399A938A93C101ACCE1C
:1072B00002FF753C50395C39299139918217930747
:1072C000A8F3A1F3EACF02FF753E58390038C3385E
:1072D0005B391F3801FF3C0063396E3929913991C0
:1072E000281739071CF7D9CF01FF3E006A397839D2
:1072F0002991399128173907CCF2C1F2CECF04FF7A
:107300006C6F673274398439FC01992780E18A9562
:1073100022F0EE0FFF1FD8F777CE9A9575CE01FFBA
:107320002D007F39933909911991081B190BC80158
:107330006BCE01FF2B008F399D3909911991800F78
:10734000911F62CE02FF6D2A9939A6398C0189916D
:1073500099919C0131027001209FC0013003F30814
:10736000900DE11CF31C1203F308900DE11CF31CBB
:107370009A938A93C70148CE06FF756D2F6D6F648F
:10738000A239C2397C01299139910991199140E1C1
:107390005527000F111F221F331F551F2E153F05A4
:1073A000520518F003952E193F094A9589F73A932B
:1073B0002A93C80129CE03FF756D2A00BC39E03934
:1073C0008C0189919991809FF00122273327909F0A
:1073D000F00D211D331D819FF00D211D331D919F47
:1073E000200D311DCF019A938A93C9010DCE06FF5E
:1073F000696E76657274DB39FD398095909504CE9F
:1074000002FF322FF739043A95958795FDCD02FF9B
:10741000322A003A0B3A880F991FF6CD03FF616EAE
:107420006400073A133A0991199180239123ECCD16
:1074300002FF6F720E3A1C3A09911991802B912B21
:10744000E3CD03FF786F7200183A263A099119913B
:1074500080279127D9CD02FF312B213A2F3A01966F
:10746000D3CD02FF312D2B3A353A0197CDCD07FF11
:107470003F6E656761746500313A00381E393538F2
:10748000423A113E1F3806FF6C7368696674373ADA
:10749000493AFC018991999131971AF0880F991F07
:1074A000FBCFB2CD06FF727368696674433A583AEF
:1074B000FC018991999131971AF096958795FBCFA8
:1074C000A3CD02FF2B21523A653AFC018991999193
:1074D00020813181820F931F8083918389919991BB
:1074E00093CD03FF72704000613A763A9A938A9383
:1074F0008DB79EB789CD03FF72702100713A803A33
:107500002FB7F8948DBF9EBF2FBF899199917CCDE5
:1075100003FF737040007B3A8D3A9A938A93CE01B1
:1075200073CD03FF73702100883A963AEC0189917C
:1075300099916ACD9B3A29913991E0E83E0F821BDF
:10754000930B3F932F939F938F93899199915CCD48
:1075500001FF6900913AAC3A9A938A938F919F9177
:10756000EF91FF91FF93EF939F938F938E0F9F1F48
:107570004BCDBA3AEF91FF91E80FF91F899199919C
:107580001BF0FF93EF936BCD0F911F9111963CCDA4
:10759000C93AEF91FF913196BBF3F3CF06FF756EB9
:1075A0006C6F6F70A83AD43A1F910F911F910F9191
:1075B0002BCD06FF636D6F76653ECE3ADF3ABF9303
:1075C000AF93E991F991A991B991092F082B41F055
:1075D000E80FF91FA80FB91F1E9112930197E1F749
:1075E000AF91BF91899199910FCD02FF3E3CD93A5D
:1075F000F93A092F982F802F07CD03FF75704000AF
:10760000F53A023B9A938A93C201FECC03FF757050
:107610002100FD3A0B3B2C0189919991F5CC03FF98
:10762000323E7200063B143BFC01899199919F9375
:107630008F93FF93EF9389919991E6CC03FF327278
:107640003E000F3B233B9A938A93EF91FF918F91DA
:107650009F919A938A93CF01D7CC02FF21651E3B5D
:10766000313BFC01899199912FB7F89428D000B54E
:10767000081709F00BD0319622D000B5091711F088
:10768000892F04D02FBF89919991BECCF999FECF53
:1076900007B700FDFDCFF2BDE1BD80BDFA9AF99AB2
:1076A000089502FF40652D3B553B2FB7F894FC0130
:1076B00006D080B5319603D090B52FBFA5CCF999EF
:1076C000FECFF2BDE1BDF89A089502FF2169513B5A
:1076D000E93D66008A3D943D09FF2821692D6E72BF
:1076E00077772900653B743B1FB71F93F8949C0183
:1076F00089919991AF93BF93CF93DF9309D0DF9195
:10770000CF91BF91AF91899199911F911FBF7CCC6F
:1077100010D0E094F0948E219F21982B19F0F9015C
:1077200002E020D0F90104E01DD0F90100E11AD0F7
:107730000895F901E07CFF7FEF01A0E4B0E0FE01D5
:10774000EE0FFF1F45915591FE01E217F30711F06F
:107750000A0102C07A010C01002704D0219611977A
:1077600071F70895F999FECF17B710FDFDCFEE0F11
:10777000FF1F016007BFE895089502FF40696C3B59
:10778000C13BFC01EE0FFF1F859195913DCC080098
:10779000326C69746572616CBD3B0038C338650733
:1077A00065071F3801FF3D00C73B00389239173984
:1077B0001F3801FF3100D23B4738010001FF320082
:1077C000D93B4738020002FF2D31DE3B4738FFFF2F
:1077D00003FF6E3E7200E33BED3BFC01082F8991F5
:1077E00099919F938F930A95D1F7EF93FF93899186
:1077F00099910ACC03FF6E723E00E83BFF3B9A93DF
:107800008A93FF91EF910E2F8F919F919A938A9374
:107810000A95D1F7CF01F8CB03FF64322A00FA3B77
:10782000113C09911991000F111F881F991F1A937C
:107830000A93EACB03FF64322F000C3C1F3C0991F2
:10784000199195958795179507951A930A93DCCB0F
:1078500002FF642B1A3C2C3C29913991E990F99054
:1078600049915991240F351F8E1D9F1D3A932A93DC
:10787000CBCB02FF642D283C3D3C29913991E99006
:10788000F99049915991421B530BE80AF90A5A930E
:107890004A93C701B9CB07FF64696E7665727400BD
:1078A000393C523C0991199180959095009510951D
:1078B0001A930A93A9CB04FF2F6D6F644B3C603C75
:1078C0009C0109911991412F432717FF04C010957E
:1078D00000950F5F1F4F37FF04C0309520952F5F35
:1078E0003F4FEE24FF1851E1001F111F5A9539F444
:1078F00047FF04C0109500950F5F1F4F0BC0EE1C93
:10790000FF1CE21AF30A20F4E20EF31E8894ECCF77
:107910000894EACFFA92EA92C80176CB03FF61623B
:1079200073005B3C0038B0383D3A1F3804FF706983
:10793000636B8E3C00382E3AAE3E8C3A9C397838D8
:107940001F3805FF63656C6C2B00963CA73C0296C4
:107950005BCB00389C030300206F6B00CF031F3804
:1079600003FF2E6F6B00A13CE93D1C00B23DBE3D04
:1079700000389C0302003E208B3FCF031F3806FFD8
:107980002E7265616479B03CE93D2000B23DBE3D98
:1079900000389C030400203F3F20CF03A73E7838E7
:1079A000FE382B3F5103CC3E78385103F538A73EC3
:1079B00080381F3806FF2E6572726F72BF3CE93D3A
:1079C0001E00B23DBE3D00388B3F1F3806FF2E69BA
:1079D0006E707574DA3CE93D2200B23DBE3D04FF95
:1079E00071756974E63C003844084B088038AE0570
:1079F000953AB6057F3AD908A13E78381739353817
:107A0000023DC43CBD04EB3C3538153D3C38040612
:107A10005D3DB8383538153DB0383C38FEFF6D391E
:107A20003538133DDF3C2E38F43CB43C2E38FC3C5A
:107A300005FF706175736500EF3CE93D92019E3D65
:107A4000A83D04FF636F6C64183D263DA4B6222454
:107A50003324BB2424BEE0E0F1E02192E030E9F7DA
:107A6000F930D9F7E4E9F1E02F010FEF0DBF0483FE
:107A700018E01EBF1583CFEAC683D8E0D783A7E4FA
:107A8000BDE3C2CA04FF7761726D213D00386E020A
:107A90003C38BF3F3C381D3DC93DD908463FF33C0B
:107AA00007FF68616E646C657200423D57380A00DA
:107AB00005FF636174636800503D00388C3AFE38FE
:107AC000563D7838FE38753A563D80382938F538B5
:107AD000563D8038F538D83853391F3805FF74685B
:107AE000726F7700583D0038B8383538833D563DC1
:107AF00078387F3AF538563D8038F538C338FE3847
:107B0000953AD838F5381F3807FF456465666572C1
:107B100040006E3D0038C03B543B1F3807FF4564B2
:107B2000656665722100843D0038C03B303B1F38DC
:107B300007FF52646566657240008E3D0038C03BA9
:107B400078381F3807FF5264656665722100983DDA
:107B50000038C03B80381F3807FF55646566657282
:107B60004000A23D0038C03B013B9C3978381F38AB
:107B700007FF5564656665722100AC3D0038C03B67
:107B8000013B9C3980381F3806FF646566657221A9
:107B9000B83D0038BA3FB0388C018C01C03B293861
:107BA0001F3806FF646566657240C43D0038BA3F01
:107BB000B0388C01C03B29381F3807FF2864656640
:107BC00065722900D13D0038160781084407E93D58
:107BD0001F380E949A08B0388C01C03B29382938D8
:107BE0001F3802FF752EDD3D0038533959031F3809
:107BF00003FF752E7200F13D00385339C33862031C
:107C00001F3805FF752F6D6F6400F83D0038FE3892
:107C10005339F538C1391F3806FF6E6567617465E1
:107C2000013E0038FC392E3A1F3801FF2F000C3E70
:107C300000385F3CEF381F3803FF6D6F6400153E5E
:107C400000385F3CD8381F3803FF6D696E001C3E5A
:107C50000038B33E773935382E3EC338D8381F3810
:107C600003FF6D617800243E0038B33E6D3935382E
:107C70003A3EC338D8381F3806FF77697468696E92
:107C8000303E0038CE389239FE389239F5385B39BB
:107C90001F380DFF73686F772D776F72646C69738F
:107CA00074003C3E00383C38583EC338B7061F3895
:107CB0000038D206CF03983F4A391F3805FF776F47
:107CC00072647300493E00383C384C00543B523ECD
:107CD0001F3802002E225E3E0038743E4407CF0358
:107CE0001F3802007322693E00383C3822006705C5
:107CF000A13E783835387D3E70071F3804FF66692D
:107D00006C6C713E0038E038E038B83835388F3E5A
:107D1000833F9A3AB038AB3A8C38C83A8A3ED83862
:107D20001F3805FF665F637075007E3E00383C3883
:107D300000243C38F4001F3805FF7374617465003B
:107D4000913E4738C20104FF626173659C3E57381B
:107D50000C0005FF63656C6C7300A33E0B3A04FFD7
:107D600032647570A93E0038CE38CE381F3805FF12
:107D70003264726F7000AF3E0038D838D8381F3880
:107D800004FF7475636BB73E0038C338CE381F38B4
:107D900003FF3E696E00C03E5738180003FF706154
:107DA0006400C83E00380D3F3C3828009C391F381D
:107DB00004FF656D6974CE3EE93D0E00B23DBE3DE7
:107DC00005FF656D69743F00D83EE93D1000B23D86
:107DD000BE3D03FF6B657900E03EE93D1200B23D18
:107DE000BE3D04FF6B65793FE93EE93D1400B23DBD
:107DF000BE3D02FF6470F13E6E3836008A3D943D10
:107E000005FF656865726500F93E6E383A008A3D87
:107E1000943D04FF68657265003F6E3838008A3D06
:107E2000943D05FF616C6C6F7400093F00380D3F95
:107E30009C397A010E3F1F3803FF62696E00113FC3
:107E40000038E13BA73E80381F3807FF646563694F
:107E50006D616C001C3F00383C380A00A73E80383A
:107E60001F3803FF68657800253F00383C38100054
:107E7000A73E80381F3802FF626C313F4738200030
:107E800007FF7475726E6B6579003B3FE93D4200F8
:107E90008A3D943D07FF746F757070657200403FB6
:107EA0000038B0383C3861003C387B00413E353802
:107EB0005C3F3C38DF00123A1F3807FF746F6C6F6D
:107EC000776572004A3F0038B0383C3841003C3892
:107ED0005B00413E35386F3F3C3820001B3A1F386D
:107EE00006FF3F737461636B5D3F0038C1051E3947
:107EF00035387D3F3C38FCFF733D1F3806FF626F0D
:107F0000756E6473703F0038CE389C39C3381F38A3
:107F100002FF63727E3F00383C380D00DC3E3C3887
:107F20000A00DC3E1F3805FF737061636500883FFF
:107F300000383E3FDC3E1F3806FF73706163657397
:107F4000933F00385339343EB0383538AB3F983F13
:107F5000343A2E38A43FD8381F3803FF733E6400EC
:107F60009C3F0038B0381E391F3805FF3E626F64F1
:107F70007900AD3F2F3A04FF6E6F6F70B53F003848
:027F80001F38A8
:00000001FF
