:020000020000FC
:02000400FCD02E
:02000800FAD02C
:02000C00F8D02A
:02001000F6D028
:02001400F4D026
:02001800F2D024
:02001C00F0D022
:02002000EED020
:02002400ECD01E
:02002800EAD01C
:02002C00E8D01A
:02003000E6D018
:02003400E4D016
:02003800E2D014
:02003C00E0D012
:02004000DED010
:02004400DCD00E
:02004800DAD00C
:02004C00D8D00A
:02005000D6D008
:02005400D4D006
:02005800D2D004
:02005C00D0D002
:02006000CED000
:02006400CCD0FE
:02006800CAD0FC
:02006C00C8D0FA
:02007000C6D0F8
:02007400C4D0F6
:02007800C2D0F4
:02007C00C0D0F2
:02008000BED0F0
:02008400BCD0EE
:02008800BAD0EC
:02008C00B8D0EA
:02009000B6D0E8
:02009400B4D0E6
:02009800B2D0E4
:02009C00B0D0E2
:0200A000AED0E0
:0200A400ACD0DE
:1000A800AAD0000A000400702B000A0041546D65B4
:1000B80067613332553407FF3E72782D62756600EA
:1000C80000006600082F10911001E0E0F1E0E10F58
:1000D800F31D008313951F70109310018991999156
:1000E8000C94043806FF6973722D72785F0000382B
:1000F8003C38CE009738B0383C380300D53B35380B
:100108008600253D65001F3800383C387B003C38A8
:100118003200460A3C3800013C3816005339823E0A
:100128001F3806FF72782D62756676000038B500B4
:1001380035389B003C3811019738B0383C380001FD
:100148009C399738C3382E3A3C380F00123A3C385D
:1001580011018C381F3807FF72783F2D62756600D1
:10016800950000381D3D3C38110197383C38100186
:10017800973810391F3807FF74782D706F6C6C0032
:10018800AF000038D3003538C6003C38CE008C3874
:100198001F3808FF74783F2D706F6C6CBF000038F3
:1001A8001D3D3C38C80097383C382000123A1F38AB
:1001B80004FF75627272CD006E38B0008A3D943DBE
:1001C80006FF2B7573617274DC0000383C389800A8
:1001D8003C38C9008C383C3806003C38CA008C389A
:1001E800E000B038F83A3C38CD008C383C38CC00C8
:0601F8008C3888001F385E
:040000000C94263DF9
:1001FE000A920FB60A920F900F900A94BB2001F04C
:10020E00B02CFF93EF93E2E1F1E00694E00DF31DC5
:10021E00008003940082EF91FF9109900FBE099028
:10022E00089502FF6D2BE4000038B13F2B3C1F38C0
:10023E0003FF75642A0018010038B038FE38DF3924
:10024E00D838C338F538DF39E0389C391F3804FF09
:10025E00756D61781F010038B33E5B393538380152
:10026E00C338D8381F3804FF756D696E2E010038FB
:10027E00B33E663935384401C338D8381F38003894
:10028E003C380080123A173935384F01DC3B1F38A5
:10029E004A391F380AFF6E616D653E666C61677381
:1002AE003A010038C03B3C3800FF123A1F3803FFBA
:1002BE00316D730051016301E0EAFFE03197F1F710
:1002CE000C94043803FF766572005E010038C80294
:1002DE00F103983FA73E7838D6022B3FB13F0F036C
:1002EE0017033C382E0000032D0338032704A73EC6
:1002FE008038983FDE02F1031F3806FF756E757366
:10030E006564690100388C3A0D3F92391F3802003E
:10031E00746F840100383604BA3FA13E7838353800
:10032E00A20166079C0171071F380038F538B038F6
:10033E00AE01FE38C03BB038AE01AE01C03B29382D
:10034E001F3807FF692D63656C6C2B008E0100381A
:10035E002E3A1F3808FF69636F6D70617265A801D0
:10036E000038FE38CE38F53810393538C201BC3E6B
:10037E00D8384A391F38C338533930083538E70171
:10038E009A3ACE387838EA01CE38C03BEA01B03816
:10039E003C3800015B393538D801C3383C38FF0092
:1003AE00123A10393538DF01BC3E4A39D33A1F387C
:1003BE002E3AC338A63CC3383C380200B93AC801BD
:1003CE00BC3E53391F380038B0383C38FF00123A63
:1003DE00633FC338F83A3C38FF00123A633FF83AAD
:1003EE001B3A1F3801FF2A00B1010038A539D83851
:1003FE001F3801FF6A00F9010038753A3C380700D2
:10040E009C397838753A3C3809009C3978389C39D3
:10041E001F3804FF6461627300020038B0381E3961
:10042E0035381A0221021F3807FF646E6567617442
:10043E00650010020038513CDC3B53392B3C1F3811
:10044E0005FF636D6F7665001B022D02BF93AF93A0
:10045E00E991F991A991B991092F082B21F01D91DC
:10046E0011930197E1F7AF91BF91899199910C94F6
:10047E00043805FF32737761700027020038E038C8
:10048E00FE38E038F5381F380AFF726566696C6C05
:10049E002D746962400200386E023C385A008604A0
:1004AE00740280385339CC3E80384A391F380AFFDF
:1004BE00736F757263652D7469624B0200386E023C
:1004CE00740278381F3803FF746962005E02473881
:1004DE003D0104FF237469626A024738970106FFE3
:1004EE0065653E72616D7002003853399A3ACE38A6
:1004FE00543BCE388038A63CC338A63CC338C83AE5
:10050E007E02BC3E1F3808FF696E69742D72616DE4
:10051E00760200383C388C00013B3C382400033A0C
:10052E007B021F380BFF656E7669726F6E6D656E9E
:10053E0074008A024738660009FF776F72646C692F
:10054E0073747300000000383C3808001F3804FF35
:10055E002F706164A30200388C3AD23E92391F3854
:10056E0005FF2F686F6C6400AE020038D23E0D3F5F
:10057E0092391F380AFF666F7274682D6E616D6551
:10058E00B7020038BE030700616D666F72746800B3
:10059E001F3807FF76657273696F6E00C1020038EF
:1005AE003C3845001F3803FF63707500D0020038D9
:1005BE003C3859001D041F3808FF6D63752D696E98
:1005CE00666FDA0200383C3855001F3805FF2F756C
:1005DE0073657200E30200383C382E001F3803FFAB
:1005EE00686C640099024738990104FF686F6C6467
:1005FE00F6020038FA02B0387838343AB038FE389D
:10060E00C3388038F5388C381F3802FF3C23FC0283
:10061E000038D23EFA0280381F3801FF23000C0347
:10062E000038A73E78389403E0383C380900CE38BD
:10063E006D39353825033C3807009C393C3830007D
:10064E009C3900031F3802FF23731403003817036D
:10065E00B33E1B3A173935382E031F3802FF233E9F
:10066E002A030038BC3EFA027838D23ECE38923990
:10067E001F3804FF7369676E350300381E3935382D
:10068E004B033C382D0000031F3803FF642E72000D
:10069E0040030038FE38C43E14020F032D03E03829
:1006AE0044033803F538CE389239A13F27041F385A
:1006BE0002FF2E724C030038FE38B13FF53850035E
:1006CE001F3802FF642E5F03003853395003983FE2
:1006DE001F3801FF2E0068030038B13F6B031F382F
:1006EE0003FF75642E007003003853398403983F5E
:1006FE001F3804FF75642E7277030038FE380F031F
:10070E002D033803F538CE389239A13F27041F3810
:10071E0006FF75642F6D6F6480030038FE38533901
:10072E000539C139F538C338FE38C139F5381F38A7
:10073E0006FF64696769743F8F030038503FB03815
:10074E003C38390077393C380001123A9C39B038C0
:10075E003C38400177393C380701123A92393C381F
:10076E0030009239B038A73E78385B391F380038E0
:10077E0005391D04F538CE382E3A033A9C392E3AF7
:10078E00FE381F3802FF732C9F030038B038D00399
:10079E001F3800387107B038033AC43E0A3A92390E
:1007AE00FE38533930083538E3039A3AB038783882
:1007BE007107A63CC83ADD03F53825393538EA030A
:1007CE00B03897387107D8381F3805FF69747970BB
:1007DE006500C9030038B038033AC43E0A3A92396C
:1007EE00FE3853393008353805049A3AB038C03BD4
:1007FE00B03812040E042E3AC83AFD03F5382539E6
:10080E0035380C04B038C03B1204D8381F380038C5
:10081E00F83A12041F3800383C38FF00123ADC3E1A
:10082E001F3806FF69636F756E74EC030038B038BD
:10083E002E3AC338C03B1F3804FF74797065180414
:10084E000038833F3008353832049A3AAB3A97383D
:10085E00DC3EC83A2D041F3801FF27002304003860
:10086E00B605F405FF05B0389506D53BC338C03B39
:10087E003C38BF3FD53B1B3A353848043C38F3FF74
:10088E00733DD8381F3805FF63736B6970003304EE
:10089E000038FE38B03835385E04CE389738053912
:1008AE00D53B35385E04DC3BA7052E385104F538B0
:1008BE00D8381F3805FF637363616E004A04003831
:1008CE00FE38CE38B03897380539D53B173935381C
:1008DE007B04C338343AC338CE381E39173935380D
:1008EE007B042E3A2E386904EF38CE389239F5381B
:1008FE00D8381F3806FF6163636570746104003871
:10090E00CE389C39CE38ED3EB038CF041739353855
:10091E00C204B0383C380800D53B3538A804D83866
:10092E00E038B33E7739FE38E038E038F538353800
:10093E00A604C704343AFE38CE38F53832012E38C4
:10094E00C004B0383E3F6D393538AF04D8383E3F1D
:10095E00FE38B33E7739F538C3383538BF04B03872
:10096E00DC3ECE388C382E3ACE383E012E38C004BE
:10097E00D8382E388A04D838EF38C33892391F3811
:10098E0000383C380800B038DC3E983FDC3E1F385B
:10099E000038B0383C380D00D53BC3383C380A001F
:1009AE00D53B1B3A1F3806FF726566696C6C810475
:1009BE00E93D1A00B23DBE3D04FF63686172DA0480
:1009CE000038B60517393538EF043C38F0FF733D63
:1009DE0097381F3806FF6E756D626572E304003836
:1009EE00A73E7838FE383A05FE384D053A05F538FB
:1009FE001B3AFE38B038173935380D05BC3EF53880
:100A0E00D838F538A73E803853391F38133B533941
:100A1E005339223B6B05B83835382F05DC3BD53BB7
:100A2E003538260597383C382E00D53B3538270506
:100A3E00F538353823052102E13B2E383505D838F7
:100A4E00BC3EF538D838F538A73E803853391F38B4
:100A5E00BC3EF53835383405113EDC3BF538A73E43
:100A6E0080384A391F380038CE3897383C382D0038
:100A7E00D53BB038FE3835384605DC3BA705F53892
:100A8E001F3851380A00100002000A000038CE3814
:100A9E0097383C3823009239B03853393C3804002B
:100AAE00413E3538630548059C39C03BA73E80382A
:100ABE00DC3BA7052E386405D8381F3807FF3E6E7D
:100ACE00756D62657200F1040038B03835388305F3
:100ADE00CE389738A403173935387705D8381F38EC
:100AEE00FE384502A73E78382301F5381B01450232
:100AFE00DC3BA7052E386C051F3805FF706172733D
:100B0E00650065050038FE389D05CC3E7838A70592
:100B1E00F5386604B0382E3ACC3E643ADC3BA70575
:100B2E001F3806FF736F757263658405E93D160005
:100B3E00B23DBE3D07FF2F737472696E6700980554
:100B4E000038E038CE389C39E038E03892391F381A
:100B5E000AFF70617273652D6E616D65A1050038B7
:100B6E003E3FBA051F380038FE389D05CC3E78381A
:100B7E00A70505394F04F5386604B33E9C399D052B
:100B8E00D8389239CC3E80381F3803FF737030004E
:100B9E00AF056E380600B23DBE3D03FF72703000E9
:100BAE00CC050038DC0578381F385738040005FFAF
:100BBE00646570746800D4050038D0058C3A92399B
:100BCE00033A343A1F3810FF666F7274682D7265DF
:100BDE00636F676E697A6572DE056E3860008A3DF6
:100BEE00943D09FF7265636F676E697A6500EA0569
:100BFE0000383C380A06C338B109173935380906AA
:100C0E00BC3E95061F380038E038E038B33E133B43
:100C1E00E0382938223BE038B0389506D53B3538D8
:100C2E001B06D83853391F38EF38EF384A391F387A
:100C3E0009FF696E7465727072657400F80500388C
:100C4E00B605B03835383706F405FF05A13E7838BD
:100C5E0035383206AE01C03B2938753F2E3827068F
:100C6E00BC3E1F380BFF726563747970652D6E750F
:100C7E006D001F065138BF3F870787070CFF72654F
:100C8E0063747970652D646E756D39065138BF3F8A
:100C9E00CD3BCD3B07FF7265632D6E756D0045062E
:100CAE000038F60435386306DC3BD53B3538610633
:100CBE0041061F384D061F3895061F3808FF72650E
:100CCE00632D66696E64510600380A07B03817390D
:100CDE0035387406D83895061F387D061F380AFF3A
:100CEE00726563747970652D787465065138810666
:100CFE008506CD3B0038D83829381F3800381E39C4
:100D0E0035388B0671071F3829381F380CFF72656E
:100D1E0063747970652D6E756C6C76065138990614
:100D2E009906990600383C38F3FF733D0FFF736543
:100D3E00617263682D776F72646C697374008D06CF
:100D4E000038FE3853393C38BC06F538D906B03871
:100D5E0017393538B606BC3ED83853391F38B03837
:100D6E000007C338580146011F380038FE38D838FE
:100D7E00B33E0539F406B7013538CA06F538D8380A
:100D8E0053394A391F38BC3EF53853391F3811FFD5
:100D9E0074726176657273652D776F72646C6973A8
:100DAE0074009D060038543BB0383538EA06B33E21
:100DBE00133BC3382938223BE0383538EA061C0A83
:100DCE00C03B2E38DB06BC3E1F380BFF6E616D65D7
:100DDE003E737472696E6700CE0600381D043C388F
:100DEE00FF00123A1F3807FF6E66613E63666100B0
:100DFE00EC0600381C0A2E3A1F3807FF66696E642F
:100E0E002D787400FA0600383C3816073C386C0012
:100E1E00B109173935381507BC3E53391F3800381C
:100E2E00FE38B33EF538A706B03835382307FE38FE
:100E3E00EF38EF38F5384A391F3806FF6E6577659B
:100E4E007374040747389B0106FF6C6174657374F5
:100E5E00240747389F0108FF28637265617465296E
:100E6E002B070038B6059A0845071F380BFF286375
:100E7E0072656174652D696E290032070038B038CD
:100E8E002907A63C80387F08290780381F380100C3
:100E9E005C003D0700389D05EF38CC3E80381F388A
:100EAE00010028004E0700383C3829008905BC3E59
:100EBE001F3807FF636F6D70696C65005707003848
:100ECE00F538B038AE01FE38C03B71071F3801FF50
:100EDE002C0060070038FC3E683BFC3E2E3A9C011D
:100EEE00FD3E1F3803005B275D006E070038360499
:100EFE0087071F3807006C69746572616C0079078B
:100F0E00003866073C3871071F380800736C697427
:100F1E006572616C810700386607BE03CC031F380B
:100F2E000038FC3E6607FFFF1F380038753FFC3E59
:100F3E00C338683B1F380038FC3E1F380038753FF9
:100F4E0071071F3805006168656164008C07003801
:100F5E0066072E3897071F3802006966A907003802
:100F6E006607353897071F380400656C7365B3073D
:100F7E00003866072E389707C3389C071F380400C1
:100F8E007468656EBB0700389C071F3805006265E4
:100F9E0067696E00C6070038A2071F38050077681C
:100FAE00696C6500CD070038B607C3381F380600D8
:100FBE00726570656174D5070038F707CA071F3868
:100FCE000500756E74696C00DE0700383C383538E4
:100FDE007107A5071F380500616761696E00E70795
:100FEE00003866072E38A5071F380200646FF20717
:100FFE00003866079A3AA20753395A081F38040078
:10100E006C6F6F70FC0700386607C83A41081F38CE
:10101E0005002B6C6F6F7000060800386607B93A32
:10102E0041081F3805006C65617665000F080038B1
:10103E006607D33AAE075A081F3803003F646F00A5
:10104E001908003866073008B607FF07C3385A0874
:10105E001F380038B33ED53BB038FE383538380827
:10106E00BC3EF538FC391F3807FF656E646C6F6F38
:10107E00700024080038A5074E08B83835384A08DD
:10108E00CA072E3843081F3802FF6C3E3B08003853
:10109E006D08783878383C38FEFF6D08643A1F3892
:1010AE0002FF3E6C4B080038E13B6D08643A6D0858
:1010BE00783880381F3803FF6C70300057086E3850
:1010CE0062008A3D943D02FF6C7062084738A101B0
:1010DE0006FF6372656174656A0800383807A308F5
:1010EE00660751381F3806FF6865616465726F08C0
:1010FE000038FC3EFE38FE38B038253935389108B8
:10110E00B0383C3800FF1B3AD003F538543B71071A
:10111E00F5381F383C38F0FF733D07FF776C73636B
:10112E006F7065007A08E93D5E008A3D943D06FFCA
:10113E0072657665616C940800382907A63C78388C
:10114E00B8383538AE0829077838C338303B1F38E1
:10115E000500646F65733E009E0800386607C70879
:10116E0066070E946607BC081F389A938A93CB01C4
:10117E0001967F916F91BF93AF93DB010C9404386E
:10118E000038F5382907A63C7838543B0007683BF1
:10119E001F3801FF3A00AF0800383807DE08D8388C
:1011AE001F3807FF3A6E6F6E616D6500D00800380C
:1011BE00FC3EB0383007803866070038F3081F3819
:1011CE0001003B00D808003866071F38FB08A3084B
:1011DE001F3801FF5D00E7080038DC3BA13E803878
:1011EE001F3801005B00F00800385339A13E8038EB
:1011FE001F3808FF7661726961626C65F808003805
:10120E000D3F1209E13B163F1F3808FF636F6E73E7
:10121E0074616E74000900383807A30866074738F2
:10122E0071071F3804FF757365720C090038380793
:10123E00A3086607573871071F3807007265637574
:10124E0072736500190900383007783871071F3836
:10125E0009FF696D6D656469617465002409003864
:10126E00D809543BB038C03B3C38FF7F123AC338E4
:10127E00683B1F3806005B636861725D2F0900389A
:10128E0066073C38E70471071F38060061626F720B
:10129E00742241090038743E660763091F3805FF42
:1012AE0061626F7274004C0900384A39733D06FF53
:1012BE003F61626F727456090038E038353869093B
:1012CE00F1035B09BC3E1F3809FF6765742D73740B
:1012DE0061636B005E090038B038A63CC338543BDE
:1012EE00B038FE385339C3383008353889099A3A40
:1012FE00AB3A343AAE3ECE389C39543BC3384A39B9
:10130E00B93A7F09BC3EF5381F3809FF7365742D55
:10131E00737461636B006B090038CE381E39353833
:10132E009B093C38FCFF733DB33E303BC338533909
:10133E0030083538A8099A3AA63CC43E303BC83A24
:10134E00A309D8381F3809FF6D61702D737461635E
:10135E006B008C090038B038A63CC338543BAE3E07
:10136E00833F30083538CD099A3AAB3A543BC338EF
:10137E00FE3805392938B8383538C909F538D8381E
:10138E00D33A1F38F538E13BB93ABC09D83853394E
:10139E001F380BFF6765742D63757272656E74006E
:1013AE00AA0900383C386800543B1F3809FF6366B1
:1013BE00672D6F7264657200D00947386C0008FFA4
:1013CE006366672D72656373DD0947387E0007FF1C
:1013DE00636F6D7061726500E609F509BF93AF9397
:1013EE008C0189919991DC01899199919C01899146
:1013FE009991FC01ED90F190EF1451F40A9519F0CA
:10140E002A95C1F701C02A95022B11F4882702C034
:10141E008FEF00C0982FAF91BF910C94043807FF47
:10142E006E66613E6C666100EE090038F4062E3A77
:10143E00033A9C391F3806FF6972715B5D23160AE9
:10144E0000383C3812019C391F3804FF23696E7432
:10145E00220A47382B0004FF2B696E742C0A370AB8
:10146E0078940C94043804FF2D696E74320A3F0A86
:10147E00F8940C94043804FF696E74213A0A00380B
:10148E003C3800009C39303B1F3804FF696E7440B5
:10149E00420A00383C3800009C39543B1F3808FF84
:1014AE00696E742D747261704C0A5D0AB82E899142
:1014BE0099910C9404380038500A2938670A1F385D
:1014CE00680A02D00C94043818950BFF7365742DBE
:1014DE0063757272656E7400560A00383C38680087
:1014EE00303B1F3808FF776F72646C6973746C0A37
:1014FE000038053F5339CE38303BB038A63C9C01FE
:10150E00063F1F380EFF666F7274682D776F726418
:10151E006C697374790A47386A0004FF636F6465F7
:10152E00890A00383807A308FC3EAE0171071F3840
:10153E0008FF656E642D636F6465940A0038660754
:10154E000C94660704381F3808FF286D61726B65AE
:10155E0072299F0A6E388A008A3D943D0800706F8A
:10156E007374706F6E65AB0A0038B605F405FF052F
:10157E00B038FE38AE01AE01C03B2938F538AE01A9
:10158E00C03B71071F380BFF6170706C7475726E03
:10159E006B657900B50A0038E900360A6D01983F8F
:1015AE00BE030A00466F7274686475696E6FF1034C
:0215BE001F38D4
:10700000BF93AF93DB011196B21469F4FD01EE0F4B
:10701000FF1F659175911196FB01EE0FFF1F059102
:107020001591F80109949A938A938B2DBB24992783
:1070300062E67AE0F1CF04FF65786974CA0A203805
:10704000AF91BF91E1CF07FF657865637574650007
:107050001B382A38BC0189919991DECF2F38FD0168
:10706000EE0FFF1FA591B591CFCF3638982B8991A0
:107070009991A9F31196C8CF3D389A938A93FD014F
:10708000EE0FFF1F859195911196BECF47389A93C9
:107090008A93FB013196EE0FFF1F85919591B4CF36
:1070A00051389A938A93CB010196AECF57389A9371
:1070B0008A93FB013196EE0FFF1F85919591840D08
:1070C000951DA2CF07FF2876616C756529002338CE
:1070D00000383807A30866076E381F380E94BC08BE
:1070E000B038AE01C03B29381F3801FF400062387C
:1070F0007938FC018191919187CF01FF210075388A
:107100008138FC018991999191838083899199912A
:107110007BCF02FF63217D388D38FC0189919991E5
:1071200080838991999170CF02FF634089389838A4
:10713000FC019927808168CF02FF407594380038A0
:10714000013B9C3978381F3802FF21759C38003884
:10715000013B9C3980381F3803FF64757000A438E8
:10716000B1389A938A9350CF04FF3F647570AC385E
:10717000B938082F092B11F09A938A9345CF04FF51
:1071800073776170B438C4388C01899199911A93DE
:107190000A933ACF04FF6F766572BF38CF389A935F
:1071A0008A938A819B8130CF04FF64726F70CA38E2
:1071B000D9388991999128CF03FF726F7400D43820
:1071C000E1388C0129913991899199913A932A93C7
:1071D0001A930A9319CF03FF6E697000DC38F038F8
:1071E000229612CF02FF723EEB38F6389A938A93BA
:1071F0008F919F9109CF02FF3E72F238FF389F9323
:107200008F93D7CF02FF7240FB3806399A938A9347
:107210008F919F919F938F93F7CE02FF3C3E02394F
:107220000038D53B17391F3802FF303D0D3918396A
:10723000982BE1F532C002FF303C14391F3997FD1D
:107240002CC034C002FF303E1B392639821593050D
:107250006CF161F122C003FF64303E002239303905
:1072600093153CF082058991999182059305F1F07F
:1072700014C0C101B5CF03FF64303C002B39403945
:10728000229697FD0C944D390C94563904FF747274
:1072900075653B394B399A938A938FEF9FEFB4CE44
:1072A00001FF3000463954399A938A93C101ACCE1C
:1072B00002FF753C50395C39299139918217930747
:1072C000A8F3A1F3EACF02FF753E58390038C3385E
:1072D0005B391F3801FF3C0063396E3929913991C0
:1072E000281739071CF7D9CF01FF3E006A397839D2
:1072F0002991399128173907CCF2C1F2CECF04FF7A
:107300006C6F673274398439FC01992780E18A9562
:1073100022F0EE0FFF1FD8F777CE9A9575CE01FFBA
:107320002D007F39933909911991081B190BC80158
:107330006BCE01FF2B008F399D3909911991800F78
:10734000911F62CE02FF6D2A9939A6398C0189916D
:1073500099919C0131027001209FC0013003F30814
:10736000900DE11CF31C1203F308900DE11CF31CBB
:107370009A938A93C70148CE06FF756D2F6D6F648F
:10738000A239C2397C01299139910991199140E1C1
:107390005527000F111F221F331F551F2E153F05A4
:1073A000520518F003952E193F094A9589F73A932B
:1073B0002A93C80129CE03FF756D2A00BC39E03934
:1073C0008C0189919991809FF00122273327909F0A
:1073D000F00D211D331D819FF00D211D331D919F47
:1073E000200D311DCF019A938A93C9010DCE06FF5E
:1073F000696E76657274DB39FD398095909504CE9F
:1074000002FF322FF739043A95958795FDCD02FF9B
:10741000322A003A0B3A880F991FF6CD03FF616EAE
:107420006400073A133A0991199180239123ECCD16
:1074300002FF6F720E3A1C3A09911991802B912B21
:10744000E3CD03FF786F7200183A263A099119913B
:1074500080279127D9CD02FF312B213A2F3A01966F
:10746000D3CD02FF312D2B3A353A0197CDCD07FF11
:107470003F6E656761746500313A00381E393538F2
:10748000423A113E1F3806FF6C7368696674373ADA
:10749000493AFC018991999131971AF0880F991F07
:1074A000FBCFB2CD06FF727368696674433A583AEF
:1074B000FC018991999131971AF096958795FBCFA8
:1074C000A3CD02FF2B21523A653AFC018991999193
:1074D00020813181820F931F8083918389919991BB
:1074E00093CD03FF72704000613A763A9A938A9383
:1074F0008DB79EB789CD03FF72702100713A803A33
:107500002FB7F8948DBF9EBF2FBF899199917CCDE5
:1075100003FF737040007B3A8D3A9A938A93CE01B1
:1075200073CD03FF73702100883A963AEC0189917C
:1075300099916ACD9B3A29913991E0E83E0F821BDF
:10754000930B3F932F939F938F93899199915CCD48
:1075500001FF6900913AAC3A9A938A938F919F9177
:10756000EF91FF91FF93EF939F938F938E0F9F1F48
:107570004BCDBA3AEF91FF91E80FF91F899199919C
:107580001BF0FF93EF936BCD0F911F9111963CCDA4
:10759000C93AEF91FF913196BBF3F3CF06FF756EB9
:1075A0006C6F6F70A83AD43A1F910F911F910F9191
:1075B0002BCD06FF636D6F76653ECE3ADF3ABF9303
:1075C000AF93E991F991A991B991092F082B41F055
:1075D000E80FF91FA80FB91F1E9112930197E1F749
:1075E000AF91BF91899199910FCD02FF3E3CD93A5D
:1075F000F93A092F982F802F07CD03FF75704000AF
:10760000F53A023B9A938A93C201FECC03FF757050
:107610002100FD3A0B3B2C0189919991F5CC03FF98
:10762000323E7200063B143BFC01899199919F9375
:107630008F93FF93EF9389919991E6CC03FF327278
:107640003E000F3B233B9A938A93EF91FF918F91DA
:107650009F919A938A93CF01D7CC02FF21651E3B5D
:10766000313BFC01899199912FB7F89428D000B54E
:10767000081709F00BD0319622D000B5091711F088
:10768000892F04D02FBF89919991BECCF999FECF53
:1076900007B700FDFDCFF2BDE1BD80BDFA9AF99AB2
:1076A000089502FF40652D3B553B2FB7F894FC0130
:1076B00006D080B5319603D090B52FBFA5CCF999EF
:1076C000FECFF2BDE1BDF89A089502FF2169513B5A
:1076D000E93D88008A3D943D09FF2821692D6E729D
:1076E00077772900653B743B1FB71F93F8949C0183
:1076F00089919991AF93BF93CF93DF9309D0DF9195
:10770000CF91BF91AF91899199911F911FBF7CCC6F
:1077100010D0E094F0948E219F21982B19F0F9015C
:1077200002E020D0F90104E01DD0F90100E11AD0F7
:107730000895F901E07CFF7FEF01A0E4B0E0FE01D5
:10774000EE0FFF1F45915591FE01E217F30711F06F
:107750000A0102C07A010C01002704D0219611977A
:1077600071F70895F999FECF17B710FDFDCFEE0F11
:10777000FF1F016007BFE895089502FF40696C3B59
:10778000C13BFC01EE0FFF1F859195913DCC080098
:10779000326C69746572616CBD3B0038C338870711
:1077A00087071F3801FF3D00C73B00389239173962
:1077B0001F3801FF3100D23B4738010001FF320082
:1077C000D93B4738020002FF2D31DE3B4738FFFF2F
:1077D00003FF6E3E7200E33BED3BFC01082F8991F5
:1077E00099919F938F930A95D1F7EF93FF93899186
:1077F00099910ACC03FF6E723E00E83BFF3B9A93DF
:107800008A93FF91EF910E2F8F919F919A938A9374
:107810000A95D1F7CF01F8CB03FF64322A00FA3B77
:10782000113C09911991000F111F881F991F1A937C
:107830000A93EACB03FF64322F000C3C1F3C0991F2
:10784000199195958795179507951A930A93DCCB0F
:1078500002FF642B1A3C2C3C29913991E990F99054
:1078600049915991240F351F8E1D9F1D3A932A93DC
:10787000CBCB02FF642D283C3D3C29913991E99006
:10788000F99049915991421B530BE80AF90A5A930E
:107890004A93C701B9CB07FF64696E7665727400BD
:1078A000393C523C0991199180959095009510951D
:1078B0001A930A93A9CB04FF2F6D6F644B3C603C75
:1078C0009C0109911991412F432717FF04C010957E
:1078D00000950F5F1F4F37FF04C0309520952F5F35
:1078E0003F4FEE24FF1851E1001F111F5A9539F444
:1078F00047FF04C0109500950F5F1F4F0BC0EE1C93
:10790000FF1CE21AF30A20F4E20EF31E8894ECCF77
:107910000894EACFFA92EA92C80176CB03FF61623B
:1079200073005B3C0038B0383D3A1F3804FF706983
:10793000636B8E3C00382E3AAE3E8C3A9C397838D8
:107940001F3805FF63656C6C2B00963CA73C0296C4
:107950005BCB0038BE030300206F6B00F1031F38C0
:1079600003FF2E6F6B00A13CE93D1C00B23DBE3D04
:107970000038BE0302003E208B3FF1031F3806FF94
:107980002E7265616479B03CE93D2000B23DBE3D98
:107990000038BE030400203F3F20F103A73E7838A3
:1079A000FE382B3F7303CC3E78387303F538A73E7F
:1079B00080381F3806FF2E6572726F72BF3CE93D3A
:1079C0001E00B23DBE3D00388B3F1F3806FF2E69BA
:1079D0006E707574DA3CE93D2200B23DBE3D04FF95
:1079E00071756974E63C003866086D088038D0050A
:1079F000953AD8057F3AFB08A13E783817393538D3
:107A0000023DC43CDF04EB3C3538153D3C382606CE
:107A10005D3DB8383538153DB0383C38FEFF6D391E
:107A20003538133DDF3C2E38F43CB43C2E38FC3C5A
:107A300005FF706175736500EF3CE93DA3019E3D54
:107A4000A83D04FF636F6C64183D263DA4B6222454
:107A50003324BB2424BEE0E0F1E02192E030E9F7DA
:107A6000FB30D9F7E5EAF1E02F010FEF0DBF0483FA
:107A70001AE01EBF1583CFEAC683DAE0D783A7E4F6
:107A8000BDE3C2CA04FF7761726D213D00389002E8
:107A90003C38BF3F3C381D3DC93DFB08463FF33CE9
:107AA00007FF68616E646C657200423D57380A00DA
:107AB00005FF636174636800503D00388C3AFE38FE
:107AC000563D7838FE38753A563D80382938F538B5
:107AD000563D8038F538D83853391F3805FF74685B
:107AE000726F7700583D0038B8383538833D563DC1
:107AF00078387F3AF538563D8038F538C338FE3847
:107B0000953AD838F5381F3807FF456465666572C1
:107B100040006E3D0038C03B543B1F3807FF4564B2
:107B2000656665722100843D0038C03B303B1F38DC
:107B300007FF52646566657240008E3D0038C03BA9
:107B400078381F3807FF5264656665722100983DDA
:107B50000038C03B80381F3807FF55646566657282
:107B60004000A23D0038C03B013B9C3978381F38AB
:107B700007FF5564656665722100AC3D0038C03B67
:107B8000013B9C3980381F3806FF646566657221A9
:107B9000B83D0038BA3FB038AE01AE01C03B29381D
:107BA0001F3806FF646566657240C43D0038BA3F01
:107BB000B038AE01C03B29381F3807FF286465661E
:107BC00065722900D13D00383807A3086607E93DF2
:107BD0001F380E94BC08B038AE01C03B2938293894
:107BE0001F3802FF752EDD3D003853397B031F38E7
:107BF00003FF752E7200F13D00385339C3388403FA
:107C00001F3805FF752F6D6F6400F83D0038FE3892
:107C10005339F538C1391F3806FF6E6567617465E1
:107C2000013E0038FC392E3A1F3801FF2F000C3E70
:107C300000385F3CEF381F3803FF6D6F6400153E5E
:107C400000385F3CD8381F3803FF6D696E001C3E5A
:107C50000038B33E773935382E3EC338D8381F3810
:107C600003FF6D617800243E0038B33E6D3935382E
:107C70003A3EC338D8381F3806FF77697468696E92
:107C8000303E0038CE389239FE389239F5385B39BB
:107C90001F380DFF73686F772D776F72646C69738F
:107CA00074003C3E00383C38583EC338D9061F3873
:107CB0000038F406F103983F4A391F3805FF776F03
:107CC00072647300493E00383C386E00543B523EAB
:107CD0001F3802002E225E3E0038743E6607F10314
:107CE0001F3802007322693E00383C3822008905A3
:107CF000A13E783835387D3E92071F3804FF66690B
:107D00006C6C713E0038E038E038B83835388F3E5A
:107D1000833F9A3AB038AB3A8C38C83A8A3ED83862
:107D20001F3805FF665F637075007E3E00383C3883
:107D300000243C38F4001F3805FF7374617465003B
:107D4000913E4738D30104FF626173659C3E57380A
:107D50000C0005FF63656C6C7300A33E0B3A04FFD7
:107D600032647570A93E0038CE38CE381F3805FF12
:107D70003264726F7000AF3E0038D838D8381F3880
:107D800004FF7475636BB73E0038C338CE381F38B4
:107D900003FF3E696E00C03E5738180003FF706154
:107DA0006400C83E00380D3F3C3828009C391F381D
:107DB00004FF656D6974CE3EE93D0E00B23DBE3DE7
:107DC00005FF656D69743F00D83EE93D1000B23D86
:107DD000BE3D03FF6B657900E03EE93D1200B23D18
:107DE000BE3D04FF6B65793FE93EE93D1400B23DBD
:107DF000BE3D02FF6470F13E6E3858008A3D943DEE
:107E000005FF656865726500F93E6E385C008A3D65
:107E1000943D04FF68657265003F6E385A008A3DE4
:107E2000943D05FF616C6C6F7400093F00380D3F95
:107E30009C399C010E3F1F3803FF62696E00113FA1
:107E40000038E13BA73E80381F3807FF646563694F
:107E50006D616C001C3F00383C380A00A73E80383A
:107E60001F3803FF68657800253F00383C38100054
:107E7000A73E80381F3802FF626C313F4738200030
:107E800007FF7475726E6B6579003B3FE93D6400D6
:107E90008A3D943D07FF746F757070657200403FB6
:107EA0000038B0383C3861003C387B00413E353802
:107EB0005C3F3C38DF00123A1F3807FF746F6C6F6D
:107EC000776572004A3F0038B0383C3841003C3892
:107ED0005B00413E35386F3F3C3820001B3A1F386D
:107EE00006FF3F737461636B5D3F0038E3051E3925
:107EF00035387D3F3C38FCFF733D1F3806FF626F0D
:107F0000756E6473703F0038CE389C39C3381F38A3
:107F100002FF63727E3F00383C380D00DC3E3C3887
:107F20000A00DC3E1F3805FF737061636500883FFF
:107F300000383E3FDC3E1F3806FF73706163657397
:107F4000933F00385339343EB0383538AB3F983F13
:107F5000343A2E38A43FD8381F3803FF733E6400EC
:107F60009C3F0038B0381E391F3805FF3E626F64F1
:107F70007900AD3F2F3A04FF6E6F6F70B53F003848
:027F80001F38A8
:00000001FF
