:020000020000FC
:0200040026D103
:0200080024D101
:02000C0022D1FF
:0200100020D1FD
:020014001ED1FB
:020018001CD1F9
:02001C001AD1F7
:0200200018D1F5
:0200240016D1F3
:0200280014D1F1
:02002C0012D1EF
:0200300010D1ED
:020034000ED1EB
:020038000CD1E9
:02003C000AD1E7
:0200400008D1E5
:0200440006D1E3
:0200480004D1E1
:02004C0002D1DF
:0200500000D1DD
:02005400FED0DC
:02005800FCD0DA
:02005C00FAD0D8
:02006000F8D0D6
:10006400F6D00008000400701A000A0041546D65BF
:1000740067613332385007FF3E72782D627566002F
:1000840000004400082F10911001E0E0F1E0E10FBE
:10009400F31D008313951F7010931001899199919A
:1000A4000C94043806FF6973722D72783D00003891
:1000B4003C38C6009738B0383C380300D53B353857
:1000C4006400253D43001F3800383C3859003C3853
:1000D40024005F0A3C3800013C3816005339823E44
:1000E4001F3806FF72782D6275665400003893003D
:1000F400353879003C3811019738B0383C38000164
:100104009C399738C3382E3A3C380F00123A3C38A1
:1001140011018C381F3807FF72783F2D6275660015
:10012400730000381D3D3C38110197383C381001EC
:10013400973810391F3807FF74782D706F6C6C0076
:100144008D000038B1003538A4003C38C6008C3826
:100154001F3808FF74783F2D706F6C6C9D00003859
:100164001D3D3C38C00097383C382000123A1F38F7
:1001740004FF75627272AB006E388E008A3D943D46
:1001840006FF2B7573617274BA0000383C3898000E
:100194003C38C1008C383C3806003C38C2008C38EE
:1001A400BE00B038F83A3C38C5008C383C38C4003E
:1001B4008C3866001F3808FF31772E7265736574BA
:1001C400C200E4009A938A93249A2C98E0E8F7E01A
:1001D4003197F1F71FB7F8942C9A2498E0E0F1E0F6
:1001E4003197F1F783B184FF9FEF1FBF24982C98B8
:1001F400E0E8F6E03197F1F7892F0C94043807FF13
:1002040031772E736C6F7400DD0008012C98249AEA
:100214001FB7F894E8E1F0E03197F1F788948795F7
:1002240010F42C9A2498E4E2F0E03197F1F703B14A
:1002340004FD8068ECECF0E03197F1F72C9A2498F7
:0E024400E8E0F0E03197F1F71FBF0C940438AA
:040000000C94263DF9
:100252000A920FB60A920F900F900A94BB2001F0F7
:10026200B02CFF93EF93E2E1F1E00694E00DF31D71
:10027200008003940082EF91FF9109900FBE0990D4
:10028200089502FF6D2B01010038B13F2B3C1F384E
:1002920003FF75642A0042010038B038FE38DF39A6
:1002A200D838C338F538DF39E0389C391F3804FFB5
:1002B200756D617849010038B33E5B3935386201AA
:1002C200C338D8381F3804FF756D696E580100387D
:1002D200B33E663935386E01C338D8381F38003816
:1002E2003C380080123A173935387901DC3B1F3827
:1002F2004A391F380AFF6E616D653E666C6167732D
:1003020064010038C03B3C3800FF123A1F3803FF3B
:10031200316D73007B018D01E0EAFFE03197F1F767
:100322000C94043803FF7665720088010038E102FC
:100332000A04983FA73E7838EF022B3FB13F2803CB
:1003420030033C382E001903460351034004A73EF4
:100352008038983FF7020A041F3806FF756E7573DE
:100362006564930100388C3A0D3F92391F380200C0
:10037200746FAE0100384F04BA3FA13E7838353869
:10038200CC017F07C6018A071F380038F538B0381C
:10039200D801FE38C03BB038D801D801C03B29385B
:1003A2001F3807FF692D63656C6C2B00B80100389C
:1003B2002E3A1F3808FF69636F6D70617265D20152
:1003C2000038FE38CE38F53810393538EC01BC3EED
:1003D200D8384A391F38C3385339490835380F02DB
:1003E2009A3ACE387838CE38C03BB0383C38000123
:1003F2005B3935380002C3383C38FF00123A1039F5
:1004020035380702BC3E4A39D33A1F382E3AC33830
:10041200A63CC3383C380200B93AF201BC3E53391B
:100422001F3801FF2A00DB010038A539D8381F38F0
:1004320001FF6A0012020038753A3C3807009C3905
:100442007838753A3C3809009C3978389C391F381D
:1004520004FF6461627319020038B0381E393538FE
:1004620033023A021F3807FF646E656761746500E4
:1004720029020038513CDC3B53392B3C1F3805FF25
:10048200636D6F76650034024602BF93AF93E991C4
:10049200F991A991B991092F082B21F01D9111937E
:1004A2000197E1F7AF91BF91899199910C9404382A
:1004B20005FF32737761700040020038E038FE3881
:1004C200E038F5381F380AFF726566696C6C2D7466
:1004D20069625902003887023C385A009F048D0233
:1004E20080385339CC3E80384A391F380AFF736F3F
:1004F200757263652D7469626402003887028D0229
:1005020078381F3803FF74696200770247382C017C
:1005120004FF2374696283024738860106FF65651A
:100522003E72616D8902003853399A3ACE38543B93
:10053200CE388038A63CC338A63CC338C83A9702A6
:10054200BC3E1F3808FF696E69742D72616D8F029F
:1005520000383C386A00013B3C382400033A9402DC
:100562001F380BFF656E7669726F6E6D656E740073
:10057200A3024738440009FF776F72646C69737491
:100582007300000000383C3808001F3804FF2F7049
:100592006164BC0200388C3AD23E92391F3805FFA2
:1005A2002F686F6C6400C7020038D23E0D3F92394B
:1005B2001F380AFF666F7274682D6E616D65D00216
:1005C2000038D7030700616D666F727468001F38C8
:1005D20007FF76657273696F6E00DA0200383C3885
:1005E20045001F3803FF63707500E90200383C388C
:1005F200370036041F3808FF6D63752D696E666F0C
:10060200F30200383C3833001F3805FF2F7573653D
:100612007200FC0200383C382E001F3803FF686C61
:100622006400B2024738880104FF686F6C640F03EC
:1006320000381303B0387838343AB038FE38C3384B
:100642008038F5388C381F3802FF3C2315030038F8
:10065200D23E130380381F3801FF230025030038E0
:10066200A73E7838AD03E0383C380900CE386D3902
:1006720035383E033C3807009C393C3830009C3901
:1006820019031F3802FF23732D0300383003B33ED2
:100692001B3A1739353847031F3802FF233E4303FD
:1006A2000038BC3E13037838D23ECE3892391F3818
:1006B20004FF7369676E4E0300381E3935386403D0
:1006C2003C382D0019031F3803FF642E72005903B2
:1006D2000038FE38C43E2D0228034603E0385D038D
:1006E2005103F538CE389239A13F40041F3802FF3A
:1006F2002E7265030038FE38B13FF53869031F38A2
:1007020002FF642E7803003853396903983F1F387B
:1007120001FF2E0081030038B13F84031F3803FF1D
:1007220075642E008903003853399D03983F1F38A2
:1007320004FF75642E7290030038FE3828034603C6
:100742005103F538CE389239A13F40041F3806FFD5
:1007520075642F6D6F6499030038FE38533905397B
:10076200C139F538C338FE38C139F5381F3806FFAC
:1007720064696769743FA8030038503FB0383C3859
:10078200390077393C380001123A9C39B0383C388C
:10079200400177393C380701123A92393C3830002F
:1007A2009239B038A73E78385B391F38003805399E
:1007B2003604F538CE382E3A033A9C392E3AFE38B2
:1007C2001F3802FF732CB8030038B038E9031F3812
:1007D20000388A07B038033AC43E0A3A9239FE38E2
:1007E200533949083538FC039A3AB03878388A07C1
:1007F200A63CC83AF603F538253935380304B03833
:1008020097388A07D8381F3805FF697479706500F0
:10081200E2030038B038033AC43E0A3A9239FE384D
:100822005339490835381E049A3AB038C03BB038BB
:100832002B0427042E3AC83A1604F53825393538E0
:100842002504B038C03B2B04D8381F380038F83A9A
:100852002B041F3800383C38FF00123ADC3E1F38A8
:1008620006FF69636F756E7405040038B0382E3A5E
:10087200C338C03B1F3804FF7479706531040038F7
:10088200833F490835384B049A3AAB3A9738DC3EF5
:10089200C83A46041F3801FF27003C040038CF0540
:1008A2000D061806B038AE06D53BC338C03B3C38FF
:1008B200BF3FD53B1B3A353861043C38F3FF733DEB
:1008C200D8381F3805FF63736B6970004C04003819
:1008D200FE38B03835387704CE3897380539D53BED
:1008E20035387704DC3BC0052E386A04F538D83831
:1008F2001F3805FF637363616E0063040038FE38BE
:10090200CE38B03897380539D53B17393538940485
:10091200C338343AC338CE381E39173935389404BF
:100922002E3A2E388204EF38CE389239F538D8383C
:100932001F3806FF6163636570747A040038CE382D
:100942009C39CE38ED3EB038E80417393538DB042F
:10095200B0383C380800D53B3538C104D838E038C7
:10096200B33E7739FE38E038E038F5383538BF0421
:10097200E004343AFE38CE38F5385C012E38D9041A
:10098200B0383E3F6D393538C804D8383E3FFE385E
:10099200B33E7739F538C3383538D804B038DC3E41
:1009A200CE388C382E3ACE3868012E38D904D83851
:1009B2002E38A304D838EF38C33892391F3800389C
:1009C2003C380800B038DC3E983FDC3E1F38003827
:1009D200B0383C380D00D53BC3383C380A00D53B13
:1009E2001B3A1F3806FF726566696C6C9A04E93D12
:1009F2001A00B23DBE3D04FF63686172F304003821
:100A0200CF051739353808053C38F0FF733D973864
:100A12001F3806FF6E756D626572FC040038A73ED2
:100A22007838FE385305FE3866055305F5381B3A0B
:100A3200FE38B038173935382605BC3EF538D83877
:100A4200F538A73E803853391F38133B5339533991
:100A5200223B8405B83835384805DC3BD53B353870
:100A62003F0597383C382E00D53B35384005F538E0
:100A720035383C053A02E13B2E384E05D838BC3EAB
:100A8200F538D838F538A73E803853391F38BC3E80
:100A9200F53835384D05113EDC3BF538A73E803838
:100AA2004A391F380038CE3897383C382D00D53BAC
:100AB200B038FE3835385F05DC3BC005F5381F38E5
:100AC20051380A00100002000A000038CE38973868
:100AD2003C3823009239B03853393C380400413E47
:100AE20035387C0561059C39C03BA73E8038DC3B2C
:100AF200C0052E387D05D8381F3807FF3E6E756D4C
:100B0200626572000A050038B03835389C05CE3867
:100B12009738BD03173935389005D8381F38FE3855
:100B22005E02A73E78384D01F53845015E02DC3B96
:100B3200C0052E3885051F3805FF70617273650088
:100B42007E050038FE38B605CC3E7838C005F5384B
:100B52007F04B0382E3ACC3E643ADC3BC0051F38E5
:100B620006FF736F757263659D05E93D1600B23D20
:100B7200BE3D07FF2F737472696E6700B1050038BE
:100B8200E038CE389C39E038E03892391F380AFF15
:100B920070617273652D6E616D65BA0500383E3FF6
:100BA200D3051F380038FE38B605CC3E7838C0056C
:100BB20005396804F5387F04B33E9C39B605D83848
:100BC2009239CC3E80381F3803FF73703000C8055D
:100BD2006E380600B23DBE3D03FF72703000E5057F
:100BE2000038F50578381F385738040005FF64656A
:100BF20070746800ED050038E9058C3A9239033AC1
:100C0200343A1F3810FF666F7274682D7265636F15
:100C1200676E697A6572F7056E383E008A3D943DCB
:100C220009FF7265636F676E697A650003060038B3
:100C32003C382306C338CA09173935382206BC3E68
:100C4200AE061F380038E038E038B33E133BE038D8
:100C52002938223BE038B038AE06D53B3538340669
:100C6200D83853391F38EF38EF384A391F3809FF5F
:100C7200696E746572707265740011060038CF0572
:100C8200B038353850060D061806A13E783835388A
:100C92004B06D801C03B2938753F2E384006BC3E72
:100CA2001F380BFF726563747970652D6E756D0068
:100CB20038065138BF3FA007A0070CFF7265637466
:100CC2007970652D646E756D52065138BF3FCD3B0C
:100CD200CD3B07FF7265632D6E756D005E060038B1
:100CE2000F0535387C06DC3BD53B35387A065A068B
:100CF2001F3866061F38AE061F3808FF7265632D5F
:100D020066696E646A0600382307B03817393538C9
:100D12008D06D838AE061F3896061F380AFF726550
:100D220063747970652D78747E0651389A069E0632
:100D3200CD3B0038D83829381F3800381E393538AD
:100D4200A4068A071F3829381F380CFF726563749E
:100D52007970652D6E756C6C8F065138B206B206CD
:100D6200B20600383C38F3FF733D0FFF73656172C2
:100D720063682D776F72646C69737400A60600381D
:100D8200FE3853393C38D506F538F206B0381739F3
:100D92003538CF06BC3ED83853391F38B03819071A
:100DA200C338820170011F380038FE38D838B33E8C
:100DB20005390D07E1013538E306F538D8385339DE
:100DC2004A391F38BC3EF53853391F3811FF747247
:100DD2006176657273652D776F72646C69737400E6
:100DE200B6060038543BB03835380307B33E133BE0
:100DF200C3382938223BE03835380307350AC03B6F
:100E02002E38F406BC3E1F380BFF6E616D653E73D3
:100E12007472696E6700E706003836043C38FF00DA
:100E2200123A1F3807FF6E66613E6366610005076E
:100E32000038350A2E3A1F3807FF66696E642D782E
:100E42007400130700383C382F073C384A00CA099F
:100E5200173935382E07BC3E53391F380038FE3853
:100E6200B33EF538C006B03835383C07FE38EF38A7
:100E7200EF38F5384A391F3806FF6E6577657374A7
:100E82001D0747388A0106FF6C61746573743D075C
:100E920047388E0108FF286372656174652944072B
:100EA2000038CF05B3085E071F380BFF2863726551
:100EB2006174652D696E29004B070038B03842070E
:100EC200A63C80389808420780381F3801005C0031
:100ED20056070038B605EF38CC3E80381F3801007F
:100EE2002800670700383C382900A205BC3E1F389D
:100EF20007FF636F6D70696C650070070038F53825
:100F0200B038D801FE38C03B8A071F3801FF2C00D9
:100F120079070038FC3E683BFC3E2E3AC601FD3E96
:100F22001F3803005B275D00870700384F04A007C6
:100F32001F3807006C69746572616C009207003893
:100F42007F073C388A071F380800736C6974657222
:100F5200616C9A0700387F07D703E5031F38003812
:100F6200FC3E7F07FFFF1F380038753FFC3EC33849
:100F7200683B1F380038FC3E1F380038753F8A072F
:100F82001F380500616865616400A50700387F07A6
:100F92002E38B0071F3802006966C20700387F0783
:100FA2003538B0071F380400656C7365CC0700380C
:100FB2007F072E38B007C338B5071F38040074689E
:100FC200656ED4070038B5071F380500626567698A
:100FD2006E00DF070038BB071F3805007768696CB1
:100FE2006500E6070038CF07C3381F380600726570
:100FF20070656174EE0700381008E3071F380500BA
:10100200756E74696C00F70700383C3835388A070A
:10101200BE071F380500616761696E00000800386D
:101022007F072E38BE071F380200646F0B08003896
:101032007F079A3ABB07533973081F3804006C6F55
:101042006F70150800387F07C83A5A081F38050024
:101052002B6C6F6F70001F0800387F07B93A5A086F
:101062001F3805006C6561766500280800387F0727
:10107200D33AC70773081F3803003F646F00320872
:1010820000387F074908CF071808C33873081F388C
:101092000038B33ED53BB038FE3835385108BC3E37
:1010A200F538FC391F3807FF656E646C6F6F70008E
:1010B2003D080038BE076708B83835386308E307CB
:1010C2002E385C081F3802FF6C3E54080038860830
:1010D200783878383C38FEFF8608643A1F3802FFB9
:1010E2003E6C64080038E13B8608643A860878382A
:1010F20080381F3803FF6C70300070086E38400073
:101102008A3D943D02FF6C707B084738900106FFD0
:10111200637265617465830800385107BC087F07F4
:1011220051381F3806FF68656164657288080038A7
:10113200FC3EFE38FE38B03825393538AA08B038BA
:101142003C3800FF1B3AE903F538543B8A07F5386F
:101152001F383C38F0FF733D07FF776C73636F7085
:1011620065009308E93D3C008A3D943D06FF7265A7
:101172007665616CAD0800384207A63C7838B8380D
:101182003538C70842077838C338303B1F38050066
:10119200646F65733E00B70800387F07E0087F0779
:1011A2000E947F07D5081F389A938A93CB01019634
:1011B2007F916F91BF93AF93DB010C940438003899
:1011C200F5384207A63C7838543B1907683B1F386C
:1011D20001FF3A00C80800385107F708D8381F380D
:1011E20007FF3A6E6F6E616D6500E9080038FC3EDC
:1011F200B038490780387F0700380C091F380100D2
:101202003B00F10800387F071F381409BC081F385B
:1012120001FF5D0000090038DC3BA13E80381F3829
:1012220001005B00090900385339A13E80381F389C
:1012320008FF7661726961626C65110900380D3FC1
:101242002B09E13B163F1F3808FF636F6E73746111
:101252006E74190900385107BC087F0747388A079E
:101262001F3804FF75736572250900385107BC08E1
:101272007F0757388A071F380700726563757273D4
:10128200650032090038490778388A071F3809FF94
:10129200696D6D656469617465003D090038F10925
:1012A200543BB038C03B3C38FF7F123AC338683BEE
:1012B2001F3806005B636861725D480900387F076A
:1012C2003C3800058A071F38060061626F7274227B
:1012D2005A090038743E7F077C091F3805FF616296
:1012E2006F727400650900384A39733D06FF3F6129
:1012F200626F72746F090038E038353882090A0467
:101302007409BC3E1F3809FF6765742D73746163ED
:101312006B0077090038B038A63CC338543BB0386C
:10132200FE385339C33849083538A2099A3AAB3ADC
:10133200343AAE3ECE389C39543BC3384A39B93A76
:101342009809BC3EF5381F3809FF7365742D737414
:1013520061636B0084090038CE381E393538B40910
:101362003C38FCFF733DB33E303BC3385339490828
:101372003538C1099A3AA63CC43E303BC83ABC094A
:10138200D8381F3809FF6D61702D737461636B006B
:10139200A5090038B038A63CC338543BAE3E833F63
:1013A20049083538E6099A3AAB3A543BC338FE3815
:1013B20005392938B8383538E209F538D838D33AFA
:1013C2001F38F538E13BB93AD509D83853391F38B7
:1013D2000BFF6765742D63757272656E7400C309C5
:1013E20000383C384600543B1F3809FF6366672DBE
:1013F2006F7264657200E90947384A0008FF636644
:10140200672D72656373F60947385C0007FF636FE7
:101412006D7061726500FF090E0ABF93AF938C0174
:1014220089919991DC01899199919C018991999174
:10143200FC01ED90F190EF1451F40A9519F02A9500
:10144200C1F701C02A95022B11F4882702C08FEF41
:1014520000C0982FAF91BF910C94043807FF6E66BD
:10146200613E6C666100070A00380D072E3A033AA6
:101472009C391F3806FF6972715B5D232F0A0038A1
:101482003C3812019C391F3804FF23696E743B0AF1
:1014920047381A0004FF2B696E74450A500A789483
:1014A2000C94043804FF2D696E744B0A580AF894A0
:1014B2000C94043804FF696E7421530A00383C38D6
:1014C20000009C39303B1F3804FF696E74405B0A90
:1014D20000383C3800009C39543B1F3808FF696EC5
:1014E200742D74726170650A760AB82E8991999189
:1014F2000C9404380038690A2938800A1F38810A96
:1015020002D00C94043818950BFF7365742D637523
:101512007272656E74006F0A00383C384600303BC8
:101522001F3808FF776F72646C697374850A00381C
:10153200053F5339CE38303BB038A63CC601063F92
:101542001F380EFF666F7274682D776F72646C6954
:101552007374920A4738480004FF636F6465A20AF5
:1015620000385107BC08FC3ED8018A071F3808FF23
:10157200656E642D636F6465AD0A00387F070C9455
:101582007F0704381F3808FF286D61726B65722966
:10159200B80A6E3868008A3D943D0800706F737413
:1015A200706F6E65C40A0038CF050D061806B03894
:1015B200FE38D801D801C03B2938F538D801C03BE4
:1015C2008A071F380BFF6170706C7475726E6B65E1
:1015D2007900CE0A0038C7004F0A9701983FD70317
:1015E2000A00466F7274686475696E6F0A041F3868
:10700000BF93AF93DB011196B21469F4FD01EE0F4B
:10701000FF1F659175911196FB01EE0FFF1F059102
:107020001591F80109949A938A938B2DBB24992783
:107030006BE77AE0F1CF04FF65786974E30A2038E2
:10704000AF91BF91E1CF07FF657865637574650007
:107050001B382A38BC0189919991DECF2F38FD0168
:10706000EE0FFF1FA591B591CFCF3638982B8991A0
:107070009991A9F31196C8CF3D389A938A93FD014F
:10708000EE0FFF1F859195911196BECF47389A93C9
:107090008A93FB013196EE0FFF1F85919591B4CF36
:1070A00051389A938A93CB010196AECF57389A9371
:1070B0008A93FB013196EE0FFF1F85919591840D08
:1070C000951DA2CF07FF2876616C756529002338CE
:1070D00000385107BC087F076E381F380E94D5085A
:1070E000B038D801C03B29381F3801FF4000623852
:1070F0007938FC018191919187CF01FF210075388A
:107100008138FC018991999191838083899199912A
:107110007BCF02FF63217D388D38FC0189919991E5
:1071200080838991999170CF02FF634089389838A4
:10713000FC019927808168CF02FF407594380038A0
:10714000013B9C3978381F3802FF21759C38003884
:10715000013B9C3980381F3803FF64757000A438E8
:10716000B1389A938A9350CF04FF3F647570AC385E
:10717000B938082F092B11F09A938A9345CF04FF51
:1071800073776170B438C4388C01899199911A93DE
:107190000A933ACF04FF6F766572BF38CF389A935F
:1071A0008A938A819B8130CF04FF64726F70CA38E2
:1071B000D9388991999128CF03FF726F7400D43820
:1071C000E1388C0129913991899199913A932A93C7
:1071D0001A930A9319CF03FF6E697000DC38F038F8
:1071E000229612CF02FF723EEB38F6389A938A93BA
:1071F0008F919F9109CF02FF3E72F238FF389F9323
:107200008F93D7CF02FF7240FB3806399A938A9347
:107210008F919F919F938F93F7CE02FF3C3E02394F
:107220000038D53B17391F3802FF303D0D3918396A
:10723000982BE1F532C002FF303C14391F3997FD1D
:107240002CC034C002FF303E1B392639821593050D
:107250006CF161F122C003FF64303E002239303905
:1072600093153CF082058991999182059305F1F07F
:1072700014C0C101B5CF03FF64303C002B39403945
:10728000229697FD0C944D390C94563904FF747274
:1072900075653B394B399A938A938FEF9FEFB4CE44
:1072A00001FF3000463954399A938A93C101ACCE1C
:1072B00002FF753C50395C39299139918217930747
:1072C000A8F3A1F3EACF02FF753E58390038C3385E
:1072D0005B391F3801FF3C0063396E3929913991C0
:1072E000281739071CF7D9CF01FF3E006A397839D2
:1072F0002991399128173907CCF2C1F2CECF04FF7A
:107300006C6F673274398439FC01992780E18A9562
:1073100022F0EE0FFF1FD8F777CE9A9575CE01FFBA
:107320002D007F39933909911991081B190BC80158
:107330006BCE01FF2B008F399D3909911991800F78
:10734000911F62CE02FF6D2A9939A6398C0189916D
:1073500099919C0131027001209FC0013003F30814
:10736000900DE11CF31C1203F308900DE11CF31CBB
:107370009A938A93C70148CE06FF756D2F6D6F648F
:10738000A239C2397C01299139910991199140E1C1
:107390005527000F111F221F331F551F2E153F05A4
:1073A000520518F003952E193F094A9589F73A932B
:1073B0002A93C80129CE03FF756D2A00BC39E03934
:1073C0008C0189919991809FF00122273327909F0A
:1073D000F00D211D331D819FF00D211D331D919F47
:1073E000200D311DCF019A938A93C9010DCE06FF5E
:1073F000696E76657274DB39FD398095909504CE9F
:1074000002FF322FF739043A95958795FDCD02FF9B
:10741000322A003A0B3A880F991FF6CD03FF616EAE
:107420006400073A133A0991199180239123ECCD16
:1074300002FF6F720E3A1C3A09911991802B912B21
:10744000E3CD03FF786F7200183A263A099119913B
:1074500080279127D9CD02FF312B213A2F3A01966F
:10746000D3CD02FF312D2B3A353A0197CDCD07FF11
:107470003F6E656761746500313A00381E393538F2
:10748000423A113E1F3806FF6C7368696674373ADA
:10749000493AFC018991999131971AF0880F991F07
:1074A000FBCFB2CD06FF727368696674433A583AEF
:1074B000FC018991999131971AF096958795FBCFA8
:1074C000A3CD02FF2B21523A653AFC018991999193
:1074D00020813181820F931F8083918389919991BB
:1074E00093CD03FF72704000613A763A9A938A9383
:1074F0008DB79EB789CD03FF72702100713A803A33
:107500002FB7F8948DBF9EBF2FBF899199917CCDE5
:1075100003FF737040007B3A8D3A9A938A93CE01B1
:1075200073CD03FF73702100883A963AEC0189917C
:1075300099916ACD9B3A29913991E0E83E0F821BDF
:10754000930B3F932F939F938F93899199915CCD48
:1075500001FF6900913AAC3A9A938A938F919F9177
:10756000EF91FF91FF93EF939F938F938E0F9F1F48
:107570004BCDBA3AEF91FF91E80FF91F899199919C
:107580001BF0FF93EF936BCD0F911F9111963CCDA4
:10759000C93AEF91FF913196BBF3F3CF06FF756EB9
:1075A0006C6F6F70A83AD43A1F910F911F910F9191
:1075B0002BCD06FF636D6F76653ECE3ADF3ABF9303
:1075C000AF93E991F991A991B991092F082B41F055
:1075D000E80FF91FA80FB91F1E9112930197E1F749
:1075E000AF91BF91899199910FCD02FF3E3CD93A5D
:1075F000F93A092F982F802F07CD03FF75704000AF
:10760000F53A023B9A938A93C201FECC03FF757050
:107610002100FD3A0B3B2C0189919991F5CC03FF98
:10762000323E7200063B143BFC01899199919F9375
:107630008F93FF93EF9389919991E6CC03FF327278
:107640003E000F3B233B9A938A93EF91FF918F91DA
:107650009F919A938A93CF01D7CC02FF21651E3B5D
:10766000313BFC01899199912FB7F89428D000B54E
:10767000081709F00BD0319622D000B5091711F088
:10768000892F04D02FBF89919991BECCF999FECF53
:1076900007B700FDFDCFF2BDE1BD80BDFA9AF99AB2
:1076A000089502FF40652D3B553B2FB7F894FC0130
:1076B00006D080B5319603D090B52FBFA5CCF999EF
:1076C000FECFF2BDE1BDF89A089502FF2169513B5A
:1076D000E93D66008A3D943D09FF2821692D6E72BF
:1076E00077772900653B743B1FB71F93F8949C0183
:1076F00089919991AF93BF93CF93DF9309D0DF9195
:10770000CF91BF91AF91899199911F911FBF7CCC6F
:1077100010D0E094F0948E219F21982B19F0F9015C
:1077200002E020D0F90104E01DD0F90100E11AD0F7
:107730000895F901E07CFF7FEF01A0E4B0E0FE01D5
:10774000EE0FFF1F45915591FE01E217F30711F06F
:107750000A0102C07A010C01002704D0219611977A
:1077600071F70895F999FECF17B710FDFDCFEE0F11
:10777000FF1F016007BFE895089502FF40696C3B59
:10778000C13BFC01EE0FFF1F859195913DCC080098
:10779000326C69746572616CBD3B0038C338A007F8
:1077A000A0071F3801FF3D00C73B00389239173949
:1077B0001F3801FF3100D23B4738010001FF320082
:1077C000D93B4738020002FF2D31DE3B4738FFFF2F
:1077D00003FF6E3E7200E33BED3BFC01082F8991F5
:1077E00099919F938F930A95D1F7EF93FF93899186
:1077F00099910ACC03FF6E723E00E83BFF3B9A93DF
:107800008A93FF91EF910E2F8F919F919A938A9374
:107810000A95D1F7CF01F8CB03FF64322A00FA3B77
:10782000113C09911991000F111F881F991F1A937C
:107830000A93EACB03FF64322F000C3C1F3C0991F2
:10784000199195958795179507951A930A93DCCB0F
:1078500002FF642B1A3C2C3C29913991E990F99054
:1078600049915991240F351F8E1D9F1D3A932A93DC
:10787000CBCB02FF642D283C3D3C29913991E99006
:10788000F99049915991421B530BE80AF90A5A930E
:107890004A93C701B9CB07FF64696E7665727400BD
:1078A000393C523C0991199180959095009510951D
:1078B0001A930A93A9CB04FF2F6D6F644B3C603C75
:1078C0009C0109911991412F432717FF04C010957E
:1078D00000950F5F1F4F37FF04C0309520952F5F35
:1078E0003F4FEE24FF1851E1001F111F5A9539F444
:1078F00047FF04C0109500950F5F1F4F0BC0EE1C93
:10790000FF1CE21AF30A20F4E20EF31E8894ECCF77
:107910000894EACFFA92EA92C80176CB03FF61623B
:1079200073005B3C0038B0383D3A1F3804FF706983
:10793000636B8E3C00382E3AAE3E8C3A9C397838D8
:107940001F3805FF63656C6C2B00963CA73C0296C4
:107950005BCB0038D7030300206F6B000A041F388D
:1079600003FF2E6F6B00A13CE93D1C00B23DBE3D04
:107970000038D70302003E208B3F0A041F3806FF61
:107980002E7265616479B03CE93D2000B23DBE3D98
:107990000038D7030400203F3F200A04A73E783870
:1079A000FE382B3F8C03CC3E78388C03F538A73E4D
:1079B00080381F3806FF2E6572726F72BF3CE93D3A
:1079C0001E00B23DBE3D00388B3F1F3806FF2E69BA
:1079D0006E707574DA3CE93D2200B23DBE3D04FF95
:1079E00071756974E63C00387F0886088038E905BF
:1079F000953AF1057F3A1409A13E783817393538A0
:107A0000023DC43CF804EB3C3538153D3C383F069C
:107A10005D3DB8383538153DB0383C38FEFF6D391E
:107A20003538133DDF3C2E38F43CB43C2E38FC3C5A
:107A300005FF706175736500EF3CE93D92019E3D65
:107A4000A83D04FF636F6C64183D263DA4B6222454
:107A50003324BB2424BEE0E0F1E02192E030E9F7DA
:107A6000F930D9F7E4E9F1E02F010FEF0DBF0483FE
:107A700018E01EBF1583CFEAC683D8E0D783A7E4FA
:107A8000BDE3C2CA04FF7761726D213D0038A902CF
:107A90003C38BF3F3C381D3DC93D1409463FF33CCF
:107AA00007FF68616E646C657200423D57380A00DA
:107AB00005FF636174636800503D00388C3AFE38FE
:107AC000563D7838FE38753A563D80382938F538B5
:107AD000563D8038F538D83853391F3805FF74685B
:107AE000726F7700583D0038B8383538833D563DC1
:107AF00078387F3AF538563D8038F538C338FE3847
:107B0000953AD838F5381F3807FF456465666572C1
:107B100040006E3D0038C03B543B1F3807FF4564B2
:107B2000656665722100843D0038C03B303B1F38DC
:107B300007FF52646566657240008E3D0038C03BA9
:107B400078381F3807FF5264656665722100983DDA
:107B50000038C03B80381F3807FF55646566657282
:107B60004000A23D0038C03B013B9C3978381F38AB
:107B700007FF5564656665722100AC3D0038C03B67
:107B8000013B9C3980381F3806FF646566657221A9
:107B9000B83D0038BA3FB038D801D801C03B2938C9
:107BA0001F3806FF646566657240C43D0038BA3F01
:107BB000B038D801C03B29381F3807FF28646566F4
:107BC00065722900D13D00385107BC087F07E93DA7
:107BD0001F380E94D508B038D801C03B2938293851
:107BE0001F3802FF752EDD3D0038533994031F38CE
:107BF00003FF752E7200F13D00385339C3389D03E1
:107C00001F3805FF752F6D6F6400F83D0038FE3892
:107C10005339F538C1391F3806FF6E6567617465E1
:107C2000013E0038FC392E3A1F3801FF2F000C3E70
:107C300000385F3CEF381F3803FF6D6F6400153E5E
:107C400000385F3CD8381F3803FF6D696E001C3E5A
:107C50000038B33E773935382E3EC338D8381F3810
:107C600003FF6D617800243E0038B33E6D3935382E
:107C70003A3EC338D8381F3806FF77697468696E92
:107C8000303E0038CE389239FE389239F5385B39BB
:107C90001F380DFF73686F772D776F72646C69738F
:107CA00074003C3E00383C38583EC338F2061F385A
:107CB00000380D070A04983F4A391F3805FF776FCF
:107CC00072647300493E00383C384C00543B523ECD
:107CD0001F3802002E225E3E0038743E7F070A04E1
:107CE0001F3802007322693E00383C382200A2058A
:107CF000A13E783835387D3EAB071F3804FF6669F2
:107D00006C6C713E0038E038E038B83835388F3E5A
:107D1000833F9A3AB038AB3A8C38C83A8A3ED83862
:107D20001F3805FF665F637075007E3E00383C3883
:107D300000243C38F4001F3805FF7374617465003B
:107D4000913E4738C20104FF626173659C3E57381B
:107D50000C0005FF63656C6C7300A33E0B3A04FFD7
:107D600032647570A93E0038CE38CE381F3805FF12
:107D70003264726F7000AF3E0038D838D8381F3880
:107D800004FF7475636BB73E0038C338CE381F38B4
:107D900003FF3E696E00C03E5738180003FF706154
:107DA0006400C83E00380D3F3C3828009C391F381D
:107DB00004FF656D6974CE3EE93D0E00B23DBE3DE7
:107DC00005FF656D69743F00D83EE93D1000B23D86
:107DD000BE3D03FF6B657900E03EE93D1200B23D18
:107DE000BE3D04FF6B65793FE93EE93D1400B23DBD
:107DF000BE3D02FF6470F13E6E3836008A3D943D10
:107E000005FF656865726500F93E6E383A008A3D87
:107E1000943D04FF68657265003F6E3838008A3D06
:107E2000943D05FF616C6C6F7400093F00380D3F95
:107E30009C39C6010E3F1F3803FF62696E00113F77
:107E40000038E13BA73E80381F3807FF646563694F
:107E50006D616C001C3F00383C380A00A73E80383A
:107E60001F3803FF68657800253F00383C38100054
:107E7000A73E80381F3802FF626C313F4738200030
:107E800007FF7475726E6B6579003B3FE93D4200F8
:107E90008A3D943D07FF746F757070657200403FB6
:107EA0000038B0383C3861003C387B00413E353802
:107EB0005C3F3C38DF00123A1F3807FF746F6C6F6D
:107EC000776572004A3F0038B0383C3841003C3892
:107ED0005B00413E35386F3F3C3820001B3A1F386D
:107EE00006FF3F737461636B5D3F0038FC051E390C
:107EF00035387D3F3C38FCFF733D1F3806FF626F0D
:107F0000756E6473703F0038CE389C39C3381F38A3
:107F100002FF63727E3F00383C380D00DC3E3C3887
:107F20000A00DC3E1F3805FF737061636500883FFF
:107F300000383E3FDC3E1F3806FF73706163657397
:107F4000933F00385339343EB0383538AB3F983F13
:107F5000343A2E38A43FD8381F3803FF733E6400EC
:107F60009C3F0038B0381E391F3805FF3E626F64F1
:107F70007900AD3F2F3A04FF6E6F6F70B53F003848
:027F80001F38A8
:00000001FF
