:020000020000FC
:0200040039D1F0
:0200080037D1EE
:02000C0035D1EC
:0200100033D1EA
:0200140031D1E8
:020018002FD1E6
:02001C002DD1E4
:020020002BD1E2
:0200240029D1E0
:0200280027D1DE
:02002C0025D1DC
:0200300023D1DA
:0200340021D1D8
:020038001FD1D6
:02003C001DD1D4
:020040001BD1D2
:0200440019D1D0
:0200480017D1CE
:02004C0015D1CC
:0200500013D1CA
:0200540011D1C8
:020058000FD1C6
:02005C000DD1C4
:020060000BD1C2
:0200640009D1C0
:0200680007D1BE
:02006C0005D1BC
:0200700003D1BA
:0200740001D1B8
:02007800FFD0B7
:02007C00FDD0B5
:02008000FBD0B3
:02008400F9D0B1
:02008800F7D0AF
:02008C00F5D0AD
:02009000F3D0AB
:02009400F1D0A9
:02009800EFD0A7
:02009C00EDD0A5
:0200A000EBD0A3
:0200A400E9D0A1
:0200A800E7D09F
:0200AC00E5D09D
:0200B000E3D09B
:0200B400E1D099
:0200B800DFD097
:0200BC00DDD095
:0200C000DBD093
:0200C400D9D091
:0200C800D7D08F
:0200CC00D5D08D
:0200D000D3D08B
:0200D400D1D089
:0200D800CFD087
:0200DC00CDD085
:1000E000CBD000200010FFFF39000A0041546D659D
:1000F00067613235363107FF3E72782D62756600D2
:1001000000008200082F10911002E0E0F2E0E10F01
:10011000F31D008313951F7010931002899199911C
:100120000C941F0106FF6973722D72787B001B010E
:10013000E204CE0045055E05E20403004D08DB0441
:10014000A200CA0E8100C2041B01E2049700E2046F
:1001500048006812E2040002E204160001062709C2
:10016000C20406FF72782D62756692001B01D100F1
:10017000DB04B700E204110245055E05E20400025B
:100180004A0645057105DC06E2040F00C006E204DC
:1001900011023A05C20407FF72783F2D62756600AE
:1001A000B1001B01C20EE20411024505E204100277
:1001B0004505BE05C20407FF74782D706F6C6C0096
:1001C000CB001B01EF00DB04E200E204CE003A05A5
:1001D000C20408FF74783F2D706F6C6CDB001B014C
:1001E000C20EE204C8004505E2042000C006C204B5
:1001F00004FF75627272E9001D05CC0029103310EE
:1002000006FF2B7573617274F8001B01E2049800FD
:10021000E204C9003A05E2040600E204CA003A0515
:10022000FC005E05A607E204CD003A05E204CC001E
:060230003A05A400C2041F
:040000000C94CB0E83
:10023600BF93AF93DB011196B21499F4FD015527D4
:10024600EE0FFF1F551F5BBF679177911196FB015C
:100256005527EE0FFF1F551F5BBF07911791F8013A
:1002660009949A938A938B2DBB24992764E872E1AB
:10027600EECF0A920FB60A920F900F900F900A9443
:10028600BB2001F0B02CFF93EF93E2E1F2E006947D
:10029600E00DF31D008003940082EF91FF91099019
:1002A6000FBE0990089502FF6D2B00011B01DC11A2
:1002B600A308C20403FF75642A0056011B015E05EC
:1002C600AC058D0686057105A3058D068E054A06C5
:1002D600C20404FF756D61785D011B01BE09090644
:1002E600DB04760171058605C20404FF756D696E2F
:1002F6006C011B01BE091406DB048201710586052B
:10030600C2041B01E2040080C006C505DB048D01A2
:100316005408C204F805C2040AFF6E616D653E66A4
:100326006C61677378011B013508E20400FFC006A3
:10033600C20403FF316D73008F01A101E6E6FEE002
:100346003197F1F7000078CF06FF6E657765737415
:100356009C01F0044B0206FF6C6174657374A7017F
:10036600F0044F0208FF2863726561746529AE01C7
:100376001B01180E1D03C801C2040BFF286372651A
:100386006174652D696E2900B5011B015E05AC011E
:10039600B6092E050203AC012E05C20401005C005D
:1003A600C0011B01FF0D9D05D7092E05C2040100E2
:1003B6002800D1011B01E2042900EB0DC709C20484
:1003C60007FF636F6D70696C6500DA011B01A30599
:1003D6005E052010AC053508F401C20401FF2C00AF
:1003E600E3011B01070A1608070ADC060E10080AB5
:1003F600C20403005B275D00F1011B01640C0A02C5
:10040600C20407006C69746572616C00FC011B0113
:10041600E901E204F401C2040800736C69746572B0
:10042600616C04021B01E901C70BD50BC2041B0159
:10043600070AE901FFFFC2041B01CC0F070A710579
:100446001608C2041B01070AC2041B01CC0FF401E3
:10045600C20405006168656164000F021B01E901C1
:10046600D1041A02C204020069662C021B01E901CA
:10047600DB041A02C2040400656C736536021B01B4
:10048600E901D1041A0271051F02C204040074684E
:10049600656E3E021B011F02C204050062656769A4
:1004A6006E0049021B012502C20405007768696CCB
:1004B600650050021B0139027105C204060072650F
:1004C6007065617458021B017A024D02C204050070
:1004D600756E74696C0061021B01E204DB04F401B1
:1004E6002802C2040500616761696E006A021B0189
:1004F600E901D1042802C2040200646F75021B01DF
:10050600E901480725020106DD02C20404006C6FFA
:100516006F707F021B01E9017607C402C204050061
:100526002B6C6F6F700089021B01E9016707C4021B
:10053600C20405006C656176650092021B01E90143
:1005460081073102DD02C20403003F646F009C0292
:100556001B01E901B302390282027105DD02C20400
:100566001B01BE094D085E05AC05DB04BB02C709CD
:10057600A305AA06C20407FF656E646C6F6F700060
:10058600A7021B012802D1026605DB04CD024D023B
:10059600D104C602C20402FF6C3EBE021B01F00279
:1005A60026052605E204FEFFF0021207C20402FF3A
:1005B6003E6CCE021B015908F0021207F002260516
:1005C6002E05C20403FF6C703000DA021D057E00A2
:1005D6002910331002FF6C70E502F004510206FF89
:1005E600637265617465ED021B01BB012603E901B7
:1005F600FD04C20406FF686561646572F2021B01B0
:10060600070AAC05AC055E05D305DB0414035E05DD
:10061600E20400FFC906D90BA3050208F401A305ED
:10062600C204E204F0FF9B0C07FF776C73636F70E4
:100636006500FD0288107A002910331006FF7265E6
:100646007665616C17031B01AC01B60926056605C4
:10065600DB043103AC0126057105DE07C204050083
:10066600646F65733E0021031B01E9014A03E9013A
:100676000E94E9013F03C2049A938A93CB01019633
:100686007F917F916F91BF93AF93DB01D5CD1B0116
:10069600A305AC01B60926050208F3101608C20424
:1006A60001FF3A0032031B01BB0161038605C20448
:1006B60007FF3A6E6F6E616D650053031B01070AF3
:1006C6005E05B3012E05E9011B017603C204010094
:1006D6003B005B031B01E901C2047E032603C2043F
:1006E60001FF5D006A031B015408A3092E05C2041D
:1006F60001005B0073031B010106A3092E05C2045A
:1007060008FF7661726961626C657B031B01180ADA
:1007160095035908210AC20408FF636F6E7374615A
:100726006E7483031B01BB012603E901F004F40187
:10073600C20404FF757365728F031B01BB01260398
:10074600E9010305F401C20407007265637572735B
:1007560065009C031B01B3012605F401C20409FFD1
:10076600696D6D65646961746500A7031B015B04AF
:1007760002085E053508E204FF7FC006710516080B
:10078600C20406005B636861725DB2031B01E90186
:10079600E204490DF401C204060061626F7274221C
:1007A600C4031B011909E901E603C20405FF6162DE
:1007B6006F727400CF031B01F8059B0C06FF3F61A7
:1007C600626F7274D9031B018E05DB04EC03FA0B0E
:1007D600DE03C709C20409FF6765742D737461637C
:1007E6006B00E1031B015E05B609710502085E0593
:1007F600AC0501067105B302DB040C044807590772
:10080600E206B0097C054A0602087105F805670785
:100816000204C709A305C20409FF7365742D737426
:1008260061636B00EE031B017C05CC05DB041E0433
:10083600E204FCFF9B0CBE09DE0771050106B3024C
:10084600DB042B044807B609CF09DE077607260422
:100856008605C20409FF6D61702D737461636B00B8
:100866000F041B015E05B60971050208B009D31114
:10087600B302DB0450044807590702087105AC05AA
:10088600B305CC046605DB044C04A3058605810785
:10089600C204A305590867073F0486050106C2047A
:1008A6000BFF6765742D63757272656E74002D0497
:1008B6001B01E20484000208C20409FF6366672D77
:1008C6006F72646572005304F004880008FF636663
:1008D600672D726563736004F0049A0007FF636F07
:1008E6006D706172650069047804BF93AF938C01E3
:1008F60089919991DC01899199919C0189919991AC
:10090600FC01ED90F190EF1451F40A9519F02A9537
:10091600C1F701C02A95022B11F4882702C08FEF78
:1009260000C0982FAF91BF9187CC07FF6E66613EDE
:100936006C66610071041B01E710DC06B1064A060D
:10094600C2040BFF6170706C7475726E6B65790012
:1009560098041B0105015812D90F3C0C9809E204B2
:10096600E8036F069D05360A7C0BC70B04006B482F
:100976007A20FA0BC20404FF65786974A404C304E0
:10098600AF91BF9159CC07FF6578656375746500B3
:10099600BE04CD04BC018991999159CCD204FD01C4
:1009A6005527EE0FFF1F551F5BBFA791B79144CC8C
:1009B600DC04982B8991999191F311963DCCE3042F
:1009C6009A938A93FD015527EE0FFF1F551F5BBFB4
:1009D60087919791119630CCF0049A938A93FB01F4
:1009E60031965527EE0FFF1F551F5BBF87919791D5
:1009F60023CCFD049A938A93CB0101961DCC030563
:100A06009A938A93FB0131965527EE0FFF1F551FC8
:100A16005BBF87919791840D951D0ECC07FF2876B5
:100A2600616C75652900C6041B01BB012603E9013B
:100A36001D05C20421DE5E0520103508CC04C20463
:100A460001FF400011052705FC0181919191F4CB2E
:100A560001FF210023052F05FC01899199919183BE
:100A6600808389919991E8CB02FF63212B053B0591
:100A7600FC0189919991808389919991DDCB02FF3F
:100A8600634037054605FC0199278081D5CB02FFD7
:100A9600407542051B01AF074A062605C20402FF40
:100AA60021754A051B01AF074A062E05C20403FF3E
:100AB6006475700052055F059A938A93BDCB04FF57
:100AC6003F6475705A056705082F092B11F09A9334
:100AD6008A93B2CB04FF73776170620572058C014D
:100AE600899199911A930A93A7CB04FF6F76657241
:100AF6006D057D059A938A938A819B819DCB04FF20
:100B060064726F70780587058991999195CB03FF7B
:100B1600726F740082058F058C0129913991899134
:100B260099913A932A931A930A9386CB03FF6E6997
:100B360070008A059E0522967FCB02FF723E9905BC
:100B4600A4059A938A938F919F9176CB02FF3E726A
:100B5600A005AD059F938F93D7CF02FF7240A905DD
:100B6600B4059A938A938F919F919F938F9364CBA9
:100B760002FF3C3EB0051B014D08C505C20402FF3D
:100B8600303DBB05C605982BE1F532C002FF303C6F
:100B9600C205CD0597FD2CC034C002FF303EC90505
:100BA600D405821593056CF161F122C003FF643010
:100BB6003E00D005DE0593153CF08205899199919A
:100BC60082059305F1F014C0C101B5CF03FF64306F
:100BD6003C00D905EE05229697FD0C94FB050C9476
:100BE600040604FF74727565E905F9059A938A93FC
:100BF6008FEF9FEF21CB01FF3000F40502069A9399
:100C06008A93C10119CB02FF753CFE050A0629919C
:100C1600399182179307A8F3A1F3EACF02FF753E35
:100C260006061B0171050906C20401FF3C001106F8
:100C36001C0629913991281739071CF7D9CF01FFCE
:100C46003E00180626062991399128173907CCF255
:100C5600C1F2CECF04FF6C6F673222063206FC016A
:100C6600992780E18A9522F0EE0FFF1FD8F7E4CA94
:100C76009A95E2CA01FF2D002D06410609911991A8
:100C8600081B190BC801D8CA01FF2B003D064B06ED
:100C960009911991800F911FCFCA02FF6D2A47064D
:100CA60054068C01899199919C0131027001209F13
:100CB600C0013003F308900DE11CF31C1203F30886
:100CC600900DE11CF31C9A938A93C701B5CA06FFDF
:100CD600756D2F6D6F64500670067C0129913991F0
:100CE6000991199140E15527000F111F221F331F4B
:100CF600551F2E153F05520518F003952E193F096D
:100D06004A9589F73A932A93C80196CA03FF756DE7
:100D16002A006A068E068C0189919991809FF001BE
:100D260022273327909FF00D211D331D819FF00D43
:100D3600211D331D919F200D311DCF019A938A935A
:100D4600C9017ACA06FF696E766572748906AB06B2
:100D56008095909571CA02FF322FA506B206959529
:100D660087956ACA02FF322AAE06B906880F991F0E
:100D760063CA03FF616E6400B506C1060991199145
:100D86008023912359CA02FF6F72BC06CA060991D5
:100D96001991802B912B50CA03FF786F7200C606FB
:100DA600D406099119918027912746CA02FF312B53
:100DB600CF06DD06019640CA02FF312DD906E306AD
:100DC60001973ACA07FF3F6E656761746500DF06E3
:100DD6001B01CC05DB04F006990AC20406FF6C73FE
:100DE60068696674E506F706FC0189919991319761
:100DF6001AF0880F991FFBCF1FCA06FF7273686926
:100E06006674F1060607FC018991999131971AF0EB
:100E160096958795FBCF10CA02FF2B210007130773
:100E2600FC018991999120813181820F931F8083E2
:100E360091838991999100CA03FF727040000F0750
:100E460024079A938A938DB79EB7F6C903FF7270EB
:100E560021001F072E072FB7F8948DBF9EBF2FBF07
:100E660089919991E9C903FF7370400029073B07EF
:100E76009A938A93CE01E0C903FF73702100360767
:100E86004407EC0189919991D7C94907299139916C
:100E9600E0E83E0F821B930B3F932F939F938F9314
:100EA60089919991C9C901FF69003F075A079A9329
:100EB6008A938F919F91EF91FF91FF93EF939F9369
:100EC6008F938E0F9F1FB8C96807EF91FF91E80FA8
:100ED600F91F899199911BF0FF93EF9360CD0F91C4
:100EE6001F911196A9C97707EF91FF913196BBF330
:100EF600F3CF06FF756E6C6F6F70560782071F91F2
:100F06000F911F910F9198C906FF636D6F76653E2D
:100F16007C078D07BF93AF93E991F991A991B99198
:100F2600092F082B41F0E80FF91FA80FB91F1E91D2
:100F360012930197E1F7AF91BF91899199917CC97D
:100F460002FF3E3C8707A707092F982F802F74C9F9
:100F560003FF75704000A307B0079A938A93C201F6
:100F66006BC903FF75702100AB07B9072C01899186
:100F7600999162C903FF323E7200B407C207FC01B1
:100F8600899199919F938F93FF93EF93899199916B
:100F960053C903FF32723E00BD07D1079A938A9365
:100FA600EF91FF918F919F919A938A93CF0144C9B4
:100FB60002FF2165CC07DF07FC01899199912FB7C4
:100FC600F89428D000B5081709F00BD0319622D036
:100FD60000B5091711F0892F04D02FBF8991999177
:100FE6002BC9F999FECF07B700FDFDCFF2BDE1BDD4
:100FF60080BDFA9AF99A089502FF4065DB07030857
:101006002FB7F894FC0106D080B5319603D090B581
:101016002FBF12C9F999FECFF2BDE1BDF89A089526
:1010260002FF2169FF078810A4002910331004FF6E
:101036002869212913081F089C0189919991AF936A
:10104600BF93CF93DF93E1E0ECBFF0EFE0E01995BB
:0E105600DF91CF91BF91AF9189919991EDC833
:020000023000CC
:10E0000010D0E094F0948E219F21982B19F0F90103
:10E0100003E023D0F90105E020D0F90101E11DD092
:10E020000895F901E078FF7FEF01A0E8B0E0FE017C
:10E030005527EE0FFF1F551F5BBF47915791FE01FC
:10E04000E217F30711F00A0102C07A010C0101E0A6
:10E0500004D02196119759F708951FB71F93F8948C
:10E06000F999FECF17B710FDFDCF5527EE0FFF1F13
:0EE07000551F5BBF07BFE8951F911FBF0895A6
:020000020000FC
:1010640002FF40691A083608FC015527EE0FFF1FDE
:10107400551F5BBF87919791E0C80800326C697473
:101084006572616C32081B0171050A020A02C2040E
:1010940001FF3D003F081B014006C505C20401FFD6
:1010A40031004A08F004010001FF32005108F00445
:1010B400020002FF2D315608F004FFFF03FF6E3ECD
:1010C40072005B086508FC01082F899199919F9330
:1010D4008F930A95D1F7EF93FF9389919991ADC8B6
:1010E40003FF6E723E00600877089A938A93FF911B
:1010F400EF910E2F8F919F919A938A930A95D1F72E
:10110400CF019BC803FF64322A0072088908099141
:101114001991000F111F881F991F1A930A938DC8E4
:1011240003FF64322F00840897080991199195955B
:101134008795179507951A930A937FC802FF642B26
:101144009208A40829913991E990F990499159910B
:10115400240F351F8E1D9F1D3A932A936EC802FFDC
:10116400642DA008B50829913991E990F990499125
:101174005991421B530BE80AF90A5A934A93C7013F
:101184005CC807FF64696E7665727400B108CA08AA
:101194000991199180959095009510951A930A9349
:1011A4004CC802FF752EC3081B010106840BC20440
:1011B40003FF752E7200D3081B01010671058D0B08
:1011C400C2040DFF73686F772D776F72646C697357
:1011D4007400DA081B01E204F2087105CC10C204A1
:1011E4001B01E710FA0B3C0CF805C20405FF776FEE
:1011F40072647300E3081B01E2048A000208EC082D
:10120400C20404FF7069636BF8081B01DC06B009B3
:101214003A074A062605C20402002E2203091B01CE
:101224001909E901FA0BC204020073220E091B0119
:10123400E2042200EB0DA3092605DB0422091502B2
:10124400C20404FF66696C6C16091B018E058E05C9
:101254006605DB043409D31148075E0559073A05CE
:1012640076072F098605C2040BFF656E7669726FD7
:101274006E6D656E74002309F004820009FF776FB8
:1012840072646C697374730000001B01E20408004B
:10129400C20404FF2F70616440091B013A07DD0991
:1012A4004006C20405FF2F686F6C64004B091B01E4
:1012B400DD09180A4006C2040AFF666F7274682DBD
:1012C4006E616D6554091B01C70B0700616D666F84
:1012D40072746800C20407FF76657273696F6E00EA
:1012E4005E091B01E2044500C20403FF637075003C
:1012F4006D091B01E2047500260CC20408FF6D632E
:10130400752D696E666F77091B01E2047100C204D2
:1013140005FF2F757365720080091B01E2042E001E
:10132400C20405FF665F6370750036091B01E204A1
:101334000000E204E100C20405FF737461746500F7
:101344009309F004530204FF626173659E09030567
:101354000C0005FF63656C6C7300A509B90605FFF5
:1013640063656C6C2B00AB09B70902960C941F01E2
:1013740004FF32647570B1091B017C057C05C2044D
:1013840005FF3264726F7000BA091B018605860579
:10139400C20404FF7475636BC2091B0171057C05EB
:1013A400C20403FF3E696E00CB090305180003FF66
:1013B40070616400D3091B01180AE20428004A067C
:1013C400C20404FF656D6974D90988100E005110B8
:1013D4005D1005FF656D69743F00E3098810100016
:1013E40051105D1003FF6B657900EB098810120042
:1013F40051105D1004FF6B65793FF40988101400E7
:1014040051105D1002FF6470FC091D057400291061
:10141400331005FF656865726500040A1D057800D0
:101424002910331004FF686572650B0A1D057600E8
:101434002910331005FF616C6C6F7400140A1B01D2
:10144400180A4A060E10190AC20403FF62696E00E4
:101454001C0A1B015908A9092E05C20407FF64656B
:1014640063696D616C00270A1B01E2040A00A90983
:101474002E05C20403FF68657800300A1B01E204EC
:101484001000A9092E05C20402FF626C3C0AF00494
:10149400200007FF7475726E6B657900460A881028
:1014A40080002910331004FF2F6D6F644B0A5A0A11
:1014B4009C0109911991412F432717FF04C01095EE
:1014C40000950F5F1F4F37FF04C0309520952F5FA5
:1014D4003F4FEE24FF1851E1001F111F5A9539F4B4
:1014E40047FF04C0109500950F5F1F4F0BC0EE1C03
:1014F400FF1CE21AF30A20F4E20EF31E8894ECCFE8
:101504000894EACFFA92EA92C8010C941F0105FFED
:10151400752F6D6F6400550A1B01AC050106A30508
:101524006F06C20406FF6E6567617465890A1B0154
:10153400AA06DC06C20401FF2F00940A1B01590A03
:101544009D05C20403FF6D6F64009D0A1B01590AC7
:101554008605C20403FF61627300A40A1B015E05D1
:10156400EB06C20403FF6D696E00AC0A1B01BE09E1
:101574002506DB04BE0A71058605C20403FF6D61FE
:101584007800B40A1B01BE091B06DB04CA0A7105F4
:101594008605C20406FF77697468696EC00A1B0178
:1015A4007C054006AC054006A3050906C20407FFF6
:1015B400746F757070657200CC0A1B015E05E204DD
:1015C4006100E2047B00D10ADB04EB0AE204DF00E1
:1015D400C006C20407FF746F6C6F77657200D90A86
:1015E4001B015E05E2044100E2045B00D10ADB0456
:1015F400FE0AE2042000C906C20403FF686C64000A
:10160400EC0AF004550204FF686F6C64FF0A1B01C6
:10161400030B5E052605E2065E05AC0571052E0585
:10162400A3053A05C20402FF3C23050B1B01DD0997
:10163400030B2E05C20401FF2300150B1B01A9098E
:1016440026059D0B8E05E20409007C051B06DB04C0
:101654002E0BE20407004A06E20430004A06090B96
:10166400C20402FF23731D0B1B01200BBE09C90614
:10167400C505DB04370BC20402FF233E330B1B01F9
:10168400C709030B2605DD097C054006C20404FFD7
:101694007369676E3E0B1B01CC05DB04540BE2043B
:1016A4002D00090BC20403FF642E7200490B1B01B9
:1016B400AC05CF094911180B360B8E054D0B410BA8
:1016C400A3057C054006450C550CC20402FF2E728E
:1016D400550B1B01AC05DC11A305590BC20402FF19
:1016E400642E680B1B010106590B3C0CC20401FF5C
:1016F4002E00710B1B01DC11740BC20403FF756413
:101704002E00790B1B0101068D0B3C0CC20404FF57
:1017140075642E72800B1B01AC05180B360B410B44
:10172400A3057C054006450C550CC20406FF7564F0
:101734002F6D6F64890B1B01AC050106B3056F06A1
:10174400A3057105AC056F06A305C20406FF646911
:101754006769743F980B1B01DF0A5E05E2043900D8
:101764002506E2040001C0064A065E05E2044001C3
:101774002506E2040701C0064006E20430004006E4
:101784005E05A90926050906C2041B01B305260C3A
:10179400A3057C05DC06B1064A06DC06AC05C204DA
:1017A40002FF732CA80B1B015E05D90BC2041B019D
:1017B400F4015E05B106CF09B8064006AC05010682
:1017C400B302DB04EC0B48075E052605F401B609F9
:1017D4007607E60BA305D305DB04F30B5E0545058D
:1017E400F4018605C20405FF697479706500D20BA3
:1017F4001B015E05B106CF09B8064006AC0501061B
:10180400B302DB040E0C48075E0535085E051B0CAD
:10181400170CDC067607060CA305D305DB04150CB0
:101824005E0535081B0C8605C2041B01A6071B0CAC
:10183400C2041B01E204FF00C006E709C20406FF5C
:1018440069636F756E74F50B1B015E05DC0671052B
:101854003508C20402FF6372210C1B01E2040D006F
:10186400E709E2040A00E709C20405FF7370616333
:1018740065002C0C1B01490AE709C20406FF7370BA
:1018840061636573370C1B010106C40A5E05DB0442
:101894004F0C3C0CE206D104480C8605C20404FF3C
:1018A40074797065400C1B01D311B302DB04600C26
:1018B400480759074505E70976075B0CC20401FF91
:1018C4002700510C1B01180E380F430F5E05BF0F84
:1018D4004D0871053508E204F40F4D08C906DB0410
:1018E400760CE204F3FF9B0C8605C20407FF6861D3
:1018F4006E646C657200610C03050A0005FF636188
:1019040074636800780C1B013A07AC057E0C26054D
:10191400AC0523077E0C2E05CC04A3057E0C2E05F6
:10192400A30586050106C20405FF7468726F77007B
:10193400800C1B016605DB04AB0C7E0C26052D0711
:10194400A3057E0C2E05A3057105AC05430786058A
:10195400A305C20405FF63736B697000960C1B0139
:10196400AC055E05DB04C00C7C054505B3054D08DC
:10197400DB04C00C5408090ED104B30CA30586057E
:10198400C20405FF637363616E00AC0C1B01AC05FC
:101994007C055E054505B3054D08C505DB04DD0C76
:1019A4007105E20671057C05CC05C505DB04DD0C7B
:1019B400DC06D104CB0C9D057C054006A3058605F9
:1019C400C20406FF616363657074C30C1B017C056C
:1019D4004A067C05F8095E05310DC505DB04240DB6
:1019E4005E05E20408004D08DB040A0D86058E0539
:1019F400BE092506AC058E058E05A305DB04080D7E
:101A0400290DE206AC057C05A3057001D104220D65
:101A14005E05490A1B06DB04110D8605490AAC055F
:101A2400BE092506A3057105DB04210D5E05E70942
:101A34007C053A05DC067C057C01D104220D860573
:101A4400D104EC0C86059D0571054006C2041B01FA
:101A5400E20408005E05E7093C0CE709C2041B0127
:101A64005E05E2040D004D087105E2040A004D080C
:101A7400C906C20406FF726566696C6CE30C8810C3
:101A84001A0051105D1004FF636861723C0D1B0164
:101A9400180EC505DB04510DE204F0FF9B0C45054F
:101AA400C20406FF6E756D626572450D1B01A909BE
:101AB4002605AC059C0DAC05AF0D9C0DA305C90610
:101AC400AC055E05C505DB046F0DC709A3058605D6
:101AD400A305A9092E050106C204C10701060106D2
:101AE400D007CD0D6605DB04910D54084D08DB04C9
:101AF400880D4505E2042E004D08DB04890DA3057D
:101B0400DB04850D56115908D104970D8605C709C4
:101B1400A3058605A305A9092E050106C204C70964
:101B2400A305DB04960D990A5408A305A9092E05FB
:101B3400F805C2041B017C054505E2042D004D088F
:101B44005E05AC05DB04A80D5408090EA305C20408
:101B5400FD040A00100002000A001B017C05450573
:101B6400E204230040065E050106E2040400D10AF3
:101B7400DB04C50DAA0D4A063508A9092E0554082B
:101B8400090ED104C60D8605C20407FF3E6E756DAD
:101B940062657200530D1B015E05DB04E50D7C05D7
:101BA4004505AD0BC505DB04D90D8605C204AC059E
:101BB4007A11A90926056101A30559017A1154086E
:101BC400090ED104CE0DC20405FF70617273650065
:101BD400C70D1B01AC05FF0DD7092605090EA3058A
:101BE400C80C5E05DC06D70912075408090EC204A6
:101BF40006FF736F75726365E60D88101600511049
:101C04005D1007FF2F737472696E6700FA0D1B0174
:101C14008E057C054A068E058E054006C2040AFF21
:101C240070617273652D6E616D65030E1B01490A47
:101C34001C0EC2041B01AC05FF0DD7092605090EB5
:101C4400B305B10CA305C80CBE094A06FF0D8605F1
:101C54004006D7092E05C20407FF66696E642D7815
:101C64007400110E1B01E204400EE20488003404E7
:101C7400C505DB043F0EC7090106C2041B01AC0500
:101C8400BE09A3059A105E05DB044D0EAC059D0547
:101C94009D05A305F805C2041B01C70B0300206FB3
:101CA4006B00FA0BC20403FF2E6F6B002E0E88101C
:101CB4001C0051105D101B01C70B02003E202F0CAD
:101CC400FA0BC20406FF2E7265616479550E881002
:101CD400200051105D101B01C70B0400203F3F2062
:101CE400FA0BA9092605AC05360A7C0BD70926058B
:101CF4007C0BA305A9092E05C20406FF2E6572728A
:101D04006F72640E88101E0051105D101B012F0CA1
:101D1400C20406FF2E696E7075747F0E881022004F
:101D240051105D1004FF717569748B0E1B01E9027B
:101D3400F0022E05FA0E4307020F2D077E03A309B6
:101D44002605C505DB04A70E690E410D900EDB04C4
:101D5400BA0EE2041B0F850C6605DB04BA0E5E05A1
:101D6400E204FEFF1B06DB04B80E840ED104990EB8
:101D7400590ED104A10E05FF706175736500940EB0
:101D8400881057023D10471004FF636F6C64BD0E4A
:101D9400CB0EA4B622243324BB2424BEE0E0F2E01C
:101DA4002192E030E9F7F232D9F7E9E5F2E02F01C8
:101DB4000FEF0DBF048311E21EBF1583CFEAC68364
:101DC400D1E2D783ADEEBEE00C941F0104FF77612E
:101DD400726DC60E1B01C511E204F40FE204C20EBB
:101DE40068107E03510A980E03FF73703000E80EEA
:101DF4001D05060051105D1003FF72703000F60ED1
:101E04001B01060F2605C2040305040005FF6465D3
:101E140070746800FE0E1B01FA0E3A074006B10604
:101E2400E206C20409FF696E74657270726574001B
:101E3400080F1B01180E5E05DB042C0F380F430F2F
:101E4400A3092605DB04270F20103508CC04CC0F8A
:101E5400D1041C0FC709C20410FF666F7274682D89
:101E64007265636F676E697A6572140F1D057C0075
:101E74002910331009FF7265636F676E697A650014
:101E84002E0F1B01E2044E0F71053404C505DB045B
:101E94004D0FC709BF0FC2041B018E058E05BE0975
:101EA400C1078E05CC04D0078E055E05BF0F4D0813
:101EB400DB045F0F86050106C2049D059D05F80538
:101EC400C2040BFF726563747970652D6E756D00C5
:101ED4003C0FFD04F40F0A020A020CFF72656374DE
:101EE4007970652D646E756D630FFD04F40F4508FC
:101EF400450807FF7265632D6E756D006F0F1B013A
:101F0400580DDB048D0F54084D08DB048B0F6B0F49
:101F1400C204770FC204BF0FC20408FF7265632DA9
:101F240066696E647B0F1B01340E5E05C505DB0418
:101F34009E0F8605BF0FC204A70FC2040AFF726575
:101F440063747970652D78748F0FFD04AB0FAF0F38
:101F540045081B018605CC04C2041B01CC05DB0427
:101F6400B50FF401C204CC04C2040CFF726563749F
:101F74007970652D6E756C6CA00FFD04C30FC30FD3
:101F8400C30F1B01E204F3FF9B0C06FF3F73746154
:101F9400636BB70F1B010D0FCC05DB04D40FE204F8
:101FA400FCFF9B0CC20403FF76657200C70F1B0184
:101FB4006509FA0B3C0CA90926057309360ADC11DC
:101FC400180B200BE2042E00090B360B410B550CA9
:101FD400A9092E053C0C7B09FA0BC20404FF6E6FA1
:101FE4006F70D50F1B01C20406FF756E75736564AF
:101FF400F00F1B013A07180A4006C2040200746F6E
:10200400F60F1B01640CE511A3092605DB0414106B
:10201400E9010E10F401C2041B01A3055E052010A2
:10202400AC0535085E05201020103508CC04C20428
:1020340007FF692D63656C6C2B0000101B01DC0627
:10204400C20407FF45646566657240001A101B01EF
:1020540035080208C20407FF4564656665722100FD
:1020640023101B013508DE07C20407FF52646566AE
:10207400657240002D101B0135082605C20407FFB8
:10208400526465666572210037101B0135082E0500
:10209400C20407FF556465666572400041101B0168
:1020A4003508AF074A062605C20407FF556465666E
:1020B400657221004B101B013508AF074A062E0537
:1020C400C20406FF64656665722157101B01E511A1
:1020D4005E05201020103508CC04C20406FF646598
:1020E4006665724063101B01E5115E05201035081A
:1020F400CC04C20407FF2864656665722900701069
:102104001B01BB012603E9018810C2040E943F039E
:102114005E0520103508CC04CC04C2040FFF73659F
:10212400617263682D776F72646C697374007C10DC
:102134001B01AC050106E204AF10A305CC105E053B
:10214400C505DB04A910C70986050106C2045E059E
:10215400F310710596018401C2041B01AC058605C8
:10216400BE09B305E710FD10DB04BD10A305860509
:102174000106F805C204C709A3050106C20411FF3C
:1021840074726176657273652D776F72646C6973AE
:10219400740090101B0102085E05DB04DD10BE090B
:1021A400C1077105CC04D0078E05DB04DD109E0445
:1021B4003508D104CE10C709C2040BFF6E616D65EA
:1021C4003E737472696E6700C1101B01260CE20431
:1021D400FF00C006C20407FF6E66613E63666100CD
:1021E400DF101B019E04DC06C20408FF69636F6DE7
:1021F40070617265ED101B01AC057C05A305BE057D
:10220400DB040811C7098605F805C2047105010637
:10221400B302DB042B1148077C0526057C05350831
:102224005E05E20400010906DB041C117105E204E9
:10223400FF00C006BE05DB042311C709F8058107AA
:10224400C204DC067105B6097105E20402006707E1
:102254000E11C7090106C20401FF2A00F7101B0171
:1022640053068605C20401FF6A002E111B012307D1
:10227400E20407004A0626052307E20409004A0689
:1022840026054A06C20404FF6461627335111B010A
:102294005E05CC05DB044F115611C20407FF646EC2
:1022A40065676174650045111B01C908540801067E
:1022B400A308C20405FF636D6F76650050116211B7
:1022C400BF93AF93E991F991A991B991092F082B83
:1022D40021F01D9111930197E1F7AF91BF9189917D
:1022E40099910C941F0105FF3273776170005C11A2
:1022F4001B018E05AC058E05A305C2040AFF726599
:1023040066696C6C2D74696275111B01A311E2047A
:102314005A00E80CA9112E050106D7092E05F80567
:10232400C2040AFF736F757263652D74696280114C
:102334001B01A311A9112605C20403FF74696200DD
:102344009311F004870204FF237469629F11F0045F
:10235400E10206FF65653E72616DA5111B01010670
:1023640048077C0502087C052E05B6097105B609E7
:1023740071057607B311C709C20408FF696E697451
:102384002D72616DAB111B01E204A800AF07E204DA
:102394002400B106B011C20406FF626F756E647347
:1023A400BF111B017C054A067105C20403FF733E7D
:1023B4006400CE111B015E05CC05C20405FF3E621C
:1023C4006F647900D811DD060BFF7365742D637596
:1023D4007272656E7400E0111B01E2048400DE0772
:1023E400C20408FF776F72646C697374E6111B0191
:1023F400100A01067C05DE075E05B6090E10110AF7
:10240400C2040EFF666F7274682D776F72646C6914
:102414007374F311F004860004FF636F64650312A0
:102424001B01BB012603070A2010F401C20408FFA4
:10243400656E642D636F64650E121B01E9010C94D3
:10244400E9011F01C20408FF286D61726B657229DE
:1024540019121D05A600291033100800706F73743B
:10246400706F6E6525121B01180E380F430F5E0541
:10247400AC05201020103508CC04A3052010350825
:10248400F401C20406FF6972715B5D232F121B0104
:10249400E20412024A06C20404FF23696E74441261
:1024A400F004390004FF2B696E744E1259127894AB
:1024B4000C941F0104FF2D696E7454126112F89478
:1024C4000C941F0104FF696E74215C121B01E20469
:1024D40000004A06DE07C20404FF696E74406412F9
:1024E4001B01E20400004A060208C20408FF696EE8
:1024F400742D747261706E127F12B82E8991999145
:102504000C941F011B017212CC048912C2048A129A
:0825140002D00C941F01189580
:00000001FF
