:020000020000FC
:0200040039D1F0
:0200080037D1EE
:02000C0035D1EC
:0200100033D1EA
:0200140031D1E8
:020018002FD1E6
:02001C002DD1E4
:020020002BD1E2
:0200240029D1E0
:0200280027D1DE
:02002C0025D1DC
:0200300023D1DA
:0200340021D1D8
:020038001FD1D6
:02003C001DD1D4
:020040001BD1D2
:0200440019D1D0
:0200480017D1CE
:02004C0015D1CC
:0200500013D1CA
:0200540011D1C8
:020058000FD1C6
:02005C000DD1C4
:020060000BD1C2
:0200640009D1C0
:0200680007D1BE
:02006C0005D1BC
:0200700003D1BA
:0200740001D1B8
:02007800FFD0B7
:02007C00FDD0B5
:02008000FBD0B3
:02008400F9D0B1
:10008800F7D000400010FFFF23000B0041546D65BE
:10009800676131323834500007FF3E72782D62753F
:1000A800660000005700082F10911001E0E0F1E011
:1000B800E10FF31D008313951F70109310018991B0
:1000C80099910C9405F006FF6973722D72785000AF
:1000D80001F046F0C600AAF0C3F046F00300F1F3C1
:1000E8003FF077006CFA560026F001F046F06C00FD
:1000F80046F02800ACFD46F0000146F0160066F117
:10010800CBF426F006FF72782D627566670001F061
:10011800A6003FF08C0046F01101AAF0C3F046F0AB
:100128000001AFF1AAF0D6F041F246F00F0025F237
:1001380046F011019FF026F007FF72783F2D627597
:100148006600860001F064FA46F01101AAF046F054
:100158001001AAF023F126F007FF74782D706F6C58
:100168006C00A00001F0C4003FF0B70046F0C600E4
:100178009FF026F008FF74783F2D706F6C6CB0000C
:1001880001F064FA46F0C000AAF046F0200025F21B
:1001980026F004FF75627272BE0081F0A000CBFBEE
:1001A800D5FB06FF2B7573617274CD0001F046F024
:1001B800980046F0C1009FF046F0060046F0C200E5
:1001C8009FF0D100C3F00BF346F0C5009FF046F056
:1001D800C4009FF0790026F008FF31772E7265730E
:1001E8006574D500F7009A938A93249A2C98E0E8CE
:1001F800F7E03197F1F71FB7F8942C9A2498E0E0CC
:10020800F1E03197F1F783B184FF9FEF1FBF249886
:100218002C98E0E8F6E03197F1F7892F0C9405F077
:1002280007FF31772E736C6F7400F0001B012C9858
:10023800249A1FB7F894E8E1F0E03197F1F7889431
:10024800879510F42C9A2498E4E2F0E03197F1F7BE
:1002580003B104FD8068ECECF0E03197F1F72C9ADB
:100268002498E8E0F0E03197F1F71FBF0C9405F00F
:040000000C946DFAF5
:100278000A920FB60A920F900F900A94BB2001F0D1
:10028800B02CFF93EF93E2E1F1E00694E00DF31D4B
:10029800008003940082EF91FF9109900FBE0990AE
:1002A800089502FF6D2B140101F07EFD47F426F03E
:1002B80003FF75642A00550101F0C3F011F1F2F152
:1002C800EBF0D6F008F1F2F1F3F0AFF126F004FF0D
:1002D800756D61785C0101F061F56EF13FF07501B3
:1002E800D6F0EBF026F004FF756D696E6B0101F036
:1002F80061F579F13FF08101D6F0EBF026F001F0DD
:1003080046F0008025F22AF13FF08C01F8F326F040
:100318005DF126F00AFF6E616D653E666C6167737C
:10032800770101F0D9F346F000FF25F226F003FF2C
:10033800316D73008E01A001E0EAFFE03197F1F71B
:100348000C9405F006FF6E65776573749B0154F095
:10035800350106FF6C6174657374A60154F03901A8
:1003680008FF2863726561746529AD0101F0BAF967
:100378001C03C70126F00BFF286372656174652DA5
:10038800696E2900B40101F0C3F0AB015AF593F08E
:100398000103AB0193F026F001005C00BF0101F0FE
:1003A800A1F902F17AF593F026F001002800D001B6
:1003B80001F046F029008DF96AF526F007FF636F12
:1003C8006D70696C6500D90101F008F1C3F0C2FBDA
:1003D80011F1D9F3F30126F001FF2C00E20101F03D
:1003E800AAF57BF3AAF541F2B0FBABF526F00300C2
:1003F8005B275D00F00101F006F8090226F007000E
:100408006C69746572616C00FB0101F0E80146F0EB
:10041800F30126F00800736C69746572616C03025D
:1004280001F0E80169F777F726F001F0AAF5E8018D
:10043800FFFF26F001F06EFBAAF5D6F07BF326F05D
:1004480001F0AAF526F001F06EFBF30126F0050095
:100458006168656164000E0201F0E80135F0190277
:1004680026F0020069662B0201F0E8013FF019024C
:1004780026F00400656C7365350201F0E80135F07B
:100488001902D6F01E0226F004007468656E3D025B
:1004980001F01E0226F00500626567696E004802D9
:1004A80001F0240226F005007768696C65004F02A8
:1004B80001F03802D6F026F00600726570656174A6
:1004C800570201F079024C0226F00500756E746936
:1004D8006C00600201F046F03FF0F301270226F0BD
:1004E8000500616761696E00690201F0E80135F095
:1004F800270226F00200646F740201F0E801ADF2F1
:10050800240266F1DC0226F004006C6F6F707E0234
:1005180001F0E801DBF2C30226F005002B6C6F6FD7
:100528007000880201F0E801CCF2C30226F0050051
:100538006C6561766500910201F0E801E6F230022F
:10054800DC0226F003003F646F009B0201F0E80123
:10055800B20238028102D6F0DC0226F001F061F521
:10056800F1F3C3F011F13FF0BA026AF508F10FF2A6
:1005780026F007FF656E646C6F6F7000A60201F0CD
:100588002702D002CBF03FF0CC024C0235F0C50276
:1005980026F002FF6C3EBD0201F0EF028BF08BF0FB
:1005A80046F0FEFFEF0277F226F002FF3E6CCD0226
:1005B80001F0FDF3EF0277F2EF028BF093F026F0F3
:1005C80003FF6C703000D90281F05200CBFBD5FBE1
:1005D80002FF6C70E40254F03B0106FF6372656130
:1005E8007465EC0201F0BA012503E80161F026F018
:1005F80006FF686561646572F10201F0AAF511F100
:1006080011F1C3F038F13FF01303C3F046F000FFD7
:100618002EF27BF708F167F3F30108F126F046F0B4
:10062800F0FF3DF807FF776C73636F706500FC029D
:100638002AFC4E00CBFBD5FB06FF72657665616C24
:10064800160301F0AB015AF58BF0CBF03FF0300305
:10065800AB018BF0D6F043F326F00500646F6573A9
:100668003E00200301F0E8014903E8010E94E80187
:100678003E0326F09A938A93CB0101967F916F915E
:10068800BF93AF93DB010C9405F001F008F1AB01C7
:100698005AF58BF067F395FC7BF326F001FF3A00DF
:1006A800310301F0BA016003EBF026F007FF3A6E60
:1006B8006F6E616D6500520301F0AAF5C3F0B201D7
:1006C80093F0E80101F0750326F001003B005A039E
:1006D80001F0E80126F07D03250326F001FF5D0007
:1006E800690301F0F8F347F593F026F001005B0089
:1006F800720301F066F147F593F026F008FF766182
:10070800726961626C657A0301F0BBF59403FDF3CD
:10071800C4F526F008FF636F6E7374616E7482030C
:1007280001F0BA012503E80154F0F30126F004FFB3
:10073800757365728E0301F0BA012503E80167F04D
:10074800F30126F0070072656375727365009B03F9
:1007580001F0B2018BF0F30126F009FF696D6D65B8
:10076800646961746500A60301F05A0467F3C3F075
:10077800D9F346F0FF7F25F2D6F07BF326F006008A
:100788005B636861725DB10301F0E80146F0EBF864
:10079800F30126F0060061626F727422C30301F050
:1007A800BDF4E801E50326F005FF61626F7274008D
:1007B800CE0301F05DF13DF806FF3F61626F727490
:1007C800D80301F0F3F03FF0EB039CF7DD036AF583
:1007D80026F009FF6765742D737461636B00E0038D
:1007E80001F0C3F05AF5D6F067F3C3F011F166F1E2
:1007F800D6F0B2023FF00B04ADF2BEF247F254F568
:10080800E1F0AFF167F3D6F05DF1CCF201046AF5DF
:1008180008F126F009FF7365742D737461636B002A
:10082800ED0301F0E1F031F13FF01D0446F0FCFF6B
:100838003DF861F543F3D6F066F1B2023FF02A04C1
:10084800ADF25AF572F543F3DBF22504EBF026F02E
:1008580009FF6D61702D737461636B000E0401F004
:10086800C3F05AF5D6F067F354F575FDB2023FF0C0
:100878004F04ADF2BEF267F3D6F011F118F130F083
:10088800CBF03FF04B0408F1EBF0E6F226F008F16C
:10089800FDF3CCF23E04EBF066F126F00BFF676542
:1008A800742D63757272656E74002C0401F046F045
:1008B800580067F326F009FF6366672D6F72646559
:1008C8007200520454F05C0008FF6366672D72657D
:1008D80063735F0454F06E0007FF636F6D7061729D
:1008E800650068047704BF93AF938C01899199914F
:1008F800DC01899199919C0189919991FC01ED9074
:10090800F190EF1451F40A9519F02A95C1F701C036
:100918002A95022B11F4882702C08FEF00C0982F68
:10092800AF91BF910C9405F007FF6E66613E6C664F
:100938006100700401F089FC41F216F2AFF126F073
:1009480002FF2E73980401F0AFFA7AF4DEF7AFFADB
:1009580066F1B2023FF0B604ADF2BEF2ABF47AF43F
:10096800DBF2B10426F006FF632140737069A4042A
:10097800BD0403D099270C9405F08EBD0DB5087FF2
:100988000DBD0DB507FFFACF8EB5089505FF6E4072
:1009980073706900B704D0048C0189919991FC01A6
:1009A800C8012EBC2DB527FFFDCF2EB52193019789
:1009B800C1F7899199910C9405F005FF6E21737028
:1009C8006900CA04E7048C0189919991FC01C80166
:1009D80021912EBD2DB527FFFDCF2EB50197C1F76B
:1009E800899199910C9405F00BFF6170706C747586
:1009F800726E6B657900E10401F0DA009CFD7BFB07
:100A0800DEF73CF546F0E803D4F102F1D9F51EF71C
:100A180069F704006B487A209CF726F00BFF736592
:100A2800742D63757272656E7400F80401F046F0F7
:100A3800580043F326F008FF776F72646C6973748B
:100A4800120501F0B3F566F1E1F043F3C3F05AF58E
:100A5800B0FBB4F526F00EFF666F7274682D776FE1
:100A680072646C6973741F0554F05A0004FF636F55
:100A780064652F0501F0BA012503AAF5C2FBF3014D
:100A880026F008FF656E642D636F64653A0501F012
:100A9800E8010C94E80105F026F008FF286D617262
:100AA8006B657229450581F07A00CBFBD5FB080000
:100AB800706F7374706F6E65510501F0BAF9DAFAE8
:100AC800E5FAC3F011F1C2FBC2FBD9F330F008F12B
:100AD800C2FBD9F3F30126F003FF327240005B0535
:100AE80075059A938A93EF91FF918F919F919F93A8
:100AF8008F93FF93EF939A938A93CF010C9405F009
:020000021000EC
:10E00200BF93AF93DB011196B21499F4FD0155272A
:10E01200EE0FFF1F551F5BBF679177911196FB01B2
:10E022005527EE0FFF1F551F5BBF07911791F80190
:10E0320009949A938A938B2DBB24992768EC7DEFE0
:10E04200EECF04FF65786974700527F0AF91BF9138
:10E05200DBCF07FF657865637574650022F031F0E8
:10E06200BC0189919991DBCF36F0FD015527EE0F66
:10E07200FF1F551F5BBFA791B791C6CF40F0982BEA
:10E082008991999191F31196BFCF47F09A938A9310
:10E09200FD015527EE0FFF1F551F5BBF879197911B
:10E0A2001196B2CF54F09A938A93FB013196552779
:10E0B200EE0FFF1F551F5BBF87919791A5CF61F0B0
:10E0C2009A938A93CB0101969FCF67F09A938A9392
:10E0D200FB0131965527EE0FFF1F551F5BBF87913E
:10E0E2009791840D951D90CF07FF2876616C756519
:10E0F20029002AF001F0BA012503E80181F026F097
:10E102000E943E03C3F0C2FBD9F330F026F001FFB8
:10E11200400075F08CF0FC018191919175CF01FF67
:10E12200210088F094F0FC01899199919183808378
:10E132008991999169CF02FF632190F0A0F0FC01CF
:10E14200899199918083899199915ECF02FF634071
:10E152009CF0ABF0FC019927808156CF02FF4075FD
:10E16200A7F001F014F3AFF18BF026F002FF217556
:10E17200AFF001F014F3AFF193F026F003FF6475F2
:10E182007000B7F0C4F09A938A933ECF04FF3F64C5
:10E192007570BFF0CCF0082F092B11F09A938A9377
:10E1A20033CF04FF73776170C7F0D7F08C01899188
:10E1B20099911A930A9328CF04FF6F766572D2F071
:10E1C200E2F09A938A938A819B811ECF04FF647244
:10E1D2006F70DDF0ECF08991999116CF03FF726FA9
:10E1E2007400E7F0F4F08C012991399189919991A9
:10E1F2003A932A931A930A9307CF03FF6E6970002A
:10E20200EFF003F1229600CF02FF723EFEF009F119
:10E212009A938A938F919F91F7CE02FF3E7205F1F6
:10E2220012F19F938F93D7CF02FF72400EF119F133
:10E232009A938A938F919F919F938F93E5CE02FF3A
:10E242003C3E15F101F0F1F32AF126F002FF303DD8
:10E2520020F12BF1982BE1F532C002FF303C27F17F
:10E2620032F197FD2CC034C002FF303E2EF139F15D
:10E27200821593056CF161F122C003FF64303E0008
:10E2820035F143F193153CF082058991999182050C
:10E292009305F1F014C0C101B5CF03FF64303C0017
:10E2A2003EF153F1229697FD0C9460F10C9469F1C2
:10E2B20004FF747275654EF15EF19A938A938FEF43
:10E2C2009FEFA2CE01FF300059F167F19A938A9332
:10E2D200C1019ACE02FF753C63F16FF12991399128
:10E2E20082179307A8F3A1F3EACF02FF753E6BF101
:10E2F20001F0D6F06EF126F001FF3C0076F181F1DB
:10E3020029913991281739071CF7D9CF01FF3E000F
:10E312007DF18BF12991399128173907CCF2C1F29D
:10E32200CECF04FF6C6F673287F197F1FC0199271A
:10E3320080E18A9522F0EE0FFF1FD8F765CE9A95FD
:10E3420063CE01FF2D0092F1A6F109911991081BEC
:10E35200190BC80159CE01FF2B00A2F1B0F10991AE
:10E362001991800F911F50CE02FF6D2AACF1B9F1C5
:10E372008C01899199919C0131027001209FC00109
:10E382003003F308900DE11CF31C1203F308900D07
:10E39200E11CF31C9A938A93C70136CE06FF756D72
:10E3A2002F6D6F64B5F1D5F17C01299139910991F5
:10E3B200199140E15527000F111F221F331F551FCE
:10E3C2002E153F05520518F003952E193F094A955F
:10E3D20089F73A932A93C80117CE03FF756D2A0075
:10E3E200CFF1F3F18C0189919991809FF00122275D
:10E3F2003327909FF00D211D331D819FF00D211DAC
:10E40200331D919F200D311DCF019A938A93C9012B
:10E41200FBCD06FF696E76657274EEF110F280959F
:10E422009095F2CD02FF322F0AF217F29595879559
:10E43200EBCD02FF322A13F21EF2880F991FE4CDB0
:10E4420003FF616E64001AF226F20991199180238A
:10E452009123DACD02FF6F7221F22FF20991199105
:10E46200802B912BD1CD03FF786F72002BF239F202
:10E472000991199180279127C7CD02FF312B34F2E0
:10E4820042F20196C1CD02FF312D3EF248F20197D0
:10E49200BBCD07FF3F6E65676174650044F201F012
:10E4A20031F13FF055F23BF626F006FF6C736869D6
:10E4B20066744AF25CF2FC018991999131971AF0E3
:10E4C200880F991FFBCFA0CD06FF7273686966742F
:10E4D20056F26BF2FC018991999131971AF0969557
:10E4E2008795FBCF91CD02FF2B2165F278F2FC01DB
:10E4F2008991999120813181820F931F8083918329
:10E502008991999181CD03FF7270400074F289F272
:10E512009A938A938DB79EB777CD03FF72702100CD
:10E5220084F293F22FB7F8948DBF9EBF2FBF8991CB
:10E5320099916ACD03FF737040008EF2A0F29A9314
:10E542008A93CE0161CD03FF737021009BF2A9F281
:10E55200EC018991999158CDAEF229913991E0E877
:10E562003E0F821B930B3F932F939F938F9389911F
:10E5720099914ACD01FF6900A4F2BFF29A938A935E
:10E582008F919F91EF91FF91FF93EF939F938F93C1
:10E592008E0F9F1F39CDCDF2EF91FF91E80FF91F3A
:10E5A200899199911BF0FF93EF935FCD0F911F918A
:10E5B20011962ACDDCF2EF91FF913196BBF3F3CFA6
:10E5C20006FF756E6C6F6F70BBF2E7F21F910F91D1
:10E5D2001F910F9119CD06FF636D6F76653EE1F2D3
:10E5E200F2F2BF93AF93E991F991A991B991092FF1
:10E5F200082B41F0E80FF91FA80FB91F1E911293C3
:10E602000197E1F7AF91BF9189919991FDCC02FFFA
:10E612003E3CECF20CF3092F982F802FF5CC03FF30
:10E622007570400008F315F39A938A93C201ECCCFB
:10E6320003FF7570210010F31EF32C01899199914B
:10E64200E3CC03FF323E720019F327F3FC018991F8
:10E6520099919F938F93FF93EF9389919991D4CC42
:10E6620003FF32723E0022F336F39A938A93EF91BC
:10E67200FF918F919F919A938A93CF01C5CC02FF0C
:10E68200216531F344F3FC01899199912FB7F894F4
:10E6920028D000B5081709F00BD0319622D000B56A
:10E6A200091711F0892F04D02FBF89919991ACCC11
:10E6B200F999FECF07B700FDFDCFF2BDE1BD80BDE8
:10E6C200FA9AF99A089502FF406540F368F32FB76A
:10E6D200F894FC0106D080B5319603D090B52FBFD7
:10E6E20093CCF999FECFF2BDE1BDF89A089502FFED
:10E6F200216964F32AFC7800CBFBD5FB09FF2821B2
:10E70200692D6E727777290078F387F31FB71F930D
:10E71200F8949C0189919991AF93BF93CF93DF9322
:10E7220009D0DF91CF91BF91AF91899199911F91BA
:10E732001FBF6ACC10D0E094F0948E219F21982BB9
:10E7420019F0F90102E023D0F90104E020D0F90127
:10E7520000E11DD00895F901E078FF7FEF01A0E804
:10E76200B0E0FE015527EE0FFF1F551F5BBF47911B
:10E772005791FE01E217F30711F00A0102C07A0174
:10E782000C01002704D02196119759F70895F999A1
:10E79200FECF17B710FDFDCF5527EE0FFF1F551FF8
:10E7A2005BBF016007BFE895089502FF40697FF3F0
:10E7B200DAF3FC015527EE0FFF1F551F5BBF879150
:10E7C200979122CC0800326C69746572616CD6F341
:10E7D20001F0D6F00902090226F001FF3D00E3F341
:10E7E20001F0A5F12AF126F001FF3100EEF354F019
:10E7F200010001FF3200F5F354F0020002FF2D3157
:10E80200FAF354F0FFFF03FF6E3E7200FFF309F4C8
:10E81200FC01082F899199919F938F930A95D1F7C3
:10E82200EF93FF9389919991EFCB03FF6E723E00B4
:10E8320004F41BF49A938A93FF91EF910E2F8F9118
:10E842009F919A938A930A95D1F7CF01DDCB03FF6B
:10E8520064322A0016F42DF409911991000F111F48
:10E86200881F991F1A930A93CFCB03FF64322F009C
:10E8720028F43BF409911991959587951795079579
:10E882001A930A93C1CB02FF642B36F448F4299100
:10E892003991E990F99049915991240F351F8E1DB4
:10E8A2009F1D3A932A93B0CB02FF642D44F459F48E
:10E8B20029913991E990F99049915991421B530B51
:10E8C200E80AF90A5A934A93C7019ECB07FF646983
:10E8D2006E766572740055F46EF409911991809503
:10E8E2009095009510951A930A938ECB02FF752E80
:10E8F20067F401F066F126F726F003FF752E720029
:10E9020077F401F066F1D6F02FF726F00DFF736869
:10E912006F772D776F72646C697374007EF401F007
:10E9220046F096F4D6F06EFC26F001F089FC9CF7D6
:10E93200DEF75DF126F005FF776F7264730087F4EE
:10E9420001F046F05E0067F390F426F004FF706970
:10E95200636B9CF401F041F254F59FF2AFF18BF03E
:10E9620026F002002E22A7F401F0BDF4E8019CF784
:10E9720026F002007322B2F401F046F022008DF973
:10E9820047F58BF03FF0C6F4140226F004FF6669E7
:10E992006C6CBAF401F0F3F0F3F0CBF03FF0D8F482
:10E9A20075FDADF2C3F0BEF29FF0DBF2D3F4EBF0F3
:10E9B20026F00BFF656E7669726F6E6D656E740080
:10E9C200C7F454F0560009FF776F72646C69737470
:10E9D2007300000001F046F0080026F004FF2F70DB
:10E9E2006164E4F401F09FF280F5A5F126F005FFE1
:10E9F2002F686F6C6400EFF401F080F5BBF5A5F1B0
:10EA020026F00AFF666F7274682D6E616D65F8F408
:10EA120001F069F70700616D666F7274680026F095
:10EA220007FF76657273696F6E0002F501F046F0BA
:10EA3200450026F003FF6370750011F501F046F002
:10EA42004900C8F726F008FF6D63752D696E666F81
:10EA52001BF501F046F0450026F005FF2F757365A2
:10EA6200720024F501F046F02E0026F005FF665FE5
:10EA720063707500DAF401F046F0002446F0F40009
:10EA820026F005FF73746174650037F554F03D019B
:10EA920004FF6261736542F567F00C0005FF636570
:10EAA2006C6C730049F51EF205FF63656C6C2B00FC
:10EAB2004FF55BF50296A8CA04FF3264757055F5EE
:10EAC20001F0E1F0E1F026F005FF3264726F7000B0
:10EAD2005DF501F0EBF0EBF026F004FF7475636B6B
:10EAE20065F501F0D6F0E1F026F003FF3E696E0015
:10EAF2006EF567F0180003FF7061640076F501F0AF
:10EB0200BBF546F02800AFF126F004FF656D69748D
:10EB12007CF52AFC0E00F3FBFFFB05FF656D6974B3
:10EB22003F0086F52AFC1000F3FBFFFB03FF6B6539
:10EB320079008EF52AFC1200F3FBFFFB04FF6B65E4
:10EB4200793F97F52AFC1400F3FBFFFB02FF647088
:10EB52009FF581F04800CBFBD5FB05FF6568657228
:10EB62006500A7F581F04C00CBFBD5FB04FF68657F
:10EB72007265AEF581F04A00CBFBD5FB05FF616CF7
:10EB82006C6F7400B7F501F0BBF5AFF1B0FBBCF5EB
:10EB920026F003FF62696E00BFF501F0FDF34DF54B
:10EBA20093F026F007FF646563696D616C00CAF536
:10EBB20001F046F00A004DF593F026F003FF686578
:10EBC2007800D3F501F046F010004DF593F026F0F1
:10EBD20002FF626CDFF554F0200007FF7475726E5D
:10EBE2006B657900E9F52AFC5400CBFBD5FB04FFE9
:10EBF2002F6D6F64EEF5FDF59C0109911991412F7E
:10EC0200432717FF04C0109500950F5F1F4F37FF72
:10EC120004C0309520952F5F3F4FEE24FF1851E13D
:10EC2200001F111F5A9539F447FF04C01095009533
:10EC32000F5F1F4F0BC0EE1CFF1CE21AF30A20F4F9
:10EC4200E20EF31E8894ECCF0894EACFFA92EA928D
:10EC5200C801DAC905FF752F6D6F6400F8F501F080
:10EC620011F166F108F1D4F126F006FF6E656761D5
:10EC720074652BF601F00FF241F226F001FF2F002E
:10EC820036F601F0FCF502F126F003FF6D6F640029
:10EC92003FF601F0FCF5EBF026F003FF6162730032
:10ECA20046F601F0C3F050F226F003FF6D696E00E4
:10ECB2004EF601F061F58AF13FF060F6D6F0EBF026
:10ECC20026F003FF6D61780056F601F061F580F1E0
:10ECD2003FF06CF6D6F0EBF026F006FF7769746829
:10ECE200696E62F601F0E1F0A5F111F1A5F108F10A
:10ECF2006EF126F007FF746F7570706572006EF624
:10ED020001F0C3F046F0610046F07B0073F63FF07D
:10ED12008DF646F0DF0025F226F007FF746F6C6F68
:10ED2200776572007BF601F0C3F046F0410046F0D1
:10ED32005B0073F63FF0A0F646F020002EF226F0BC
:10ED420003FF686C64008EF654F03F0104FF686FA5
:10ED52006C64A1F601F0A5F6C3F08BF047F2C3F0A4
:10ED620011F1D6F093F008F19FF026F002FF3C2358
:10ED7200A7F601F080F5A5F693F026F001FF230037
:10ED8200B7F601F04DF58BF03FF7F3F046F00900CE
:10ED9200E1F080F13FF0D0F646F00700AFF146F027
:10EDA2003000AFF1ABF626F002FF2373BFF601F09D
:10EDB200C2F661F52EF22AF13FF0D9F626F002FFF3
:10EDC200233ED5F601F06AF5A5F68BF080F5E1F069
:10EDD200A5F126F004FF7369676EE0F601F031F1E8
:10EDE2003FF0F6F646F02D00ABF626F003FF642E58
:10EDF2007200EBF601F011F172F5EBFCBAF6D8F6FF
:10EE0200F3F0EFF6E3F608F1E1F0A5F1E7F7F7F733
:10EE120026F002FF2E72F7F601F011F17EFD08F1E5
:10EE2200FBF626F002FF642E0AF701F066F1FBF60C
:10EE3200DEF726F001FF2E0013F701F07EFD16F734
:10EE420026F003FF75642E001BF701F066F12FF721
:10EE5200DEF726F004FF75642E7222F701F011F13D
:10EE6200BAF6D8F6E3F608F1E1F0A5F1E7F7F7F71D
:10EE720026F006FF75642F6D6F642BF701F011F118
:10EE820066F118F1D4F108F1D6F011F1D4F108F1DC
:10EE920026F006FF64696769743F3AF701F081F66C
:10EEA200C3F046F039008AF146F0000125F2AFF1D5
:10EEB200C3F046F040018AF146F0070125F2A5F1C0
:10EEC20046F03000A5F1C3F04DF58BF06EF126F05F
:10EED20001F018F1C8F708F1E1F041F216F2AFF1D2
:10EEE20041F211F126F002FF732C4AF701F0C3F050
:10EEF2007BF726F001F0F301C3F016F272F51DF272
:10EF0200A5F111F166F1B2023FF08EF7ADF2C3F056
:10EF12008BF0F3015AF5DBF288F708F138F13FF094
:10EF220095F7C3F0AAF0F301EBF026F005FF697440
:10EF32007970650074F701F0C3F016F272F51DF2F4
:10EF4200A5F111F166F1B2023FF0B0F7ADF2C3F0F4
:10EF5200D9F3C3F0BDF7B9F741F2DBF2A8F708F134
:10EF620038F13FF0B7F7C3F0D9F3BDF7EBF026F075
:10EF720001F00BF3BDF726F001F046F0FF0025F299
:10EF82008AF526F006FF69636F756E7497F701F0D4
:10EF9200C3F041F2D6F0D9F326F002FF6372C3F751
:10EFA20001F046F00D008AF546F00A008AF526F0D7
:10EFB20005FF737061636500CEF701F0ECF58AF529
:10EFC20026F006FF737061636573D9F701F066F18D
:10EFD20066F6C3F03FF0F1F7DEF747F235F0EAF7F5
:10EFE200EBF026F004FF74797065E2F701F075FD2D
:10EFF200B2023FF002F8ADF2BEF2AAF08AF5DBF2FD
:10F00200FDF726F001FF2700F3F701F0BAF9DAFA6B
:10F01200E5FAC3F061FBF1F3D6F0D9F346F096FBC3
:10F02200F1F32EF23FF018F846F0F3FF3DF8EBF063
:10F0320026F007FF68616E646C65720003F867F082
:10F042000A0005FF6361746368001AF801F09FF219
:10F0520011F120F88BF011F188F220F893F030F0E2
:10F0620008F120F893F008F1EBF066F126F005FFC5
:10F072007468726F770022F801F0CBF03FF04DF820
:10F0820020F88BF092F208F120F893F008F1D6F014
:10F0920011F1A8F2EBF008F126F005FF63736B693A
:10F0A200700038F801F011F1C3F03FF062F8E1F0BE
:10F0B200AAF018F1F1F33FF062F8F8F3ABF935F08A
:10F0C20055F808F1EBF026F005FF637363616E00FB
:10F0D2004EF801F011F1E1F0C3F0AAF018F1F1F3EA
:10F0E2002AF13FF07FF8D6F047F2D6F0E1F031F1A5
:10F0F2002AF13FF07FF841F235F06DF802F1E1F0CC
:10F10200A5F108F1EBF026F006FF61636365707408
:10F1120065F801F0E1F0AFF1E1F09BF5C3F0D3F84F
:10F122002AF13FF0C6F8C3F046F00800F1F33FF0D1
:10F13200ACF8EBF0F3F061F58AF111F1F3F0F3F0D2
:10F1420008F13FF0AAF8CBF847F211F1E1F008F12B
:10F152006F0135F0C4F8C3F0ECF580F13FF0B3F87D
:10F16200EBF0ECF511F161F58AF108F1D6F03FF020
:10F17200C3F8C3F08AF5E1F09FF041F2E1F07B01C0
:10F1820035F0C4F8EBF035F08EF8EBF002F1D6F082
:10F19200A5F126F001F046F00800C3F08AF5DEF78B
:10F1A2008AF526F001F0C3F046F00D00F1F3D6F037
:10F1B20046F00A00F1F32EF226F006FF7265666948
:10F1C2006C6C85F82AFC1A00F3FBFFFB04FF6368F2
:10F1D2006172DEF801F0BAF92AF13FF0F3F846F075
:10F1E200F0FF3DF8AAF026F006FF6E756D626572BB
:10F1F200E7F801F04DF58BF011F13EF911F151F9FB
:10F202003EF908F12EF211F1C3F02AF13FF011F9A3
:10F212006AF508F1EBF008F14DF593F066F126F08E
:10F2220026F366F166F135F36FF9CBF03FF033F96F
:10F23200F8F3F1F33FF02AF9AAF046F02E00F1F3C9
:10F242003FF02BF908F13FF027F9F8FCFDF335F018
:10F2520039F9EBF06AF508F1EBF008F14DF593F0AE
:10F2620066F126F06AF508F13FF038F93BF6F8F35B
:10F2720008F14DF593F05DF126F001F0E1F0AAF00E
:10F2820046F02D00F1F3C3F011F13FF04AF9F8F323
:10F29200ABF908F126F061F00A00100002000A0042
:10F2A20001F0E1F0AAF046F02300A5F1C3F066F107
:10F2B20046F0040073F63FF067F94CF9AFF1D9F369
:10F2C2004DF593F0F8F3ABF935F068F9EBF026F071
:10F2D20007FF3E6E756D62657200F5F801F0C3F0CE
:10F2E2003FF087F9E1F0AAF04FF72AF13FF07BF9FE
:10F2F200EBF026F011F11CFD4DF58BF0600108F1E9
:10F3020058011CFDF8F3ABF935F070F926F005FF52
:10F3120070617273650069F901F011F1A1F97AF572
:10F322008BF0ABF908F16AF8C3F041F27AF577F2A3
:10F33200F8F3ABF926F006FF736F7572636588F90F
:10F342002AFC1600F3FBFFFB07FF2F737472696E32
:10F3520067009CF901F0F3F0E1F0AFF1F3F0F3F0A4
:10F36200A5F126F00AFF70617273652D6E616D65FD
:10F37200A5F901F0ECF5BEF926F001F011F1A1F9C1
:10F382007AF58BF0ABF918F153F808F16AF861F5E8
:10F39200AFF1A1F9EBF0A5F17AF593F026F007FFB2
:10F3A20066696E642D787400B3F901F046F0E2F9F3
:10F3B20046F05C0033042AF13FF0E1F96AF566F1A8
:10F3C20026F001F011F161F508F13CFCC3F03FF0C9
:10F3D200EFF911F102F102F108F15DF126F001F00D
:10F3E20069F70300206F6B009CF726F003FF2E6F76
:10F3F2006B00D0F92AFC1C00F3FBFFFB01F069F75C
:10F4020002003E20D1F79CF726F006FF2E726561BE
:10F412006479F7F92AFC2000F3FBFFFB01F069F79E
:10F422000400203F3F209CF74DF58BF011F1D9F5F8
:10F432001EF77AF58BF01EF708F14DF593F026F0E2
:10F4420006FF2E6572726F7206FA2AFC1E00F3FB2B
:10F45200FFFB01F0D1F726F006FF2E696E7075747E
:10F4620021FA2AFC2200F3FBFFFB04FF7175697489
:10F472002DFA01F0E802EF0293F09CFAA8F2A4FA46
:10F4820092F27D0347F58BF02AF13FF049FA0BFA2D
:10F49200E3F832FA3FF05CFA46F0BDFA27F8CBF017
:10F4A2003FF05CFAC3F046F0FEFF80F13FF05AFAFB
:10F4B20026FA35F03BFAFBF935F043FA05FF7061A5
:10F4C2007573650036FA2AFC4101DFFBE9FB04FF94
:10F4D200636F6C645FFA6DFAA4B622243324BB24F2
:10F4E20024BEE0E0F1E02192E030E9F7F134D9F70F
:10F4F200E3E4F1E02F010FEF0DBF048310E41EBF20
:10F502001583CFEAC683D0E4D783AFE8BAEF0C9471
:10F5120005F004FF7761726D68FA01F067FD46F04D
:10F5220096FB46F064FA0AFC7D03F4F53AFA03FF0F
:10F53200737030008AFA81F00600F3FBFFFB03FFD1
:10F542007270300098FA01F0A8FA8BF026F067F09A
:10F55200040005FF646570746800A0FA01F09CFA6B
:10F562009FF2A5F116F247F226F009FF696E746563
:10F57200727072657400AAFA01F0BAF9C3F03FF032
:10F58200CEFADAFAE5FA47F58BF03FF0C9FAC2FB98
:10F59200D9F330F06EFB35F0BEFA6AF526F010FFB3
:10F5A200666F7274682D7265636F676E697A6572D1
:10F5B200B6FA81F05000CBFBD5FB09FF7265636F91
:10F5C200676E697A6500D0FA01F046F0F0FAD6F07B
:10F5D20033042AF13FF0EFFA6AF561FB26F001F0FD
:10F5E200F3F0F3F061F526F3F3F030F035F3F3F0D6
:10F5F200C3F061FBF1F33FF001FBEBF066F126F0A3
:10F6020002F102F15DF126F00BFF7265637479700D
:10F61200652D6E756D00DEFA61F096FB0902090236
:10F622000CFF726563747970652D646E756D05FBF0
:10F6320061F096FBE9F3E9F307FF7265632D6E75DE
:10F642006D0011FB01F0FAF83FF02FFBF8F3F1F334
:10F652003FF02DFB0DFB26F019FB26F061FB26F097
:10F6620008FF7265632D66696E641DFB01F0D6F9B1
:10F67200C3F02AF13FF040FBEBF061FB26F049FBBF
:10F6820026F00AFF726563747970652D787431FB18
:10F6920061F04DFB51FBE9F301F0EBF030F026F0A5
:10F6A20001F031F13FF057FBF30126F030F026F084
:10F6B2000CFF726563747970652D6E756C6C42FB1C
:10F6C20061F065FB65FB65FB01F046F0F3FF3DF879
:10F6D20006FF3F737461636B59FB01F0AFFA31F1BE
:10F6E2003FF076FB46F0FCFF3DF826F003FF76651F
:10F6F200720069FB01F009F59CF7DEF74DF58BF01E
:10F7020017F5D9F57EFDBAF6C2F646F02E00ABF635
:10F71200D8F6E3F6F7F74DF593F0DEF71FF59CF711
:10F7220026F004FF6E6F6F7077FB01F026F006FF84
:10F73200756E7573656492FB01F09FF2BBF5A5F1DE
:10F7420026F00200746F98FB01F006F887FD47F57A
:10F752008BF03FF0B6FBE801B0FBF30126F001F0BD
:10F7620008F1C3F0C2FB11F1D9F3C3F0C2FBC2FB33
:10F77200D9F330F026F007FF692D63656C6C2B001E
:10F78200A2FB01F041F226F007FF4564656665724F
:10F792004000BCFB01F0D9F367F326F007FF456494
:10F7A200656665722100C5FB01F0D9F343F326F0CB
:10F7B20007FF5264656665724000CFFB01F0D9F322
:10F7C2008BF026F007FF5264656665722100D9FB53
:10F7D20001F0D9F393F026F007FF55646566657270
:10F7E2004000E3FB01F0D9F314F3AFF18BF026F004
:10F7F20007FF5564656665722100EDFB01F0D9F3E0
:10F8020014F3AFF193F026F006FF6465666572218A
:10F81200F9FB01F087FDC3F0C2FBC2FBD9F330F064
:10F8220026F006FF64656665724005FC01F087FDFF
:10F83200C3F0C2FBD9F330F026F007FF28646566F7
:10F842006572290012FC01F0BA012503E8012AFCC5
:10F8520026F00E943E03C3F0C2FBD9F330F030F031
:10F8620026F00FFF7365617263682D776F72646CA7
:10F87200697374001EFC01F011F166F146F051FC4F
:10F8820008F16EFCC3F02AF13FF04BFC6AF5EBF095
:10F8920066F126F0C3F095FCD6F09501830126F0BF
:10F8A20001F011F1EBF061F518F189FC9FFC3FF0DA
:10F8B2005FFC08F1EBF066F15DF126F06AF508F104
:10F8C20066F126F011FF74726176657273652D77A9
:10F8D2006F72646C6973740032FC01F067F3C3F0F9
:10F8E2003FF07FFC61F526F3D6F030F035F3F3F00C
:10F8F2003FF07FFC9E04D9F335F070FC6AF526F0E8
:10F902000BFF6E616D653E737472696E670063FC16
:10F9120001F0C8F746F0FF0025F226F007FF6E66F9
:10F92200613E6366610081FC01F09E0441F226F0B3
:10F9320008FF69636F6D706172658FFC01F011F1F0
:10F94200E1F008F123F13FF0AAFC6AF5EBF05DF17A
:10F9520026F0D6F066F1B2023FF0CDFCADF2E1F056
:10F962008BF0E1F0D9F3C3F046F000016EF13FF005
:10F97200BEFCD6F046F0FF0025F223F13FF0C5FCB5
:10F982006AF55DF1E6F226F041F2D6F05AF5D6F0CC
:10F9920046F00200CCF2B0FC6AF566F126F001FFF7
:10F9A2002A0099FC01F0B8F1EBF026F001FF6A00A1
:10F9B200D0FC01F088F246F00700AFF18BF088F23C
:10F9C20046F00900AFF18BF0AFF126F004FF64615D
:10F9D2006273D7FC01F0C3F031F13FF0F1FCF8FCA7
:10F9E20026F007FF646E656761746500E7FC01F04D
:10F9F2006DF4F8F366F147F426F005FF636D6F7658
:10FA02006500F2FC04FDBF93AF93E991F991A991CE
:10FA1200B991092F082B21F01D9111930197E1F75C
:10FA2200AF91BF91899199910C9405F005FF3273C2
:10FA320077617000FEFC01F0F3F011F1F3F008F1D0
:10FA420026F00AFF726566696C6C2D74696217FD97
:10FA520001F045FD46F05A008AF84BFD93F066F13D
:10FA62007AF593F05DF126F00AFF736F75726365A4
:10FA72002D74696222FD01F045FD4BFD8BF026F0ED
:10FA820003FF7469620035FD54F0710104FF2374B1
:10FA9200696241FD54F0CB0106FF65653E72616DFE
:10FAA20047FD01F066F1ADF2E1F067F3E1F093F0AA
:10FAB2005AF5D6F05AF5D6F0DBF255FD6AF526F086
:10FAC20008FF696E69742D72616D4DFD01F046F09B
:10FAD2007C0014F346F0240016F252FD26F006FFD5
:10FAE200626F756E647361FD01F0E1F0AFF1D6F003
:10FAF20026F003FF733E640070FD01F0C3F031F1A4
:10FB020026F005FF3E626F6479007AFD42F206FF3D
:10FB12006972715B5D2382FD01F046F01201AFF163
:10FB220026F004FF23696E7488FD54F0230004FF5D
:10FB32002B696E7492FD9DFD78940C9405F004FF80
:10FB42002D696E7498FDA5FDF8940C9405F004FFE0
:10FB5200696E7421A0FD01F046F00000AFF143F39D
:10FB620026F004FF696E7440A8FD01F046F0000023
:10FB7200AFF167F326F008FF696E742D747261703D
:10FB8200B2FDC3FDB82E899199910C9405F001F054
:10FB9200B6FD30F0CDFD26F0CEFD02D00C9405F07E
:02FBA2001895B4
:00000001FF
