:020000020000FC
:020004001BD10E
:0200080019D10C
:02000C0017D10A
:0200100015D108
:0200140013D106
:0200180011D104
:02001C000FD102
:020020000DD100
:020024000BD1FE
:0200280009D1FC
:02002C0007D1FA
:0200300005D1F8
:0200340003D1F6
:0200380001D1F4
:02003C00FFD0F3
:02004000FDD0F1
:02004400FBD0EF
:02004800F9D0ED
:02004C00F7D0EB
:10005000F5D00004000200381500080041546D6519
:100060006761313607FF3E72782D627566000000C9
:100070003900082F10917000E0E6F0E0E10FF31D69
:10008000008313951F7010937000899199910C94BF
:10009000051C06FF6973722D72783200011C3D1C2D
:1000A0002C00981CB11C3D1C0300D61F361C5900A7
:1000B0001B0B3800201C011C3D1C4E003D1C160073
:1000C00030023D1C60003D1C1600541D7A02201CAD
:1000D00006FF72782D6275664900011C8800361C87
:1000E0006E003D1C7100981CB11C3D1C60009D1DE4
:1000F000981CC41C2F1E3D1C0F00131E3D1C7100BC
:100100008D1C201C07FF72783F2D62756600680009
:10011000011C130B3D1C7100981C3D1C7000981CA9
:10012000111D201C07FF74782D706F6C6C0082000D
:10013000011CA600361C99003D1C2C008D1C201CA7
:1001400008FF74783F2D706F6C6C9200011C130BCC
:100150003D1C2B00981C3D1C2000131E201C04FF7E
:1001600075627272A0006F1C84007A0C840C06FF0A
:100170002B7573617274AF00011C3D1C98003D1C0F
:100180002A008D1C3D1C06003D1CC0008D1CB300C8
:10019000B11CF91E3D1C40008D1C3D1C29008D1C0E
:1001A0005B00201C08FF31772E7265736574B70001
:1001B000D9009A938A93BC9AC498E0ECF3E0319703
:1001C000F1F71FB7F894C49ABC98E0E8F0E03197D3
:1001D000F1F786B384FF9FEF1FBFBC98C498E0E49B
:1001E000F3E03197F1F7892F0C94051C07FF317765
:1001F0002E736C6F7400D200FD00C498BC9A1FB7B8
:10020000F894ECE0F0E03197F1F78894879510F4DA
:10021000C49ABC98E2E1F0E03197F1F706B304FD2F
:100220008068E6E6F0E03197F1F7C49ABC98E4E024
:0C023000F0E03197F1F71FBF0C94051CA3
:040000000C941C0B35
:10023C000A920FB60A920F900F900A94BB2001F00D
:10024C00B02CFF93EF93E2E7F0E00694E00DF31D82
:10025C00008003940082EF91FF9109900FBE0990EA
:10026C00089502FF6D2BF600011C2D0EA901201C18
:10027C0003FF75642A003701011CB11CFF1CE01D33
:10028C00D91CC41CF61CE01DE11C9D1D201C04FF88
:10029C00756D61783E01011C0F065C1D361C570103
:1002AC00C41CD91C201C04FF756D696E4D01011C0A
:1002BC000F06671D361C6301C41CD91C201C011CB5
:1002CC003D1C0080131E181D361C6E01DD1F201CEA
:1002DC004B1D201C0AFF6E616D653E666C61677379
:1002EC005901011CC11F3D1C00FF131E201C03FFE4
:1002FC00316D730070018201E0EDF7E03197F1F799
:10030C000C94051C03FF64322A007D018D010991B8
:10031C001991000F111F881F991F1A930A930C949F
:10032C00051C03FF64322F0088019C01099119916F
:10033C0095958795179507951A930A930C94051C18
:10034C0002FF642B9701AA0129913991E990F99048
:10035C0049915991240F351F8E1D9F1D3A932A9355
:10036C000C94051C02FF642DA601BC012991399146
:10037C00E990F99049915991421B530BE80AF90AFB
:10038C005A934A93C7010C94051C07FF64696E7657
:10039C0065727400B801D2010991199180959095FC
:1003AC00009510951A930A930C94051C02FF752E58
:1003BC00CB01011C541DD507201C03FF752E7200A8
:1003CC00DC01011C541DC41CDE07201C0DFF7368CE
:1003DC006F772D776F72646C69737400E301011C85
:1003EC003D1CFB01C41C1D0D201C011C380D4B08B1
:1003FC008D084B1D201C05FF776F72647300EC0198
:10040C00011C3D1C4200551FF501201C06FF6972A2
:10041C00715B5D230102011C3D1C72009D1D201CA3
:10042C0004FF23696E740C02481C150004FF2B6931
:10043C006E741602210278940C94051C04FF2D692D
:10044C006E741C022902F8940C94051C04FF696E4E
:10045C0074212402011C3D1C00009D1D311F201C19
:10046C0004FF696E74402C02011C3D1C00009D1D94
:10047C00551F201C08FF696E742D74726170360252
:10048C004702B82E899199910C94051C011C3A02D3
:10049C002A1C5102201C520202D00C94051C1895E7
:1004AC0004FF7069636B4002011C2F1E01068D1E38
:1004BC009D1D791C201C02002E225602011C6C0270
:1004CC00CB024B08201C020073226102011C3D1C54
:1004DC0022003C0AF405791C361C7502F702201C1C
:1004EC0004FF66696C6C6902011CE11CE11CB91CFF
:1004FC00361C8702240E9B1EB11CAC1E8D1CC91E03
:10050C008202D91C201C06FF6E6577657374760217
:10051C00481C870006FF6C61746573748902481C63
:10052C008B0008FF28637265617465299002011CB9
:10053C00690AFF03AA02201C0BFF28637265617411
:10054C00652D696E29009702011CB11C8E020706ED
:10055C00811CE4038E02811C201C01005C00A202A1
:10056C00011C500AF01C2806811C201C01002800CC
:10057C00B302011C3D1C29003C0A1806201C07FF75
:10058C00636F6D70696C6500BC02011CF61CB11CBC
:10059C00710CFF1CC11FD602201C01FF2C00C502D0
:1005AC00011C5806691F58062F1E5F0C5906201C8B
:1005BC0003005B275D00D302011CB508EC02201C74
:1005CC0007006C69746572616C00DE02011CCB0261
:1005DC003D1CD602201C0800736C69746572616C3A
:1005EC00E602011CCB0218082608201C011C580628
:1005FC00CB02FFFF201C011C1D0C5806C41C691FDC
:10060C00201C011C5806201C011C1D0CD602201C91
:10061C000500616865616400F102011CCB022F1CAE
:10062C00FC02201C020069660E03011CCB02361C66
:10063C00FC02201C0400656C73651803011CCB02C2
:10064C002F1CFC02C41C0103201C04007468656E82
:10065C002003011C0103201C0500626567696E0004
:10066C002B03011C0703201C05007768696C6500CF
:10067C003203011C1B03C41C201C06007265706530
:10068C0061743A03011C5C032F03201C0500756E7A
:10069C0074696C004303011C3D1C361CD6020A0312
:1006AC00201C0500616761696E004C03011CCB02C4
:1006BC002F1C0A03201C0200646F5703011CCB0281
:1006CC009B1E0703541DBF03201C04006C6F6F702E
:1006DC006103011CCB02C91EA603201C05002B6C58
:1006EC006F6F70006B03011CCB02BA1EA603201C9B
:1006FC0005006C65617665007403011CCB02D41E89
:10070C001303BF03201C03003F646F007E03011C16
:10071C00CB0295031B036403C41CBF03201C011CE8
:10072C000F06D61FB11CFF1C361C9D031806F61CA9
:10073C00FD1D201C07FF656E646C6F6F70008903D4
:10074C00011C0A03B303B91C361CAF032F032F1C67
:10075C00A803201C02FF6C3EA003011CD203791CD1
:10076C00791C3D1CFEFFD203651E201C02FF3E6C53
:10077C00B003011CE21FD203651ED203791C811C3D
:10078C00201C03FF6C703000BC036F1C36007A0C0D
:10079C00840C02FF6C70C703481C8D0006FF63724B
:1007AC0065617465CF03011C9D020804CB02521CC9
:1007BC00201C06FF686561646572D403011C580631
:1007CC00FF1CFF1CB11C261D361CF603B11C3D1C66
:1007DC0000FF1C1E2A08F61C551FD602F61C201CF6
:1007EC003D1CF0FFEC0807FF776C73636F706500BE
:1007FC00DF03D90C32007A0C840C06FF7265766527
:10080C00616CF903011C8E020706791CB91C361C9D
:10081C0013048E02791CC41C311F201C0500646F4C
:10082C0065733E000304011CCB022C04CB020E9416
:10083C00CB022104201C9A938A93CB0101967F91C1
:10084C006F91BF93AF93DB010C94051C011CF61C3C
:10085C008E020706791C551F440D691F201C01FFD1
:10086C003A001404011C9D024304D91C201C07FFF0
:10087C003A6E6F6E616D65003504011C5806B11C33
:10088C009502811CCB02011C5804201C01003B006A
:10089C003D04011CCB02201C60040804201C01FF39
:1008AC005D004C04011CDD1FF405811C201C0100A3
:1008BC005B005504011C541DF405811C201C08FF11
:1008CC007661726961626C655D04011C690677046E
:1008DC00E21F7206201C08FF636F6E7374616E74E6
:1008EC006504011C9D020804CB02481CD602201C86
:1008FC0004FF757365727104011C9D020804CB0220
:10090C00581CD602201C0700726563757273650053
:10091C007E04011C9502791CD602201C09FF696D0E
:10092C006D656469617465008904011C3D05551F82
:10093C00B11CC11F3D1CFF7F131EC41C691F201C52
:10094C0006005B636861725D9404011CCB023D1C64
:10095C009A09D602201C060061626F727422A604EA
:10096C00011C6C02CB02C804201C05FF61626F7273
:10097C007400B104011C4B1DEC0806FF3F61626F53
:10098C007274BB04011CE11C361CCE044B08C00461
:10099C001806201C09FF6765742D737461636B0066
:1009AC00C304011CB11C0706C41C551FB11CFF1C41
:1009BC00541DC41C9503361CEE049B1EAC1E351E28
:1009CC000106CF1C9D1D551FC41C4B1DBA1EE404F3
:1009DC001806F61C201C09FF7365742D7374616373
:1009EC006B00D004011CCF1C1F1D361C00053D1CC8
:1009FC00FCFFEC080F06311FC41C541D9503361C5C
:100A0C000D059B1E07062006311FC91E0805D91CA3
:100A1C00201C09FF6D61702D737461636B00F10410
:100A2C00011CB11C0706C41C551F0106240E95039E
:100A3C00361C32059B1EAC1E551FC41CFF1C061D0C
:100A4C002A1CB91C361C2E05F61CD91CD41E201CC5
:100A5C00F61CE21FBA1E2105D91C541D201C0BFFCD
:100A6C006765742D63757272656E74000F05011CD9
:100A7C003D1C3C00551F201C09FF6366672D6F72DF
:100A8C00646572003505481C400008FF6366672DDD
:100A9C00726563734205481C520007FF636F6D70EB
:100AAC00617265004B055A05BF93AF938C01899118
:100ABC009991DC01899199919C0189919991FC0101
:100ACC00ED90F190EF1451F40A9519F02A95C1F7B5
:100ADC0001C02A95022B11F4882702C08FEF00C0A9
:100AEC00982FAF91BF910C94051C07FF6E66613E69
:100AFC006C6661005305011C380D2F1E041E9D1DD4
:100B0C00201C0BFF656E7669726F6E6D656E7400DE
:100B1C007B05481C3A0009FF776F72646C6973742B
:100B2C0073000000011C3D1C0800201C04FF2F70EA
:100B3C0061649105011C8D1E2E06931D201C05FF62
:100B4C002F686F6C64009C05011C2E066906931DB2
:100B5C00201C0AFF666F7274682D6E616D65A505A9
:100B6C00011C18080700616D666F72746800201C08
:100B7C0007FF76657273696F6E00AF05011C3D1C33
:100B8C004500201C03FF63707500BE05011C3D1C55
:100B9C002D007708201C08FF6D63752D696E666F3C
:100BAC00C805011C3D1C2900201C05FF2F75736511
:100BBC007200D105011C3D1C2E00201C05FF665F38
:100BCC00637075008705011C3D1C00123D1C7A00EA
:100BDC00201C05FF737461746500E405481C8F00CC
:100BEC0004FF62617365EF05581C0C0005FF63651B
:100BFC006C6C7300F6050C1E05FF63656C6C2B00AA
:100C0C00FC05080602960C94051C04FF32647570F2
:100C1C000206011CCF1CCF1C201C05FF3264726F16
:100C2C0070000B06011CD91CD91C201C04FF747508
:100C3C00636B1306011CC41CCF1C201C03FF3E69F4
:100C4C006E001C06581C180003FF7061640024061B
:100C5C00011C69063D1C28009D1D201C04FF656DB0
:100C6C0069742A06D90C0E00A20CAE0C05FF656D3A
:100C7C0069743F003406D90C1000A20CAE0C03FFB3
:100C8C006B6579003C06D90C1200A20CAE0C04FF6B
:100C9C006B65793F4506D90C1400A20CAE0C02FF13
:100CAC0064704D066F1C2C007A0C840C05FF656873
:100CBC006572650055066F1C30007A0C840C04FFBD
:100CCC00686572655C066F1C2E007A0C840C05FF3F
:100CDC00616C6C6F74006506011C69069D1D5F0CD0
:100CEC006A06201C03FF62696E006D06011CE21F80
:100CFC00FA05811C201C07FF646563696D616C003B
:100D0C007806011C3D1C0A00FA05811C201C03FFFF
:100D1C00686578008106011C3D1C1000FA05811CD9
:100D2C00201C02FF626C8D06481C200007FF7475A6
:100D3C00726E6B6579009706D90C38007A0C840CAE
:100D4C0004FF2F6D6F649C06AB069C0109911991F1
:100D5C00412F432717FF04C0109500950F5F1F4FBD
:100D6C0037FF04C0309520952F5F3F4FEE24FF18BE
:100D7C0051E1001F111F5A9539F447FF04C010951B
:100D8C0000950F5F1F4F0BC0EE1CFF1CE21AF30AFD
:100D9C0020F4E20EF31E8894ECCF0894EACFFA927A
:100DAC00EA92C8010C94051C05FF752F6D6F640049
:100DBC00A606011CFF1C541DF61CC21D201C06FFA0
:100DCC006E6567617465DA06011CFD1D2F1E201C03
:100DDC0001FF2F00E506011CAA06F01C201C03FFD6
:100DEC006D6F6400EE06011CAA06D91C201C03FFC3
:100DFC0061627300F506011CB11C3E1E201C03FF32
:100E0C006D696E00FD06011C0F06781D361C0F0760
:100E1C00C41CD91C201C03FF6D6178000507011C44
:100E2C000F066E1D361C1B07C41CD91C201C06FF8C
:100E3C0077697468696E1107011CCF1C931DFF1C28
:100E4C00931DF61C5C1D201C07FF746F757070657C
:100E5C0072001D07011CB11C3D1C61003D1C7B0078
:100E6C002207361C3C073D1CDF00131E201C07FF0D
:100E7C00746F6C6F776572002A07011CB11C3D1CE6
:100E8C0041003D1C5B002207361C4F073D1C200017
:100E9C001C1E201C03FF686C64003D07481C91005D
:100EAC0004FF686F6C645007011C5407B11C791C5B
:100EBC00351EB11CFF1CC41C811CF61C8D1C201C77
:100ECC0002FF3C235607011C2E065407811C201CD4
:100EDC0001FF23006607011CFA05791CEE07E11CD3
:100EEC003D1C0900CF1C6E1D361C7F073D1C0700E6
:100EFC009D1D3D1C30009D1D5A07201C02FF2373B5
:100F0C006E07011C71070F061C1E181D361C880766
:100F1C00201C02FF233E8407011C18065407791C71
:100F2C002E06CF1C931D201C04FF7369676E8F0760
:100F3C00011C1F1D361CA5073D1C2D005A07201C2B
:100F4C0003FF642E72009A07011CFF1C20069A0DE9
:100F5C0069078707E11C9E079207F61CCF1C931D9F
:100F6C009608A608201C02FF2E72A607011CFF1C67
:100F7C002D0EF61CAA07201C02FF642EB907011CBB
:100F8C00541DAA078D08201C01FF2E00C207011C4E
:100F9C002D0EC507201C03FF75642E00CA07011C0B
:100FAC00541DDE078D08201C04FF75642E72D107BA
:100FBC00011CFF1C690787079207F61CCF1C931DA9
:100FCC009608A608201C06FF75642F6D6F64DA075F
:100FDC00011CFF1C541D061DC21DF61CC41CFF1C4D
:100FEC00C21DF61C201C06FF64696769743FE90783
:100FFC00011C3007B11C3D1C3900781D3D1C000143
:10100C00131E9D1DB11C3D1C4001781D3D1C07018C
:10101C00131E931D3D1C3000931DB11CFA05791C49
:10102C005C1D201C011C061D7708F61CCF1C2F1EF6
:10103C00041E9D1D2F1EFF1C201C02FF732CF90784
:10104C00011CB11C2A08201C011CD602B11C041E58
:10105C0020060B1E931DFF1C541D9503361C3D08CA
:10106C009B1EB11C791CD6020706C91E3708F61C3C
:10107C00261D361C4408B11C981CD602D91C201CF9
:10108C0005FF6974797065002308011CB11C041EEE
:10109C0020060B1E931DFF1C541D9503361C5F0868
:1010AC009B1EB11CC11FB11C6C0868082F1EC91EE9
:1010BC005708F61C261D361C6608B11CC11F6C088F
:1010CC00D91C201C011CF91E6C08201C011C3D1C89
:1010DC00FF00131E3806201C06FF69636F756E74C3
:1010EC004608011CB11C2F1EC41CC11F201C02FF72
:1010FC0063727208011C3D1C0D0038063D1C0A0071
:10110C003806201C05FF7370616365007D08011CA7
:10111C009A063806201C06FF737061636573880895
:10112C00011C541D1507B11C361CA0088D08351E5A
:10113C002F1C9908D91C201C04FF74797065910828
:10114C00011C240E9503361CB1089B1EAC1E981C6A
:10115C003806C91EAC08201C01FF2700A208011C80
:10116C00690A960B6C0BB11C100CD61FC41CC11F4A
:10117C003D1C450CD61F1C1E361CC7083D1CF3FF1E
:10118C00EC08D91C201C07FF68616E646C6572004A
:10119C00B208581C0A0005FF636174636800C90833
:1011AC00011C8D1EFF1CCF08791CFF1C761ECF085E
:1011BC00811C2A1CF61CCF08811CF61CD91C541D42
:1011CC00201C05FF7468726F7700D108011CB91CD4
:1011DC00361CFC08CF08791C801EF61CCF08811C1D
:1011EC00F61CC41CFF1C961ED91CF61C201C05FFEB
:1011FC0063736B697000E708011CFF1CB11C361C83
:10120C001109CF1C981C061DD61F361C1109DD1F99
:10121C005A0A2F1C0409F61CD91C201C05FF6373E9
:10122C0063616E00FD08011CFF1CCF1CB11C981CD7
:10123C00061DD61F181D361C2E09C41C351EC41CB9
:10124C00CF1C1F1D181D361C2E092F1E2F1C1C09F0
:10125C00F01CCF1C931DF61CD91C201C06FF6163CF
:10126C00636570741409011CCF1C9D1DCF1C4906AD
:10127C00B11C8209181D361C7509B11C3D1C0800D7
:10128C00D61F361C5B09D91CE11C0F06781DFF1CF0
:10129C00E11CE11CF61C361C59097A09351EFF1C91
:1012AC00CF1CF61C51012F1C7309B11C9A066E1D24
:1012BC00361C6209D91C9A06FF1C0F06781DF61CF9
:1012CC00C41C361C7209B11C3806CF1C8D1C2F1E79
:1012DC00CF1C5D012F1C7309D91C2F1C3D09D91C77
:1012EC00F01CC41C931D201C011C3D1C0800B11CCF
:1012FC0038068D083806201C011CB11C3D1C0D0045
:10130C00D61FC41C3D1C0A00D61F1C1E201C06FF29
:10131C00726566696C6C3409D90C1A00A20CAE0C9F
:10132C0004FF636861728D09011C690A181D361C63
:10133C00A2093D1CF0FFEC08981C201C06FF6E75E2
:10134C006D6265729609011CFA05791CFF1CED098A
:10135C00FF1C000AED09F61C1C1EFF1CB11C181DFD
:10136C00361CC0091806F61CD91CF61CFA05811C83
:10137C00541D201C141F541D541D231F1E0AB91C60
:10138C00361CE209DD1FD61F361CD909981C3D1CE2
:10139C002E00D61F361CDA09F61C361CD609A70DF2
:1013AC00E21F2F1CE809D91C1806F61CD91CF61CC8
:1013BC00FA05811C541D201C1806F61C361CE70966
:1013CC00EA06DD1FF61CFA05811C4B1D201C011CB6
:1013DC00CF1C981C3D1C2D00D61FB11CFF1C361CAD
:1013EC00F909DD1F5A0AF61C201C521C0A001000B9
:1013FC0002000A00011CCF1C981C3D1C2300931DED
:10140C00B11C541D3D1C04002207361C160AFB0996
:10141C009D1DC11FFA05811CDD1F5A0A2F1C170ABE
:10142C00D91C201C07FF3E6E756D62657200A40905
:10143C00011CB11C361C360ACF1C981CFE07181D4B
:10144C00361C2A0AD91C201CFF1CCB0DFA05791C52
:10145C004201F61C3A01CB0DDD1F5A0A2F1C1F0A44
:10146C00201C05FF706172736500180A011CFF1CBB
:10147C00500A2806791C5A0AF61C1909B11C2F1E91
:10148C002806651EDD1F5A0A201C06FF736F757235
:10149C006365370AD90C1600A20CAE0C07FF2F732C
:1014AC007472696E67004B0A011CE11CCF1C9D1DF8
:1014BC00E11CE11C931D201C0AFF70617273652DE9
:1014CC006E616D65540A011C9A066D0A201C011C84
:1014DC00FF1C500A2806791C5A0A061D0209F61C24
:1014EC0019090F069D1D500AD91C931D2806811C35
:1014FC00201C07FF66696E642D787400620A011C5B
:10150C003D1C910A3D1C40001605181D361C900A06
:10151C001806541D201C011CFF1C0F06F61CEB0C9E
:10152C00B11C361C9E0AFF1CF01CF01CF61C4B1D3B
:10153C00201C04FF717569747F0A011CCB03D20354
:10154C00811C4B0B961E530B801E6004F405791CFA
:10155C00181D361CB20AE30A92090A0B361CC50A7E
:10156C003D1CA10BD608B91C361CC50AB11C3D1C70
:10157C00FEFF6E1D361CC30AFE0A2F1CA40AD30ADA
:10158C002F1CAC0A011C18080300206F6B004B08C1
:10159C00201C03FF2E6F6B009F0AD90C1C00A20CA1
:1015AC00AE0C011C180802003E2080084B08201CC1
:1015BC0006FF2E7265616479CF0AD90C2000A20C4B
:1015CC00AE0C011C18080400203F3F204B08FA0504
:1015DC00791CFF1C8706CD072806791CCD07F61C45
:1015EC00FA05811C201C06FF2E6572726F72DE0AD2
:1015FC00D90C1E00A20CAE0C011C8008201C06FF8E
:10160C002E696E707574F90AD90C2200A20CAE0CFE
:10161C0005FF706175736500050BD90C93008E0C7A
:10162C00980C04FF636F6C640E0B1C0BA4B6222485
:10163C003324BB2424BEE0E6F0E02192E036E9F747
:10164C00F430D9F7E5E9F0E02F010FE50DBF048385
:10165C0014E01EBF1583CFE0C683D4E0D783AEE37E
:10166C00BBE00C94051C04FF7761726D170B011C19
:10167C00160E3D1C450C3D1C130BB90C6004A20648
:10168C00A30A03FF73703000390B6F1C0600A20C09
:10169C00AE0C03FF72703000470B011C570B791C0A
:1016AC00201C581C040005FF6465707468004F0B07
:1016BC00011C4B0B8D1E931D041E351E201C09FF97
:1016CC007265636F676E697A6500590B011C3D1C6E
:1016DC00770BC41C1605181D361C760B1806100C3F
:1016EC00201C011CE11CE11C0F06141FE11C2A1C10
:1016FC00231FE11CB11C100CD61F361C880BD91CE7
:10170C00541D201CF01CF01C4B1D201C10FF666F80
:10171C007274682D7265636F676E697A6572650B9A
:10172C006F1C34007A0C840C09FF696E746572703E
:10173C00726574008C0B011C690AB11C361CB20B4F
:10174C00960B6C0BF405791C361CAD0B710CC11F80
:10175C002A1C1D0C2F1CA20B1806201C0BFF7265DB
:10176C0063747970652D6E756D009A0B521C450C67
:10177C00EC02EC020CFF726563747970652D646E7B
:10178C00756DB40B521C450CCE1FCE1F07FF726536
:10179C00632D6E756D00C00B011CA909361CDE0B88
:1017AC00DD1FD61F361CDC0BBC0B201CC80B201CF1
:1017BC00100C201C08FF7265632D66696E64CC0BDF
:1017CC00011C850AB11C181D361CEF0BD91C100C02
:1017DC00201CF80B201C0AFF726563747970652D50
:1017EC007874E00B521CFC0B000CCE1F011CD91C96
:1017FC002A1C201C011C1F1D361C060CD602201C8A
:10180C002A1C201C0CFF726563747970652D6E7533
:10181C006C6CF10B521C140C140C140C011C3D1CA4
:10182C00F3FFEC0806FF3F737461636B080C011C3B
:10183C005E0B1F1D361C250C3D1CFCFFEC08201CF0
:10184C0003FF76657200180C011CB6054B088D0859
:10185C00FA05791CC40587062D0E690771073D1C16
:10186C002E005A0787079207A608FA05811C8D08D7
:10187C00CC054B08201C04FF6E6F6F70260C011CEE
:10188C00201C06FF756E75736564410C011C8D1E62
:10189C006906931D201C0200746F470C011CB508CF
:1018AC00360EF405791C361C650CCB025F0CD60287
:1018BC00201C011CF61CB11C710CFF1CC11FB11C9F
:1018CC00710C710CC11F2A1C201C07FF692D63654C
:1018DC006C6C2B00510C011C2F1E201C07FF456447
:1018EC006566657240006B0C011CC11F551F201CE6
:1018FC0007FF4564656665722100740C011CC11FED
:10190C00311F201C07FF52646566657240007E0C17
:10191C00011CC11F791C201C07FF5264656665728F
:10192C002100880C011CC11F811C201C07FF556461
:10193C00656665724000920C011CC11F021F9D1D43
:10194C00791C201C07FF55646566657221009C0C90
:10195C00011CC11F021F9D1D811C201C06FF6465FC
:10196C0066657221A80C011C360EB11C710C710C31
:10197C00C11F2A1C201C06FF646566657240B40CEE
:10198C00011C360EB11C710CC11F2A1C201C07FF38
:10199C002864656665722900C10C011C9D0208044F
:1019AC00CB02D90C201C0E942104B11C710CC11F4C
:1019BC002A1C2A1C201C0FFF7365617263682D772B
:1019CC006F72646C69737400CD0C011CFF1C541D88
:1019DC003D1C000DF61C1D0DB11C181D361CFA0CFF
:1019EC001806D91C541D201CB11C440DC41C7701B5
:1019FC006501201C011CFF1CD91C0F06061D380D8F
:101A0C004E0D361C0E0DF61CD91C541D4B1D201CE6
:101A1C001806F61C541D201C11FF74726176657239
:101A2C0073652D776F72646C69737400E10C011C23
:101A3C00551FB11C361C2E0D0F06141FC41C2A1C5E
:101A4C00231FE11C361C2E0D8105C11F2F1C1F0DE1
:101A5C001806201C0BFF6E616D653E737472696E07
:101A6C006700120D011C77083D1CFF00131E201C83
:101A7C0007FF6E66613E63666100300D011C8105D7
:101A8C002F1E201C08FF69636F6D706172653E0D1F
:101A9C00011CFF1CCF1CF61C111D361C590D180601
:101AAC00D91C4B1D201CC41C541D9503361C7C0DCD
:101ABC009B1ECF1C791CCF1CC11FB11C3D1C0001EF
:101ACC005C1D361C6D0DC41C3D1CFF00131E111D2E
:101ADC00361C740D18064B1DD41E201C2F1EC41C46
:101AEC000706C41C3D1C0200BA1E5F0D1806541DCF
:101AFC00201C01FF2A00480D011CA61DD91C201C0E
:101B0C0001FF6A007F0D011C761E3D1C07009D1D08
:101B1C00791C761E3D1C09009D1D791C9D1D201CE9
:101B2C0004FF64616273860D011CB11C1F1D361C01
:101B3C00A00DA70D201C07FF646E6567617465001E
:101B4C00960D011CD101DD1F541DA901201C05FFA0
:101B5C00636D6F766500A10DB30DBF93AF93E991E3
:101B6C00F991A991B991092F082B21F01D9111938D
:101B7C000197E1F7AF91BF91899199910C94051C54
:101B8C0005FF327377617000AD0D011CE11CFF1C69
:101B9C00E11CF61C201C0AFF726566696C6C2D74C6
:101BAC006962C60D011CF40D3D1C5A003909FA0D71
:101BBC00811C541D2806811C4B1D201C0AFF736FB1
:101BCC00757263652D746962D10D011CF40DFA0DEB
:101BDC00791C201C03FF74696200E40D481CC300CF
:101BEC0004FF23746962F00D481C1D0106FF656536
:101BFC003E72616DF60D011C541D9B1ECF1C551FB2
:101C0C00CF1C811C0706C41C0706C41CC91E040E6D
:101C1C001806201C08FF696E69742D72616DFC0D2D
:101C2C00011C3D1C6000021F3D1C2400041E010E03
:101C3C00201C06FF626F756E6473100E011CCF1CA6
:101C4C009D1DC41C201C03FF733E64001F0E011C51
:101C5C00B11C1F1D201C05FF3E626F647900290E0C
:101C6C00301E02FF2E73310E011C5E0BDF018D083E
:101C7C005E0B541D9503361C490E9B1EAC1E5A025E
:101C8C00DF01C91E440E201C06FF632140737069DE
:101C9C00370E500E03D099270C94051C8FB90EB13A
:101CAC00087F0EB90EB107FFFACF8FB1089505FF6B
:101CBC006E40737069004A0E630E8C018991999184
:101CCC00FC01C8012FB82EB127FFFDCF2FB12193F6
:101CDC000197C1F7899199910C94051C05FF6E2110
:101CEC00737069005D0E7A0E8C0189919991FC01DB
:101CFC00C80121912FB92EB127FFFDCF2FB101972C
:101D0C00C1F7899199910C94051C0BFF6170706C53
:101D1C007475726E6B657900740E011CBC00200228
:101D2C002A0C8D08E9053D1CE803C21DF01C870632
:101D3C00CD07180804006B487A204B08201C0BFFB9
:101D4C007365742D63757272656E74008B0E011C55
:101D5C003D1C3C00311F201C08FF776F72646C69BE
:101D6C007374A50E011C6106541DCF1C311FB11CD0
:101D7C0007065F0C6206201C0EFF666F7274682DDE
:101D8C00776F72646C697374B20E481C3E0004FF6A
:101D9C00636F6465C20E011C9D0208045806710C29
:101DAC00D602201C08FF656E642D636F6465CD0E32
:101DBC00011CCB020C94CB02051C201C08FF286DC7
:101DCC0061726B657229D80E6F1C5E007A0C840CE4
:101DDC000800706F7374706F6E65E40E011C690AF5
:101DEC00960B6C0BB11CFF1C710C710CC11F2A1CC7
:101DFC00F61C710CC11FD602201C03FF327240006E
:101E0C00EE0E080F9A938A93EF91FF918F919F9109
:101E1C009F938F93FF93EF939A938A93CF010C9494
:021E2C00051C93
:10380200BF93AF93DB011196B21469F4FD01EE0F81
:10381200FF1F659175911196FB01EE0FFF1F059138
:103822001591F80109949A938A938B2DBB249927B9
:103832006CE472E0F1CF04FF65786974030F211C18
:10384200AF91BF91E1CF07FF65786563757465003D
:103852001C1C2B1CBC0189919991DECF301CFD01EF
:10386200EE0FFF1FA591B591CFCF371C982B8991F1
:103872009991A9F31196C8CF3E1C9A938A93FD01A0
:10388200EE0FFF1F859195911196BECF481C9A931A
:103892008A93FB013196EE0FFF1F85919591B4CF6C
:1038A200521C9A938A93CB010196AECF581C9A93DD
:1038B2008A93FB013196EE0FFF1F85919591840D3E
:1038C200951DA2CF07FF2876616C75652900241C1F
:1038D200011C9D020804CB026F1C201C0E942104C3
:1038E200B11C710CC11F2A1C201C01FF4000631C6B
:1038F2007A1CFC018191919187CF01FF2100761CF6
:10390200821CFC018991999191838083899199917B
:103912007BCF02FF63217E1C8E1CFC018991999151
:1039220080838991999170CF02FF63408A1C991C10
:10393200FC019927808168CF02FF4075951C011C0C
:10394200021F9D1D791C201C02FF21759D1C011C5C
:10395200021F9D1D811C201C03FF64757000A51CA5
:10396200B21C9A938A9350CF04FF3F647570AD1CCA
:10397200BA1C082F092B11F09A938A9345CF04FFA2
:1039820073776170B51CC51C8C01899199911A934A
:103992000A933ACF04FF6F766572C01CD01C9A93CB
:1039A2008A938A819B8130CF04FF64726F70CB1C33
:1039B200DA1C8991999128CF03FF726F7400D51C8C
:1039C200E21C8C0129913991899199913A932A9318
:1039D2001A930A9319CF03FF6E697000DD1CF11C64
:1039E200229612CF02FF723EEC1CF71C9A938A9326
:1039F2008F919F9109CF02FF3E72F31C001D9F938E
:103A02008F93D7CF02FF7240FC1C071D9A938A93B3
:103A12008F919F919F938F93F7CE02FF3C3E031DA0
:103A2200011CD61F181D201C02FF303D0E1D191D42
:103A3200982BE1F532C002FF303C151D201D97FD89
:103A42002CC034C002FF303E1C1D271D8215930579
:103A52006CF161F122C003FF64303E00231D311D71
:103A620093153CF082058991999182059305F1F0B5
:103A720014C0C101B5CF03FF64303C002C1D411DB1
:103A8200229697FD0C944E1D0C94571D04FF7472E0
:103A920075653C1D4C1D9A938A938FEF9FEFB4CEB0
:103AA20001FF3000471D551D9A938A93C101ACCE88
:103AB20002FF753C511D5D1D2991399182179307B3
:103AC200A8F3A1F3EACF02FF753E591D011CC41CE5
:103AD2005C1D201C01FF3C00641D6F1D2991399162
:103AE200281739071CF7D9CF01FF3E006B1D791D3E
:103AF2002991399128173907CCF2C1F2CECF04FFB0
:103B02006C6F6732751D851DFC01992780E18A95CE
:103B120022F0EE0FFF1FD8F777CE9A9575CE01FFF0
:103B22002D00801D941D09911991081B190BC801C4
:103B32006BCE01FF2B00901D9E1D09911991800FE4
:103B4200911F62CE02FF6D2A9A1DA71D8C018991D9
:103B520099919C0131027001209FC0013003F3084A
:103B6200900DE11CF31C1203F308900DE11CF31CF1
:103B72009A938A93C70148CE06FF756D2F6D6F64C5
:103B8200A31DC31D7C01299139910991199140E12D
:103B92005527000F111F221F331F551F2E153F05DA
:103BA200520518F003952E193F094A9589F73A9361
:103BB2002A93C80129CE03FF756D2A00BD1DE11DA0
:103BC2008C0189919991809FF00122273327909F40
:103BD200F00D211D331D819FF00D211D331D919F7D
:103BE200200D311DCF019A938A93C9010DCE06FF94
:103BF200696E76657274DC1DFE1D8095909504CE0B
:103C020002FF322FF81D051E95958795FDCD02FF07
:103C1200322A011E0C1E880F991FF6CD03FF616E1A
:103C22006400081E141E0991199180239123ECCD82
:103C320002FF6F720F1E1D1E09911991802B912B8D
:103C4200E3CD03FF786F7200191E271E09911991A7
:103C520080279127D9CD02FF312B221E301E0196DB
:103C6200D3CD02FF312D2C1E361E0197CDCD07FF7D
:103C72003F6E656761746500321E011C1F1D361C94
:103C8200431EEA06201C06FF6C7368696674381EC0
:103C92004A1EFC018991999131971AF0880F991F58
:103CA200FBCFB2CD06FF727368696674441E591E5B
:103CB200FC018991999131971AF096958795FBCFDE
:103CC200A3CD02FF2B21531E661EFC0189919991FF
:103CD20020813181820F931F8083918389919991F1
:103CE20093CD03FF72704000621E771E9A938A93EF
:103CF2008DB79EB789CD03FF72702100721E811E9F
:103D02002FB7F8948DBF9EBF2FBF899199917CCD1B
:103D120003FF737040007C1E8E1E9A938A93CE011D
:103D220073CD03FF73702100891E971EEC018991E8
:103D320099916ACD9C1E29913991E0E83E0F821B30
:103D4200930B3F932F939F938F93899199915CCD7E
:103D520001FF6900921EAD1E9A938A938F919F91E3
:103D6200EF91FF91FF93EF939F938F938E0F9F1F7E
:103D72004BCDBB1EEF91FF91E80FF91F89919991ED
:103D82001BF0FF93EF936BCD0F911F9111963CCDDA
:103D9200CA1EEF91FF913196BBF3F3CF06FF756E0A
:103DA2006C6F6F70A91ED51E1F910F911F910F91FD
:103DB2002BCD06FF636D6F76653ECF1EE01EBF936F
:103DC200AF93E991F991A991B991092F082B41F08B
:103DD200E80FF91FA80FB91F1E9112930197E1F77F
:103DE200AF91BF91899199910FCD02FF3E3CDA1EAE
:103DF200FA1E092F982F802F07CD03FF7570400000
:103E0200F61E031F9A938A93C201FECC03FF7570BC
:103E12002100FE1E0C1F2C0189919991F5CC03FF04
:103E2200323E7200071F151FFC01899199919F93E1
:103E32008F93FF93EF9389919991E6CC03FF3272AE
:103E42003E00101F241F9A938A93EF91FF918F9146
:103E52009F919A938A93CF01D7CC02FF21651F1FAE
:103E6200321FFC01899199912FB7F89428D00DB394
:103E7200081709F00BD0319622D00DB3091711F0B3
:103E8200892F04D02FBF89919991BECCE199FECFA1
:103E920007B700FDFDCFFFBBEEBB8DBBE29AE19AF7
:103EA200089502FF40652E1F561F2FB7F894FC019C
:103EB20006D08DB3319603D09DB32FBFA5CCE19927
:103EC200FECFFFBBEEBBE09A089502FF2169521FAD
:103ED200D90C5C007A0C840C09FF2821692D6E72C2
:103EE20077772900661F751F1FB71F93F8949C01EF
:103EF20089919991AF93BF93CF93DF9309D0DF91CB
:103F0200CF91BF91AF91899199911F911FBF7CCCA5
:103F120010D0E094F0948E219F21982B19F0F90192
:103F220002E020D0F90104E01DD0F90100E11AD02D
:103F32000895F901E07CFF7FEF01A0E4B0E0FE010B
:103F4200EE0FFF1F45915591FE01E217F30711F0A5
:103F52000A0102C07A010C01002704D021961197B0
:103F620071F70895E199FECF17B710FDFDCFEE0F5F
:103F7200FF1F016007BFE895089502FF40696D1FAA
:103F8200C21FFC01EE0FFF1F859195913DCC0800E9
:103F9200326C69746572616CBE1F011CC41CEC0238
:103FA200EC02201C01FF3D00C81F011C931D181DBF
:103FB200201C01FF3100D31F481C010001FF320009
:103FC200DA1F481C020002FF2D31DF1F481CFFFFD1
:00000001FF
