:020000020000FC
:020004001BD10E
:0200080019D10C
:02000C0017D10A
:0200100015D108
:0200140013D106
:0200180011D104
:02001C000FD102
:020020000DD100
:020024000BD1FE
:0200280009D1FC
:02002C0007D1FA
:0200300005D1F8
:0200340003D1F6
:0200380001D1F4
:02003C00FFD0F3
:02004000FDD0F1
:02004400FBD0EF
:02004800F9D0ED
:02004C00F7D0EB
:10005000F5D00008000400701500080041546D65DB
:100060006761333207FF3E72782D627566000000CB
:100070003900082F10917000E0E6F0E0E10FF31D69
:10008000008313951F7010937000899199910C94BF
:10009000053806FF6973722D7278320001383D38D9
:1000A0002C009838B1383D380300D63B363859001B
:1000B000263D3800203801383D384E003D381A00C2
:1000C000540A3D3860003D3816005439833E2038CC
:1000D00006FF72782D62756649000138880036384F
:1000E0006E003D3871009838B1383D3860009D3958
:1000F0009838C4382F3A3D380F00133A3D38710014
:100100008D38203807FF72783F2D627566006800D1
:1001100001381E3D3D38710098383D3870009838E0
:100120001139203807FF74782D706F6C6C008200D5
:100130000138A600363899003D382C008D3820381B
:1001400008FF74783F2D706F6C6C920001381E3D73
:100150003D382B0098383D382000133A203804FFF2
:1001600075627272A0006F3884008B3D953D06FF6A
:100170002B7573617274AF0001383D3898003D38BB
:100180002A008D383D3806003D38C0008D38B30058
:10019000B138F93A3D3840008D383D3829008D3866
:1001A0005B00203808FF31772E7265736574B700E5
:1001B000D9009A938A93BC9AC498E0ECF3E0319703
:1001C000F1F71FB7F894C49ABC98E0E8F0E03197D3
:1001D000F1F786B384FF9FEF1FBFBC98C498E0E49B
:1001E000F3E03197F1F7892F0C94053807FF317749
:1001F0002E736C6F7400D200FD00C498BC9A1FB7B8
:10020000F894ECE0F0E03197F1F78894879510F4DA
:10021000C49ABC98E2E1F0E03197F1F706B304FD2F
:100220008068E6E6F0E03197F1F7C49ABC98E4E024
:0C023000F0E03197F1F71FBF0C94053887
:040000000C94273DF8
:10023C000A920FB60A920F900F900A94BB2001F00D
:10024C00B02CFF93EF93E2E7F0E00694E00DF31D82
:10025C00008003940082EF91FF9109900FBE0990EA
:10026C00089502FF6D2BF6000138B23F2C3C20386C
:10027C0003FF75642A0037010138B138FF38E039C3
:10028C00D938C438F638E039E1389D39203804FFC4
:10029C00756D61783E010138B43E5C3936385701D2
:1002AC00C438D938203804FF756D696E4D0101389A
:1002BC00B43E673936386301C438D9382038013830
:1002CC003D380080133A183936386E01DD3B203842
:1002DC004B3920380AFF6E616D653E666C61677341
:1002EC0059010138C13B3D3800FF133A203803FF58
:1002FC00316D730070018201E0EDF7E03197F1F799
:10030C000C94053803FF766572007D010138D60226
:10031C00FF03993FA83E7938E4022C3FB23F1D03FE
:10032C0025033D382E000E033B0346033504A83E3F
:10033C008138993FEC02FF03203806FF756E757308
:10034C006564880101388D3A0E3F933920380200DC
:10035C00746FA30101384404BB3FA23E7938363890
:10036C00C1017407BB017F0720380138F638B1385A
:10037C00CD01FF38C13BB138CD01CD01C13B2A388D
:10038C00203807FF692D63656C6C2B00AD010138BB
:10039C002F3A203808FF69636F6D70617265C70171
:1003AC000138FF38CF38F63811393638E101BD3E07
:1003BC00D9384B392038C43854393E083638040201
:1003CC009B3ACF387938CF38C13BB1383D38000132
:1003DC005C393638F501C4383D38FF00133A113911
:1003EC003638FC01BD3E4B39D43A20382F3AC4384C
:1003FC00A73CC4383D380200BA3AE701BD3E543937
:10040C00203801FF2A00D0010138A639D93820380C
:10041C0001FF6A0007020138763A3D3807009D3922
:10042C007938763A3D3809009D3979389D3920382C
:10043C0004FF646162730E020138B1381F3936381B
:10044C0028022F02203807FF646E6567617465000F
:10045C001E020138523CDD3B54392C3C203805FF40
:10046C00636D6F76650029023B02BF93AF93E991F0
:10047C00F991A991B991092F082B21F01D91119394
:10048C000197E1F7AF91BF91899199910C9405383F
:10049C0005FF32737761700035020138E138FF389F
:1004AC00E138F63820380AFF726566696C6C2D7479
:1004BC0069624E0201387C023D385A009404820273
:1004CC0081385439CD3E81384B3920380AFF736F4F
:1004DC00757263652D746962590201387C0282025F
:1004EC007938203803FF746962006C024838870041
:1004FC0004FF2374696278024838E10006FF6565E1
:10050C003E72616D7E02013854399B3ACF38553BAF
:10051C00CF388138A73CC438A73CC438C93A8C02C0
:10052C00BD3E203808FF696E69742D72616D8402BE
:10053C0001383D386000023B3D382400043A890202
:10054C0020380BFF656E7669726F6E6D656E740088
:10055C00980248383A0009FF776F72646C697374BB
:10056C007300000001383D380800203804FF2F705C
:10057C006164B10201388D3AD33E9339203805FFBE
:10058C002F686F6C6400BC020138D33E0E3F933968
:10059C0020380AFF666F7274682D6E616D65C50236
:1005AC000138CC030700616D666F727468002038E7
:1005BC0007FF76657273696F6E00CF0201383D38A4
:1005CC004500203803FF63707500DE0201383D38AA
:1005DC002D002B04203808FF6D63752D696E666F36
:1005EC00E80201383D382900203805FF2F75736566
:1005FC007200F10201383D382E00203803FF686C80
:10060C006400A7024838E30004FF686F6C640403BD
:10061C0001380803B1387938353AB138FF38C43865
:10062C008138F6388D38203802FF3C230A03013814
:10063C00D33E08038138203801FF23001A03013808
:10064C00A83E7938A203E1383D380900CF386E391D
:10065C00363833033D3807009D393D3830009D391D
:10066C000E03203802FF2373220301382503B43E06
:10067C001C3A183936383C03203802FF233E380325
:10068C000138BD3E08037938D33ECF389339203832
:10069C0004FF7369676E430301381F3936385903F9
:1006AC003D382D000E03203803FF642E72004E03DC
:1006BC000138FF38C53E22021D033B03E1385203CB
:1006CC004603F638CF389339A23F3504203802FF61
:1006DC002E725A030138FF38B23FF6385E032038C9
:1006EC0002FF642E6D03013854395E03993F2038A4
:1006FC0001FF2E0076030138B23F7903203803FF47
:10070C0075642E007E03013854399203993F2038CA
:10071C0004FF75642E7285030138FF381D033B03FB
:10072C004603F638CF389339A23F3504203806FFFC
:10073C0075642F6D6F648E030138FF385439063998
:10074C00C239F638C438FF38C239F638203806FFBB
:10075C0064696769743F9D030138513FB1383D3876
:10076C00390078393D380001133A9D39B1383D389C
:10077C00400178393D380701133A93393D38300040
:10078C009339B138A83E79385C39203801380639AC
:10079C002B04F638CF382F3A043A9D392F3AFF38CC
:1007AC00203802FF732CAD030138B138DE0320383A
:1007BC0001387F07B138043AC53E0B3A9339FF38FC
:1007CC0054393E083638F1039B3AB13879387F07F3
:1007DC00A73CC93AEB03F63826393638F803B1385A
:1007EC0098387F07D938203805FF6974797065000F
:1007FC00D7030138B138043AC53E0B3A9339FF3868
:10080C0054393E08363813049B3AB138C13BB138E1
:10081C0020041C042F3AC93A0B04F6382639363812
:10082C001A04B138C13B2004D93820380138F93AC0
:10083C002004203801383D38FF00133ADD3E2038C3
:10084C0006FF69636F756E74FA030138B1382F3A7D
:10085C00C438C13B203804FF747970652604013814
:10086C00843F3E08363840049B3AAC3A9838DD3E1B
:10087C00C93A3B04203801FF270031040138C40574
:10088C0002060D06B138A306D63BC438C13B3D3831
:10089C00C03FD63B1C3A363856043D38F3FF743D06
:1008AC00D938203805FF63736B6970004104013837
:1008BC00FF38B13836386C04CF3898380639D63B07
:1008CC0036386C04DD3BB5052F385F04F638D93863
:1008DC00203805FF637363616E0058040138FF38DC
:1008EC00CF38B13898380639D63B183936388904A0
:1008FC00C438353AC438CF381F39183936388904DA
:10090C002F3A2F387704F038CF389339F638D93856
:10091C00203806FF6163636570746F040138CF384B
:10092C009D39CF38EE3EB138DD0418393638D00455
:10093C00B1383D380800D63B3638B604D938E138E2
:10094C00B43E7839FF38E138E138F6383638B4043B
:10095C00D504353AFF38CF38F63851012F38CE044C
:10096C00B1383F3F6E393638BD04D9383F3FFF3878
:10097C00B43E7839F638C4383638CD04B138DD3E5B
:10098C00CF388D382F3ACF385D012F38CE04D93877
:10099C002F389804D938F038C438933920380138B6
:1009AC003D380800B138DD3E993FDD3E2038013836
:1009BC00B1383D380D00D63BC4383D380A00D63B23
:1009CC001C3A203806FF726566696C6C8F04EA3D30
:1009DC001A00B33DBF3D04FF63686172E80401383F
:1009EC00C40518393638FD043D38F0FF743D98388D
:1009FC00203806FF6E756D626572F1040138A83EF1
:100A0C007938FF384805FF385B054805F6381C3A3D
:100A1C00FF38B138183936381B05BD3EF638D93891
:100A2C00F638A83E813854392038143B543954399F
:100A3C00233B7905B93836383D05DD3BD63B363896
:100A4C00340598383D382E00D63B36383505F63807
:100A5C00363831052F02E23B2F384305D938BD3EDD
:100A6C00F638D938F638A83E813854392038BD3E8E
:100A7C00F63836384205123EDD3BF638A83E813852
:100A8C004B3920380138CF3898383D382D00D63BBB
:100A9C00B138FF3836385405DD3BB505F63820380B
:100AAC0052380A00100002000A000138CF3898387A
:100ABC003D3823009339B13854393D380400423E57
:100ACC003638710556059D39C13BA83E8138DD3B52
:100ADC00B5052F387205D938203807FF3E6E756D75
:100AEC0062657200FF040138B13836389105CF3891
:100AFC009838B203183936388505D9382038FF387C
:100B0C005302A83E79384201F6383A015302DD3BD4
:100B1C00B5052F387A05203805FF706172736500B2
:100B2C0073050138FF38AB05CD3E7938B505F6387D
:100B3C007404B1382F3ACD3E653ADD3BB50520380B
:100B4C0006FF736F757263659205EA3D1600B33D3F
:100B5C00BF3D07FF2F737472696E6700A6050138DD
:100B6C00E138CF389D39E138E138933920380AFF24
:100B7C0070617273652D6E616D65AF0501383F3F15
:100B8C00C80520380138FF38AB05CD3E7938B5059E
:100B9C0006395D04F6387404B43E9D39AB05D9387A
:100BAC009339CD3E8138203803FF73703000BD057A
:100BBC006F380600B33DBF3D03FF72703000DA059D
:100BCC000138EA05793820385838040005FF646587
:100BDC0070746800E2050138DE058D3A9339043AE9
:100BEC00353A203810FF666F7274682D7265636F2A
:100BFC00676E697A6572EC056F3834008B3D953DF4
:100C0C0009FF7265636F676E697A6500F8050138D4
:100C1C003D381806C438BF09183936381706BD3E9A
:100C2C00A30620380138E138E138B43E143BE138F2
:100C3C002A38233BE138B138A306D63B363829068F
:100C4C00D93854392038F038F0384B39203809FF6E
:100C5C00696E746572707265740006060138C4059D
:100C6C00B1383638450602060D06A23E79383638BC
:100C7C004006CD01C13B2A38763F2F383506BD3EA4
:100C8C0020380BFF726563747970652D6E756D007D
:100C9C002D065238C03F950795070CFF726563749B
:100CAC007970652D646E756D47065238C03FCE3B2A
:100CBC00CE3B07FF7265632D6E756D0053060138D0
:100CCC00040536387106DD3BD63B36386F064F06C9
:100CDC0020385B062038A306203808FF7265632D88
:100CEC0066696E645F0601381807B13818393638F2
:100CFC008206D938A30620388B0620380AFF726585
:100D0C0063747970652D7874730652388F06930668
:100D1C00CE3B0138D9382A38203801381F393638BB
:100D2C0099067F0720382A3820380CFF72656374C7
:100D3C007970652D6E756C6C84065238A706A70603
:100D4C00A70601383D38F3FF743D0FFF73656172E0
:100D5C0063682D776F72646C697374009B0601383D
:100D6C00FF3854393D38CA06F638E706B138183919
:100D7C003638C406BD3ED93854392038B1380E0740
:100D8C00C4387701650120380138FF38D938B43EB2
:100D9C0006390207D6013638D806F638D938543910
:100DAC004B392038BD3EF6385439203811FF747257
:100DBC006176657273652D776F72646C69737400FC
:100DCC00AB060138553BB1383638F806B43E143B07
:100DDC00C4382A38233BE1383638F8062A0AC13B96
:100DEC002F38E906BD3E20380BFF6E616D653E73F2
:100DFC007472696E6700DC0601382B043D38FF0005
:100E0C00133A203807FF6E66613E63666100FA068E
:100E1C0001382A0A2F3A203807FF66696E642D784C
:100E2C007400080701383D3824073D384000BF09DD
:100E3C00183936382307BD3E543920380138FF386D
:100E4C00B43EF638B506B13836383107FF38F038CD
:100E5C00F038F6384B39203806FF6E6577657374B9
:100E6C0012074838E50006FF6C617465737432072D
:100E7C004838E90008FF28637265617465293907F1
:100E8C000138C405A808530720380BFF2863726586
:100E9C006174652D696E290040070138B138370738
:100EAC00A73C81388D0837078138203801005C0059
:100EBC004B070138AB05F038CD3E813820380100A6
:100ECC0028005C0701383D3829009705BD3E2038C5
:100EDC0007FF636F6D70696C650065070138F63844
:100EEC00B138CD01FF38C13B7F07203801FF2C0002
:100EFC006E070138FD3E693BFD3E2F3ABB01FE3EBD
:100F0C00203803005B275D007C07013844049507FB
:100F1C00203807006C69746572616C0087070138B2
:100F2C0074073D387F0720380800736C697465724C
:100F3C00616C8F0701387407CC03DA032038013851
:100F4C00FD3E7407FFFF20380138763FFD3EC43864
:100F5C00693B20380138FD3E20380138763F7F0749
:100F6C00203805006168656164009A0701387407D0
:100F7C002F38A507203802006966B70701387407B7
:100F8C003638A50720380400656C7365C107013835
:100F9C0074072F38A507C438AA07203804007468D2
:100FAC00656EC9070138AA072038050062656769B4
:100FBC006E00D4070138B007203805007768696CDB
:100FCC006500DB070138C407C43820380600726599
:100FDC0070656174E30701380508D80720380500EF
:100FEC00756E74696C00EC0701383D3836387F0734
:100FFC00B30720380500616761696E00F507013899
:10100C0074072F38B30720380200646F00080138CA
:10101C0074079B3AB00754396808203804006C6F89
:10102C006F700A0801387407C93A4F082038050058
:10103C002B6C6F6F7000140801387407BA3A4F08A4
:10104C00203805006C65617665001D080138740751
:10105C00D43ABC076808203803003F646F002708A7
:10106C00013874073E08C4070D08C43868082038D6
:10107C000138B43ED63BB138FF3836384608BD3E51
:10108C00F638FD39203807FF656E646C6F6F7000A1
:10109C0032080138B3075C08B93836385808D80715
:1010AC002F385108203802FF6C3E490801387B0864
:1010BC00793879383D38FEFF7B08653A203802FFD5
:1010CC003E6C59080138E23B7B08653A7B0879385D
:1010DC008138203803FF6C70300065086F3836009B
:1010EC008B3D953D02FF6C7070084838EB0006FF95
:1010FC00637265617465780801384607B108740736
:10110C005238203806FF6865616465727D080138C5
:10111C00FD3EFF38FF38B138263936389F08B138D4
:10112C003D3800FF1C3ADE03F638553B7F07F63896
:10113C0020383D38F0FF743D07FF776C73636F7098
:10114C0065008808EA3D32008B3D953D06FF7265CF
:10115C007665616CA20801383707A73C7938B93835
:10116C003638BC0837077938C438313B203805008D
:10117C00646F65733E00AC0801387407D5087407BA
:10118C000E947407CA0820389A938A93CB0101965F
:10119C007F916F91BF93AF93DB010C9405380138AD
:1011AC00F6383707A73C7938553B0E07693B203892
:1011BC0001FF3A00BD0801384607EC08D938203841
:1011CC0007FF3A6E6F6E616D6500DE080138FD3EFB
:1011DC00B1383E0781387407013801092038010005
:1011EC003B00E6080138740720380909B10820389B
:1011FC0001FF5D00F5080138DD3BA23E8138203847
:10120C0001005B00FE0801385439A23E81382038B9
:10121C0008FF7661726961626C65060901380E3FE0
:10122C002009E23B173F203808FF636F6E7374612F
:10123C006E740E0901384607B108740748387F07E9
:10124C00203804FF757365721A0901384607B10816
:10125C00740758387F0720380700726563757273FE
:10126C006500270901383E0779387F07203809FFC8
:10127C00696D6D6564696174650032090138E60950
:10128C00553BB138C13B3D38FF7F133AC438693BFD
:10129C00203806005B636861725D3D090138740794
:1012AC003D38F5047F072038060061626F727422A6
:1012BC004F090138753E74077109203805FF6162CA
:1012CC006F7274005A0901384B39743D06FF3F6147
:1012DC00626F727464090138E13836387709FF039C
:1012EC006909BD3E203809FF6765742D737461630D
:1012FC006B006C090138B138A73CC438553BB13888
:10130C00FF385439C4383E08363897099B3AAC3A02
:10131C00353AAF3ECF389D39553BC4384B39BA3A84
:10132C008D09BD3EF638203809FF7365742D737432
:10133C0061636B0079090138CF381F393638A90938
:10134C003D38FCFF743DB43E313BC43854393E0843
:10135C003638B6099B3AA73CC53E313BC93AB10970
:10136C00D938203809FF6D61702D737461636B007F
:10137C009A090138B138A73CC438553BAF3E843F7D
:10138C003E083638DB099B3AAC3A553BC438FF383B
:10139C0006392A38B9383638D709F638D938D43A14
:1013AC002038F638E23BBA3ACA09D93854392038D1
:1013BC000BFF6765742D63757272656E7400B809E6
:1013CC0001383D383C00553B203809FF6366672DDA
:1013DC006F7264657200DE094838400008FF63666E
:1013EC00672D72656373EB094838520007FF636F12
:1013FC006D7061726500F409030ABF93AF938C01A1
:10140C0089919991DC01899199919C01899199918A
:10141C00FC01ED90F190EF1451F40A9519F02A9516
:10142C00C1F701C02A95022B11F4882702C08FEF57
:10143C0000C0982FAF91BF910C94053807FF6E66D2
:10144C00613E6C666100FC09013802072F3A043AD0
:10145C009D39203806FF6972715B5D23240A0138BF
:10146C003D3872009D39203804FF23696E74300AB0
:10147C004838150004FF2B696E743A0A450A7894B3
:10148C000C94053804FF2D696E74400A4D0AF894CB
:10149C000C94053804FF696E7421480A01383D38F4
:1014AC0000009D39313B203804FF696E7440500AAE
:1014BC0001383D3800009D39553B203808FF696ED6
:1014CC00742D747261705A0A6B0AB82E89919991B5
:1014DC000C94053801385E0A2A38750A2038760AC9
:1014EC0002D00C940538189502FF2E73640A01384B
:1014FC00F105F53D993FF10554393E0836388C0A13
:10150C009B3AAC3A9B3CF53DC93A870A203806FF1A
:10151C006321407370697A0A930A03D099270C945B
:10152C0005388FB90EB1087F0EB90EB107FFFACF8F
:10153C008FB1089505FF6E40737069008D0AA60A7D
:10154C008C0189919991FC01C8012FB82EB127FF0C
:10155C00FDCF2FB121930197C1F7899199910C94EB
:10156C00053805FF6E2173706900A00ABD0A8C0155
:10157C0089919991FC01C80121912FB92EB127FFB6
:10158C00FDCF2FB10197C1F7899199910C94053832
:10159C000BFF6170706C7475726E6B657900B70AB5
:1015AC000138BC00440A8C01993F973E3D38E80352
:1015BC00C239F0382C3F8103CC0304006B487A20ED
:1015CC00FF0320380BFF7365742D63757272656EA3
:1015DC007400CE0A01383D383C00313B203808FFFE
:1015EC00776F72646C697374E80A0138063F54397A
:1015FC00CF38313BB138A73CBB01073F20380EFF39
:10160C00666F7274682D776F72646C697374F50A07
:10161C0048383E0004FF636F6465050B01384607CC
:10162C00B108FD3ECD017F07203808FF656E642DA3
:10163C00636F6465100B013874070C9474070538DC
:10164C00203808FF286D61726B6572291B0B6F388F
:10165C005E008B3D953D0800706F7374706F6E6506
:10166C00270B0138C40502060D06B138FF38CD0131
:10167C00CD01C13B2A38F638CD01C13B7F0720385C
:10168C0003FF32724000310B4B0B9A938A93EF910C
:10169C00FF918F919F919F938F93FF93EF939A93C9
:0816AC008A93CF010C9405386C
:10700200BF93AF93DB011196B21469F4FD01EE0F49
:10701200FF1F659175911196FB01EE0FFF1F059100
:107022001591F80109949A938A938B2DBB24992781
:1070320060E77AE0F1CF04FF65786974460B213886
:10704200AF91BF91E1CF07FF657865637574650005
:107052001C382B38BC0189919991DECF3038FD0163
:10706200EE0FFF1FA591B591CFCF3738982B89919D
:107072009991A9F31196C8CF3E389A938A93FD014C
:10708200EE0FFF1F859195911196BECF48389A93C6
:107092008A93FB013196EE0FFF1F85919591B4CF34
:1070A20052389A938A93CB010196AECF58389A936D
:1070B2008A93FB013196EE0FFF1F85919591840D06
:1070C200951DA2CF07FF2876616C756529002438CB
:1070D20001384607B10874076F3820380E94CA0881
:1070E200B138CD01C13B2A38203801FF4000633856
:1070F2007A38FC018191919187CF01FF2100763886
:107102008238FC0189919991918380838991999127
:107112007BCF02FF63217E388E38FC0189919991E1
:1071220080838991999170CF02FF63408A389938A0
:10713200FC019927808168CF02FF4075953801389C
:10714200023B9D397938203802FF21759D3801387C
:10715200023B9D398138203803FF64757000A538E1
:10716200B2389A938A9350CF04FF3F647570AD385A
:10717200BA38082F092B11F09A938A9345CF04FF4E
:1071820073776170B538C5388C01899199911A93DA
:107192000A933ACF04FF6F766572C038D0389A935B
:1071A2008A938A819B8130CF04FF64726F70CB38DF
:1071B200DA388991999128CF03FF726F7400D5381C
:1071C200E2388C0129913991899199913A932A93C4
:1071D2001A930A9319CF03FF6E697000DD38F138F4
:1071E200229612CF02FF723EEC38F7389A938A93B6
:1071F2008F919F9109CF02FF3E72F33800399F931E
:107202008F93D7CF02FF7240FC3807399A938A9343
:107212008F919F919F938F93F7CE02FF3C3E03394C
:107222000138D63B1839203802FF303D0E39193962
:10723200982BE1F532C002FF303C1539203997FD19
:107242002CC034C002FF303E1C3927398215930509
:107252006CF161F122C003FF64303E002339313901
:1072620093153CF082058991999182059305F1F07D
:1072720014C0C101B5CF03FF64303C002C39413941
:10728200229697FD0C944E390C94573904FF747270
:1072920075653C394C399A938A938FEF9FEFB4CE40
:1072A20001FF3000473955399A938A93C101ACCE18
:1072B20002FF753C51395D39299139918217930743
:1072C200A8F3A1F3EACF02FF753E59390138C43859
:1072D2005C39203801FF3C0064396F3929913991BA
:1072E200281739071CF7D9CF01FF3E006B397939CE
:1072F2002991399128173907CCF2C1F2CECF04FF78
:107302006C6F673275398539FC01992780E18A955E
:1073120022F0EE0FFF1FD8F777CE9A9575CE01FFB8
:107322002D008039943909911991081B190BC80154
:107332006BCE01FF2B0090399E3909911991800F74
:10734200911F62CE02FF6D2A9A39A7398C01899169
:1073520099919C0131027001209FC0013003F30812
:10736200900DE11CF31C1203F308900DE11CF31CB9
:107372009A938A93C70148CE06FF756D2F6D6F648D
:10738200A339C3397C01299139910991199140E1BD
:107392005527000F111F221F331F551F2E153F05A2
:1073A200520518F003952E193F094A9589F73A9329
:1073B2002A93C80129CE03FF756D2A00BD39E13930
:1073C2008C0189919991809FF00122273327909F08
:1073D200F00D211D331D819FF00D211D331D919F45
:1073E200200D311DCF019A938A93C9010DCE06FF5C
:1073F200696E76657274DC39FE398095909504CE9B
:1074020002FF322FF839053A95958795FDCD02FF97
:10741200322A013A0C3A880F991FF6CD03FF616EAA
:107422006400083A143A0991199180239123ECCD12
:1074320002FF6F720F3A1D3A09911991802B912B1D
:10744200E3CD03FF786F7200193A273A0991199137
:1074520080279127D9CD02FF312B223A303A01966B
:10746200D3CD02FF312D2C3A363A0197CDCD07FF0D
:107472003F6E656761746500323A01381F393638EC
:10748200433A123E203806FF6C7368696674383AD4
:107492004A3AFC018991999131971AF0880F991F04
:1074A200FBCFB2CD06FF727368696674443A593AEB
:1074B200FC018991999131971AF096958795FBCFA6
:1074C200A3CD02FF2B21533A663AFC01899199918F
:1074D20020813181820F931F8083918389919991B9
:1074E20093CD03FF72704000623A773A9A938A937F
:1074F2008DB79EB789CD03FF72702100723A813A2F
:107502002FB7F8948DBF9EBF2FBF899199917CCDE3
:1075120003FF737040007C3A8E3A9A938A93CE01AD
:1075220073CD03FF73702100893A973AEC01899178
:1075320099916ACD9C3A29913991E0E83E0F821BDC
:10754200930B3F932F939F938F93899199915CCD46
:1075520001FF6900923AAD3A9A938A938F919F9173
:10756200EF91FF91FF93EF939F938F938E0F9F1F46
:107572004BCDBB3AEF91FF91E80FF91F8991999199
:107582001BF0FF93EF936BCD0F911F9111963CCDA2
:10759200CA3AEF91FF913196BBF3F3CF06FF756EB6
:1075A2006C6F6F70A93AD53A1F910F911F910F918D
:1075B2002BCD06FF636D6F76653ECF3AE03ABF93FF
:1075C200AF93E991F991A991B991092F082B41F053
:1075D200E80FF91FA80FB91F1E9112930197E1F747
:1075E200AF91BF91899199910FCD02FF3E3CDA3A5A
:1075F200FA3A092F982F802F07CD03FF75704000AC
:10760200F63A033B9A938A93C201FECC03FF75704C
:107612002100FE3A0C3B2C0189919991F5CC03FF94
:10762200323E7200073B153BFC01899199919F9371
:107632008F93FF93EF9389919991E6CC03FF327276
:107642003E00103B243B9A938A93EF91FF918F91D6
:107652009F919A938A93CF01D7CC02FF21651F3B5A
:10766200323BFC01899199912FB7F89428D00DB340
:10767200081709F00BD0319622D00DB3091711F07B
:10768200892F04D02FBF89919991BECCE199FECF69
:1076920007B700FDFDCFFFBBEEBB8DBBE29AE19ABF
:1076A200089502FF40652E3B563B2FB7F894FC012C
:1076B20006D08DB3319603D09DB32FBFA5CCE199EF
:1076C200FECFFFBBEEBBE09A089502FF2169523B59
:1076D200EA3D5C008B3D953D09FF2821692D6E72C4
:1076E20077772900663B753B1FB71F93F8949C017F
:1076F20089919991AF93BF93CF93DF9309D0DF9193
:10770200CF91BF91AF91899199911F911FBF7CCC6D
:1077120010D0E094F0948E219F21982B19F0F9015A
:1077220002E020D0F90104E01DD0F90100E11AD0F5
:107732000895F901E07CFF7FEF01A0E4B0E0FE01D3
:10774200EE0FFF1F45915591FE01E217F30711F06D
:107752000A0102C07A010C01002704D02196119778
:1077620071F70895E199FECF17B710FDFDCFEE0F27
:10777200FF1F016007BFE895089502FF40696D3B56
:10778200C23BFC01EE0FFF1F859195913DCC080095
:10779200326C69746572616CBE3B0138C4389507FE
:1077A2009507203801FF3D00C83B0138933918394D
:1077B200203801FF3100D33B4838010001FF32007D
:1077C200DA3B4838020002FF2D31DF3B4838FFFF29
:1077D20003FF6E3E7200E43BEE3BFC01082F8991F1
:1077E20099919F938F930A95D1F7EF93FF93899184
:1077F20099910ACC03FF6E723E00E93B003C9A93DA
:107802008A93FF91EF910E2F8F919F919A938A9372
:107812000A95D1F7CF01F8CB03FF64322A00FB3B74
:10782200123C09911991000F111F881F991F1A9379
:107832000A93EACB03FF64322F000D3C203C0991EE
:10784200199195958795179507951A930A93DCCB0D
:1078520002FF642B1B3C2D3C29913991E990F99050
:1078620049915991240F351F8E1D9F1D3A932A93DA
:10787200CBCB02FF642D293C3E3C29913991E99002
:10788200F99049915991421B530BE80AF90A5A930C
:107892004A93C701B9CB07FF64696E7665727400BB
:1078A2003A3C533C09911991809590950095109519
:1078B2001A930A93A9CB04FF2F6D6F644C3C613C71
:1078C2009C0109911991412F432717FF04C010957C
:1078D20000950F5F1F4F37FF04C0309520952F5F33
:1078E2003F4FEE24FF1851E1001F111F5A9539F442
:1078F20047FF04C0109500950F5F1F4F0BC0EE1C91
:10790200FF1CE21AF30A20F4E20EF31E8894ECCF75
:107912000894EACFFA92EA92C80176CB03FF616239
:1079220073005C3C0138B1383E3A203804FF70697C
:10793200636B8F3C01382F3AAF3E8D3A9D397938CF
:10794200203805FF63656C6C2B00973CA83C0296BF
:107952005BCB0138CC030300206F6B00FF032038A0
:1079620003FF2E6F6B00A23CEA3D1C00B33DBF3DFE
:107972000138CC0302003E208C3FFF03203806FF73
:107982002E7265616479B13CEA3D2000B33DBF3D92
:107992000138CC030400203F3F20FF03A83E793882
:1079A200FF382C3F8103CD3E79388103F638A83E5B
:1079B2008138203806FF2E6572726F72C03CEA3D34
:1079C2001E00B33DBF3D01388C3F203806FF2E69B3
:1079D2006E707574DB3CEA3D2200B33DBF3D04FF8F
:1079E20071756974E73C013874087B088138DE05DB
:1079F200963AE605803A0909A23E793818393638AE
:107A0200033DC53CED04EC3C3638163D3D383406AA
:107A12005E3DB9383638163DB1383D38FEFF6E3915
:107A22003638143DE03C2F38F53CB53C2F38FD3C50
:107A320005FF706175736500F03CEA3DED009F3D06
:107A4200A93D04FF636F6C64193D273DA4B622244F
:107A52003324BB2424BEE0E6F0E02192E036E9F7CD
:107A6200F830D9F7EFEEF0E02F010FE50DBF0483F8
:107A720018E01EBF1583CFE0C683D8E0D783A8E401
:107A8200BDE3C2CA04FF7761726D223D01389E02D6
:107A92003D38C03F3D381E3DCA3D0909473FF43CD1
:107AA20007FF68616E646C657200433D58380A00D6
:107AB20005FF636174636800513D01388D3AFF38F8
:107AC200573D7938FF38763A573D81382A38F638AB
:107AD200573D8138F638D9385439203805FF746853
:107AE200726F7700593D0138B9383638843D573DB9
:107AF2007938803AF638573D8138F638C438FF383D
:107B0200963AD938F638203807FF456465666572BB
:107B120040006F3D0138C13B553B203807FF4564AB
:107B2200656665722100853D0138C13B313B2038D5
:107B320007FF52646566657240008F3D0138C13BA4
:107B42007938203807FF5264656665722100993DD5
:107B52000138C13B8138203807FF5564656665727C
:107B62004000A33D0138C13B023B9D3979382038A2
:107B720007FF5564656665722100AD3D0138C13B62
:107B8200023B9D398138203806FF646566657221A3
:107B9200B93D0138BB3FB138CD01CD01C13B2A38D7
:107BA200203806FF646566657240C53D0138BB3FFB
:107BB200B138CD01C13B2A38203807FF28646566F9
:107BC20065722900D23D01384607B1087407EA3DC3
:107BD20020380E94CA08B138CD01C13B2A382A3860
:107BE200203802FF752EDE3D0138543989032038D2
:107BF20003FF752E7200F23D01385439C4389203E6
:107C0200203805FF752F6D6F6400F93D0138FF388C
:107C12005439F638C239203806FF6E6567617465DB
:107C2200023E0138FD392F3A203801FF2F000D3E68
:107C32000138603CF038203803FF6D6F6400163E57
:107C42000138603CD938203803FF6D696E001D3E53
:107C52000138B43E783936382F3EC438D938203806
:107C620003FF6D617800253E0138B43E6E39363827
:107C72003B3EC438D938203806FF77697468696E8C
:107C8200313E0138CF389339FF389339F6385C39B1
:107C920020380DFF73686F772D776F72646C69738C
:107CA20074003D3E01383D38593EC438E70620385D
:107CB20001380207FF03993F4B39203805FF776FE0
:107CC200726473004A3E01383D384200553B533ED0
:107CD200203802002E225F3E0138753E7407FF03F2
:107CE2002038020073226A3E01383D38220097058F
:107CF200A23E793836387E3EA007203804FF6669F6
:107D02006C6C723E0138E138E138B9383638903E51
:107D1200843F9B3AB138AC3A8D38C93A8B3ED93858
:107D2200203805FF665F637075007F3E01383D387D
:107D320000123D387A00203805FF737461746500C3
:107D4200923E48381D0104FF626173659D3E5838BA
:107D52000C0005FF63656C6C7300A43E0C3A04FFD3
:107D620032647570AA3E0138CF38CF38203805FF0B
:107D72003264726F7000B03E0138D938D938203879
:107D820004FF7475636BB83E0138C438CF382038AD
:107D920003FF3E696E00C13E5838180003FF706150
:107DA2006400C93E01380E3F3D3828009D39203815
:107DB20004FF656D6974CF3EEA3D0E00B33DBF3DE1
:107DC20005FF656D69743F00D93EEA3D1000B33D81
:107DD200BF3D03FF6B657900E13EEA3D1200B33D12
:107DE200BF3D04FF6B65793FEA3EEA3D1400B33DB7
:107DF200BF3D02FF6470F23E6F382C008B3D953D13
:107E020005FF656865726500FA3E6F3830008B3D8C
:107E1200953D04FF68657265013F6F382E008B3D0A
:107E2200953D05FF616C6C6F74000A3F01380E3F8F
:107E32009D39BB010F3F203803FF62696E00123F7C
:107E42000138E23BA83E8138203807FF6465636948
:107E52006D616C001D3F01383D380A00A83E813833
:107E6200203803FF68657800263F01383D3810004E
:107E7200A83E8138203802FF626C323F4838200029
:107E820007FF7475726E6B6579003C3FEA3D3800FE
:107E92008B3D953D07FF746F757070657200413FB1
:107EA2000138B1383D3861003D387B00423E3638FA
:107EB2005D3F3D38DF00133A203807FF746F6C6F67
:107EC200776572004B3F0138B1383D3841003D388B
:107ED2005B00423E3638703F3D3820001C3A203865
:107EE20006FF3F737461636B5E3F0138F1051F3912
:107EF20036387E3F3D38FCFF743D203806FF626F06
:107F0200756E6473713F0138CF389D39C43820389B
:107F120002FF63727F3F01383D380D00DD3E3D3880
:107F22000A00DD3E203805FF737061636500893FFA
:107F320001383F3FDD3E203806FF73706163657391
:107F4200943F01385439353EB1383638AC3F993F09
:107F5200353A2F38A53FD938203803FF733E6400E5
:107F62009D3F0138B1381F39203805FF3E626F64EA
:107F72007900AE3F303A04FF6E6F6F70B63F013842
:027F82002038A5
:00000001FF
