:020000020000FC
:0200040026D103
:0200080024D101
:02000C0022D1FF
:0200100020D1FD
:020014001ED1FB
:020018001CD1F9
:02001C001AD1F7
:0200200018D1F5
:0200240016D1F3
:0200280014D1F1
:02002C0012D1EF
:0200300010D1ED
:020034000ED1EB
:020038000CD1E9
:02003C000AD1E7
:0200400008D1E5
:0200440006D1E3
:0200480004D1E1
:02004C0002D1DF
:0200500000D1DD
:02005400FED0DC
:02005800FCD0DA
:02005C00FAD0D8
:02006000F8D0D6
:10006400F6D00008000400701A000A0041546D65BF
:1000740067613332385007FF3E72782D627566002F
:1000840000004400082F10911001E0E0F1E0E10FBE
:10009400F31D008313951F7010931001899199919A
:1000A4000C94053806FF6973722D72783D0001388F
:1000B4003D38C6009838B1383D380300D63B363851
:1000C4006400263D4300203801383D3859003D384E
:1000D40024005F0A3D3800013D3816005439833E40
:1000E400203806FF72782D6275665400013893003B
:1000F400363879003D3811019838B1383D3800015F
:100104009D399838C4382F3A3D380F00133A3D389A
:1001140011018D38203807FF72783F2D6275660013
:10012400730001381E3D3D38110198383D381001E7
:1001340098381139203807FF74782D706F6C6C0073
:100144008D000138B1003638A4003D38C6008D3822
:10015400203808FF74783F2D706F6C6C9D00013857
:100164001E3D3D38C00098383D382000133A2038F1
:1001740004FF75627272AB006F388E008B3D953D43
:1001840006FF2B7573617274BA0001383D3898000C
:100194003D38C1008D383D3806003D38C2008D38E9
:1001A400BE00B138F93A3D38C5008D383D38C40039
:1001B4008D386600203808FF31772E7265736574B8
:1001C400C200E4009A938A93249A2C98E0E8F7E01A
:1001D4003197F1F71FB7F8942C9A2498E0E0F1E0F6
:1001E4003197F1F783B184FF9FEF1FBF24982C98B8
:1001F400E0E8F6E03197F1F7892F0C94053807FF12
:1002040031772E736C6F7400DD0008012C98249AEA
:100214001FB7F894E8E1F0E03197F1F788948795F7
:1002240010F42C9A2498E4E2F0E03197F1F703B14A
:1002340004FD8068ECECF0E03197F1F72C9A2498F7
:0E024400E8E0F0E03197F1F71FBF0C940538A9
:040000000C94273DF8
:100252000A920FB60A920F900F900A94BB2001F0F7
:10026200B02CFF93EF93E2E1F1E00694E00DF31D71
:10027200008003940082EF91FF9109900FBE0990D4
:10028200089502FF6D2B01010138B23F2C3C20384A
:1002920003FF75642A0042010138B138FF38E039A2
:1002A200D938C438F638E039E1389D39203804FFAE
:1002B200756D617849010138B43E5C3936386201A6
:1002C200C438D938203804FF756D696E5801013879
:1002D200B43E673936386E01C438D938203801380F
:1002E2003D380080133A183936387901DD3B203821
:1002F2004B3920380AFF6E616D653E666C6167732B
:1003020064010138C13B3D3800FF133A203803FF36
:10031200316D73007B018D01E0EAFFE03197F1F767
:100322000C94053803FF7665720088010138E102FA
:100332000A04993FA83E7938EF022C3FB23F2803C6
:1003420030033D382E001903460351034004A83EF2
:100352008138993FF7020A04203806FF756E7573DB
:100362006564930101388D3A0E3F933920380200BB
:10037200746FAE0101384F04BB3FA23E7938363864
:10038200CC017F07C6018A0720380138F638B13818
:10039200D801FF38C13BB138D801D801C13B2A3856
:1003A200203807FF692D63656C6C2B00B80101389A
:1003B2002F3A203808FF69636F6D70617265D20150
:1003C2000138FF38CF38F63811393638EC01BD3EE6
:1003D200D9384B392038C4385439490836380F02D5
:1003E2009B3ACF387938CF38C13BB1383D3800011C
:1003F2005C3936380002C4383D38FF00133A1139EF
:1004020036380702BD3E4B39D43A20382F3AC43829
:10041200A73CC4383D380200BA3AF201BD3E543915
:10042200203801FF2A00DB010138A639D9382038EB
:1004320001FF6A0012020138763A3D3807009D3901
:100442007938763A3D3809009D3979389D39203816
:1004520004FF6461627319020138B1381F393638FA
:1004620033023A02203807FF646E656761746500E3
:1004720029020138523CDD3B54392C3C203805FF1F
:10048200636D6F76650034024602BF93AF93E991C4
:10049200F991A991B991092F082B21F01D9111937E
:1004A2000197E1F7AF91BF91899199910C94053829
:1004B20005FF32737761700040020138E138FF387E
:1004C200E138F63820380AFF726566696C6C2D7463
:1004D20069625902013887023D385A009F048D0231
:1004E20081385439CD3E81384B3920380AFF736F39
:1004F200757263652D7469626402013887028D0228
:100502007938203803FF74696200770248382C0179
:1005120004FF2374696283024838860106FF656519
:100522003E72616D8902013854399B3ACF38553B8E
:10053200CF388138A73CC438A73CC438C93A97029F
:10054200BD3E203808FF696E69742D72616D8F029D
:1005520001383D386A00023B3D382400043A9402D7
:1005620020380BFF656E7669726F6E6D656E740072
:10057200A3024838440009FF776F72646C69737490
:100582007300000001383D380800203804FF2F7046
:100592006164BC0201388D3AD33E9339203805FF9D
:1005A2002F686F6C6400C7020138D33E0E3F933947
:1005B20020380AFF666F7274682D6E616D65D00215
:1005C2000138D7030700616D666F727468002038C6
:1005D20007FF76657273696F6E00DA0201383D3883
:1005E2004500203803FF63707500E90201383D3889
:1005F20037003604203808FF6D63752D696E666F0B
:10060200F30201383D383300203805FF2F7573653A
:100612007200FC0201383D382E00203803FF686C5E
:100622006400B2024838880104FF686F6C640F03EB
:1006320001381303B1387938353AB138FF38C43844
:100642008138F6388D38203802FF3C2315030138F3
:10065200D33E13038138203801FF230025030138DC
:10066200A83E7938AD03E1383D380900CF386E39FC
:1006720036383E033D3807009D393D3830009D39FC
:100682001903203802FF23732D0301383003B43ECF
:100692001C3A183936384703203802FF233E4303F9
:1006A2000138BD3E13037938D33ECF389339203811
:1006B20004FF7369676E4E0301381F3936386403CD
:1006C2003D382D001903203803FF642E72005903B0
:1006D2000138FF38C53E2D0228034603E1385D0389
:1006E2005103F638CF389339A23F4004203802FF35
:1006F2002E7265030138FF38B23FF638690320389D
:1007020002FF642E7803013854396903993F203877
:1007120001FF2E0081030138B23F8403203803FF1A
:1007220075642E008903013854399D03993F20389E
:1007320004FF75642E7290030138FF3828034603C4
:100742005103F638CF389339A23F4004203806FFD0
:1007520075642F6D6F6499030138FF385439063977
:10076200C239F638C438FF38C239F638203806FFA5
:1007720064696769743FA8030138513FB1383D3855
:10078200390078393D380001133A9D39B1383D3886
:10079200400178393D380701133A93393D3830002A
:1007A2009339B138A83E79385C3920380138063996
:1007B2003604F638CF382F3A043A9D392F3AFF38AB
:1007C200203802FF732CB8030138B138E90320380E
:1007D20001388A07B138043AC53E0B3A9339FF38DB
:1007E200543949083638FC039B3AB13879388A07BC
:1007F200A73CC93AF603F638263936380304B1382D
:1008020098388A07D938203805FF697479706500ED
:10081200E2030138B138043AC53E0B3A9339FF3846
:100822005439490836381E049B3AB138C13BB138B5
:100832002B0427042F3AC93A1604F63826393638DB
:100842002504B138C13B2B04D93820380138F93A94
:100852002B04203801383D38FF00133ADD3E2038A2
:1008620006FF69636F756E7405040138B1382F3A5B
:10087200C438C13B203804FF7479706531040138F3
:10088200843F490836384B049B3AAC3A9838DD3EEF
:10089200C93A4604203801FF27003C040138CF053D
:1008A2000D061806B138AE06D63BC438C13B3D38FA
:1008B200C03FD63B1C3A363861043D38F3FF743DE5
:1008C200D938203805FF63736B6970004C04013816
:1008D200FF38B13836387704CF3898380639D63BE6
:1008E20036387704DD3BC0052F386A04F638D9382C
:1008F200203805FF637363616E0063040138FF38BB
:10090200CF38B13898380639D63B1839363894047E
:10091200C438353AC438CF381F39183936389404B8
:100922002F3A2F388204F038CF389339F638D93835
:10093200203806FF6163636570747A040138CF382A
:100942009D39CF38EE3EB138E80418393638DB0429
:10095200B1383D380800D63B3638C104D938E138C1
:10096200B43E7839FF38E138E138F6383638BF041A
:10097200E004353AFF38CF38F6385C012F38D90415
:10098200B1383F3F6E393638C804D9383F3FFF3857
:10099200B43E7839F638C4383638D804B138DD3E3A
:1009A200CF388D382F3ACF3868012F38D904D9384B
:1009B2002F38A304D938F038C43893392038013895
:1009C2003D380800B138DD3E993FDD3E2038013820
:1009D200B1383D380D00D63BC4383D380A00D63B0D
:1009E2001C3A203806FF726566696C6C9A04EA3D0F
:1009F2001A00B33DBF3D04FF63686172F30401381E
:100A0200CF051839363808053D38F0FF743D98385F
:100A1200203806FF6E756D626572FC040138A83ECF
:100A22007938FF385305FF3866055305F6381C3A06
:100A3200FF38B138183936382605BD3EF638D93870
:100A4200F638A83E813854392038143B5439543989
:100A5200233B8405B93836384805DD3BD63B36386A
:100A62003F0598383D382E00D63B36384005F638DB
:100A720036383C053A02E23B2F384E05D938BD3EA6
:100A8200F638D938F638A83E813854392038BD3E78
:100A9200F63836384D05123EDD3BF638A83E813831
:100AA2004B3920380138CF3898383D382D00D63BA5
:100AB200B138FF3836385F05DD3BC005F6382038DF
:100AC20052380A00100002000A000138CF38983864
:100AD2003D3823009339B13854393D380400423E41
:100AE20036387C0561059D39C13BA83E8138DD3B26
:100AF200C0052F387D05D938203807FF3E6E756D49
:100B0200626572000A050138B13836389C05CF3863
:100B12009838BD03183936389005D9382038FF384F
:100B22005E02A83E79384D01F63845015E02DD3B92
:100B3200C0052F388505203805FF70617273650086
:100B42007E050138FF38B605CD3E7938C005F63846
:100B52007F04B1382F3ACD3E653ADD3BC0052038DF
:100B620006FF736F757263659D05EA3D1600B33D1E
:100B7200BF3D07FF2F737472696E6700B1050138BC
:100B8200E138CF389D39E138E138933920380AFF0E
:100B920070617273652D6E616D65BA0501383F3FF4
:100BA200D30520380138FF38B605CD3E7938C00567
:100BB20006396804F6387F04B43E9D39B605D93843
:100BC2009339CD3E8138203803FF73703000C80559
:100BD2006F380600B33DBF3D03FF72703000E5057C
:100BE2000138F505793820385838040005FF646566
:100BF20070746800ED050138E9058D3A9339043ABD
:100C0200353A203810FF666F7274682D7265636F13
:100C1200676E697A6572F7056F383E008B3D953DC8
:100C220009FF7265636F676E697A650003060138B2
:100C32003D382306C438CA09183936382206BD3E63
:100C4200AE0620380138E138E138B43E143BE138D1
:100C52002A38233BE138B138AE06D63B3638340663
:100C6200D93854392038F038F0384B39203809FF58
:100C7200696E746572707265740011060138CF0571
:100C8200B138363850060D061806A23E7938363885
:100C92004B06D801C13B2A38763F2F384006BD3E6D
:100CA20020380BFF726563747970652D6E756D0067
:100CB20038065238C03FA007A0070CFF7265637464
:100CC2007970652D646E756D52065238C03FCE3B09
:100CD200CE3B07FF7265632D6E756D005E060138AF
:100CE2000F0536387C06DD3BD63B36387A065A0687
:100CF200203866062038AE06203808FF7265632D5C
:100D020066696E646A0601382307B13818393638C5
:100D12008D06D938AE062038960620380AFF72654D
:100D220063747970652D78747E0652389A069E0631
:100D3200CE3B0138D9382A38203801381F393638A5
:100D4200A4068A0720382A3820380CFF726563749B
:100D52007970652D6E756C6C8F065238B206B206CC
:100D6200B20601383D38F3FF743D0FFF73656172BF
:100D720063682D776F72646C69737400A60601381C
:100D8200FF3854393D38D506F638F206B1381839ED
:100D92003638CF06BD3ED93854392038B138190714
:100DA200C4388201700120380138FF38D938B43E86
:100DB20006390D07E1013638E306F638D9385439D9
:100DC2004B392038BD3EF6385439203811FF747241
:100DD2006176657273652D776F72646C69737400E6
:100DE200B6060138553BB13836380307B43E143BDA
:100DF200C4382A38233BE13836380307350AC13B69
:100E02002F38F406BD3E20380BFF6E616D653E73D0
:100E12007472696E6700E706013836043D38FF00D8
:100E2200133A203807FF6E66613E6366610005076C
:100E32000138350A2F3A203807FF66696E642D782B
:100E42007400130701383D382F073D384A00CA099C
:100E5200183936382E07BD3E543920380138FF384C
:100E6200B43EF638C006B13836383C07FF38F038A1
:100E7200F038F6384B39203806FF6E6577657374A3
:100E82001D0748388A0106FF6C61746573743D075B
:100E920048388E0108FF286372656174652944072A
:100EA2000138CF05B3085E0720380BFF286372654F
:100EB2006174652D696E29004B070138B13842070C
:100EC200A73C8138980842078138203801005C002D
:100ED20056070138B605F038CD3E8138203801007A
:100EE2002800670701383D382900A205BD3E203899
:100EF20007FF636F6D70696C650070070138F63823
:100F0200B138D801FF38C13B8A07203801FF2C00D5
:100F120079070138FD3E693BFD3E2F3AC601FE3E90
:100F2200203803005B275D00870701384F04A007C4
:100F3200203807006C69746572616C009207013891
:100F42007F073D388A0720380800736C6974657220
:100F5200616C9A0701387F07D703E503203801380F
:100F6200FD3E7F07FFFF20380138763FFD3EC43843
:100F7200693B20380138FD3E20380138763F8A0728
:100F820020380500616865616400A50701387F07A4
:100F92002F38B007203802006966C20701387F0780
:100FA2003638B00720380400656C7365CC07013809
:100FB2007F072F38B007C438B5072038040074689B
:100FC200656ED4070138B507203805006265676988
:100FD2006E00DF070138BB07203805007768696CAF
:100FE2006500E6070138CF07C4382038060072656D
:100FF20070656174EE0701381008E30720380500B8
:10100200756E74696C00F70701383D3836388A0707
:10101200BE0720380500616761696E00000801386B
:101022007F072F38BE0720380200646F0B08013893
:101032007F079B3ABB0754397308203804006C6F52
:101042006F70150801387F07C93A5A082038050021
:101052002B6C6F6F70001F0801387F07BA3A5A086D
:10106200203805006C6561766500280801387F0725
:10107200D43AC7077308203803003F646F00320870
:1010820001387F074908CF071808C4387308203889
:101092000138B43ED63BB138FF3836385108BD3E30
:1010A200F638FD39203807FF656E646C6F6F70008B
:1010B2003D080138BE076708B93836386308E307C8
:1010C2002F385C08203802FF6C3E5408013886082D
:1010D200793879383D38FEFF8608653A203802FFB4
:1010E2003E6C64080138E23B8608653A8608793826
:1010F2008138203803FF6C70300070086F38400070
:101102008B3D953D02FF6C707B084838900106FFCD
:10111200637265617465830801385107BC087F07F3
:101122005238203806FF68656164657288080138A4
:10113200FD3EFF38FF38B13826393638AA08B138B3
:101142003D3800FF1C3AE903F638553B8A07F6386A
:1011520020383D38F0FF743D07FF776C73636F7082
:1011620065009308EA3D3C008B3D953D06FF7265A4
:101172007665616CAD0801384207A73C7938B93809
:101182003638C70842077938C438313B2038050061
:10119200646F65733E00B70801387F07E0087F0778
:1011A2000E947F07D50820389A938A93CB01019633
:1011B2007F916F91BF93AF93DB010C940538013897
:1011C200F6384207A73C7938553B1907693B203866
:1011D20001FF3A00C80801385107F708D93820380A
:1011E20007FF3A6E6F6E616D6500E9080138FD3EDA
:1011F200B138490781387F0701380C0920380100CE
:101202003B00F10801387F0720381409BC08203858
:1012120001FF5D0000090138DD3BA23E8138203824
:1012220001005B00090901385439A23E8138203897
:1012320008FF7661726961626C65110901380E3FBF
:101242002B09E23B173F203808FF636F6E7374610E
:101252006E74190901385107BC087F0748388A079C
:10126200203804FF75736572250901385107BC08DF
:101272007F0758388A0720380700726563757273D2
:10128200650032090138490779388A07203809FF91
:10129200696D6D656469617465003D090138F10924
:1012A200553BB138C13B3D38FF7F133AC438693BE7
:1012B200203806005B636861725D480901387F0768
:1012C2003D3800058A072038060061626F72742279
:1012D2005A090138753E7F077C09203805FF616293
:1012E2006F727400650901384B39743D06FF3F6126
:1012F200626F72746F090138E138363882090A0464
:101302007409BD3E203809FF6765742D73746163EB
:101312006B0077090138B138A73CC438553BB13866
:10132200FF385439C43849083638A2099B3AAC3AD6
:10133200353AAF3ECF389D39553BC4384B39BA3A6E
:101342009809BD3EF638203809FF7365742D737411
:1013520061636B0084090138CF381F393638B4090C
:101362003D38FCFF743DB43E313BC4385439490822
:101372003638C1099B3AA73CC53E313BC93ABC0944
:10138200D938203809FF6D61702D737461636B0069
:10139200A5090138B138A73CC438553BAF3E843F5C
:1013A20049083638E6099B3AAC3A553BC438FF380F
:1013B20006392A38B9383638E209F638D938D43AF3
:1013C2002038F638E23BBA3AD509D93854392038B0
:1013D2000BFF6765742D63757272656E7400C309C5
:1013E20001383D384600553B203809FF6366672DBA
:1013F2006F7264657200E90948384A0008FF636643
:10140200672D72656373F60948385C0007FF636FE6
:101412006D7061726500FF090E0ABF93AF938C0174
:1014220089919991DC01899199919C018991999174
:10143200FC01ED90F190EF1451F40A9519F02A9500
:10144200C1F701C02A95022B11F4882702C08FEF41
:1014520000C0982FAF91BF910C94053807FF6E66BC
:10146200613E6C666100070A01380D072F3A043AA3
:101472009D39203806FF6972715B5D232F0A01389E
:101482003D3812019D39203804FF23696E743B0AEE
:1014920048381A0004FF2B696E74450A500A789482
:1014A2000C94053804FF2D696E744B0A580AF8949F
:1014B2000C94053804FF696E7421530A01383D38D3
:1014C20000009D39313B203804FF696E74405B0A8D
:1014D20001383D3800009D39553B203808FF696EC0
:1014E200742D74726170650A760AB82E8991999189
:1014F2000C9405380138690A2A38800A2038810A92
:1015020002D00C940538189502FF2E736F0A013829
:10151200FC05F53D993FFC05543949083638970AD0
:101522009B3AAC3A9B3CF53DC93A920A203806FFF9
:10153200632140737069850A9E0A03D099270C942F
:1015420005388EBD0DB5087F0DBD0DB507FFFACF6D
:101552008EB5089505FF6E4073706900980AB10A4E
:101562008C0189919991FC01C8012EBC2DB527FFF0
:10157200FDCF2EB521930197C1F7899199910C94D2
:10158200053805FF6E2173706900AB0AC80A8C0129
:1015920089919991FC01C80121912EBD2DB527FF9A
:1015A200FDCF2EB50197C1F7899199910C94053819
:1015B2000BFF6170706C7475726E6B657900C20A94
:1015C2000138C7004F0A9701993F973E3D38E8031B
:1015D200C239F0382C3F8C03D70304006B487A20C1
:1015E2000A0420380BFF7365742D63757272656E81
:1015F2007400D90A01383D384600313B203808FFD3
:10160200776F72646C697374F30A0138063F543958
:10161200CF38313BB138A73CC601073F20380EFF17
:10162200666F7274682D776F72646C697374000BE5
:101632004838480004FF636F6465100B0138510796
:10164200BC08FD3ED8018A07203808FF656E642D6C
:10165200636F64651B0B01387F070C947F070538A5
:10166200203808FF286D61726B657229260B6F386E
:1016720068008B3D953D0800706F7374706F6E65E6
:10168200320B0138CF050D061806B138FF38D801E4
:10169200D801C13B2A38F638D801C13B8A07203825
:1016A20003FF327240003C0B560B9A938A93EF91E0
:1016B200FF918F919F919F938F93FF93EF939A93B3
:0816C2008A93CF010C94053856
:10700200BF93AF93DB011196B21469F4FD01EE0F49
:10701200FF1F659175911196FB01EE0FFF1F059100
:107022001591F80109949A938A938B2DBB24992781
:107032006BE77AE0F1CF04FF65786974510B213870
:10704200AF91BF91E1CF07FF657865637574650005
:107052001C382B38BC0189919991DECF3038FD0163
:10706200EE0FFF1FA591B591CFCF3738982B89919D
:107072009991A9F31196C8CF3E389A938A93FD014C
:10708200EE0FFF1F859195911196BECF48389A93C6
:107092008A93FB013196EE0FFF1F85919591B4CF34
:1070A20052389A938A93CB010196AECF58389A936D
:1070B2008A93FB013196EE0FFF1F85919591840D06
:1070C200951DA2CF07FF2876616C756529002438CB
:1070D20001385107BC087F076F3820380E94D50855
:1070E200B138D801C13B2A38203801FF400063384B
:1070F2007A38FC018191919187CF01FF2100763886
:107102008238FC0189919991918380838991999127
:107112007BCF02FF63217E388E38FC0189919991E1
:1071220080838991999170CF02FF63408A389938A0
:10713200FC019927808168CF02FF4075953801389C
:10714200023B9D397938203802FF21759D3801387C
:10715200023B9D398138203803FF64757000A538E1
:10716200B2389A938A9350CF04FF3F647570AD385A
:10717200BA38082F092B11F09A938A9345CF04FF4E
:1071820073776170B538C5388C01899199911A93DA
:107192000A933ACF04FF6F766572C038D0389A935B
:1071A2008A938A819B8130CF04FF64726F70CB38DF
:1071B200DA388991999128CF03FF726F7400D5381C
:1071C200E2388C0129913991899199913A932A93C4
:1071D2001A930A9319CF03FF6E697000DD38F138F4
:1071E200229612CF02FF723EEC38F7389A938A93B6
:1071F2008F919F9109CF02FF3E72F33800399F931E
:107202008F93D7CF02FF7240FC3807399A938A9343
:107212008F919F919F938F93F7CE02FF3C3E03394C
:107222000138D63B1839203802FF303D0E39193962
:10723200982BE1F532C002FF303C1539203997FD19
:107242002CC034C002FF303E1C3927398215930509
:107252006CF161F122C003FF64303E002339313901
:1072620093153CF082058991999182059305F1F07D
:1072720014C0C101B5CF03FF64303C002C39413941
:10728200229697FD0C944E390C94573904FF747270
:1072920075653C394C399A938A938FEF9FEFB4CE40
:1072A20001FF3000473955399A938A93C101ACCE18
:1072B20002FF753C51395D39299139918217930743
:1072C200A8F3A1F3EACF02FF753E59390138C43859
:1072D2005C39203801FF3C0064396F3929913991BA
:1072E200281739071CF7D9CF01FF3E006B397939CE
:1072F2002991399128173907CCF2C1F2CECF04FF78
:107302006C6F673275398539FC01992780E18A955E
:1073120022F0EE0FFF1FD8F777CE9A9575CE01FFB8
:107322002D008039943909911991081B190BC80154
:107332006BCE01FF2B0090399E3909911991800F74
:10734200911F62CE02FF6D2A9A39A7398C01899169
:1073520099919C0131027001209FC0013003F30812
:10736200900DE11CF31C1203F308900DE11CF31CB9
:107372009A938A93C70148CE06FF756D2F6D6F648D
:10738200A339C3397C01299139910991199140E1BD
:107392005527000F111F221F331F551F2E153F05A2
:1073A200520518F003952E193F094A9589F73A9329
:1073B2002A93C80129CE03FF756D2A00BD39E13930
:1073C2008C0189919991809FF00122273327909F08
:1073D200F00D211D331D819FF00D211D331D919F45
:1073E200200D311DCF019A938A93C9010DCE06FF5C
:1073F200696E76657274DC39FE398095909504CE9B
:1074020002FF322FF839053A95958795FDCD02FF97
:10741200322A013A0C3A880F991FF6CD03FF616EAA
:107422006400083A143A0991199180239123ECCD12
:1074320002FF6F720F3A1D3A09911991802B912B1D
:10744200E3CD03FF786F7200193A273A0991199137
:1074520080279127D9CD02FF312B223A303A01966B
:10746200D3CD02FF312D2C3A363A0197CDCD07FF0D
:107472003F6E656761746500323A01381F393638EC
:10748200433A123E203806FF6C7368696674383AD4
:107492004A3AFC018991999131971AF0880F991F04
:1074A200FBCFB2CD06FF727368696674443A593AEB
:1074B200FC018991999131971AF096958795FBCFA6
:1074C200A3CD02FF2B21533A663AFC01899199918F
:1074D20020813181820F931F8083918389919991B9
:1074E20093CD03FF72704000623A773A9A938A937F
:1074F2008DB79EB789CD03FF72702100723A813A2F
:107502002FB7F8948DBF9EBF2FBF899199917CCDE3
:1075120003FF737040007C3A8E3A9A938A93CE01AD
:1075220073CD03FF73702100893A973AEC01899178
:1075320099916ACD9C3A29913991E0E83E0F821BDC
:10754200930B3F932F939F938F93899199915CCD46
:1075520001FF6900923AAD3A9A938A938F919F9173
:10756200EF91FF91FF93EF939F938F938E0F9F1F46
:107572004BCDBB3AEF91FF91E80FF91F8991999199
:107582001BF0FF93EF936BCD0F911F9111963CCDA2
:10759200CA3AEF91FF913196BBF3F3CF06FF756EB6
:1075A2006C6F6F70A93AD53A1F910F911F910F918D
:1075B2002BCD06FF636D6F76653ECF3AE03ABF93FF
:1075C200AF93E991F991A991B991092F082B41F053
:1075D200E80FF91FA80FB91F1E9112930197E1F747
:1075E200AF91BF91899199910FCD02FF3E3CDA3A5A
:1075F200FA3A092F982F802F07CD03FF75704000AC
:10760200F63A033B9A938A93C201FECC03FF75704C
:107612002100FE3A0C3B2C0189919991F5CC03FF94
:10762200323E7200073B153BFC01899199919F9371
:107632008F93FF93EF9389919991E6CC03FF327276
:107642003E00103B243B9A938A93EF91FF918F91D6
:107652009F919A938A93CF01D7CC02FF21651F3B5A
:10766200323BFC01899199912FB7F89428D000B54B
:10767200081709F00BD0319622D000B5091711F086
:10768200892F04D02FBF89919991BECCF999FECF51
:1076920007B700FDFDCFF2BDE1BD80BDFA9AF99AB0
:1076A200089502FF40652E3B563B2FB7F894FC012C
:1076B20006D080B5319603D090B52FBFA5CCF999ED
:1076C200FECFF2BDE1BDF89A089502FF2169523B57
:1076D200EA3D66008B3D953D09FF2821692D6E72BA
:1076E20077772900663B753B1FB71F93F8949C017F
:1076F20089919991AF93BF93CF93DF9309D0DF9193
:10770200CF91BF91AF91899199911F911FBF7CCC6D
:1077120010D0E094F0948E219F21982B19F0F9015A
:1077220002E020D0F90104E01DD0F90100E11AD0F5
:107732000895F901E07CFF7FEF01A0E4B0E0FE01D3
:10774200EE0FFF1F45915591FE01E217F30711F06D
:107752000A0102C07A010C01002704D02196119778
:1077620071F70895F999FECF17B710FDFDCFEE0F0F
:10777200FF1F016007BFE895089502FF40696D3B56
:10778200C23BFC01EE0FFF1F859195913DCC080095
:10779200326C69746572616CBE3B0138C438A007F3
:1077A200A007203801FF3D00C83B01389339183942
:1077B200203801FF3100D33B4838010001FF32007D
:1077C200DA3B4838020002FF2D31DF3B4838FFFF29
:1077D20003FF6E3E7200E43BEE3BFC01082F8991F1
:1077E20099919F938F930A95D1F7EF93FF93899184
:1077F20099910ACC03FF6E723E00E93B003C9A93DA
:107802008A93FF91EF910E2F8F919F919A938A9372
:107812000A95D1F7CF01F8CB03FF64322A00FB3B74
:10782200123C09911991000F111F881F991F1A9379
:107832000A93EACB03FF64322F000D3C203C0991EE
:10784200199195958795179507951A930A93DCCB0D
:1078520002FF642B1B3C2D3C29913991E990F99050
:1078620049915991240F351F8E1D9F1D3A932A93DA
:10787200CBCB02FF642D293C3E3C29913991E99002
:10788200F99049915991421B530BE80AF90A5A930C
:107892004A93C701B9CB07FF64696E7665727400BB
:1078A2003A3C533C09911991809590950095109519
:1078B2001A930A93A9CB04FF2F6D6F644C3C613C71
:1078C2009C0109911991412F432717FF04C010957C
:1078D20000950F5F1F4F37FF04C0309520952F5F33
:1078E2003F4FEE24FF1851E1001F111F5A9539F442
:1078F20047FF04C0109500950F5F1F4F0BC0EE1C91
:10790200FF1CE21AF30A20F4E20EF31E8894ECCF75
:107912000894EACFFA92EA92C80176CB03FF616239
:1079220073005C3C0138B1383E3A203804FF70697C
:10793200636B8F3C01382F3AAF3E8D3A9D397938CF
:10794200203805FF63656C6C2B00973CA83C0296BF
:107952005BCB0138D7030300206F6B000A04203889
:1079620003FF2E6F6B00A23CEA3D1C00B33DBF3DFE
:107972000138D70302003E208C3F0A04203806FF5C
:107982002E7265616479B13CEA3D2000B33DBF3D92
:107992000138D7030400203F3F200A04A83E79386B
:1079A200FF382C3F8C03CD3E79388C03F638A83E45
:1079B2008138203806FF2E6572726F72C03CEA3D34
:1079C2001E00B33DBF3D01388C3F203806FF2E69B3
:1079D2006E707574DB3CEA3D2200B33DBF3D04FF8F
:1079E20071756974E73C01387F0886088138E905BA
:1079F200963AF105803A1409A23E79381839363898
:107A0200033DC53CF804EC3C3638163D3D383F0694
:107A12005E3DB9383638163DB1383D38FEFF6E3915
:107A22003638143DE03C2F38F53CB53C2F38FD3C50
:107A320005FF706175736500F03CEA3D92019F3D60
:107A4200A93D04FF636F6C64193D273DA4B622244F
:107A52003324BB2424BEE0E0F1E02192E030E9F7D8
:107A6200F930D9F7E4E9F1E02F010FEF0DBF0483FC
:107A720018E01EBF1583CFEAC683D8E0D783A8E4F7
:107A8200BDE3C2CA04FF7761726D223D0138A902CB
:107A92003D38C03F3D381E3DCA3D1409473FF43CC6
:107AA20007FF68616E646C657200433D58380A00D6
:107AB20005FF636174636800513D01388D3AFF38F8
:107AC200573D7938FF38763A573D81382A38F638AB
:107AD200573D8138F638D9385439203805FF746853
:107AE200726F7700593D0138B9383638843D573DB9
:107AF2007938803AF638573D8138F638C438FF383D
:107B0200963AD938F638203807FF456465666572BB
:107B120040006F3D0138C13B553B203807FF4564AB
:107B2200656665722100853D0138C13B313B2038D5
:107B320007FF52646566657240008F3D0138C13BA4
:107B42007938203807FF5264656665722100993DD5
:107B52000138C13B8138203807FF5564656665727C
:107B62004000A33D0138C13B023B9D3979382038A2
:107B720007FF5564656665722100AD3D0138C13B62
:107B8200023B9D398138203806FF646566657221A3
:107B9200B93D0138BB3FB138D801D801C13B2A38C1
:107BA200203806FF646566657240C53D0138BB3FFB
:107BB200B138D801C13B2A38203807FF28646566EE
:107BC20065722900D23D01385107BC087F07EA3DA2
:107BD20020380E94D508B138D801C13B2A382A384A
:107BE200203802FF752EDE3D0138543994032038C7
:107BF20003FF752E7200F23D01385439C4389D03DB
:107C0200203805FF752F6D6F6400F93D0138FF388C
:107C12005439F638C239203806FF6E6567617465DB
:107C2200023E0138FD392F3A203801FF2F000D3E68
:107C32000138603CF038203803FF6D6F6400163E57
:107C42000138603CD938203803FF6D696E001D3E53
:107C52000138B43E783936382F3EC438D938203806
:107C620003FF6D617800253E0138B43E6E39363827
:107C72003B3EC438D938203806FF77697468696E8C
:107C8200313E0138CF389339FF389339F6385C39B1
:107C920020380DFF73686F772D776F72646C69738C
:107CA20074003D3E01383D38593EC438F206203852
:107CB20001380D070A04993F4B39203805FF776FC9
:107CC200726473004A3E01383D384C00553B533EC6
:107CD200203802002E225F3E0138753E7F070A04DB
:107CE2002038020073226A3E01383D382200A20584
:107CF200A23E793836387E3EAB07203804FF6669EB
:107D02006C6C723E0138E138E138B9383638903E51
:107D1200843F9B3AB138AC3A8D38C93A8B3ED93858
:107D2200203805FF665F637075007F3E01383D387D
:107D320000243D38F400203805FF73746174650037
:107D4200923E4838C20104FF626173659D3E583815
:107D52000C0005FF63656C6C7300A43E0C3A04FFD3
:107D620032647570AA3E0138CF38CF38203805FF0B
:107D72003264726F7000B03E0138D938D938203879
:107D820004FF7475636BB83E0138C438CF382038AD
:107D920003FF3E696E00C13E5838180003FF706150
:107DA2006400C93E01380E3F3D3828009D39203815
:107DB20004FF656D6974CF3EEA3D0E00B33DBF3DE1
:107DC20005FF656D69743F00D93EEA3D1000B33D81
:107DD200BF3D03FF6B657900E13EEA3D1200B33D12
:107DE200BF3D04FF6B65793FEA3EEA3D1400B33DB7
:107DF200BF3D02FF6470F23E6F3836008B3D953D09
:107E020005FF656865726500FA3E6F383A008B3D82
:107E1200953D04FF68657265013F6F3838008B3D00
:107E2200953D05FF616C6C6F74000A3F01380E3F8F
:107E32009D39C6010F3F203803FF62696E00123F71
:107E42000138E23BA83E8138203807FF6465636948
:107E52006D616C001D3F01383D380A00A83E813833
:107E6200203803FF68657800263F01383D3810004E
:107E7200A83E8138203802FF626C323F4838200029
:107E820007FF7475726E6B6579003C3FEA3D4200F4
:107E92008B3D953D07FF746F757070657200413FB1
:107EA2000138B1383D3861003D387B00423E3638FA
:107EB2005D3F3D38DF00133A203807FF746F6C6F67
:107EC200776572004B3F0138B1383D3841003D388B
:107ED2005B00423E3638703F3D3820001C3A203865
:107EE20006FF3F737461636B5E3F0138FC051F3907
:107EF20036387E3F3D38FCFF743D203806FF626F06
:107F0200756E6473713F0138CF389D39C43820389B
:107F120002FF63727F3F01383D380D00DD3E3D3880
:107F22000A00DD3E203805FF737061636500893FFA
:107F320001383F3FDD3E203806FF73706163657391
:107F4200943F01385439353EB1383638AC3F993F09
:107F5200353A2F38A53FD938203803FF733E6400E5
:107F62009D3F0138B1381F39203805FF3E626F64EA
:107F72007900AE3F303A04FF6E6F6F70B63F013842
:027F82002038A5
:00000001FF
