:020000020000FC
:020004002AD1FF
:0200080028D1FD
:02000C0026D1FB
:0200100024D1F9
:0200140022D1F7
:0200180020D1F5
:02001C001ED1F3
:020020001CD1F1
:020024001AD1EF
:0200280018D1ED
:02002C0016D1EB
:0200300014D1E9
:0200340012D1E7
:0200380010D1E5
:02003C000ED1E3
:020040000CD1E1
:020044000AD1DF
:0200480008D1DD
:02004C0006D1DB
:0200500004D1D9
:0200540002D1D7
:0200580000D1D5
:02005C00FED0D4
:02006000FCD0D2
:02006400FAD0D0
:02006800F8D0CE
:10006C00F6D00010000800E01C00090041546D653A
:10007C0067613634340007FF3E72782D6275660076
:10008C0000004800082F10911001E0E0F1E0E10FB2
:10009C00F31D008313951F70109310018991999192
:1000AC000C94057006FF6973722D72784100017013
:1000BC003D70C6009870B1703D700300D6733670F9
:1000CC006800517A4700207001703D705D003D70F2
:1000DC002800917D3D7000013D7016005471B07484
:1000EC00207006FF72782D627566580001709700BB
:1000FC0036707D003D7011019870B1703D7000013B
:10010C009D719870C4702F723D700F0013723D700A
:10011C0011018D70207007FF72783F2D627566009B
:10012C0077000170497A3D70110198703D70100193
:10013C0098701171207007FF74782D706F6C6C00C3
:10014C0091000170B5003670A8003D70C6008D702E
:10015C00207008FF74783F2D706F6C6CA1000170DB
:10016C00497A3D70C00098703D7020001372207069
:10017C0004FF75627272AF006F709200B07BBA7B35
:10018C0006FF2B7573617274BE0001703D70980090
:10019C003D70C1008D703D7006003D70C2008D70C9
:1001AC00C200B170F9723D70C5008D703D70C40015
:1001BC008D706A00207008FF31772E72657365743C
:1001CC00C600E8009A938A93249A2C98E0E8F7E00A
:1001DC003197F1F71FB7F8942C9A2498E0E0F1E0EE
:1001EC003197F1F783B184FF9FEF1FBF24982C98B0
:1001FC00E0E8F6E03197F1F7892F0C94057007FFD2
:10020C0031772E736C6F7400E1000C012C98249ADA
:10021C001FB7F894E8E1F0E03197F1F788948795EF
:10022C0010F42C9A2498E4E2F0E03197F1F703B142
:10023C0004FD8068ECECF0E03197F1F72C9A2498EF
:0E024C00E8E0F0E03197F1F71FBF0C94057069
:040000000C94527A90
:10025A000A920FB60A920F900F900A94BB2001F0EF
:10026A00B02CFF93EF93E2E1F1E00694E00DF31D69
:10027A00008003940082EF91FF9109900FBE0990CC
:10028A00089502FF6D2B05010170637D2C742070A7
:10029A0003FF75642A0046010170B170FF70E071B6
:1002AA00D970C470F670E071E1709D71207004FF1E
:1002BA00756D61784D01017046755C713670660125
:1002CA00C470D970207004FF756D696E5C0101708D
:1002DA004675677136707201C470D97020700170EA
:1002EA003D7000801372187136707D01DD732070C5
:1002FA004B7120700AFF6E616D653E666C616773B3
:10030A0068010170C1733D7000FF1372207003FF12
:10031A00316D73007F019101E0EAFFE03197F1F757
:10032A000C94057006FF6E65776573748C014870CE
:10033A002E0106FF6C61746573749701487032016F
:10034A0008FF28637265617465299E0101709F79AF
:10035A000D03B80120700BFF286372656174652D67
:10036A00696E2900A5010170B1709C013F75817009
:10037A00F2029C018170207001005C00B0010170E2
:10038A008679F0705F758170207001002800C101C4
:10039A0001703D70290072794F75207007FF636FF5
:1003AA006D70696C6500CA010170F670B170A77B47
:1003BA00FF70C173E401207001FF2C00D3010170AA
:1003CA008F7569738F752F72957B907520700300F6
:1003DA005B275D00E1010170EB77FA0120700700ED
:1003EA006C69746572616C00EC010170D9013D7031
:1003FA00E40120700800736C69746572616CF40121
:10040A000170D9014E775C77207001708F75D90120
:10041A00FFFF20700170537B8F75C4706973207061
:10042A0001708F7520700170537BE4012070050004
:10043A00616865616400FF010170D9012F700A02C9
:10044A002070020069661C020170D90136700A0226
:10045A0020700400656C736526020170D9012F7043
:10046A000A02C4700F02207004007468656E2E02BE
:10047A0001700F0220700500626567696E0039021B
:10048A0001701502207005007768696C65004002EA
:10049A0001702902C470207006007265706561746B
:1004AA00480201706A023D0220700500756E746987
:1004BA006C00510201703D703670E4011802207020
:1004CA000500616761696E005A020170D9012F70D7
:1004DA00180220700200646F65020170D9019B72D4
:1004EA0015025471CD02207004006C6F6F706F0298
:1004FA000170D901C972B402207005002B6C6F6FAC
:10050A00700079020170D901BA72B4022070050034
:10051A006C656176650082020170D901D47221028C
:10052A00CD02207003003F646F008C020170D90174
:10053A00A30229027202C470CD02207001704675AE
:10054A00D673B170FF703670AB024F75F670FD71DD
:10055A00207007FF656E646C6F6F70009702017000
:10056A001802C102B9703670BD023D022F70B60280
:10057A00207002FF6C3EAE020170E0027970797061
:10058A003D70FEFFE0026572207002FF3E6CBE0203
:10059A000170E273E0026572E00279708170207086
:1005AA0003FF6C703000CA026F704400B07BBA7BE4
:1005BA0002FF6C70D5024870340106FF63726561F0
:1005CA007465DD020170AB011603D9015270207007
:1005DA0006FF686561646572E20201708F75FF70DB
:1005EA00FF70B170267136700403B1703D7000FF60
:1005FA001C726077F6705573E401F67020703D70D6
:10060A00F0FF227807FF776C73636F706500ED0265
:10061A000F7C4000B07BBA7B06FF72657665616C21
:10062A00070301709C013F757970B9703670210318
:10063A009C017970C470317320700500646F657312
:10064A003E0011030170D9013A03D9010E94D90170
:10065A002F0320709A938A93CB0101967F916F9111
:10066A00BF93AF93DB010C9405700170F6709C0187
:10067A003F75797055737A7C6973207001FF3A006F
:10068A0022030170AB015103D970207007FF3A6E43
:10069A006F6E616D6500430301708F75B170A301C0
:1006AA008170D90101706603207001003B004B0381
:1006BA000170D90120706E031603207001FF5D00DE
:1006CA005A030170DD732C758170207001005B0084
:1006DA006303017054712C758170207008FF766174
:1006EA00726961626C656B030170A0758503E273C0
:1006FA00A975207008FF636F6E7374616E7473035B
:10070A000170AB011603D9014870E401207004FF9F
:10071A00757365727F030170AB011603D9015870B6
:10072A00E4012070070072656375727365008C03BB
:10073A000170A3017970E401207009FF696D6D658C
:10074A00646961746500970301704B045573B17055
:10075A00C1733D70FF7F1372C47069732070060005
:10076A005B636861725DA2030170D9013D70D07844
:10077A00E4012070060061626F727422B403017092
:10078A00A274D901D603207005FF61626F727400EA
:10079A00BF0301704B71227806FF3F61626F72746A
:1007AA00C9030170E1703670DC038177CE034F759F
:1007BA00207009FF6765742D737461636B00D10340
:1007CA000170B1703F75C4705573B170FF70547188
:1007DA00C470A3023670FC039B72AC723572397511
:1007EA00CF709D715573C4704B71BA72F2034F7515
:1007FA00F670207009FF7365742D737461636B0062
:10080A00DE030170CF701F7136700E043D70FCFF5D
:10081A00227846753173C4705471A30236701B0472
:10082A009B723F7557753173C9721604D97020705F
:10083A0009FF6D61702D737461636B00FF030170B2
:10084A00B1703F75C470557339755A7DA3023670FD
:10085A0040049B72AC725573C470FF7006712A70A3
:10086A00B97036703C04F670D970D4722070F67084
:10087A00E273BA722F04D970547120700BFF676546
:10088A00742D63757272656E74001D0401703D707B
:10089A004A005573207009FF6366672D6F7264659D
:1008AA007200430448704E0008FF6366672D726544
:1008BA00637350044870600007FF636F6D70617264
:1008CA00650059046804BF93AF938C01899199918B
:1008DA00DC01899199919C0189919991FC01ED9092
:1008EA00F190EF1451F40A9519F02A95C1F701C055
:1008FA002A95022B11F4882702C08FEF00C0982F87
:10090A00AF91BF910C94057007FF6E66613E6C66ED
:10091A006100610401706E7C2F7204729D712070F7
:10092A0002FF2E7389040170947A5F74C377947AF4
:10093A005471A3023670A7049B72AC7290745F74F0
:10094A00C972A204207006FF63214073706995047E
:10095A00AE0403D099270C9405708EBD0DB5087F9F
:10096A000DBD0DB507FFFACF8EB5089505FF6E4090
:10097A0073706900A804C1048C0189919991FC01E2
:10098A00C8012EBC2DB527FFFDCF2EB521930197A7
:10099A00C1F7899199910C94057005FF6E217370C6
:1009AA006900BB04D8048C0189919991FC01C801A2
:1009BA0021912EBD2DB527FFFDCF2EB50197C1F789
:1009CA00899199910C9405700BFF6170706C747524
:1009DA00726E6B657900D2040170CB00817D607BF9
:1009EA00C37721753D70E803C271F070BE75037755
:1009FA004E7704006B487A20817720700BFF73656D
:100A0A00742D63757272656E7400E90401703D702D
:100A1A004A003173207008FF776F72646C697374CF
:100A2A000305017098755471CF703173B1703F75B9
:100A3A00957B997520700EFF666F7274682D776FBB
:100A4A0072646C697374100548704C0004FF636F1C
:100A5A00646520050170AB0116038F75A77BE4015D
:100A6A00207008FF656E642D636F64652B05017045
:100A7A00D9010C94D9010570207008FF286D6172A4
:100A8A006B65722936056F706C00B07BBA7B080003
:100A9A00706F7374706F6E65420501709F79BF7ACB
:100AAA00CA7AB170FF70A77BA77BC1732A70F670F0
:100ABA00A77BC173E401207003FF327240004C052A
:100ACA0066059A938A93EF91FF918F919F919F93D5
:100ADA008F93FF93EF939A938A93CF010C940570A7
:10E00200BF93AF93DB011196B21469F4FD01EE0FD9
:10E01200FF1F659175911196FB01EE0FFF1F059190
:10E022001591F80109949A938A938B2DBB24992711
:10E032006DEA7DE7F1CF04FF6578697461052170AF
:10E04200AF91BF91E1CF07FF657865637574650095
:10E052001C702B70BC0189919991DECF3070FD014B
:10E06200EE0FFF1FA591B591CFCF3770982B8991F5
:10E072009991A9F31196C8CF3E709A938A93FD01A4
:10E08200EE0FFF1F859195911196BECF48709A931E
:10E092008A93FB013196EE0FFF1F85919591B4CFC4
:10E0A20052709A938A93CB010196AECF58709A938D
:10E0B2008A93FB013196EE0FFF1F85919591840D96
:10E0C200951DA2CF07FF2876616C75652900247023
:10E0D2000170AB011603D9016F7020700E942F03EB
:10E0E200B170A77BC1732A70207001FF400063707A
:10E0F2007A70FC018191919187CF01FF21007670A6
:10E102008270FC018991999191838083899199917F
:10E112007BCF02FF63217E708E70FC018991999101
:10E1220080838991999170CF02FF63408A709970C0
:10E13200FC019927808168CF02FF407595700170BC
:10E1420002739D717970207002FF21759D700170BC
:10E1520002739D718170207003FF64757000A57059
:10E16200B2709A938A9350CF04FF3F647570AD707A
:10E17200BA70082F092B11F09A938A9345CF04FFA6
:10E1820073776170B570C5708C01899199911A93FA
:10E192000A933ACF04FF6F766572C070D0709A937B
:10E1A2008A938A819B8130CF04FF64726F70CB7037
:10E1B200DA708991999128CF03FF726F7400D5703C
:10E1C200E2708C0129913991899199913A932A931C
:10E1D2001A930A9319CF03FF6E697000DD70F17014
:10E1E200229612CF02FF723EEC70F7709A938A93D6
:10E1F2008F919F9109CF02FF3E72F37000719F933E
:10E202008F93D7CF02FF7240FC7007719A938A9363
:10E212008F919F919F938F93F7CE02FF3C3E0371A4
:10E222000170D6731871207002FF303D0E711971A2
:10E23200982BE1F532C002FF303C1571207197FD39
:10E242002CC034C002FF303E1C7127718215930529
:10E252006CF161F122C003FF64303E002371317121
:10E2620093153CF082058991999182059305F1F00D
:10E2720014C0C101B5CF03FF64303C002C71417161
:10E28200229697FD0C944E710C94577104FF747290
:10E2920075653C714C719A938A938FEF9FEFB4CE60
:10E2A20001FF3000477155719A938A93C101ACCE38
:10E2B20002FF753C51715D71299139918217930763
:10E2C200A8F3A1F3EACF02FF753E59710170C47041
:10E2D2005C71207001FF3C0064716F71299139916A
:10E2E200281739071CF7D9CF01FF3E006B717971EE
:10E2F2002991399128173907CCF2C1F2CECF04FF08
:10E302006C6F673275718571FC01992780E18A957E
:10E3120022F0EE0FFF1FD8F777CE9A9575CE01FF48
:10E322002D008071947109911991081B190BC80174
:10E332006BCE01FF2B0090719E7109911991800F94
:10E34200911F62CE02FF6D2A9A71A7718C01899189
:10E3520099919C0131027001209FC0013003F308A2
:10E36200900DE11CF31C1203F308900DE11CF31C49
:10E372009A938A93C70148CE06FF756D2F6D6F641D
:10E38200A371C3717C01299139910991199140E1DD
:10E392005527000F111F221F331F551F2E153F0532
:10E3A200520518F003952E193F094A9589F73A93B9
:10E3B2002A93C80129CE03FF756D2A00BD71E17150
:10E3C2008C0189919991809FF00122273327909F98
:10E3D200F00D211D331D819FF00D211D331D919FD5
:10E3E200200D311DCF019A938A93C9010DCE06FFEC
:10E3F200696E76657274DC71FE718095909504CEBB
:10E4020002FF322FF871057295958795FDCD02FFB7
:10E41200322A01720C72880F991FF6CD03FF616ECA
:10E422006400087214720991199180239123ECCD32
:10E4320002FF6F720F721D7209911991802B912B3D
:10E44200E3CD03FF786F7200197227720991199157
:10E4520080279127D9CD02FF312B2272307201968B
:10E46200D3CD02FF312D2C7236720197CDCD07FF2D
:10E472003F6E656761746500327201701F7136709C
:10E4820043722076207006FF6C7368696674387276
:10E492004A72FC018991999131971AF0880F991F5C
:10E4A200FBCFB2CD06FF727368696674447259720B
:10E4B200FC018991999131971AF096958795FBCF36
:10E4C200A3CD02FF2B2153726672FC0189919991AF
:10E4D20020813181820F931F808391838991999149
:10E4E20093CD03FF72704000627277729A938A939F
:10E4F2008DB79EB789CD03FF72702100727281724F
:10E502002FB7F8948DBF9EBF2FBF899199917CCD73
:10E5120003FF737040007C728E729A938A93CE01CD
:10E5220073CD03FF7370210089729772EC01899198
:10E5320099916ACD9C7229913991E0E83E0F821B34
:10E54200930B3F932F939F938F93899199915CCDD6
:10E5520001FF69009272AD729A938A938F919F9193
:10E56200EF91FF91FF93EF939F938F938E0F9F1FD6
:10E572004BCDBB72EF91FF91E80FF91F89919991F1
:10E582001BF0FF93EF936BCD0F911F9111963CCD32
:10E59200CA72EF91FF913196BBF3F3CF06FF756E0E
:10E5A2006C6F6F70A972D5721F910F911F910F91AD
:10E5B2002BCD06FF636D6F76653ECF72E072BF931F
:10E5C200AF93E991F991A991B991092F082B41F0E3
:10E5D200E80FF91FA80FB91F1E9112930197E1F7D7
:10E5E200AF91BF91899199910FCD02FF3E3CDA72B2
:10E5F200FA72092F982F802F07CD03FF7570400004
:10E60200F67203739A938A93C201FECC03FF75706C
:10E612002100FE720C732C0189919991F5CC03FFB4
:10E62200323E720007731573FC01899199919F9391
:10E632008F93FF93EF9389919991E6CC03FF327206
:10E642003E00107324739A938A93EF91FF918F91F6
:10E652009F919A938A93CF01D7CC02FF21651F73B2
:10E662003273FC01899199912FB7F89428D000B5A3
:10E67200081709F00BD0319622D000B5091711F016
:10E68200892F04D02FBF89919991BECCF999FECFE1
:10E6920007B700FDFDCFF2BDE1BD80BDFA9AF99A40
:10E6A200089502FF40652E7356732FB7F894FC014C
:10E6B20006D080B5319603D090B52FBFA5CCF9997D
:10E6C200FECFF2BDE1BDF89A089502FF21695273AF
:10E6D2000F7C6A00B07BBA7B09FF2821692D6E721C
:10E6E20077772900667375731FB71F93F8949C019F
:10E6F20089919991AF93BF93CF93DF9309D0DF9123
:10E70200CF91BF91AF91899199911F911FBF7CCCFD
:10E7120010D0E094F0948E219F21982B19F0F901EA
:10E7220002E020D0F90104E01DD0F90100E11AD085
:10E732000895F901E078FF7FEF01A0E8B0E0FE0163
:10E74200EE0FFF1F45915591FE01E217F30711F0FD
:10E752000A0102C07A010C01002704D02196119708
:10E7620071F70895F999FECF17B710FDFDCFEE0F9F
:10E77200FF1F016007BFE895089502FF40696D73AE
:10E78200C273FC01EE0FFF1F859195913DCC0800ED
:10E79200326C69746572616CBE730170C470FA0187
:10E7A200FA01207001FF3D00C87301709371187166
:10E7B200207001FF3100D3734870010001FF320065
:10E7C200DA734870020002FF2D31DF734870FFFFD9
:10E7D20003FF6E3E7200E473EE73FC01082F899111
:10E7E20099919F938F930A95D1F7EF93FF93899114
:10E7F20099910ACC03FF6E723E00E97300749A93FA
:10E802008A93FF91EF910E2F8F919F919A938A9302
:10E812000A95D1F7CF01F8CB03FF64322A00FB73CC
:10E82200127409911991000F111F881F991F1A93D1
:10E832000A93EACB03FF64322F000D74207409910E
:10E84200199195958795179507951A930A93DCCB9D
:10E8520002FF642B1B742D7429913991E990F99070
:10E8620049915991240F351F8E1D9F1D3A932A936A
:10E87200CBCB02FF642D29743E7429913991E99022
:10E88200F99049915991421B530BE80AF90A5A939C
:10E892004A93C701B9CB07FF64696E76657274004B
:10E8A2003A74537409911991809590950095109539
:10E8B2001A930A93A9CB02FF752E4C7401705471FE
:10E8C2000B77207003FF752E72005C740170547117
:10E8D200C470147720700DFF73686F772D776F7295
:10E8E200646C69737400637401703D707B74C470EE
:10E8F200537C207001706E7C8177C3774B712070DE
:10E9020005FF776F726473006C7401703D70500084
:10E9120055737574207004FF7069636B81740170A4
:10E922002F7239758D729D717970207002002E22BE
:10E932008C740170A274D901817720700200732255
:10E94200977401703D70220072792C75797036705F
:10E95200AB740502207004FF66696C6C9F740170D1
:10E96200E170E170B9703670BD745A7D9B72B170FE
:10E97200AC728D70C972B874D97020700BFF656E5D
:10E982007669726F6E6D656E7400AC744870480083
:10E9920009FF776F72646C69737473000000017011
:10E9A2003D700800207004FF2F706164C97401700B
:10E9B2008D7265759371207005FF2F686F6C64000E
:10E9C200D47401706575A075937120700AFF666F2B
:10E9D2007274682D6E616D65DD7401704E7707008B
:10E9E200616D666F72746800207007FF76657273DE
:10E9F200696F6E00E77401703D704500207003FF7F
:10EA020063707500F67401703D703B00AD77207045
:10EA120008FF6D63752D696E666F007501703D703C
:10EA22003700207005FF2F7573657200097501703C
:10EA32003D702E00207005FF665F63707500BF7425
:10EA420001703D7000243D70F400207005FF737466
:10EA5200617465001C754870360104FF626173655C
:10EA6200277558700C0005FF63656C6C73002E757A
:10EA72000C7205FF63656C6C2B0034754075029651
:10EA8200C3CA04FF326475703A750170CF70CF70DB
:10EA9200207005FF3264726F700042750170D97088
:10EAA200D970207004FF7475636B4A750170C4706D
:10EAB200CF70207003FF3E696E00537558701800C6
:10EAC20003FF706164005B750170A0753D702800E2
:10EAD2009D71207004FF656D697461750F7C0E0075
:10EAE200D87BE47B05FF656D69743F006B750F7C15
:10EAF2001000D87BE47B03FF6B65790073750F7C94
:10EB02001200D87BE47B04FF6B65793F7C750F7C38
:10EB12001400D87BE47B02FF647084756F703A0046
:10EB2200B07BBA7B05FF6568657265008C756F7096
:10EB32003E00B07BBA7B04FF6865726593756F70A7
:10EB42003C00B07BBA7B05FF616C6C6F74009C75F6
:10EB52000170A0759D71957BA175207003FF62699C
:10EB62006E00A4750170E27332758170207007FF28
:10EB7200646563696D616C00AF7501703D700A0078
:10EB820032758170207003FF68657800B875017076
:10EB92003D70100032758170207002FF626CC47586
:10EBA2004870200007FF7475726E6B657900CE7530
:10EBB2000F7C4600B07BBA7B04FF2F6D6F64D37568
:10EBC200E2759C0109911991412F432717FF04C057
:10EBD200109500950F5F1F4F37FF04C030952095A9
:10EBE2002F5F3F4FEE24FF1851E1001F111F5A956E
:10EBF20039F447FF04C0109500950F5F1F4F0BC0FB
:10EC0200EE1CFF1CE21AF30A20F4E20EF31E8894B3
:10EC1200ECCF0894EACFFA92EA92C801F5C905FF4F
:10EC2200752F6D6F6400DD750170FF705471F670A1
:10EC3200C271207006FF6E6567617465107601709F
:10EC4200FD712F72207001FF2F001B760170E1759C
:10EC5200F070207003FF6D6F640024760170E1751F
:10EC6200D970207003FF616273002B760170B1705E
:10EC72003E72207003FF6D696E0033760170467537
:10EC8200787136704576C470D970207003FF6D615B
:10EC920078003B76017046756E7136705176C4709D
:10ECA200D970207006FF77697468696E47760170C3
:10ECB200CF709371FF709371F6705C71207007FFD3
:10ECC200746F75707065720053760170B1703D702B
:10ECD20061003D707B005876367072763D70DF00C1
:10ECE2001372207007FF746F6C6F77657200607625
:10ECF2000170B1703D7041003D705B005876367016
:10ED020085763D7020001C72207003FF686C6400E1
:10ED120073764870380104FF686F6C648676017000
:10ED22008A76B17079703572B170FF70C47081707B
:10ED3200F6708D70207002FF3C238C760170657531
:10ED42008A768170207001FF23009C7601703275F3
:10ED520079702477E1703D700900CF706E71367062
:10ED6200B5763D7007009D713D7030009D719076C3
:10ED7200207002FF2373A4760170A77646751C7279
:10ED820018713670BE76207002FF233EBA7601708B
:10ED92004F758A7679706575CF709371207004FF14
:10EDA2007369676EC57601701F713670DB763D70D0
:10EDB2002D009076207003FF642E7200D0760170D1
:10EDC200FF705775D07C9F76BD76E170D476C87699
:10EDD200F670CF709371CC77DC77207002FF2E72C1
:10EDE200DC760170FF70637DF670E076207002FFC2
:10EDF200642EEF7601705471E076C377207001FFC4
:10EE02002E00F8760170637DFB76207003FF756437
:10EE12002E000077017054711477C377207004FFBD
:10EE220075642E7207770170FF709F76BD76C87683
:10EE3200F670CF709371CC77DC77207006FF756423
:10EE42002F6D6F6410770170FF7054710671C2717B
:10EE5200F670C470FF70C271F670207006FF6469AC
:10EE62006769743F1F7701706676B1703D70390033
:10EE720078713D70000113729D71B1703D70400157
:10EE820078713D700701137293713D703000937178
:10EE9200B170327579705C71207001700671AD7756
:10EEA200F670CF702F7204729D712F72FF702070F6
:10EEB20002FF732C2F770170B170607720700170A0
:10EEC200E401B170047257750B729371FF70547143
:10EED200A302367073779B72B1707970E4013F754B
:10EEE200C9726D77F670267136707A77B170987044
:10EEF200E401D970207005FF697479706500597753
:10EF02000170B170047257750B729371FF70547176
:10EF1200A302367095779B72B170C173B170A277FC
:10EF22009E772F72C9728D77F670267136709C7734
:10EF3200B170C173A277D97020700170F972A27793
:10EF4200207001703D70FF0013726F75207006FF14
:10EF520069636F756E747C770170B1702F72C470C3
:10EF6200C173207002FF6372A87701703D700D00BB
:10EF72006F753D700A006F75207005FF73706163D5
:10EF82006500B3770170D1756F75207006FF7370DD
:10EF920061636573BE77017054714B76B1703670E0
:10EFA200D677C37735722F70CF77D970207004FF70
:10EFB20074797065C77701705A7DA3023670E7775E
:10EFC2009B72AC7298706F75C972E277207001FF04
:10EFD2002700D87701709F79BF7ACA7AB170467BD1
:10EFE200D673C470C1733D707B7BD6731C7236704E
:10EFF200FD773D70F3FF2278D970207007FF6861BA
:10F002006E646C657200E87758700A0005FF6361F0
:10F0120074636800FF7701708D72FF7005787970F4
:10F02200FF707672057881702A70F67005788170AB
:10F03200F670D9705471207005FF7468726F770092
:10F0420007780170B97036703278057879708072FD
:10F05200F67005788170F670C470FF709672D97080
:10F06200F670207005FF63736B6970001D78017084
:10F07200FF70B17036704778CF7098700671D67392
:10F0820036704778DD7390792F703A78F670D970C0
:10F09200207005FF637363616E0033780170FF7047
:10F0A200CF70B17098700671D6731871367064782B
:10F0B200C4703572C470CF701F7118713670647865
:10F0C2002F722F705278F070CF709371F670D970E2
:10F0D200207006FF6163636570744A780170CF70B7
:10F0E2009D71CF708075B170B87818713670AB7839
:10F0F200B1703D700800D67336709178D970E170A6
:10F1020046757871FF70E170E170F67036708F7835
:10F11200B0783572FF70CF70F67060012F70A978E9
:10F12200B170D1756E7136709878D970D175FF70E3
:10F1320046757871F670C4703670A878B1706F75C4
:10F14200CF708D702F72CF706C012F70A978D9702B
:10F152002F707378D970F070C47093712070017041
:10F162003D700800B1706F75C3776F7520700170C4
:10F17200B1703D700D00D673C4703D700A00D67335
:10F182001C72207006FF726566696C6C6A780F7C6F
:10F192001A00D87BE47B04FF63686172C378017054
:10F1A2009F7918713670D8783D70F0FF2278987088
:10F1B200207006FF6E756D626572CC7801703275D3
:10F1C2007970FF702379FF7036792379F6701C729B
:10F1D200FF70B17018713670F6784F75F670D9708D
:10F1E200F6703275817054712070147354715471B9
:10F1F20023735479B97036701879DD73D67336700B
:10F202000F7998703D702E00D67336701079F670B3
:10F2120036700C79DD7CE2732F701E79D9704F75D0
:10F22200F670D970F67032758170547120704F7516
:10F23200F67036701D792076DD73F6703275817046
:10F242004B7120700170CF7098703D702D00D67395
:10F25200B170FF7036702F79DD739079F67020707F
:10F2620052700A00100002000A000170CF709870FC
:10F272003D7023009371B17054713D700400587653
:10F2820036704C7931799D71C17332758170DD733D
:10F2920090792F704D79D970207007FF3E6E756D91
:10F2A20062657200DA780170B17036706C79CF7075
:10F2B20098703477187136706079D9702070FF7049
:10F2C200017D327579705101F6704901017DDD735E
:10F2D20090792F705579207005FF70617273650007
:10F2E2004E790170FF7086795F7579709079F6704A
:10F2F2004F78B1702F725F756572DD7390792070EF
:10F3020006FF736F757263656D790F7C1600D87B8B
:10F31200E47B07FF2F737472696E67008179017055
:10F32200E170CF709D71E170E170937120700AFFFE
:10F3320070617273652D6E616D658A790170D17528
:10F34200A37920700170FF7086795F75797090796A
:10F3520006713878F6704F7846759D718679D97046
:10F3620093715F758170207007FF66696E642D78F6
:10F372007400987901703D70C7793D704E00240485
:10F3820018713670C6794F75547120700170FF7014
:10F392004675F670217CB1703670D479FF70F070CA
:10F3A200F070F6704B71207001704E770300206F81
:10F3B2006B008177207003FF2E6F6B00B5790F7C95
:10F3C2001C00D87BE47B01704E7702003E20B677AA
:10F3D2008177207006FF2E7265616479DC790F7C7B
:10F3E2002000D87BE47B01704E770400203F3F2051
:10F3F200817732757970FF70BE7503775F757970AA
:10F402000377F67032758170207006FF2E65727276
:10F412006F72EB790F7C1E00D87BE47B0170B677AC
:10F42200207006FF2E696E707574067A0F7C2200BA
:10F43200D87BE47B04FF71756974127A0170D9027A
:10F44200E0028170817A9672897A80726E032C75DD
:10F452007970187136702E7AF079C878177A36700A
:10F46200417A3D70A27A0C78B9703670417AB170E7
:10F472003D70FEFF6E7136703F7A0B7A2F70207AE4
:10F48200E0792F70287A05FF7061757365001B7A29
:10F492000F7C3A01C47BCE7B04FF636F6C64447AB9
:10F4A200527AA4B622243324BB2424BEE0E0F1E045
:10F4B2002192E030E9F7F131D9F7ECE3F1E02F01E5
:10F4C2000FEF0DBF048310E11EBF1583CFEAC68381
:10F4D200D0E1D783A4E7BAE70C94057004FF776103
:10F4E200726D4D7A01704C7D3D707B7B3D70497A27
:10F4F200EF7B6E03D9751F7A03FF737030006F7A4A
:10F502006F700600D87BE47B03FF727030007D7A57
:10F5120001708D7A797020705870040005FF64655F
:10F5220070746800857A0170817A8D7293710472A9
:10F532003572207009FF696E7465727072657400AD
:10F542008F7A01709F79B1703670B37ABF7ACA7AB6
:10F552002C7579703670AE7AA77BC1732A70537B93
:10F562002F70A37A4F75207010FF666F7274682D2A
:10F572007265636F676E697A65729B7A6F7042001B
:10F58200B07BBA7B09FF7265636F676E697A65004B
:10F59200B57A01703D70D57AC47024041871367042
:10F5A200D47A4F75467B20700170E170E170467528
:10F5B2001473E1702A702373E170B170467BD673C5
:10F5C2003670E67AD97054712070F070F0704B7119
:10F5D20020700BFF726563747970652D6E756D0016
:10F5E200C37A52707B7BFA01FA010CFF7265637475
:10F5F2007970652D646E756DEA7A52707B7BCE737D
:10F60200CE7307FF7265632D6E756D00F67A017019
:10F61200DF783670147BDD73D6733670127BF27A24
:10F622002070FE7A2070467B207008FF7265632D81
:10F6320066696E64027B0170BB79B17018713670B5
:10F64200257BD970467B20702E7B20700AFF726565
:10F6520063747970652D7874167B5270327B367BB9
:10F66200CE730170D9702A70207001701F713670CC
:10F672003C7BE40120702A7020700CFF7265637479
:10F682007970652D6E756C6C277B52704A7B4A7B54
:10F692004A7B01703D70F3FF227806FF3F7374616D
:10F6A200636B3E7B0170947A1F7136705B7B3D7099
:10F6B200FCFF2278207003FF766572004E7B01709A
:10F6C200EE748177C37732757970FC74BE75637D91
:10F6D2009F76A7763D702E009076BD76C876DC7751
:10F6E20032758170C37704758177207004FF6E6F65
:10F6F2006F705C7B0170207006FF756E75736564B8
:10F70200777B01708D72A075937120700200746F07
:10F712007D7B0170EB776C7D2C75797036709B7BED
:10F72200D901957BE40120700170F670B170A77B5E
:10F73200FF70C173B170A77BA77BC1732A70207061
:10F7420007FF692D63656C6C2B00877B01702F723C
:10F75200207007FF4564656665724000A17B0170F9
:10F76200C1735573207007FF456465666572210099
:10F77200AA7B0170C1733173207007FF5264656602
:10F7820065724000B47B0170C1737970207007FF0D
:10F792005264656665722100BE7B0170C17381701F
:10F7A200207007FF5564656665724000C87B017072
:10F7B200C17302739D717970207007FF556465668D
:10F7C20065722100D27B0170C17302739D718170D9
:10F7D200207006FF646566657221DE7B01706C7DB8
:10F7E200B170A77BA77BC1732A70207006FF646586
:10F7F20066657240EA7B01706C7DB170A77BC17354
:10F802002A70207007FF2864656665722900F77BFD
:10F812000170AB011603D9010F7C20700E942F03E7
:10F82200B170A77BC1732A702A7020700FFF7365B5
:10F83200617263682D776F72646C69737400037C04
:10F842000170FF7054713D70367CF670537CB1705C
:10F8520018713670307C4F75D97054712070B17048
:10F862007A7CC4708601740120700170FF70D970B7
:10F87200467506716E7C847C3670447CF670D97055
:10F8820054714B7120704F75F6705471207011FFD6
:10F8920074726176657273652D776F72646C6973C9
:10F8A2007400177C01705573B1703670647C4675B4
:10F8B2001473C4702A702373E1703670647C8F04F1
:10F8C200C1732F70557C4F7520700BFF6E616D6593
:10F8D2003E737472696E6700487C0170AD773D704B
:10F8E200FF001372207007FF6E66613E636661005F
:10F8F200667C01708F042F72207008FF69636F6D40
:10F9020070617265747C0170FF70CF70F670117156
:10F9120036708F7C4F75D9704B712070C4705471E2
:10F92200A3023670B27C9B72CF707970CF70C173B4
:10F93200B1703D7000015C713670A37CC4703D7083
:10F94200FF00137211713670AA7C4F754B71D4721D
:10F9520020702F72C4703F75C4703D700200BA727D
:10F96200957C4F755471207001FF2A007E7C0170D6
:10F97200A671D970207001FF6A00B57C01707672A1
:10F982003D7007009D71797076723D7009009D711E
:10F9920079709D71207004FF64616273BC7C017098
:10F9A200B1701F713670D67CDD7C207007FF646EEB
:10F9B200656761746500CC7C01705274DD735471AB
:10F9C2002C74207005FF636D6F766500D77CE97C2F
:10F9D200BF93AF93E991F991A991B991092F082B9E
:10F9E20021F01D9111930197E1F7AF91BF91899198
:10F9F20099910C94057005FF327377617000E37C76
:10FA02000170E170FF70E170F67020700AFF72659C
:10FA120066696C6C2D746962FC7C01702A7D3D7094
:10FA22005A006F78307D817054715F7581704B71AF
:10FA320020700AFF736F757263652D746962077DAA
:10FA420001702A7D307D7970207003FF7469620035
:10FA52001A7D48706A0104FF23746962267D48702A
:10FA6200C40106FF65653E72616D2C7D01705471A3
:10FA72009B72CF705573CF7081703F75C4703F75A4
:10FA8200C470C9723A7D4F75207008FF696E69743F
:10FA92002D72616D327D01703D706E0002733D709A
:10FAA20024000472377D207006FF626F756E6473E6
:10FAB200467D0170CF709D71C470207003FF733E4C
:10FAC2006400557D0170B1701F71207005FF3E62A8
:10FAD2006F6479005F7D307206FF6972715B5D232E
:10FAE200677D01703D7012019D71207004FF2369D2
:10FAF2006E746D7D48701C0004FF2B696E74777DF7
:10FB0200827D78940C94057004FF2D696E747D7D5E
:10FB12008A7DF8940C94057004FF696E7421857DCA
:10FB220001703D7000009D713173207004FF696E99
:10FB320074408D7D01703D7000009D715573207081
:10FB420008FF696E742D74726170977DA87DB82E5E
:10FB5200899199910C94057001709B7D2A70B27DF8
:0CFB62002070B37D02D00C940570189543
:00000001FF
