:10000000000100205D0C00004100000055000000D0
:10001000410000004100000041000000000000001D
:10002000000000000000000000000000410000008F
:1000300041000000000000004100000041000000FD
:1000400000B502B44FF03001EFF3058101F130014A
:1000500002BC00BD00B502B44FF04601EFF30581CC
:10006000303102BC00BD0000000000BF6A0000008B
:100070000000000004657869740000BF8000000083
:100080005DF8049B00F005BC70000000000000005B
:100090000464726F700000BF9C00000040CFF8E362
:1000A0008C0000000000000004737761700000BF46
:1000B000B400000039683E600E00EAE3A4000000CE
:1000C0000000000003647570CC00000047F8046D68
:1000D000DFE300BFC000000000000000036E697095
:1000E000E40000000437D4E3D80000000000000062
:1000F000046F7665720000BFFC00000047F8046DD5
:100100007E68C6E3EC0000000000000003726F741C
:100110001401000003CF083F78603E600E00B8E392
:100120000801000000000000043F6475700000BF7B
:1001300034010000002E01D047F8046DA9E300BF90
:100140002401000000000000047475636B0000BF10
:100150005401000001CF083F7E60386099E300BF82
:100160004401000000000000047069636B0000BFE0
:100170007401000057F826608BE300BF64010000A3
:1001800000000000023E72008C01000040B440CF2D
:100190007FE300BF800100000000000002723E000B
:1001A000A401000047F8046D40BC72E39801000010
:1001B0000000000002724000BC01000047F8046D1E
:1001C000009E66E3B0010000000000000372704072
:1001D000D401000047F8046D6E465AE3C8010000E0
:1001E0000000000003727021EC010000B54640CF12
:1001F0004FE300BFE0010000010100000272700047
:100200005E0F000008000000F80100000000000080
:10021000037370401802000047F8046D3E4638E34F
:100220000C02000000000000037370213002000087
:10023000374640CF2DE300BF24020000010100003B
:10024000027370005E0F0000100000003C0200000E
:1002500001010000037370305E0F00000C0000000D
:100260005002000000000000014000BF70020000CA
:1002700036680EE36402000000000000012100BFA8
:100280008402000003CF30600E0002E37802000019
:1002900000000000066E656761746500A002000042
:1002A0007642F6E2900200000000000003616273F3
:1002B000B4020000002EB8BF7642EAE2A8020000B5
:1002C00000000000036D6F648C0800001C03000038
:1002D000E00000007C000000C00200000000000000
:1002E000012F00BF8C0800001C03000098000000D4
:1002F0007C000000DC02000000000000012A00BFBA
:100300000403000001CF4643C3E200BFF80200002F
:1003100000000000042F6D6F640000BF2003000088
:1003200001CF310090FBF6F67143401A043F38606C
:10033000AFE200BF100300000000000005752F6D44
:100340006F6400BF4803000001CF3100B0FBF6F638
:100350007143401A043F38609BE200BF380300003D
:100360000000000005646570746800BF7003000041
:100370000349A1EB070147F8046D8E1089E20000E4
:100380008000002060030000000000000672646529
:10039000707468009803000047F8046D6E460249C7
:1003A000A1EB06018E1074E200010020880300001A
:1003B00000000000057264726F7000BFC00300008F
:1003C00001B066E2B00300000000000003616E644B
:1003D000D403000001CF06405BE200BFC803000069
:1003E00000000000026F7200EC03000001CF064322
:1003F0004FE200BFE00300000000000003786F72CE
:100400000404000001CF464043E200BFF8030000AF
:1004100000000000036E6F741C040000F64338E215
:10042000100400000000000006696E76657274001A
:1004300034040000F6432CE2240400000000000015
:1004400006727368696674004C04000001CFF040C6
:1004500006001EE23C04000000000000066C736809
:10046000696674006804000001CFB040060010E225
:100470005804000000000000046D6F76650000BFA6
:100480008404000007B4314657F8046B324657F82D
:10049000046B00290FD0B2420DD006D3013E013AC1
:1004A000705C50540139FBD105E030781070013692
:1004B00001320139F9D140CF07BCEAE174040000F0
:1004C000000000000466696C6C0000BFD0040000EE
:1004D000304657F8046B314657F8046B002902D0B8
:1004E00001397054FCD140CFD3E100BFC0040000FB
:1004F00000000000022B2100FC04000003CF326842
:10050000121832600E00C4E1F00400000000000088
:1005100002634000180500003678BAE10C050000BF
:1005200000000000026321002C05000003CF3070A2
:100530000E00AEE1200500000000000002303D008A
:1005400044050000013EB641A3E100BF38050000AC
:100550000000000003303C3E5C050000013EB64157
:10056000F64396E1500500000000000002303C0018
:100570007405000036004FEA26068AE1680500008F
:1005800000000000023E3D008C05000001CFB0429B
:10059000B4BF00264FF0FF367BE100BF80050000AE
:1005A00000000000023C3D00AC05000001CFB0425D
:1005B000CCBF00264FF0FF366BE100BFA005000066
:1005C00000000000013C00BFCC05000001CFB0429C
:1005D000B4BF4FF0FF3600265BE100BFC00500004E
:1005E00000000000013E00BFEC05000001CFB0425A
:1005F000CCBF4FF0FF3600264BE100BFE005000006
:100600000000000002753C000C06000001CF861BB4
:10061000B6413EE1000600000000000002753E0009
:100620002406000001CF361AB64132E11806000058
:1006300000000000023C3E003C06000001CF361ADC
:1006400018BF4FF0FF3624E1300600000000000024
:10065000013D00BF5806000001CF361A013EB641E9
:1006600017E100BF4C06000000000000036D696E3A
:100670007406000001CFB042B8BF064609E100BFD2
:100680006806000000000000036D6178900600001D
:1006900001CFB042C8BF0646FBE000BF84060000A1
:1006A0000000000004756D61780000BFB006000016
:1006B00001CFB04288BF0646EBE000BFA0060000B5
:1006C0000000000004756D696E0000BFD0060000D8
:1006D00001CFB04238BF0646DBE000BFC0060000D5
:1006E0000000000005327377617000BFF006000063
:1006F00000F001F8CDE000B507CF043F386047F8BF
:10070000046D043F3A600E0000BD00BFE00600002B
:100710000000000004326E69700000BF2007000076
:1007200007CFA7F104073860B3E000BF100700004F
:1007300000000000053264726F7000BF40070000C7
:1007400007F1040757F8046BA3E000BF300700006F
:100750000000000005326F76657200BF6007000080
:10076000B86847F8046DA7F104073860FE6890E0A8
:1007700050070000000000000332724080070000B4
:1007800047F8046D019E47F8046D009E81E000BFAC
:10079000740700000000000003323E72A007000052
:1007A00001CF01B440B440CF73E000BF9407000014
:1007B000000000000332723EBC07000047F8046DE1
:1007C00040BC01BCA7F10407386062E0B00700003C
:1007D0000000000002322F00DC0700004FEA66062E
:1007E00057E000BFD00700000000000002322A00DE
:1007F000F407000036444CE0E80700000000000069
:100800000364322A0808000038680018764138600E
:100810003FE000BFFC070000000000000364322F2F
:10082000240800003868F107761040080843386053
:100830002FE000BF1808000000000000046461629F
:10084000730000BF8C080000C800000070050000A5
:10085000BE0F00005C080000700800007C00000073
:10086000380800000000000007646E656761746569
:100870007408000000F001F80BE000B538680021B2
:10088000C043F64301304E41386000BD4DF8049D31
:10089000C14659F8048B58F8040B874664080000D9
:1008A0000000000002642B00AC08000007CF121803
:1008B0004E41043F3A60ECE7A00800000000000051
:1008C00002642D00C808000007CF121AB1410E00C3
:1008D000043F3A60DDE700BFBC08000000000000F4
:1008E00004326475700000BFEC080000386847F8F7
:1008F000046DA7F104073860CBE700BFDC080000F7
:100900000000000003756D2A0C0900003868A6FB82
:1009100000063860BDE700BF0009000000000000CD
:10092000026D2A0028090000386886FB000638603E
:10093000AFE700BF1C090000000000000675642F2F
:100940006D6F64004809000000F001F8A1E730B4C1
:10095000002300227968B86835003C684FF04006F3
:100960004000494152415B41AB4202D804D3A2420C
:1009700002D3121BAB410130013EF1D10E003860B1
:100980007B60BA6030BC704738090000000000008E
:1009900005642F6D6F6400BF9C09000000F001F832
:1009A00077E700B5F01719D0FFF767FFFFF7A3FE51
:1009B000F0170CD0FFF761FFFFF79DFEFFF7C7FFB1
:1009C000FFF799FEFFF759FFFFF795FE00BDFFF710
:1009D00092FEFFF7BCFFFFF750FF00BDFFF78BFE55
:1009E000F0170ED0FFF749FFFFF785FEFFF7AFFFC7
:1009F000FFF743FFFFF77FFEFFF73FFFFFF77BFEA9
:100A000000BDFFF778FEFFF7A2FF00BD8C090000D4
:100A10000000000002642F001C0A0000FFF7C1FF65
:100A200007CF043F386034E7100A000000000000E0
:100A300002322100380A000006CF3160726040CFD8
:100A400027E700BF2C0A000000000000023240002F
:100A5000540A0000043F70683860366819E700BF28
:100A6000480A00000000000002643C00700A000018
:100A700007CF8E4204DC01D1904201DC002608E75A
:100A80000026F64305E700BF640A000000000000EE
:100A900002643E00980A000007CFB14204DC01D195
:100AA000824201DC0026F4E60026F643F1E600BFB0
:100AB0008C0A0000000000000364303CC00A000003
:100AC0000437F617E5E600BFB40A00000000000096
:100AD0000364303DD80A000001CF002801D0002671
:100AE000D7E6013EB641D4E6CC0A00000000000083
:100AF00002643D00F80A000007CF904201D00026B2
:100B0000C7E6761A013EB641C3E600BFEC0A000014
:100B10000000000003733E641C0B000047F8046DE6
:100B2000F617B6E6100B00000101000004626173C5
:100B3000650000BF5E0F000018000000280B0000D9
:100B400000000000012B00BF4C0B000001CF361845
:100B50009FE600BF400B000000000000012D00BF19
:100B6000640B000001CF861B93E600BF580B00000A
:100B70000000000002312B007C0B000006F1010692
:100B800087E600BF700B00000000000002312D005E
:100B9000940B0000A6F101067BE600BF880B000065
:100BA0000000000002322B00AC0B000006F1020630
:100BB0006FE600BFA00B00000000000002322D0015
:100BC000C40B0000A6F1020663E600BFB80B0000EC
:100BD000000000000563656C6C2B00BFE00B00009B
:100BE000043656E6D00B0000000000000563656C7B
:100BF0006C7300BFF80B0000B6004AE6E80B00007B
:100C00000101000005737461746500BF260F0000C8
:100C100008020020000C0000010100000423746998
:100C2000620000BF260F00000C020020180C00001C
:100C300000000000037469623C0C000047F8046D7A
:100C4000004E26E688010020300C00000000000065
:100C500004636F6C640000BF5C0C00006D48854647
:100C60006D4FDFF8B88116E64C0C00000000000064
:100C700004717569740000BF8C080000F82A000038
:100C8000182B000080020000E81100000C0C00008E
:100C90006C02000040050000BE0F0000A40C000024
:100CA0003C18000080150000CC170000BE0F0000AB
:100CB000F00C0000D20F0000042600009018000085
:100CC00030010000BE0F0000F00C0000C800000062
:100CD000D20F0000FEFFFFFFC8050000BE0F00009E
:100CE000E80C000064170000B40F00007C0C00004A
:100CF000F8170000B40F00008C0C00006C0C000012
:100D0000000000000765786563757465100D0000CC
:100D1000B04657F8046BBEE5000D0000C0000000AF
:100D2000036B6579500F000010020020380D0000A1
:100D30006C020000800200008C080000EC0D000036
:100D4000A03C0000BE0F00003C0D0000743C000001
:100D50007C0000001C0D0000C0000000046B6579E1
:100D60003F0000BF500F000014020020A03C000014
:100D70006C02000080020000580D0000C00000005E
:100D800004656D69740000BF500F00001802002058
:100D90009C0D00006C020000800200008C08000026
:100DA000EC0D0000103D0000BE0F0000A00D000083
:100DB000D43C00007C0000007C0D0000C00000005E
:100DC00005656D69743F00BF500F00001C020020D4
:100DD000103D00006C02000080020000BC0D00000D
:100DE000C000000005706175736500BF500F000002
:100DF000200200200C0E00006C02000080020000A7
:100E0000E00D000000000000036E6F70100E000087
:100E10003FE50000000100208000002024110000B8
:100E2000040E00000000000006626F756E6473001F
:100E30008C080000F8000000480B0000B000000023
:100E40007C000000480E00002DE90018B34657F85A
:100E5000046BB44657F8046B0CF1004CABEB0C0B75
:100E600017E5660E00004FF0010004E0700E000070
:100E7000304657F8046B1BEB000B02D6D9F80090F4
:100E800007E509F10409BDE8001802E5240E000099
:100E90000000000006756E6C6F6F7000A00E000001
:100EA000BDE80018F5E400BF900E0000000000004F
:100EB000016900BFB80E000047F8046D0BEB0C068B
:100EC000E7E400BFAC0E000000000000016A00BFB4
:100ED000D40E000047F8046D03BC03B400EB010618
:100EE000D7E400BFC80E00000000000007616C6975
:100EF000676E6564F80E000003360320C0430640A9
:100F0000C7E48C080000A001000074280000E80875
:100F10000000480B0000F40E0000880100007C0077
:100F20000000260F000047F8046DD8F80060B0E418
:100F3000340F000047F8046D4646AAE4400F000055
:100F400047F8046DD8F800603668A2E4500F00003E
:100F5000D8F80080D8F800809DE45E0F000047F8C4
:100F6000046DD8F80060564493E46E0F000047F813
:100F7000046D46464DF8049D58F8049C09F1040997
:100F800087E400BFE80E0000000000000375704019
:100F9000940F000047F8046D56467AE4880F00006D
:100FA0000000000003757021AC0F0000B24657F836
:100FB000046B6EE4B80F0000D9F8009069E4C20F2A
:100FC0000000304657F8046B0028F5D019F10409E9
:100FD0005FE4D60F000047F8046DD9F8006019F1FE
:100FE000040956E4A00F00000000000007636F6DC5
:100FF00070617265F80F000000F002F8F64348E4F3
:1010000000B5314657F8046B01CF884202D040CF7B
:10101000002600BD02CF002806D001380A5C335CF0
:101020009A42F8D0002600BD0026F64300BD00BF5E
:10103000E80F000000000000013000BF260F000094
:10104000000000003410000000000000013100BF6B
:10105000260F000001000000481000000000000002
:10106000013200BF260F0000020000005C100000EB
:1010700000000000013400BF260F00000400000043
:101080007010000000000000022D3100260F00004B
:10109000FFFFFFFF84100000000000000474727561
:1010A000650000BF260F0000FFFFFFFF9810000043
:1010B000000000000566616C736500BF260F00002C
:1010C00000000000B010000000000000036E3E723F
:1010D000D41000003046314657F8046B40B4013854
:1010E000FAD102B457F8046BFFF7D3BBC810000065
:1010F00000000000036E723EFC10000002BC0846B7
:1011000047F8046D40BC47F8046D0138FAD10E462B
:10111000FFF7BFBBF0100000000000000477617211
:101120006D0000BF8C08000050270000E81100008F
:101130006C2C0000780C00007C00000018110000EE
:1011400000000000026372008C080000D20F000053
:101150000D000000880D0000D20F00000A00000002
:10116000880D00007C00000040110000000000001D
:1011700002626C00260F0000200000006C110000CD
:101180000000000005737061636500BF8C080000FB
:1011900074110000880D00007C0000008011000028
:1011A0000000000006737061636573008C08000026
:1011B0003C1000008C060000C8000000BE0F0000BC
:1011C000D41100008C110000900B0000B40F00003F
:1011D000B8110000980000007C000000A011000081
:1011E00000000000015B00BF8C0800003C10000004
:1011F0000C0C0000800200007C000000E0110000E8
:1012000010000000012800BF8C080000D20F000071
:1012100029000000FC1A00003C0700007C000000D0
:10122000001200000000000007646563696D616CD6
:101230008C080000D20F00000A000000340B0000F0
:10124000800200007C00000024120000000000006A
:10125000036865788C080000D20F000010000000C1
:10126000340B0000800200007C0000004C120000E3
:1012700000000000037061648C080000A0120000F0
:10128000D20F000028000000480B00007C00000086
:10129000701200000000000004686572650000BF65
:1012A0008C080000FC3200007C000000941200005A
:1012B0000000000005616C6C6F7400BF8C080000BA
:1012C000FC320000480B0000E4310000FC3200005A
:1012D0007C000000B01200000101000003686C6493
:1012E000260F000024020020D81200000000000099
:1012F00004686F6C640000BF8C080000E0120000FE
:10130000C80000006C020000900B0000C800000044
:1013100088010000B000000080020000A001000071
:10132000280500007C000000EC1200000000000016
:10133000023C23008C08000078120000E01200003C
:10134000800200007C0000002C1300000000000060
:10135000012300BF8C080000340B00006C02000069
:101360004409000010010000D20F00000900000035
:10137000F8000000C8050000BE0F00008C1300003C
:10138000D20F000007000000480B0000D20F000041
:1013900030000000480B0000F81200007C00000044
:1013A0004C13000000000000022373008C080000B2
:1013B00054130000E8080000E803000040050000A6
:1013C000BE0F0000B01300007C000000A41300005A
:1013D0000000000002233E008C0800003C070000D3
:1013E000E01200006C02000078120000F80000001B
:1013F000600B00007C000000D01300000000000023
:10140000047369676E0000BF8C080000700500005F
:10141000BE0F000024140000D20F00002D000000B9
:10142000F81200007C000000FC1300000000000027
:10143000012E00BF8C080000180B0000981400005B
:101440007C0000002C1400000000000003642E72D9
:101450008C080000880100005001000044080000D2
:1014600034130000AC130000100100000814000049
:10147000D8130000A0010000F8000000600B00007D
:10148000AC1100009C2800007C0000004814000003
:101490000000000002642E008C0800003C100000D8
:1014A000501400008C1100007C000000901400001B
:1014B0000000000002752E008C0800003C100000A7
:1014C000D41400007C000000B014000000000000F4
:1014D0000375642E8C0800003C100000F814000016
:1014E0008C1100007C000000CC1400000000000003
:1014F0000475642E720000BF8C0800008801000093
:1015000034130000AC130000D8130000A001000049
:10151000F8000000600B0000AC1100009C280000E7
:101520007C000000EC14000000000000022E73009C
:101530008C0800006C030000B81400008C1100003F
:101540006C0300003C10000010270000BE0F0000DC
:101550006C150000440E0000B40E00007001000085
:1015600034140000620E0000581500007C000000DA
:1015700028150000C000000006726566696C6C00EA
:10158000500F000028020020A81500006C02000087
:101590008002000074150000000000000A726566F9
:1015A000696C6C2D746962008C080000380C0000B6
:1015B000D20F000060000000E8150000240C0000BD
:1015C000800200003C100000E832000080020000B1
:1015D000A41000007C00000098150000000000002E
:1015E00006616363657074008C080000F8000000F9
:1015F000480B0000F8000000240D0000C8000000A7
:101600002817000040050000BE0F0000D81600009B
:10161000C8000000D20F00000800000054060000BF
:10162000BE0F0000701600009800000010010000BE
:10163000E8080000E8050000880100001001000033
:1016400010010000A0010000BE0F0000681600009D
:10165000F8160000900B000088010000F800000060
:10166000A0010000AC060000B40F0000D01600007E
:10167000C800000074110000C8050000BE0F000083
:101680008C16000098000000741100008801000012
:10169000E8080000E8050000A0010000B00000001C
:1016A000BE0F0000CC160000C8000000880D00002E
:1016B000F800000028050000780B0000F80000008A
:1016C000CC060000B40F0000D01600009800000007
:1016D000B40F0000F815000098000000E0000000C2
:1016E000B0000000600B00007C000000DC15000072
:1016F00000000000026273008C080000D20F00009E
:1017000008000000C8000000880D00008C110000D7
:10171000880D00007C000000F016000000000000B2
:10172000053F63726C6600BF8C080000C8000000B3
:10173000D20F00000D00000054060000B0000000B1
:10174000D20F00000A00000054060000E803000069
:101750007C0000001C170000C0000000062E65720F
:10176000726F7200500F00002C02002078170000EA
:101770006C020000800200008C080000020F0000D4
:1017800004203F3F200000BF9C280000340B0000D5
:101790006C020000880100003012000034140000C8
:1017A000E83200006C02000034140000A0010000C8
:1017B000340B0000800200007C000000581700007D
:1017C000C0000000062E696E70757400500F000096
:1017D00030020020E01700006C02000080020000D0
:1017E0008C080000481100007C000000C0170000B9
:1017F000C0000000032E6F6B500F00003402002069
:101800000C1800006C020000800200008C08000030
:101810000C0C00006C02000098000000020F000099
:1018200003206F6B9C2800007C000000F017000074
:10183000C0000000062E726561647900500F000040
:1018400038020020501800006C02000080020000E6
:101850008C08000048110000020F0000023E20002A
:101860009C2800007C0000003018000001010000EE
:101870000768616E646C65725E0F00001400000002
:101880006C1800000000000005636174636800BF0D
:101890008C08000014020000880100007818000085
:1018A0006C02000088010000D001000078180000E0
:1018B000800200000C0D0000A0010000781800005C
:1018C00080020000A0010000980000003C10000011
:1018D0007C0000008418000000000000057468729D
:1018E0006F7700BF8C08000030010000BE0F0000C1
:1018F00024190000781800006C020000E8010000C4
:10190000A00100007818000080020000A001000083
:10191000B0000000880100002C02000098000000C8
:10192000A00100007C000000D8180000C0000000EA
:1019300006736F7572636500500F00003C02002053
:10194000601900006C020000800200002C190000E9
:10195000000000000A736F757263652D7469620080
:101960008C080000380C0000240C00006C02000001
:101970007C0000005019000000000000063F737456
:1019800061636B008C0800006C03000070050000B0
:10199000BE0F0000A4190000D20F0000FCFFFFFFE3
:1019A000E41800007C00000078190000000000002E
:1019B00005637363616E00BF8C080000880100003E
:1019C000F8000000C800000014050000B801000085
:1019D0005406000040050000BE0F00000C1A000075
:1019E000B0000000900B0000B0000000F800000004
:1019F0007005000040050000BE0F00000C1A00003A
:101A0000780B0000B40F0000C4190000E0000000D3
:101A1000F8000000600B0000A0010000980000002A
:101A20007C000000AC190000000000000563736B2F
:101A3000697000BF8C08000088010000C800000029
:101A4000BE0F0000741A0000F8000000140500002A
:101A5000B801000054060000BE0F0000741A000018
:101A6000D20F0000010000004C1B0000B40F00006A
:101A70003C1A0000A0010000980000007C0000005B
:101A8000281A0000000000000A70617273652D6E54
:101A9000616D65008C08000074110000A41A00003C
:101AA0007C0000008C08000088010000381900004C
:101AB000E83200006C0200004C1B0000B80100007E
:101AC000341A0000A0010000B8190000E808000066
:101AD000480B00003819000098000000600B00005F
:101AE000E8320000800200007C000000841A000040
:101AF0000000000005706172736500BF8C08000073
:101B00008801000038190000E83200006C02000073
:101B10004C1B0000A0010000B8190000C800000024
:101B2000780B0000E8320000F8040000D20F00003B
:101B3000010000004C1B00007C000000F01A0000B7
:101B400000000000072F737472696E678C08000034
:101B500010010000F8000000480B00001001000018
:101B600010010000600B00007C000000401B000022
:101B70001000000008326C69746572616C0000BF6F
:101B80008C080000B0000000A41B0000A41B000093
:101B90007C000000701B000010000000076C6974DE
:101BA0006572616C8C080000C81B0000D20F000039
:101BB000F41B00007C000000981B000000000000E7
:101BC00007636F6D70696C658C080000A0010000F0
:101BD000C8000000DC0B0000880100006C0200005F
:101BE000F41B00007C000000BC1B00000000000093
:101BF000012C00BF8C080000A01200008002000031
:101C0000D20F000004000000BC1200007C000000A5
:101C1000EC1B00000000000002632C008C08000098
:101C2000A01200002805000050100000BC120000A7
:101C30007C0000008C0800006C020000D20F000045
:101C40001000000050010000D00300005406000006
:101C5000BE0F0000601C0000501000007C0000005F
:101C60008C1000007C000000141C0000000000002C
:101C7000096366672D6F7264657200BF340F0000E0
:101C800003000000AC330000A03D0000743D0000E4
:101C90006C1C0000000000000766696E642D7874FB
:101CA0008C080000D20F0000CC1C00007C1C00003F
:101CB0006426000040050000BE0F0000C81C0000A4
:101CC0003C0700003C1000007C0000008C08000075
:101CD00088010000E8080000A00100000C0D0000D1
:101CE0003C1E0000C8000000BE0F0000041D0000E4
:101CF00088010000E0000000E0000000A0010000FA
:101D0000A41000007C000000941C000000000000F3
:101D1000076E66613E6C66618C080000D20F0000A1
:101D200004000000600B00007C0000000C1D00009F
:101D300000000000076E6661326366618C08000077
:101D4000DC0B000074280000480B0000F40E0000BB
:101D50007C000000301D0000000000001174726162
:101D600076657273652D776F72646C69737400BFEA
:101D70008C080000C8000000BE0F0000B01D00006D
:101D8000E80800009C070000B00000000C0D0000F7
:101D9000B807000010010000BE0F0000B01D0000D9
:101DA000181D00006C020000B40F0000741D00003C
:101DB0003C0700007C000000581D000000000000EF
:101DC0000D73686F772D776F72646C69737400BFE1
:101DD0008C080000D20F0000E81D0000B0000000D9
:101DE000701D00007C0000008C080000EC1E00004C
:101DF0009C2800008C110000A41000007C00000052
:101E0000BC1D0000A00000000763757272656E744F
:101E1000400F000040020020AC3300006C020000C4
:101E200080020000041E0000000000000F736561C6
:101E30007263682D776F72646C6973748C0800002C
:101E4000880100003C100000D20F0000901E00002E
:101E5000A0010000701D0000C80000004005000047
:101E6000BE0F0000781E00003C0700009800000034
:101E70003C1000007C000000C80000003C1D000079
:101E8000B00000001C1F0000341C00007C0000009B
:101E90008C0800008801000098000000E80800009D
:101EA000B8010000EC1E0000F40F0000BE0F00009F
:101EB000C81E0000A0010000980000003C100000B7
:101EC000A41000007C0000003C070000A0010000FE
:101ED0003C1000007C000000281E000000000000F4
:101EE0000B6E616D653E737472696E678C080000DD
:101EF000DC0B000074280000D20F0000FF0000007F
:101F0000D00300007C000000DC1E00000000000088
:101F10000A6E616D653E666C616773008C08000037
:101F20007C0000000C1F000000000000026D2B0070
:101F30008C080000180B0000A80800007C000000BE
:101F4000281F0000000000000375642A8C080000B0
:101F5000C800000088010000080900009800000087
:101F6000B0000000A00100000809000010010000FE
:101F7000480B00007C000000441F0000000000002F
:101F80000677697468696E008C080000F80000002C
:101F9000600B000088010000600B0000A001000041
:101FA000080600007C0000007C1F0000000000000C
:101FB00007746F75707065728C080000C8000000AF
:101FC000D20F000061000000D20F00007B00000073
:101FD000881F0000BE0F0000E81F0000D20F0000A5
:101FE000DF000000D00300007C000000AC1F0000F8
:101FF000000000000664696769743F008C080000F7
:10200000B81F0000C8000000D20F00003900000017
:10201000E8050000D20F000000010000D00300001E
:10202000480B0000C8000000D20F00004001000073
:10203000E8050000D20F000007010000D0030000F7
:10204000600B0000D20F000030000000600B0000A9
:10205000C8000000340B00006C02000008060000FD
:102060007C000000F01F000000000000073E6E75BD
:102070006D6265728C080000C8000000BE0F000091
:10208000D8200000F800000014050000FC1F00002C
:1020900040050000BE0F0000A420000098000000D2
:1020A0007C00000088010000EC060000340B0000FA
:1020B0006C0200004C1F0000A0010000301F000057
:1020C000EC060000D20F0000010000004C1B0000D5
:1020D000B40F0000782000007C00000068200000A1
:1020E00000000000066E756D626572008C080000CD
:1020F000340B00006C020000880100000822000080
:10210000880100007C22000008220000A0010000DD
:10211000E803000088010000C8000000400500003E
:10212000BE0F0000482100003C070000A001000095
:1021300098000000A0010000340B000080020000A5
:102140003C1000007C0000009C0700003C100000D8
:102150003C100000B80700007420000030010000AF
:10216000BE0F0000D8210000D20F000001000000C7
:1021700054060000BE0F0000B4210000140500004A
:10218000D20F00002E00000054060000BE0F000019
:10219000B8210000A0010000BE0F0000A421000033
:1021A00070080000D20F000002000000B40F000011
:1021B000F4210000980000003C070000A00100008E
:1021C00098000000A0010000340B00008002000015
:1021D0003C1000007C0000003C070000A001000053
:1021E000BE0F0000EC2100009C020000D20F000096
:1021F00001000000A0010000340B0000800200007C
:10220000A41000007C0000008C080000F800000012
:1022100014050000D20F00002D000000540600003D
:10222000C800000088010000BE0F00003C22000032
:10223000D20F0000010000004C1B0000A0010000B4
:102240007C000000E02000000000000005626173D7
:10225000657300BF340F00000A000000100000008A
:10226000020000000A0000004822000000000000F8
:10227000087365742D626173650000BF8C080000EF
:10228000F800000014050000D20F00002300000039
:10229000600B0000C80000003C100000D20F0000DE
:1022A00004000000881F0000BE0F0000DC220000B8
:1022B000F40B000054220000480B00006C020000E8
:1022C000340B000080020000D20F0000010000006B
:1022D0004C1B0000B40F0000E0220000980000003A
:1022E0007C0000006C220000000000000C7265639E
:1022F000747970652D6E756C6C0000BF340F000032
:102300000C2300000C2300000C2300008C080000AC
:10231000D20F0000F3FFFFFFE4180000E8220000E6
:1023200000000000087265632D66696E640000BFDE
:102330008C080000A01C0000C80000004005000040
:10234000BE0F00005423000098000000FC22000093
:102350007C000000702300007C00000020230000AF
:10236000000000000A726563747970652D7874004E
:10237000340F00008023000090230000801B000029
:102380008C080000980000000C0D00007C0000008C
:102390008C08000070050000BE0F0000A82300009C
:1023A000F41B00007C0000000C0D00007C0000000D
:1023B00060230000000000000B7265637479706593
:1023C0002D6E756D340F00000C0E0000A41B000074
:1023D000A41B0000B4230000000000000C72656321
:1023E000747970652D646E756D0000BF340F000048
:1023F0000C0E0000801B0000801B0000D823000092
:1024000000000000077265632D6E756D8C0800007A
:10241000EC200000BE0F000040240000D20F00009E
:102420000100000054060000BE0F00003824000028
:10243000C42300007C000000EC2300007C000000AE
:10244000FC2200007C0000000024000000000000CE
:10245000097265632D73706C697400BF8C0800008D
:10246000802400007C0000004C24000000000000DC
:102470000D726563747970652D73706C697400BF3B
:10248000340F0000A0240000A0240000A0240000BD
:102490006C240000000000000573706C697400BFBC
:1024A0008C08000030150000481100009C28000036
:1024B000481100007C00000094240000000000008F
:1024C000097265632D747261636500BF8C0800003A
:1024D0009800000088010000020F000003207C200B
:1024E000A001000038190000480B0000F8000000AF
:1024F000600B00009C28000048110000FC22000036
:102500007C000000BC240000A000000010666F7278
:1025100074682D7265636F676E697A65720000BFBB
:10252000400F000044020020502500006C02000013
:102530008002000008250000000000000E636667AE
:102540002D7265636F676E697A657200340F0000E3
:1025500002000000302300000C2400003825000099
:1025600000000000097265636F676E697A6500BFDD
:102570008C080000D20F00009C250000B000000075
:102580006426000040050000BE0F000098250000F2
:102590003C070000FC2200007C0000008C080000CA
:1025A0001001000010010000E80800009C07000076
:1025B000100100000C0D0000B80700001001000021
:1025C000C8000000FC22000054060000BE0F0000FE
:1025D000E0250000980000003C1000007C00000096
:1025E000E0000000E0000000A41000007C000000FB
:1025F000602500000000000009696E746572707249
:10260000657400BF8C080000941A0000C800000028
:10261000BE0F0000482600002025000070250000A5
:102620000C0C00006C020000BE0F000034260000FD
:10263000DC0B00006C0200000C0D0000841900008F
:10264000B40F0000082600003C0700007C000000DA
:10265000F425000000000000096D61702D737461A5
:10266000636B00BF8C080000C8000000DC0B00009A
:10267000B00000006C020000F40B0000300E0000FF
:1026800010270000BE0F0000D8260000440E0000F6
:10269000B40E00006C020000B000000088010000D1
:1026A000B80100000C0D000030010000BE0F00005A
:1026B000C4260000A0010000980000009C0E00004D
:1026C0007C000000A0010000D20F00000400000008
:1026D0006C0E000090260000980000003C100000E6
:1026E0007C0000005426000010000000033F646FCF
:1026F0008C080000C81B000010270000F82B000009
:10270000602F0000B00000005C2B00007C00000087
:102710008C080000E808000054060000C800000013
:1027200088010000BE0F0000302700003C070000B9
:10273000A0010000300400007C000000E82600003A
:102740000000000008696E69742D72616D0000BFA1
:102750008C080000D20F000000010020A80F00002C
:10276000D20F0000A03D000094320000C80000001D
:10277000DC0B00006C020000B00000006C020000E6
:1027800080020000D20F000098270000A03D00004A
:10279000701D00007C0000008C080000C8000000D4
:1027A0001C1F00006C020000D20F0000800000001F
:1027B000C800000010010000D00300005406000013
:1027C000BE0F0000F02700003C1D00009432000006
:1027D000C8000000DC0B00006C020000B00000002C
:1027E0006C02000080020000A41000007C000000C9
:1027F00098000000A41000007C00000040270000AA
:1028000000000000037665728C080000D0330000E1
:102810009C2800008C110000340B00006C020000AA
:10282000F433000030120000180B000034130000D5
:1028300054130000D20F00002E000000F812000018
:10284000AC130000D81300009C280000340B0000DB
:10285000800200008C110000103400009C28000051
:102860007C000000002800000000000005636F7578
:102870006E7400BF8C080000C8000000780B0000D8
:10288000B0000000140500007C0000006828000073
:102890000000000004747970650000BF8C0800001F
:1028A000300E000010270000BE0F0000C8280000F6
:1028B000440E0000B40E000014050000880D000056
:1028C000620E0000B42800007C0000009028000088
:1028D0000000000005697479706500BF8C08000075
:1028E0009C2800007C000000D028000010000000A0
:1028F000027322008C080000D20F000022000000AA
:10290000FC1A00000C0C00006C020000BE0F00005E
:1029100018290000AC2900007C000000EC28000011
:1029200010000000022E22008C080000F428000095
:10293000C81B00009C2800007C000000202900002B
:102940000000000002732C008C080000C80000008A
:102950001C1C00003C10000010270000BE0F0000EF
:1029600080290000440E0000C8000000140500008B
:102970001C1C0000780B0000620E0000682900009B
:1029800098000000FC320000F40E0000E43100006A
:10299000FC3200007C000000402900001000000014
:1029A00008736C69746572616C0000BF8C0800006C
:1029B000C81B0000020F0000482900007C00000036
:1029C0009C2900000000000005776F72647300BF4F
:1029D0008C080000A03D0000D01D00007C0000001D
:1029E0008C080000FC3200007C0000008C08000015
:1029F00084190000F41B00007C0000008C0800001B
:102A0000FC320000C81B0000FFFFFFFF7C0000003D
:102A10008C08000084190000FC320000B0000000A7
:102A2000800200007C000000C429000010000000AB
:102A300005616865616400BF8C080000C81B000068
:102A4000B40F0000FC2900007C0000002C2A0000CC
:102A50001000000005626567696E00BF8C08000009
:102A6000E02900007C000000502A00001000000057
:102A7000047468656E0000BF8C080000102A000016
:102A80007C0000006C2A00001000000005756E74C8
:102A9000696C00BF8C080000D20F0000BE0F000060
:102AA000F41B0000EC2900007C000000882A0000D4
:102AB00010000000057768696C6500BF8C08000095
:102AC000F82B0000B00000007C000000B02A0000DD
:102AD0001000000006726570656174008C080000CB
:102AE000482C0000782A00007C000000D02A00005A
:102AF000A0000000036C7030400F0000480200206E
:102B0000080200206C02000080020000F02A000091
:102B100001010000026C7000260F00004C02002032
:102B2000102B000000000000026C3E008C0800002A
:102B3000182B00006C0200006C020000D20F000095
:102B400004000000182B0000F80400007C000000C6
:102B5000242B000000000000023E6C008C080000E6
:102B6000D20F0000FCFFFFFF182B0000F80400004C
:102B7000182B00006C020000800200007C000000A6
:102B8000542B000010000000056C6561766500BFE5
:102B90008C080000C81B00009C0E0000382A0000B2
:102BA0005C2B00007C000000842B00000000000073
:102BB00009696D6D65646961746500BF8C0800000A
:102BC000B43200000C0D0000C8000000D20F00005D
:102BD00010000000100100006C020000E80300007B
:102BE000B0000000800200007C000000AC2B000060
:102BF00010000000026966008C080000C81B00007D
:102C0000BE0F0000FC2900007C000000F02B00003B
:102C10001000000004656C73650000BF8C080000A4
:102C2000C81B0000B40F0000FC290000B000000029
:102C3000102A00007C000000102C00001000000092
:102C400005616761696E00BF8C080000C81B000049
:102C5000B40F0000EC2900007C0000003C2C0000B8
:102C6000C0000000077475726E6B6579500F00002C
:102C700050020020B83500006C0200008002000005
:102C8000602C000000000000012700BF8C0800003D
:102C9000941A00002025000070250000C8000000E4
:102CA000FC22000054060000B00000006C0200008E
:102CB000D20F00000C0E000054060000E8030000D4
:102CC000BE0F0000D42C0000D20F0000F3FFFFFF66
:102CD000E4180000980000007C000000842C000034
:102CE000000000000561626F727400BF8C08000074
:102CF000A4100000E4180000E02C00001000000008
:102D00000661626F727422008C080000F4280000D3
:102D1000C81B0000E43000007C000000FC2C000018
:102D200010000000015C00BF8C0800003819000092
:102D3000E0000000E8320000800200007C0000009B
:102D4000202D000010000000065B636861725D00CA
:102D50008C080000C81B0000D20F0000C02D00002E
:102D6000F41B00007C000000442D00001000000057
:102D7000095B636F6D70696C655D00BF8C08000056
:102D8000C81B0000C81B00008C2C0000F41B0000B6
:102D90007C0000006C2D000010000000035B275D2C
:102DA0008C0800008C2C0000A41B00007C0000009C
:102DB000982D00000000000004636861720000BFED
:102DC0008C080000941A000040050000BE0F0000AF
:102DD000E02D0000D20F0000F0FFFFFFE41800001C
:102DE000140500007C000000B42D0000000000006D
:102DF000073A6E6F6E616D658C080000A0120000CE
:102E0000C80000001C30000080020000C81B000049
:102E10008C080000743100007C000000EC2D0000E4
:102E200000000000013A00BF8C0800001C2F0000C9
:102E3000F82D0000980000007C000000202E00000B
:102E40000000000008636F6E7374616E740000BF51
:102E50008C0800001C2F000038310000C81B000047
:102E6000260F0000F41B00007C000000402E000034
:102E70000000000006637265617465008C08000044
:102E80001C2F000038310000C81B0000260F000076
:102E90007C000000702E00000000000006646566E3
:102EA000657240008C08000094320000C8000000E9
:102EB0006C020000B0000000DC0B0000DC0B000026
:102EC0006C0200000C0D00007C000000982E000039
:102ED0000000000006646566657221008C08000031
:102EE00094320000C80000006C020000B000000036
:102EF000DC0B0000DC0B0000DC0B00006C020000AF
:102F00000C0D00007C000000D02E0000000000002E
:102F10000828637265617465290000BF8C08000091
:102F2000941A000070320000302F00007C00000076
:102F30008C080000C800000058300000DC0B0000C6
:102F400080020000C42F0000583000008002000002
:102F50007C0000000C2F00001000000002646F00D5
:102F60008C080000C81B0000440E0000E02900008F
:102F70003C1000005C2B00007C000000582F00007B
:102F80001000000007656E646C6F6F708C080000A5
:102F9000EC2900002C2B000030010000BE0F0000C7
:102FA000B02F0000782A0000B40F0000942F00001A
:102FB0007C000000802F00000000000006686561B2
:102FC000646572008C080000F8000000CC3200003C
:102FD000BE0F0000003000000C0D0000F41B0000CC
:102FE000A012000088010000D20F000000000000C5
:102FF000F41B000048290000A00100007C00000034
:10300000D20F0000F0FFFFFFE4180000B82F00000F
:1030100001010000066C617465737400260F0000E6
:10302000540200201030000010000000046C6F6F8C
:10303000700000BF8C080000C81B0000620E00007A
:103040008C2F00007C0000002830000001010000EF
:10305000066E657765737400260F00005802002025
:103060004C30000010000000052B6C6F6F7000BF2B
:103070008C080000C81B00006C0E00008C2F0000A4
:103080007C000000643000001000000008706F73C6
:1030900074706F6E650000BF8C080000941A000009
:1030A0002025000070250000C800000088010000F5
:1030B000DC0B0000DC0B00006C0200000C0D0000BB
:1030C000A0010000DC0B00006C020000F41B0000FB
:1030D0007C0000008830000000000000063F6162B4
:1030E0006F7274008C08000010010000BE0F000019
:1030F000FC3000009C280000EC2C00003C07000085
:103100007C000000D83000001000000007726563EA
:10311000757273658C0800001C3000006C020000A2
:10312000F41B00007C0000000831000000000000DB
:103130000672657665616C008C08000058300000EE
:10314000DC0B00006C02000030010000BE0F00002C
:1031500064310000583000006C020000B000000034
:10316000043200007C0000002C3100000000000050
:10317000015D00BF8C080000501000000C0C000026
:10318000800200007C0000006C3100001000000094
:10319000013B00BF8C080000C81B00007C00000041
:1031A000E8110000383100007C0000008C31000084
:1031B0001000000002746F008C0800008C2C0000CE
:1031C000943200000C0C00006C020000BE0F0000E6
:1031D00008320000C81B0000E4310000F41B0000AE
:1031E0007C0000008C080000A0010000C800000066
:1031F000DC0B0000880100006C02000004320000BB
:103200007C0000008C080000DC0B0000C8000000FF
:103210006C020000B0000000DC0B0000DC0B0000C2
:10322000DC0B00006C0200000C0D00007C000000B4
:10323000B031000000000000087661726961626CC4
:10324000650000BF8C080000A0120000502E000096
:10325000D20F000004000000BC1200007C0000003F
:1032600034320000C000000007776C73636F706534
:10327000500F000060020020B43200006C02000019
:10328000800200006432000000000000053E626F12
:10329000647900BF8C080000DC0B00007C0000009B
:1032A00088320000000000000B6765742D637572A2
:1032B00072656E748C080000101E00007C00000017
:1032C000A43200000000000002303E008C08000024
:1032D0003C100000E80500007C000000C432000043
:1032E00001010000033E696E260F00006402002009
:1032F000E0320000A000000002647000400F0000F7
:10330000680200207C0200206C02000080020000A5
:10331000F4320000000000000755646566657240E5
:103320008C080000900F0000480B00006C020000A9
:103330007C000000143300000000000007556465A5
:10334000666572218C080000900F0000480B000099
:10335000800200007C000000383300000000000004
:1033600008776F72646C6973740000BF8C0800008A
:10337000A0120000D20F000004000000BC120000E8
:10338000C80000003C100000B000000080020000F7
:103390007C0000005C330000A00000000C72616D36
:1033A0002D776F72646C6973740000BF400F00006A
:1033B0006C020020000000006C020000800200008F
:1033C0006A00000000000000046E616D650000BF2F
:1033D0008C080000020F000007616D666F72746850
:1033E0007C000000C4330000000000000776657216
:1033F00073696F6E8C080000D20F0000450000005A
:103400007C000000E83300000000000003637075DA
:103410008C080000020F000009434F525445582DFC
:103420004D3400BF7C0000000834000000000000A4
:10343000052F7573657200BF8C080000D20F000065
:10344000880000007C0000009833000000000000AD
:10345000086C65642D696E69740000BF60340000FB
:1034600005484FF02001016004484FF00E01016053
:1034700003480160FDF70DBA08E10F400054024017
:103480001C5502404C3400000000000005677265C6
:10349000656E00BF983400004FF0080101480160DC
:1034A000FDF7F7B9FC53024088340000000000002B
:1034B00004626C75650000BFBC3400004FF004016D
:1034C00001480160FDF7E5B9FC530240AC3400004F
:1034D0000000000003726564DC3400004FF002015C
:1034E00001480160FDF7D5B9FC530240D03400001B
:1034F0000000000005776869746500BF00350000B2
:103500004FF00E0101480160FDF7C3B9FC530240C2
:10351000F0340000000000000679656C6C6F7700E5
:10352000243500004FF00A0101480160FDF7B1B9F0
:10353000FC53024014350000000000000463796170
:103540006E0000BF483500004FF00C0101480160DB
:10355000FDF79FB9FC530240383500000000000021
:10356000076D6167656E74616C3500004FF0060190
:1035700001480160FDF78DB9FC5302405C35000045
:103580000000000005626C61636B00BF90350000B5
:103590004FF0000101480160FDF77BB9FC53024088
:1035A00080350000000000000C6170706C2D747597
:1035B000726E6B65790000BF8C080000301200004D
:1035C0005C340000EC3B0000082800008C11000077
:1035D000703600009C280000481100000C360000E6
:1035E0009C2800008C1100004C3600009C28000034
:1035F000D03A00007C000000A4350000000000006C
:103600000A6275696C642D696E666F008C08000033
:10361000020F00001E2053756E204F637420313856
:103620002031383A32323A32332043455354203233
:10363000303230007C000000FC350000000000004B
:10364000087265762D696E666F0000BF8C080000F9
:10365000020F000004323435340000BF7C0000004B
:103660002C3400000000000005626F61726400BF2E
:103670008C080000020F0000094C4D3446313230F6
:10368000584C00BF7C0000003C36000000000000E9
:103690000621666C617368009C360000304657F85E
:1036A000046B314657F8046BB1F1FF3F13D010F0B3
:1036B0000302002A0FD10268B2F1FF3F0BD1074A83
:1036C0001160074A1060074A074B1360136813F034
:1036D0000103002BFAD1FDF7DCB8000004D00F4045
:1036E00000D00F4008D00F40010042A48C360000EB
:1036F00000000000077721666C61736800370000E6
:10370000304657F8046B314657F8046B4FF6FF7399
:1037100019409942DFD010F00102002ADBD1028863
:103720009A42D8D110F00202002A04D0023802884E
:1037300009041143C3E7821C13881B041943BEE725
:10374000F036000000000000076321666C617368BA
:1037500054370000304657F8046B314657F8046B75
:1037600011F0FF01FF29B6D00278FF2AB3D110F083
:103770000102002A04D00138027809021143D1E77E
:10378000421C13781B021943CCE7FDF782B800BF37
:1037900044370000000000000E666C6173687061C1
:1037A0006765657261736500AC3700000FB4304621
:1037B00057F8046B064A1060064A074B13601368FB
:1037C00013F00203002BFAD10FBCFDF762B8000022
:1037D00000D00F4008D00F40020042A494370000F0
:1037E0000000000008696E666C6173683F0000BFEE
:1037F0008C080000BC1000007C000000E0370000D6
:10380000000000000A6361636865666C7573680098
:103810008C0800007C000000003800000000000060
:10382000063F6173636969008C080000C8000000EE
:10383000D20F000020000000C8050000BE0F0000ED
:103840005838000098000000D20F00002E00000041
:10385000B40F00007C380000C8000000D20F000048
:103860007E000000E8050000BE0F00007C3800006C
:1038700098000000D20F00002E0000007C00000025
:103880001C38000000000000052E3268657800BF7B
:103890008C080000340B00006C020000880100005E
:1038A00054120000180B00003413000054130000E1
:1038B00054130000D81300009C280000A001000051
:1038C000340B0000800200007C00000084380000FF
:1038D00000000000052E3468657800BF8C080000E9
:1038E000340B00006C02000088010000541200003C
:1038F000180B000034130000541300005413000090
:103900005413000054130000D81300009C2800003A
:10391000A0010000340B0000800200007C000000C9
:10392000D038000000000000052E3868657800BF20
:103930008C080000340B00006C02000088010000BD
:1039400054120000180B0000341300005413000040
:1039500054130000541300005413000054130000CB
:10396000541300005413000054130000D813000037
:103970009C280000A0010000340B00008002000021
:103980007C00000024390000000000000464756D14
:10399000700000BF8C080000B0000000D20F0000D3
:1039A000F0FFFFFFD0030000B0000000481100004E
:1039B0003C100000440E0000C80000003039000038
:1039C0008C110000D20F0000100000003C1000001D
:1039D000440E0000C8000000B40E0000480B0000B8
:1039E00014050000903800008C110000620E0000E9
:1039F000D43900008C1100008C110000D20F00009F
:103A0000100000003C100000440E0000C800000040
:103A1000B40E0000480B0000140500002838000018
:103A2000880D0000620E00000C3A0000D20F00006A
:103A300010000000480B000048110000D20F0000E9
:103A4000100000006C0E0000B83900009800000063
:103A50007C0000006A000000000000000E4E564985
:103A6000435F53545F4354524C5F5200260F000093
:103A700010E000E0583A000000000000104E5649E7
:103A8000435F53545F52454C4F41445F520000BF67
:103A9000260F000014E000E0783A0000000000006B
:103AA000114E5649435F53545F43555252454E544D
:103AB0005F5200BF260F000018E000E09C3A0000B3
:103AC000000000000A64656C61792D696E697400FC
:103AD0008C0800003C1000006C3A000080020000DE
:103AE000D20F0000FFFFFF00903A000080020000AC
:103AF0003C100000B43A00008002000050100000AA
:103B00006C3A0000800200007C000000C03A000017
:103B1000000000000B64656C61792D7469636B7340
:103B20008C080000D20F00000800000064040000B0
:103B3000B43A00006C020000D20F00000800000040
:103B400064040000EC0D0000E8080000B43A000036
:103B50006C020000D20F00000800000064040000A6
:103B6000600B000008060000BE0F0000443B000090
:103B70003C0700007C0000008839000000000000C5
:103B8000027573008C080000D20F000004000000D2
:103B900000030000203B00007C0000007C3B000094
:103BA00000000000026D73008C0800003C10000053
:103BB00010270000BE0F0000D43B0000440E0000A0
:103BC000D20F0000A00F0000203B0000620E00009A
:103BD000C03B00007C000000A03B00000000000093
:103BE00009756172742D696E697400BFF03B000045
:103BF0000121114801603F21104801600321104854
:103C000001601048016000210F48016008210F4841
:103C100001602C210E48016070210E4801600521D1
:103C20000D48016000210D48016040F20131064855
:103C30000160FCF72EBE000018E60F4008E60F40BA
:103C4000204400401C45004030C0004024C00040DB
:103C500028C000402CC00040C8CF004018C0004021
:103C6000DC3B0000000000000A73657269616C2D86
:103C70006B657900783C000047F8046D02480668DF
:103C8000F6B2FCF706BE000000C00040643C000035
:103C9000000000000B73657269616C2D6B65793FE4
:103CA000A43C000047F8046D00260448016811F0A8
:103CB000100100D1F643FCF7ECBD000018C0004035
:103CC000903C0000000000000B73657269616C2D70
:103CD000656D6974D83C00000548006810F020004C
:103CE000FAD10448066057F8046BFCF7D2BD000017
:103CF00018C0004000C00040C43C000000000000AC
:103D00000C73657269616C2D656D69743F0000BF4D
:103D1000143D000047F8046D4FF0000604480168A8
:103D200011F0200101D16FEA0606FCF7B2BD0000D8
:103D300018C00040FC3C0000A00000000C61726D47
:103D40002D776F72646C6973740000BF400F0000C0
:103D500070020020103B00006C0200008002000096
:103D6000383D0000A00000000B656E7669726F6E32
:103D70006D656E74400F0000740200206436000010
:103D80006C02000080020000643D0000A000000002
:103D90000E666F7274682D776F72646C697374004D
:103DA000400F0000780200208C3D00006C020000F3
:043DB000800200008D
:00000001FF
