:020000020000FC
:02000400EDD03D
:02000800EBD03B
:02000C00E9D039
:02001000E7D037
:02001400E5D035
:02001800E3D033
:02001C00E1D031
:02002000DFD02F
:02002400DDD02D
:02002800DBD02B
:02002C00D9D029
:02003000D7D027
:02003400D5D025
:02003800D3D023
:02003C00D1D021
:02004000CFD01F
:02004400CDD01D
:02004800CBD01B
:02004C00C9D019
:02005000C7D017
:02005400C5D015
:02005800C3D013
:02005C00C1D011
:02006000BFD00F
:02006400BDD00D
:02006800BBD00B
:02006C00B9D009
:02007000B7D007
:02007400B5D005
:02007800B3D003
:02007C00B1D001
:02008000AFD0FF
:02008400ADD0FD
:10008800ABD000400010FFFF23000B0041546D650A
:10009800676131323834500007FF3E72782D62753F
:1000A800660000005700082F10911001E0E0F1E011
:1000B800E10FF31D008313951F70109310018991B0
:1000C80099910C9404F006FF6973722D72785000B0
:1000D80000F045F0C600A9F0C2F045F00300F0F3C7
:1000E8003EF077006BFA560025F000F045F06C0002
:1000F80045F02800BCFD45F0000145F0160065F10B
:10010800CAF425F006FF72782D627566670000F064
:10011800A6003EF08C0045F01101A9F0C2F045F0B0
:100128000001AEF1A9F0D5F040F245F00F0024F23D
:1001380045F011019EF025F007FF72783F2D62759A
:100148006600860000F063FA45F01101A9F045F059
:100158001001A9F022F125F007FF74782D706F6C5B
:100168006C00A00000F0C4003EF0B70045F0C600E7
:100178009EF025F008FF74783F2D706F6C6CB0000E
:1001880000F063FA45F0C000A9F045F0200024F221
:1001980025F004FF75627272BE0080F0A000CAFBF1
:1001A800D4FB06FF2B7573617274CD0000F045F027
:1001B800980045F0C1009EF045F0060045F0C200E9
:1001C8009EF0D100C2F00AF345F0C5009EF045F05C
:0801D800C4009EF0790025F03F
:040000000C946CFAF6
:1001E0000A920FB60A920F900F900A94BB2001F06A
:1001F000B02CFF93EF93E2E1F1E00694E00DF31DE4
:10020000008003940082EF91FF9109900FBE099046
:10021000089502FF6D2BD50000F08EFD46F425F009
:1002200003FF75642A00090100F0C2F010F1F1F13A
:10023000EAF0D5F007F1F1F1F2F0AEF125F004FFAC
:10024000756D6178100100F060F56DF13EF02901E7
:10025000D5F0EAF025F004FF756D696E1F0100F01E
:1002600060F578F13EF03501D5F0EAF025F000F0C8
:1002700045F0008024F229F13EF04001F7F325F02B
:100280005CF125F00AFF6E616D653E666C61677317
:100290002B0100F0D8F345F000FF24F225F003FF16
:1002A000316D730042015401E0EDF7E03197F1F751
:1002B0000C9404F006FF6E65776573744F0153F07C
:1002C000350106FF6C61746573745A0153F039018E
:1002D00008FF2863726561746529610100F0B9F94E
:1002E000D0027B0125F00BFF286372656174652DD8
:1002F000696E2900680100F0C2F05F0159F592F0C3
:10030000B5025F0192F025F001005C00730100F07E
:10031000A0F901F179F592F025F00100280084019F
:1003200000F045F029008CF969F525F007FF636FAF
:100330006D70696C65008D0100F007F1C2F0C1FBC2
:1003400010F1D8F3A70125F001FF2C00960100F071
:10035000A9F57AF3A9F540F2AFFBAAF525F0030061
:100360005B275D00A40100F005F8BD0125F0070042
:100370006C69746572616C00AF0100F09C0145F01E
:10038000A70125F00800736C69746572616CB70190
:1003900000F09C0168F776F725F000F0A9F59C01C4
:1003A000FFFF25F000F06DFBA9F5D5F07AF325F0FD
:1003B00000F0A9F525F000F06DFBA70125F0050080
:1003C000616865616400C20100F09C0134F0CD01F8
:1003D00025F002006966DF0100F09C013EF0CD01CE
:1003E00025F00400656C7365E90100F09C0134F0B0
:1003F000CD01D5F0D20125F004007468656EF101DD
:1004000000F0D20125F00500626567696E00FC010D
:1004100000F0D80125F005007768696C65000302DB
:1004200000F0EC01D5F025F006007265706561748E
:100430000B0200F02D02000225F00500756E7469B4
:100440006C00140200F045F03EF0A701DB0125F03E
:100450000500616761696E001D0200F09C0134F0C7
:10046000DB0125F00200646F280200F09C01ACF271
:10047000D80165F1900225F004006C6F6F703202B4
:1004800000F09C01DAF2770225F005002B6C6F6F0B
:1004900070003C0200F09C01CBF2770225F00500D1
:1004A0006C6561766500450200F09C01E5F2E401AF
:1004B000900225F003003F646F004F0200F09C01A2
:1004C0006602EC013502D5F0900225F000F060F5EF
:1004D000F0F3C2F010F13EF06E0269F507F10EF292
:1004E00025F007FF656E646C6F6F70005A0200F0B4
:1004F000DB018402CAF03EF08002000234F079028F
:1005000025F002FF6C3E710200F0A3028AF08AF02F
:1005100045F0FEFFA30276F225F002FF3E6C810259
:1005200000F0FCF3A30276F2A3028AF092F025F029
:1005300003FF6C7030008D0280F05200CAFBD4FBC8
:1005400002FF6C70980253F03B0106FF6372656115
:100550007465A00200F06E01D9029C0160F025F0E4
:1005600006FF686561646572A50200F0A9F510F1E7
:1005700010F1C2F037F13EF0C702C2F045F000FFC3
:100580002DF27AF707F166F3A70107F125F045F0A0
:10059000F0FF3CF807FF776C73636F706500B00283
:1005A00029FC4E00CAFBD4FB06FF72657665616CC0
:1005B000CA0200F05F0159F58AF0CAF03EF0E40289
:1005C0005F018AF0D5F042F325F00500646F657392
:1005D0003E00D40200F09C01FD029C010E949C019F
:1005E000F20225F09A938A93CB0101967F916F9145
:1005F000BF93AF93DB010C9404F000F007F15F01AF
:1006000059F58AF066F394FC7AF325F001FF3A007D
:10061000E50200F06E011403EAF025F007FF3A6EE0
:100620006F6E616D6500060300F0A9F5C2F066010A
:1006300092F09C0100F0290325F001003B000E031D
:1006400000F09C0125F03103D90225F001FF5D0087
:100650001D0300F0F7F346F592F025F001005B0072
:10066000260300F065F146F592F025F008FF76616B
:10067000726961626C652E0300F0BAF54803FCF301
:10068000C3F525F008FF636F6E7374616E743603F3
:1006900000F06E01D9029C0153F0A70125F004FF80
:1006A00075736572420300F06E01D9029C0166F019
:1006B000A70125F0070072656375727365004F032B
:1006C00000F066018AF0A70125F009FF696D6D65EC
:1006D0006469617465005A0300F00E0466F3C2F0A9
:1006E000D8F345F0FF7F24F2D5F07AF325F0060029
:1006F0005B636861725D650300F09C0145F0EAF898
:10070000A70125F0060061626F727422770300F082
:10071000BCF49C01990325F005FF61626F727400BF
:10072000820300F05CF13CF806FF3F61626F727477
:100730008C0300F0F2F03EF09F039BF7910369F504
:1007400025F009FF6765742D737461636B00940372
:1007500000F0C2F059F5D5F066F3C2F010F165F182
:10076000D5F066023EF0BF03ACF2BDF246F253F59F
:10077000E0F0AEF166F3D5F05CF1CBF2B50369F5CC
:1007800007F125F009FF7365742D737461636B00C5
:10079000A10300F0E0F030F13EF0D10345F0FCFFA2
:1007A0003CF860F542F3D5F065F166023EF0DE03F9
:1007B000ACF259F571F542F3DAF2D903EAF025F01B
:1007C00009FF6D61702D737461636B00C20300F0EB
:1007D000C2F059F5D5F066F353F585FD66023EF09B
:1007E0000304ACF2BDF266F3D5F010F117F12FF06F
:1007F000CAF03EF0FF0307F1EAF0E5F225F007F159
:10080000FCF3CBF2F203EAF065F125F00BFF67652C
:10081000742D63757272656E7400E00300F045F02C
:10082000580066F325F009FF6366672D6F726465F3
:100830007200060453F05C0008FF6366672D726562
:100840006373130453F06E0007FF636F6D70617282
:1008500065001C042B04BF93AF938C01899199917F
:10086000DC01899199919C0189919991FC01ED900C
:10087000F190EF1451F40A9519F02A95C1F701C0CF
:100880002A95022B11F4882702C08FEF00C0982F01
:10089000AF91BF910C9404F007FF6E66613E6C66E9
:1008A0006100240400F088FC40F215F2AEF125F05E
:1008B0000BFF7365742D63757272656E74004C0462
:1008C00000F045F0580042F325F008FF776F72649E
:1008D0006C697374580400F0B2F565F1E0F042F30E
:1008E000C2F059F5AFFBB3F525F00EFF666F7274D9
:1008F000682D776F72646C697374650453F05A00E5
:1009000004FF636F6465750400F06E01D902A9F5F8
:10091000C1FBA70125F008FF656E642D636F646558
:10092000800400F09C010C949C0104F025F008FF69
:10093000286D61726B6572298B0480F07A00CAFBA6
:10094000D4FB0800706F7374706F6E65970400F0CD
:10095000B9F9D9FAE4FAC2F010F1C1FBC1FBD8F33E
:100960002FF007F1C1FBD8F3A70125F00BFF617051
:10097000706C7475726E6B657900A10400F0DA001A
:10098000ACFD7AFB25F002FF2E73B60400F0AEFA40
:1009900079F4DDF7AEFA65F166023EF0D504ACF20B
:1009A000BDF2AAF479F4DAF2D00425F00AFF6275F8
:1009B000696C642D696E666FC30400F068F71500FA
:1009C0004F63742031382C20323032302031383AA5
:1009D00032323A34350025F005FF706C61636500F2
:1009E000D60400F060F59EF040F2D5F013FD25F03E
:1009F00004FF776F7264EC0400F0BDF9BAF5F104FE
:040A0000BAF525F02E
:020000021000EC
:10E00000BF93AF93DB011196B21499F4FD0155272C
:10E01000EE0FFF1F551F5BBF679177911196FB01B4
:10E020005527EE0FFF1F551F5BBF07911791F80192
:10E0300009949A938A938B2DBB24992768ED7DEFE1
:10E04000EECF04FF65786974F80426F0AF91BF91B4
:10E05000DBCF07FF657865637574650021F030F0EC
:10E06000BC0189919991DBCF35F0FD015527EE0F69
:10E07000FF1F551F5BBFA791B791C6CF3FF0982BED
:10E080008991999191F31196BFCF46F09A938A9313
:10E09000FD015527EE0FFF1F551F5BBF879197911D
:10E0A0001196B2CF53F09A938A93FB01319655277C
:10E0B000EE0FFF1F551F5BBF87919791A5CF60F0B3
:10E0C0009A938A93CB0101969FCF66F09A938A9395
:10E0D000FB0131965527EE0FFF1F551F5BBF879140
:10E0E0009791840D951D90CF07FF2876616C75651B
:10E0F000290029F000F06E01D9029C0180F025F082
:10E100000E94F202C2F0C1FBD8F32FF025F001FF0C
:10E11000400074F08BF0FC018191919175CF01FF6B
:10E12000210087F093F0FC0189919991918380837C
:10E130008991999169CF02FF63218FF09FF0FC01D3
:10E14000899199918083899199915ECF02FF634073
:10E150009BF0AAF0FC019927808156CF02FF407501
:10E16000A6F000F013F3AEF18AF025F002FF21755E
:10E17000AEF000F013F3AEF192F025F003FF6475FA
:10E180007000B6F0C3F09A938A933ECF04FF3F64C9
:10E190007570BEF0CBF0082F092B11F09A938A937B
:10E1A00033CF04FF73776170C6F0D6F08C0189918C
:10E1B00099911A930A9328CF04FF6F766572D1F074
:10E1C000E1F09A938A938A819B811ECF04FF647247
:10E1D0006F70DCF0EBF08991999116CF03FF726FAD
:10E1E0007400E6F0F3F08C012991399189919991AD
:10E1F0003A932A931A930A9307CF03FF6E6970002C
:10E20000EEF002F1229600CF02FF723EFDF008F11F
:10E210009A938A938F919F91F7CE02FF3E7204F1F9
:10E2200011F19F938F93D7CF02FF72400DF118F138
:10E230009A938A938F919F919F938F93E5CE02FF3C
:10E240003C3E14F100F0F0F329F125F002FF303DDF
:10E250001FF12AF1982BE1F532C002FF303C26F184
:10E2600031F197FD2CC034C002FF303E2DF138F162
:10E27000821593056CF161F122C003FF64303E000A
:10E2800034F142F193153CF0820589919991820510
:10E290009305F1F014C0C101B5CF03FF64303C0019
:10E2A0003DF152F1229697FD0C945FF10C9468F1C8
:10E2B00004FF747275654DF15DF19A938A938FEF47
:10E2C0009FEFA2CE01FF300058F166F19A938A9336
:10E2D000C1019ACE02FF753C62F16EF1299139912C
:10E2E00082179307A8F3A1F3EACF02FF753E6AF104
:10E2F00000F0D5F06DF125F001FF3C0075F180F1E3
:10E3000029913991281739071CF7D9CF01FF3E0011
:10E310007CF18AF12991399128173907CCF2C1F2A1
:10E32000CECF04FF6C6F673286F196F1FC0199271E
:10E3300080E18A9522F0EE0FFF1FD8F765CE9A95FF
:10E3400063CE01FF2D0091F1A5F109911991081BF0
:10E35000190BC80159CE01FF2B00A1F1AFF10991B2
:10E360001991800F911F50CE02FF6D2AABF1B8F1C9
:10E370008C01899199919C0131027001209FC0010B
:10E380003003F308900DE11CF31C1203F308900D09
:10E39000E11CF31C9A938A93C70136CE06FF756D74
:10E3A0002F6D6F64B4F1D4F17C01299139910991F9
:10E3B000199140E15527000F111F221F331F551FD0
:10E3C0002E153F05520518F003952E193F094A9561
:10E3D00089F73A932A93C80117CE03FF756D2A0077
:10E3E000CEF1F2F18C0189919991809FF001222761
:10E3F0003327909FF00D211D331D819FF00D211DAE
:10E40000331D919F200D311DCF019A938A93C9012D
:10E41000FBCD06FF696E76657274EDF10FF28095A3
:10E420009095F2CD02FF322F09F216F2959587955D
:10E43000EBCD02FF322A12F21DF2880F991FE4CDB4
:10E4400003FF616E640019F225F20991199180238E
:10E450009123DACD02FF6F7220F22EF20991199109
:10E46000802B912BD1CD03FF786F72002AF238F206
:10E470000991199180279127C7CD02FF312B33F2E3
:10E4800041F20196C1CD02FF312D3DF247F20197D5
:10E49000BBCD07FF3F6E65676174650043F200F016
:10E4A00030F13EF054F23AF625F006FF6C736869DD
:10E4B000667449F25BF2FC018991999131971AF0E7
:10E4C000880F991FFBCFA0CD06FF72736869667431
:10E4D00055F26AF2FC018991999131971AF096955B
:10E4E0008795FBCF91CD02FF2B2164F277F2FC01DF
:10E4F0008991999120813181820F931F808391832B
:10E500008991999181CD03FF7270400073F288F276
:10E510009A938A938DB79EB777CD03FF72702100CF
:10E5200083F292F22FB7F8948DBF9EBF2FBF8991CF
:10E5300099916ACD03FF737040008DF29FF29A9318
:10E540008A93CE0161CD03FF737021009AF2A8F285
:10E55000EC018991999158CDADF229913991E0E87A
:10E560003E0F821B930B3F932F939F938F93899121
:10E5700099914ACD01FF6900A3F2BEF29A938A9362
:10E580008F919F91EF91FF91FF93EF939F938F93C3
:10E590008E0F9F1F39CDCCF2EF91FF91E80FF91F3D
:10E5A000899199911BF0FF93EF935FCD0F911F918C
:10E5B00011962ACDDBF2EF91FF913196BBF3F3CFA9
:10E5C00006FF756E6C6F6F70BAF2E6F21F910F91D5
:10E5D0001F910F9119CD06FF636D6F76653EE0F2D6
:10E5E000F1F2BF93AF93E991F991A991B991092FF4
:10E5F000082B41F0E80FF91FA80FB91F1E911293C5
:10E600000197E1F7AF91BF9189919991FDCC02FFFC
:10E610003E3CEBF20BF3092F982F802FF5CC03FF34
:10E620007570400007F314F39A938A93C201ECCCFF
:10E6300003FF757021000FF31DF32C01899199914F
:10E64000E3CC03FF323E720018F326F3FC018991FC
:10E6500099919F938F93FF93EF9389919991D4CC44
:10E6600003FF32723E0021F335F39A938A93EF91C0
:10E67000FF918F919F919A938A93CF01C5CC02FF0E
:10E68000216530F343F3FC01899199912FB7F894F8
:10E6900028D000B5081709F00BD0319622D000B56C
:10E6A000091711F0892F04D02FBF89919991ACCC13
:10E6B000F999FECF07B700FDFDCFF2BDE1BD80BDEA
:10E6C000FA9AF99A089502FF40653FF367F32FB76E
:10E6D000F894FC0106D080B5319603D090B52FBFD9
:10E6E00093CCF999FECFF2BDE1BDF89A089502FFEF
:10E6F000216963F329FC7800CAFBD4FB09FF2821B8
:10E70000692D6E727777290077F386F31FB71F9311
:10E71000F8949C0189919991AF93BF93CF93DF9324
:10E7200009D0DF91CF91BF91AF91899199911F91BC
:10E730001FBF6ACC10D0E094F0948E219F21982BBB
:10E7400019F0F90102E023D0F90104E020D0F90129
:10E7500000E11DD00895F901E078FF7FEF01A0E806
:10E76000B0E0FE015527EE0FFF1F551F5BBF47911D
:10E770005791FE01E217F30711F00A0102C07A0176
:10E780000C01002704D02196119759F70895F999A3
:10E79000FECF17B710FDFDCF5527EE0FFF1F551FFA
:10E7A0005BBF016007BFE895089502FF40697EF3F3
:10E7B000D9F3FC015527EE0FFF1F551F5BBF879153
:10E7C000979122CC0800326C69746572616CD5F344
:10E7D00000F0D5F0BD01BD0125F001FF3D00E2F3E1
:10E7E00000F0A4F129F125F001FF3100EDF353F021
:10E7F000010001FF3200F4F353F0020002FF2D315B
:10E80000F9F353F0FFFF03FF6E3E7200FEF308F4CE
:10E81000FC01082F899199919F938F930A95D1F7C5
:10E82000EF93FF9389919991EFCB03FF6E723E00B6
:10E8300003F41AF49A938A93FF91EF910E2F8F911C
:10E840009F919A938A930A95D1F7CF01DDCB03FF6D
:10E8500064322A0015F42CF409911991000F111F4C
:10E86000881F991F1A930A93CFCB03FF64322F009E
:10E8700027F43AF40991199195958795179507957D
:10E880001A930A93C1CB02FF642B35F447F4299104
:10E890003991E990F99049915991240F351F8E1DB6
:10E8A0009F1D3A932A93B0CB02FF642D43F458F492
:10E8B00029913991E990F99049915991421B530B53
:10E8C000E80AF90A5A934A93C7019ECB07FF646985
:10E8D0006E766572740054F46DF409911991809507
:10E8E0009095009510951A930A938ECB02FF752E82
:10E8F00066F400F065F125F725F003FF752E720030
:10E9000076F400F065F1D5F02EF725F00DFF736871
:10E910006F772D776F72646C697374007DF400F00B
:10E9200045F095F4D5F06DFC25F000F088FC9BF7E0
:10E93000DDF75CF125F005FF776F7264730086F4F4
:10E9400000F045F05E0066F38FF425F004FF706977
:10E95000636B9BF400F040F253F59EF2AEF18AF047
:10E9600025F002002E22A6F400F0BCF49C019BF7D7
:10E9700025F002007322B1F400F045F022008CF97A
:10E9800046F58AF03EF0C5F4C80125F004FF66693B
:10E990006C6CB9F400F0F2F0F2F0CAF03EF0D7F48B
:10E9A00085FDACF2C2F0BDF29EF0DAF2D2F4EAF0EC
:10E9B00025F00BFF656E7669726F6E6D656E740083
:10E9C000C6F453F0560009FF776F72646C69737474
:10E9D0007300000000F045F0080025F004FF2F70E0
:10E9E0006164E3F400F09EF27FF5A4F125F005FFE9
:10E9F0002F686F6C6400EEF400F07FF5BAF5A4F1B7
:10EA000025F00AFF666F7274682D6E616D65F7F40C
:10EA100000F068F70700616D666F7274680025F09A
:10EA200007FF76657273696F6E0001F500F045F0BF
:10EA3000450025F003FF6370750010F500F045F008
:10EA40004900C7F725F008FF6D63752D696E666F85
:10EA50001AF500F045F0450025F005FF2F757365A8
:10EA6000720023F500F045F02E0025F005FF665FEB
:10EA700063707500D9F400F045F0001245F07A009B
:10EA800025F005FF73746174650036F553F03D01A0
:10EA900004FF6261736541F566F00C0005FF636574
:10EAA0006C6C730048F51DF205FF63656C6C2B0000
:10EAB0004EF55AF50296A8CA04FF3264757054F5F3
:10EAC00000F0E0F0E0F025F005FF3264726F7000B6
:10EAD0005CF500F0EAF0EAF025F004FF7475636B72
:10EAE00064F500F0D5F0E0F025F003FF3E696E001C
:10EAF0006DF566F0180003FF7061640075F500F0B5
:10EB0000BAF545F02800AEF125F004FF656D697493
:10EB10007BF529FC0E00F2FBFEFB05FF656D6974B9
:10EB20003F0085F529FC1000F2FBFEFB03FF6B653F
:10EB300079008DF529FC1200F2FBFEFB04FF6B65EA
:10EB4000793F96F529FC1400F2FBFEFB02FF64708E
:10EB50009EF580F04800CAFBD4FB05FF656865722E
:10EB60006500A6F580F04C00CAFBD4FB04FF686585
:10EB70007265ADF580F04A00CAFBD4FB05FF616CFD
:10EB80006C6F7400B6F500F0BAF5AEF1AFFBBBF5F3
:10EB900025F003FF62696E00BEF500F0FCF34CF552
:10EBA00092F025F007FF646563696D616C00C9F53B
:10EBB00000F045F00A004CF592F025F003FF68657F
:10EBC0007800D2F500F045F010004CF592F025F0F9
:10EBD00002FF626CDEF553F0200007FF7475726E61
:10EBE0006B657900E8F529FC5400CAFBD4FB04FFEF
:10EBF0002F6D6F64EDF5FCF59C0109911991412F82
:10EC0000432717FF04C0109500950F5F1F4F37FF74
:10EC100004C0309520952F5F3F4FEE24FF1851E13F
:10EC2000001F111F5A9539F447FF04C01095009535
:10EC30000F5F1F4F0BC0EE1CFF1CE21AF30A20F4FB
:10EC4000E20EF31E8894ECCF0894EACFFA92EA928F
:10EC5000C801DAC905FF752F6D6F6400F7F500F084
:10EC600010F165F107F1D3F125F006FF6E656761DC
:10EC700074652AF600F00EF240F225F001FF2F0035
:10EC800035F600F0FBF501F125F003FF6D6F640030
:10EC90003EF600F0FBF5EAF025F003FF6162730039
:10ECA00045F600F0C2F04FF225F003FF6D696E00EB
:10ECB0004DF600F060F589F13EF05FF6D5F0EAF030
:10ECC00025F003FF6D61780055F600F060F57FF1E7
:10ECD0003EF06BF6D5F0EAF025F006FF7769746830
:10ECE000696E61F600F0E0F0A4F110F1A4F107F113
:10ECF0006DF125F007FF746F7570706572006DF629
:10ED000000F0C2F045F0610045F07B0072F63EF085
:10ED10008CF645F0DF0024F225F007FF746F6C6F6E
:10ED2000776572007AF600F0C2F045F0410045F0D8
:10ED30005B0072F63EF09FF645F020002DF225F0C4
:10ED400003FF686C64008DF653F03F0104FF686FA9
:10ED50006C64A0F600F0A4F6C2F08AF046F2C2F0AD
:10ED600010F1D5F092F007F19EF025F002FF3C2360
:10ED7000A6F600F07FF5A4F692F025F001FF23003F
:10ED8000B6F600F04CF58AF03EF7F2F045F00900D7
:10ED9000E0F07FF13EF0CFF645F00700AEF145F030
:10EDA0003000AEF1AAF625F002FF2373BEF600F0A4
:10EDB000C1F660F52DF229F13EF0D8F625F002FFFC
:10EDC000233ED4F600F069F5A4F68AF07FF5E0F072
:10EDD000A4F125F004FF7369676EDFF600F030F1EF
:10EDE0003EF0F5F645F02D00AAF625F003FF642E5F
:10EDF0007200EAF600F010F171F5FBFCB9F6D7F6F7
:10EE0000F2F0EEF6E2F607F1E0F0A4F1E6F7F6F73D
:10EE100025F002FF2E72F6F600F010F18EFD07F1DC
:10EE2000FAF625F002FF642E09F700F065F1FAF614
:10EE3000DDF725F001FF2E0012F700F08EFD15F72B
:10EE400025F003FF75642E001AF700F065F12EF728
:10EE5000DDF725F004FF75642E7221F700F010F144
:10EE6000B9F6D7F6E2F607F1E0F0A4F1E6F7F6F727
:10EE700025F006FF75642F6D6F642AF700F010F11E
:10EE800065F117F1D3F107F1D5F010F1D3F107F1E6
:10EE900025F006FF64696769743F39F700F080F672
:10EEA000C2F045F0390089F145F0000124F2AEF1DD
:10EEB000C2F045F0400189F145F0070124F2A4F1C8
:10EEC00045F03000A4F1C2F04CF58AF06DF125F068
:10EED00000F017F1C7F707F1E0F040F215F2AEF1DC
:10EEE00040F210F125F002FF732C49F700F0C2F058
:10EEF0007AF725F000F0A701C2F015F271F51CF2C7
:10EF0000A4F110F165F166023EF08DF7ACF2C2F0AB
:10EF10008AF0A70159F5DAF287F707F137F13EF0E9
:10EF200094F7C2F0A9F0A701EAF025F005FF697493
:10EF30007970650073F700F0C2F015F271F51CF2FC
:10EF4000A4F110F165F166023EF0AFF7ACF2C2F049
:10EF5000D8F3C2F0BCF7B8F740F2DAF2A7F707F13E
:10EF600037F13EF0B6F7C2F0D8F3BCF7EAF025F07F
:10EF700000F00AF3BCF725F000F045F0FF0024F2A2
:10EF800089F525F006FF69636F756E7496F700F0DA
:10EF9000C2F040F2D5F0D8F325F002FF6372C2F759
:10EFA00000F045F00D0089F545F00A0089F525F0DF
:10EFB00005FF737061636500CDF700F0EBF589F52F
:10EFC00025F006FF737061636573D8F700F065F193
:10EFD00065F6C2F03EF0F0F7DDF746F234F0E9F7FF
:10EFE000EAF025F004FF74797065E1F700F085FD23
:10EFF00066023EF001F8ACF2BDF2A9F089F5DAF252
:10F00000FCF725F001FF2700F2F700F0B9F9D9FA73
:10F01000E4FAC2F060FBF0F3D5F0D8F345F095FBCD
:10F02000F0F32DF23EF017F845F0F3FF3CF8EAF06C
:10F0300025F007FF68616E646C65720002F866F087
:10F040000A0005FF63617463680019F800F09EF21E
:10F0500010F11FF88AF010F187F21FF892F02FF0EC
:10F0600007F11FF892F007F1EAF065F125F005FFCE
:10F070007468726F770021F800F0CAF03EF04CF827
:10F080001FF88AF091F207F11FF892F007F1D5F01E
:10F0900010F1A7F2EAF007F125F005FF63736B6941
:10F0A000700037F800F010F1C2F03EF061F8E0F0C7
:10F0B000A9F017F1F0F33EF061F8F7F3AAF934F094
:10F0C00054F807F1EAF025F005FF637363616E0001
:10F0D0004DF800F010F1E0F0C2F0A9F017F1F0F3F4
:10F0E00029F13EF07EF8D5F046F2D5F0E0F030F1AF
:10F0F00029F13EF07EF840F234F06CF801F1E0F0D6
:10F10000A4F107F1EAF025F006FF6163636570740E
:10F1100064F800F0E0F0AEF1E0F09AF5C2F0D2F859
:10F1200029F13EF0C5F8C2F045F00800F0F33EF0DA
:10F13000ABF8EAF0F2F060F589F110F1F2F0F2F0DC
:10F1400007F13EF0A9F8CAF846F210F1E0F007F135
:10F15000230134F0C3F8C2F0EBF57FF13EF0B2F8D2
:10F16000EAF0EBF510F160F589F107F1D5F03EF02A
:10F17000C2F8C2F089F5E0F09EF040F2E0F02F0115
:10F1800034F0C3F8EAF034F08DF8EAF001F1D5F08C
:10F19000A4F125F000F045F00800C2F089F5DDF794
:10F1A00089F525F000F0C2F045F00D00F0F3D5F040
:10F1B00045F00A00F0F32DF225F006FF726566694E
:10F1C0006C6C84F829FC1A00F2FBFEFB04FF6368F8
:10F1D0006172DDF800F0B9F929F13EF0F2F845F07E
:10F1E000F0FF3CF8A9F025F006FF6E756D626572C0
:10F1F000E6F800F04CF58AF010F13DF910F150F905
:10F200003DF907F12DF210F1C2F029F13EF010F9AD
:10F2100069F507F1EAF007F14CF592F065F125F098
:10F2200025F365F165F134F36EF9CAF03EF032F979
:10F23000F7F3F0F33EF029F9A9F045F02E00F0F3D2
:10F240003EF02AF907F13EF026F908FDFCF334F010
:10F2500038F9EAF069F507F1EAF007F14CF592F0B8
:10F2600065F125F069F507F13EF037F93AF6F7F365
:10F2700007F14CF592F05CF125F000F0E0F0A9F018
:10F2800045F02D00F0F3C2F010F13EF049F9F7F32C
:10F29000AAF907F125F060F00A00100002000A0048
:10F2A00000F0E0F0A9F045F02300A4F1C2F065F110
:10F2B00045F0040072F63EF066F94BF9AEF1D8F372
:10F2C0004CF592F0F7F3AAF934F067F9EAF025F07B
:10F2D00007FF3E6E756D62657200F4F800F0C2F0D3
:10F2E0003EF086F9E0F0A9F04EF729F13EF07AF908
:10F2F000EAF025F010F12CFD4CF58AF0140107F12D
:10F300000C012CFDF7F3AAF934F06FF925F005FF95
:10F3100070617273650068F900F010F1A0F979F579
:10F320008AF0AAF907F169F8C2F040F279F576F2AD
:10F33000F7F3AAF925F006FF736F7572636587F915
:10F3400029FC1600F2FBFEFB07FF2F737472696E37
:10F3500067009BF900F0F2F0E0F0AEF1F2F0F2F0AD
:10F36000A4F125F00AFF70617273652D6E616D6501
:10F37000A4F900F0EBF5BDF925F000F010F1A0F9CB
:10F3800079F58AF0AAF917F152F807F169F860F5F2
:10F39000AEF1A0F9EAF0A4F179F592F025F007FFBB
:10F3A00066696E642D787400B2F900F045F0E1F9F9
:10F3B00045F05C00E70329F13EF0E0F969F565F1FD
:10F3C00025F000F010F160F507F13BFCC2F03EF0D3
:10F3D000EEF910F101F101F107F15CF125F000F017
:10F3E00068F70300206F6B009BF725F003FF2E6F7B
:10F3F0006B00CFF929FC1C00F2FBFEFB00F068F764
:10F4000002003E20D0F79BF725F006FF2E726561C3
:10F410006479F6F929FC2000F2FBFEFB00F068F7A6
:10F420000400203F3F209BF74CF58AF010F1D8F5FF
:10F430001DF779F58AF01DF707F14CF592F025F0EC
:10F4400006FF2E6572726F7205FA29FC1E00F2FB30
:10F45000FEFB00F0D0F725F006FF2E696E70757484
:10F4600020FA29FC2200F2FBFEFB04FF717569748F
:10F470002CFA00F09C02A30292F09BFAA7F2A3FAE6
:10F4800091F2310346F58AF029F13EF048FA0AFA82
:10F49000E2F831FA3EF05BFA45F0BCFA26F8CAF021
:10F4A0003EF05BFAC2F045F0FEFF7FF13EF059FA04
:10F4B00025FA34F03AFAFAF934F042FA05FF7061AD
:10F4C0007573650035FA29FC4101DEFBE8FB04FF9A
:10F4D000636F6C645EFA6CFAA4B622243324BB24F6
:10F4E00024BEE0E0F1E02192E030E9F7F134D9F711
:10F4F000E3E4F1E02F010FEF0DBF048310E41EBF22
:10F500001583CFEAC683D0E4D783AEE8BAEF0C9474
:10F5100004F004FF7761726D67FA00F077FD45F043
:10F5200095FB45F063FA09FC3103F3F539FA03FF63
:10F530007370300089FA80F00600F2FBFEFB03FFD7
:10F540007270300097FA00F0A7FA8AF025F066F0A2
:10F55000040005FF6465707468009FFA00F09BFA70
:10F560009EF2A4F115F246F225F009FF696E74656A
:10F57000727072657400A9FA00F0B9F9C2F03EF039
:10F58000CDFAD9FAE4FA46F58AF03EF0C8FAC1FBA2
:10F59000D8F32FF06DFB34F0BDFA69F525F010FFBC
:10F5A000666F7274682D7265636F676E697A6572D3
:10F5B000B5FA80F05000CAFBD4FB09FF7265636F97
:10F5C000676E697A6500CFFA00F045F0EFFAD5F082
:10F5D000E70329F13EF0EEFA69F560FB25F000F053
:10F5E000F2F0F2F060F525F3F2F02FF034F3F2F0E0
:10F5F000C2F060FBF0F33EF000FBEAF065F125F0AD
:10F6000001F101F15CF125F00BFF72656374797013
:10F61000652D6E756D00DDFA60F095FBBD01BD01D5
:10F620000CFF726563747970652D646E756D04FBF3
:10F6300060F095FBE8F3E8F307FF7265632D6E75E4
:10F640006D0010FB00F0F9F83EF02EFBF7F3F0F33D
:10F650003EF02CFB0CFB25F018FB25F060FB25F0A1
:10F6600008FF7265632D66696E641CFB00F0D5F9B6
:10F67000C2F029F13EF03FFBEAF060FB25F048FBC9
:10F6800025F00AFF726563747970652D787430FB1C
:10F6900060F04CFB50FBE8F300F0EAF02FF025F0AF
:10F6A00000F030F13EF056FBA70125F02FF025F0D9
:10F6B0000CFF726563747970652D6E756C6C41FB1F
:10F6C00060F064FB64FB64FB00F045F0F3FF3CF882
:10F6D00006FF3F737461636B58FB00F0AEFA30F1C4
:10F6E0003EF075FB45F0FCFF3CF825F003FF766526
:10F6F000720068FB00F008F59BF7DDF74CF58AF027
:10F7000016F5D8F58EFDB9F6C1F645F02E00AAF62D
:10F71000D7F6E2F6F6F74CF592F0DDF71EF59BF71B
:10F7200025F004FF6E6F6F7076FB00F025F006FF8A
:10F73000756E7573656491FB00F09EF2BAF5A4F1E5
:10F7400025F00200746F97FB00F005F897FD46F571
:10F750008AF03EF0B5FB9C01AFFBA70125F000F05D
:10F7600007F1C2F0C1FB10F1D8F3C2F0C1FBC1FB3D
:10F77000D8F32FF025F007FF692D63656C6C2B0023
:10F78000A1FB00F040F225F007FF45646566657255
:10F790004000BBFB00F0D8F366F325F007FF45649B
:10F7A000656665722100C4FB00F0D8F342F325F0D2
:10F7B00007FF5264656665724000CEFB00F0D8F327
:10F7C0008AF025F007FF5264656665722100D8FB58
:10F7D00000F0D8F392F025F007FF55646566657276
:10F7E0004000E2FB00F0D8F313F3AEF18AF025F00D
:10F7F00007FF5564656665722100ECFB00F0D8F3E5
:10F8000013F3AEF192F025F006FF64656665722190
:10F81000F8FB00F097FDC2F0C1FBC1FBD8F32FF05D
:10F8200025F006FF64656665724004FC00F097FDF4
:10F83000C2F0C1FBD8F32FF025F007FF28646566FE
:10F840006572290011FC00F06E01D9029C0129FCAF
:10F8500025F00E94F202C2F0C1FBD8F32FF02FF086
:10F8600025F00FFF7365617263682D776F72646CAA
:10F87000697374001DFC00F010F165F145F050FC57
:10F8800007F16DFCC2F029F13EF04AFC69F5EAF09F
:10F8900065F125F0C2F094FCD5F04901370125F05F
:10F8A00000F010F1EAF060F517F188FC9EFC3EF0E4
:10F8B0005EFC07F1EAF065F15CF125F069F507F10E
:10F8C00065F125F011FF74726176657273652D77AD
:10F8D0006F72646C6973740031FC00F066F3C2F0FF
:10F8E0003EF07EFC60F525F3D5F02FF034F3F2F016
:10F8F0003EF07EFC5204D8F334F06FFC69F525F03D
:10F900000BFF6E616D653E737472696E670062FC19
:10F9100000F0C7F745F0FF0024F225F007FF6E6600
:10F92000613E6366610080FC00F0520440F225F005
:10F9300008FF69636F6D706172658EFC00F010F1F5
:10F94000E0F007F122F13EF0A9FC69F5EAF05CF184
:10F9500025F0D5F065F166023EF0CEFCACF2E0F0A9
:10F960008AF0D1FCE0F0D8F3D1FCC2F045F0000100
:10F970006DF13EF0BFFCD5F045F0FF0024F222F11E
:10F980003EF0C6FC69F55CF1E5F225F040F2D5F0F9
:10F9900059F5D5F045F00200CBF2AFFC69F565F101
:10F9A00025F000F0C2F045F0FF0024F293F6D5F008
:10F9B0000AF345F0FF0024F293F60AF32DF225F046
:10F9C00001FF2A0098FC00F0B7F1EAF025F001FFF2
:10F9D0006A00E0FC00F087F245F00700AEF18AF023
:10F9E00087F245F00900AEF18AF0AEF125F004FF90
:10F9F00064616273E7FC00F0C2F030F13EF001FD9B
:10FA000008FD25F007FF646E656761746500F7FC0B
:10FA100000F06CF4F7F365F146F425F005FF636D33
:10FA20006F76650002FD14FDBF93AF93E991F991E4
:10FA3000A991B991092F082B21F01D9111930197DC
:10FA4000E1F7AF91BF91899199910C9404F005FF72
:10FA50003273776170000EFD00F0F2F010F1F2F0F9
:10FA600007F125F00AFF726566696C6C2D74696296
:10FA700027FD00F055FD45F05A0089F85BFD92F036
:10FA800065F179F592F05CF125F00AFF736F7572FC
:10FA900063652D74696232FD00F055FD5BFD8AF0EF
:10FAA00025F003FF7469620045FD53F0710104FF06
:10FAB0002374696251FD53F0CB0106FF65653E7208
:10FAC000616D57FD00F065F1ACF2E0F066F3E0F037
:10FAD00092F059F5D5F059F5D5F0DAF265FD69F5F2
:10FAE00025F008FF696E69742D72616D5DFD00F08F
:10FAF00045F07C0013F345F0240015F262FD25F07B
:10FB000006FF626F756E647371FD00F0E0F0AEF198
:10FB1000D5F025F003FF733E640080FD00F0C2F0D5
:10FB200030F125F005FF3E626F6479008AFD41F2F5
:10FB300006FF6972715B5D2392FD00F045F01201D2
:10FB4000AEF125F004FF23696E7498FD53F0230095
:10FB500004FF2B696E74A2FDADFD78940C9404F043
:10FB600004FF2D696E74A8FDB5FDF8940C9404F0A3
:10FB700004FF696E7421B0FD00F045F00000AEF1A5
:10FB800042F325F004FF696E7440B8FD00F045F0C3
:10FB90000000AEF166F325F008FF696E742D7472F3
:10FBA0006170C2FDD3FDB82E899199910C9404F037
:10FBB00000F0C6FD2FF0DDFD25F0DEFD02D00C9437
:04FBC00004F01895A0
:00000001FF
